{
	"contracts/Eco.sol": {
		"EcoCoinController": {
			"abi": [
				{
					"inputs": [
						{
							"internalType": "address",
							"name": "_ecoCoin",
							"type": "address"
						},
						{
							"internalType": "address",
							"name": "_ethPriceFeed",
							"type": "address"
						},
						{
							"internalType": "address",
							"name": "initialOwner",
							"type": "address"
						}
					],
					"stateMutability": "nonpayable",
					"type": "constructor"
				},
				{
					"inputs": [
						{
							"internalType": "address",
							"name": "owner",
							"type": "address"
						}
					],
					"name": "OwnableInvalidOwner",
					"type": "error"
				},
				{
					"inputs": [
						{
							"internalType": "address",
							"name": "account",
							"type": "address"
						}
					],
					"name": "OwnableUnauthorizedAccount",
					"type": "error"
				},
				{
					"anonymous": false,
					"inputs": [
						{
							"indexed": true,
							"internalType": "address",
							"name": "previousOwner",
							"type": "address"
						},
						{
							"indexed": true,
							"internalType": "address",
							"name": "newOwner",
							"type": "address"
						}
					],
					"name": "OwnershipTransferred",
					"type": "event"
				},
				{
					"anonymous": false,
					"inputs": [
						{
							"indexed": false,
							"internalType": "uint256",
							"name": "prevSupply",
							"type": "uint256"
						},
						{
							"indexed": false,
							"internalType": "uint256",
							"name": "newSupply",
							"type": "uint256"
						}
					],
					"name": "Rebase",
					"type": "event"
				},
				{
					"inputs": [],
					"name": "ecoCoin",
					"outputs": [
						{
							"internalType": "contract EcoCoin",
							"name": "",
							"type": "address"
						}
					],
					"stateMutability": "view",
					"type": "function"
				},
				{
					"inputs": [],
					"name": "ethPriceFeed",
					"outputs": [
						{
							"internalType": "contract AggregatorV3Interface",
							"name": "",
							"type": "address"
						}
					],
					"stateMutability": "view",
					"type": "function"
				},
				{
					"inputs": [],
					"name": "lastRebaseTimestamp",
					"outputs": [
						{
							"internalType": "uint256",
							"name": "",
							"type": "uint256"
						}
					],
					"stateMutability": "view",
					"type": "function"
				},
				{
					"inputs": [],
					"name": "owner",
					"outputs": [
						{
							"internalType": "address",
							"name": "",
							"type": "address"
						}
					],
					"stateMutability": "view",
					"type": "function"
				},
				{
					"inputs": [],
					"name": "rebase",
					"outputs": [],
					"stateMutability": "nonpayable",
					"type": "function"
				},
				{
					"inputs": [],
					"name": "renounceOwnership",
					"outputs": [],
					"stateMutability": "nonpayable",
					"type": "function"
				},
				{
					"inputs": [
						{
							"internalType": "address",
							"name": "newOwner",
							"type": "address"
						}
					],
					"name": "transferOwnership",
					"outputs": [],
					"stateMutability": "nonpayable",
					"type": "function"
				}
			],
			"devdoc": {
				"errors": {
					"OwnableInvalidOwner(address)": [
						{
							"details": "The owner is not a valid owner account. (eg. `address(0)`)"
						}
					],
					"OwnableUnauthorizedAccount(address)": [
						{
							"details": "The caller account is not authorized to perform an operation."
						}
					]
				},
				"kind": "dev",
				"methods": {
					"owner()": {
						"details": "Returns the address of the current owner."
					},
					"renounceOwnership()": {
						"details": "Leaves the contract without owner. It will not be possible to call `onlyOwner` functions. Can only be called by the current owner. NOTE: Renouncing ownership will leave the contract without an owner, thereby disabling any functionality that is only available to the owner."
					},
					"transferOwnership(address)": {
						"details": "Transfers ownership of the contract to a new account (`newOwner`). Can only be called by the current owner."
					}
				},
				"version": 1
			},
			"evm": {
				"assembly": "    /* \"contracts/Eco.sol\":1346:2699  contract EcoCoinController is Ownable {... */\n  mstore(0x40, 0x80)\n    /* \"contracts/Eco.sol\":1506:1855  constructor(address _ecoCoin, address _ethPriceFeed, address initialOwner) Ownable(initialOwner) {... */\n  callvalue\n  dup1\n  iszero\n  tag_1\n  jumpi\n  0x00\n  dup1\n  revert\ntag_1:\n  pop\n  mload(0x40)\n  sub(codesize, bytecodeSize)\n  dup1\n  bytecodeSize\n  dup4\n  codecopy\n  dup2\n  dup2\n  add\n  0x40\n  mstore\n  dup2\n  add\n  swap1\n  tag_2\n  swap2\n  swap1\n  tag_3\n  jump\t// in\ntag_2:\n    /* \"contracts/Eco.sol\":1589:1601  initialOwner */\n  dup1\n    /* \"@openzeppelin/contracts/access/Ownable.sol\":1297:1298  0 */\n  0x00\n    /* \"@openzeppelin/contracts/access/Ownable.sol\":1273:1299  initialOwner == address(0) */\n  0xffffffffffffffffffffffffffffffffffffffff\n  and\n    /* \"@openzeppelin/contracts/access/Ownable.sol\":1273:1285  initialOwner */\n  dup2\n    /* \"@openzeppelin/contracts/access/Ownable.sol\":1273:1299  initialOwner == address(0) */\n  0xffffffffffffffffffffffffffffffffffffffff\n  and\n  sub\n    /* \"@openzeppelin/contracts/access/Ownable.sol\":1269:1364  if (initialOwner == address(0)) {... */\n  tag_7\n  jumpi\n    /* \"@openzeppelin/contracts/access/Ownable.sol\":1350:1351  0 */\n  0x00\n    /* \"@openzeppelin/contracts/access/Ownable.sol\":1322:1353  OwnableInvalidOwner(address(0)) */\n  mload(0x40)\n  0x1e4fbdf700000000000000000000000000000000000000000000000000000000\n  dup2\n  mstore\n  0x04\n  add\n  tag_8\n  swap2\n  swap1\n  tag_9\n  jump\t// in\ntag_8:\n  mload(0x40)\n  dup1\n  swap2\n  sub\n  swap1\n  revert\n    /* \"@openzeppelin/contracts/access/Ownable.sol\":1269:1364  if (initialOwner == address(0)) {... */\ntag_7:\n    /* \"@openzeppelin/contracts/access/Ownable.sol\":1373:1405  _transferOwnership(initialOwner) */\n  tag_10\n    /* \"@openzeppelin/contracts/access/Ownable.sol\":1392:1404  initialOwner */\n  dup2\n    /* \"@openzeppelin/contracts/access/Ownable.sol\":1373:1391  _transferOwnership */\n  shl(0x20, tag_11)\n    /* \"@openzeppelin/contracts/access/Ownable.sol\":1373:1405  _transferOwnership(initialOwner) */\n  0x20\n  shr\n  jump\t// in\ntag_10:\n    /* \"@openzeppelin/contracts/access/Ownable.sol\":1225:1412  constructor(address initialOwner) {... */\n  pop\n    /* \"contracts/Eco.sol\":1631:1639  _ecoCoin */\n  dup3\n    /* \"contracts/Eco.sol\":1613:1620  ecoCoin */\n  0x01\n  0x00\n    /* \"contracts/Eco.sol\":1613:1640  ecoCoin = EcoCoin(_ecoCoin) */\n  0x0100\n  exp\n  dup2\n  sload\n  dup2\n  0xffffffffffffffffffffffffffffffffffffffff\n  mul\n  not\n  and\n  swap1\n  dup4\n  0xffffffffffffffffffffffffffffffffffffffff\n  and\n  mul\n  or\n  swap1\n  sstore\n  pop\n    /* \"contracts/Eco.sol\":1687:1700  _ethPriceFeed */\n  dup2\n    /* \"contracts/Eco.sol\":1650:1662  ethPriceFeed */\n  0x02\n  0x00\n    /* \"contracts/Eco.sol\":1650:1701  ethPriceFeed = AggregatorV3Interface(_ethPriceFeed) */\n  0x0100\n  exp\n  dup2\n  sload\n  dup2\n  0xffffffffffffffffffffffffffffffffffffffff\n  mul\n  not\n  and\n  swap1\n  dup4\n  0xffffffffffffffffffffffffffffffffffffffff\n  and\n  mul\n  or\n  swap1\n  sstore\n  pop\n    /* \"contracts/Eco.sol\":1711:1718  ecoCoin */\n  0x01\n  0x00\n  swap1\n  sload\n  swap1\n  0x0100\n  exp\n  swap1\n  div\n  0xffffffffffffffffffffffffffffffffffffffff\n  and\n    /* \"contracts/Eco.sol\":1711:1733  ecoCoin.setTotalSupply */\n  0xffffffffffffffffffffffffffffffffffffffff\n  and\n  0xf7ea7a3d\n    /* \"contracts/Eco.sol\":1747:1754  ecoCoin */\n  0x01\n  0x00\n  swap1\n  sload\n  swap1\n  0x0100\n  exp\n  swap1\n  div\n  0xffffffffffffffffffffffffffffffffffffffff\n  and\n    /* \"contracts/Eco.sol\":1747:1763  ecoCoin.decimals */\n  0xffffffffffffffffffffffffffffffffffffffff\n  and\n  0x313ce567\n    /* \"contracts/Eco.sol\":1747:1765  ecoCoin.decimals() */\n  mload(0x40)\n  dup2\n  0xffffffff\n  and\n  0xe0\n  shl\n  dup2\n  mstore\n  0x04\n  add\n  0x20\n  mload(0x40)\n  dup1\n  dup4\n  sub\n  dup2\n  dup7\n  gas\n  staticcall\n  iszero\n  dup1\n  iszero\n  tag_14\n  jumpi\n  returndatasize\n  0x00\n  dup1\n  returndatacopy\n  revert(0x00, returndatasize)\ntag_14:\n  pop\n  pop\n  pop\n  pop\n  mload(0x40)\n  returndatasize\n  not(0x1f)\n  0x1f\n  dup3\n  add\n  and\n  dup3\n  add\n  dup1\n  0x40\n  mstore\n  pop\n  dup2\n  add\n  swap1\n  tag_15\n  swap2\n  swap1\n  tag_16\n  jump\t// in\ntag_15:\n    /* \"contracts/Eco.sol\":1743:1745  10 */\n  0x0a\n    /* \"contracts/Eco.sol\":1743:1765  10**ecoCoin.decimals() */\n  tag_17\n  swap2\n  swap1\n  tag_18\n  jump\t// in\ntag_17:\n    /* \"contracts/Eco.sol\":1734:1740  100000 */\n  0x0186a0\n    /* \"contracts/Eco.sol\":1734:1765  100000 * 10**ecoCoin.decimals() */\n  tag_19\n  swap2\n  swap1\n  tag_20\n  jump\t// in\ntag_19:\n    /* \"contracts/Eco.sol\":1711:1766  ecoCoin.setTotalSupply(100000 * 10**ecoCoin.decimals()) */\n  mload(0x40)\n  dup3\n  0xffffffff\n  and\n  0xe0\n  shl\n  dup2\n  mstore\n  0x04\n  add\n  tag_21\n  swap2\n  swap1\n  tag_22\n  jump\t// in\ntag_21:\n  0x00\n  mload(0x40)\n  dup1\n  dup4\n  sub\n  dup2\n  0x00\n  dup8\n  dup1\n  extcodesize\n  iszero\n  dup1\n  iszero\n  tag_23\n  jumpi\n  0x00\n  dup1\n  revert\ntag_23:\n  pop\n  gas\n  call\n  iszero\n  dup1\n  iszero\n  tag_25\n  jumpi\n  returndatasize\n  0x00\n  dup1\n  returndatacopy\n  revert(0x00, returndatasize)\ntag_25:\n  pop\n  pop\n  pop\n  pop\n    /* \"contracts/Eco.sol\":1833:1848  block.timestamp */\n  timestamp\n    /* \"contracts/Eco.sol\":1811:1830  lastRebaseTimestamp */\n  0x03\n    /* \"contracts/Eco.sol\":1811:1848  lastRebaseTimestamp = block.timestamp */\n  dup2\n  swap1\n  sstore\n  pop\n    /* \"contracts/Eco.sol\":1506:1855  constructor(address _ecoCoin, address _ethPriceFeed, address initialOwner) Ownable(initialOwner) {... */\n  pop\n  pop\n  pop\n    /* \"contracts/Eco.sol\":1346:2699  contract EcoCoinController is Ownable {... */\n  jump(tag_26)\n    /* \"@openzeppelin/contracts/access/Ownable.sol\":2912:3099  function _transferOwnership(address newOwner) internal virtual {... */\ntag_11:\n    /* \"@openzeppelin/contracts/access/Ownable.sol\":2985:3001  address oldOwner */\n  0x00\n    /* \"@openzeppelin/contracts/access/Ownable.sol\":3004:3010  _owner */\n  dup1\n  0x00\n  swap1\n  sload\n  swap1\n  0x0100\n  exp\n  swap1\n  div\n  0xffffffffffffffffffffffffffffffffffffffff\n  and\n    /* \"@openzeppelin/contracts/access/Ownable.sol\":2985:3010  address oldOwner = _owner */\n  swap1\n  pop\n    /* \"@openzeppelin/contracts/access/Ownable.sol\":3029:3037  newOwner */\n  dup2\n    /* \"@openzeppelin/contracts/access/Ownable.sol\":3020:3026  _owner */\n  0x00\n  dup1\n    /* \"@openzeppelin/contracts/access/Ownable.sol\":3020:3037  _owner = newOwner */\n  0x0100\n  exp\n  dup2\n  sload\n  dup2\n  0xffffffffffffffffffffffffffffffffffffffff\n  mul\n  not\n  and\n  swap1\n  dup4\n  0xffffffffffffffffffffffffffffffffffffffff\n  and\n  mul\n  or\n  swap1\n  sstore\n  pop\n    /* \"@openzeppelin/contracts/access/Ownable.sol\":3083:3091  newOwner */\n  dup2\n    /* \"@openzeppelin/contracts/access/Ownable.sol\":3052:3092  OwnershipTransferred(oldOwner, newOwner) */\n  0xffffffffffffffffffffffffffffffffffffffff\n  and\n    /* \"@openzeppelin/contracts/access/Ownable.sol\":3073:3081  oldOwner */\n  dup2\n    /* \"@openzeppelin/contracts/access/Ownable.sol\":3052:3092  OwnershipTransferred(oldOwner, newOwner) */\n  0xffffffffffffffffffffffffffffffffffffffff\n  and\n  0x8be0079c531659141344cd1fd0a4f28419497f9722a3daafe3b4186f6b6457e0\n  mload(0x40)\n  mload(0x40)\n  dup1\n  swap2\n  sub\n  swap1\n  log3\n    /* \"@openzeppelin/contracts/access/Ownable.sol\":2975:3099  {... */\n  pop\n    /* \"@openzeppelin/contracts/access/Ownable.sol\":2912:3099  function _transferOwnership(address newOwner) internal virtual {... */\n  pop\n  jump\t// out\n    /* \"#utility.yul\":88:205   */\ntag_29:\n    /* \"#utility.yul\":197:198   */\n  0x00\n    /* \"#utility.yul\":194:195   */\n  dup1\n    /* \"#utility.yul\":187:199   */\n  revert\n    /* \"#utility.yul\":334:460   */\ntag_31:\n    /* \"#utility.yul\":371:378   */\n  0x00\n    /* \"#utility.yul\":411:453   */\n  0xffffffffffffffffffffffffffffffffffffffff\n    /* \"#utility.yul\":404:409   */\n  dup3\n    /* \"#utility.yul\":400:454   */\n  and\n    /* \"#utility.yul\":389:454   */\n  swap1\n  pop\n    /* \"#utility.yul\":334:460   */\n  swap2\n  swap1\n  pop\n  jump\t// out\n    /* \"#utility.yul\":466:562   */\ntag_32:\n    /* \"#utility.yul\":503:510   */\n  0x00\n    /* \"#utility.yul\":532:556   */\n  tag_51\n    /* \"#utility.yul\":550:555   */\n  dup3\n    /* \"#utility.yul\":532:556   */\n  tag_31\n  jump\t// in\ntag_51:\n    /* \"#utility.yul\":521:556   */\n  swap1\n  pop\n    /* \"#utility.yul\":466:562   */\n  swap2\n  swap1\n  pop\n  jump\t// out\n    /* \"#utility.yul\":568:690   */\ntag_33:\n    /* \"#utility.yul\":641:665   */\n  tag_53\n    /* \"#utility.yul\":659:664   */\n  dup2\n    /* \"#utility.yul\":641:665   */\n  tag_32\n  jump\t// in\ntag_53:\n    /* \"#utility.yul\":634:639   */\n  dup2\n    /* \"#utility.yul\":631:666   */\n  eq\n    /* \"#utility.yul\":621:684   */\n  tag_54\n  jumpi\n    /* \"#utility.yul\":680:681   */\n  0x00\n    /* \"#utility.yul\":677:678   */\n  dup1\n    /* \"#utility.yul\":670:682   */\n  revert\n    /* \"#utility.yul\":621:684   */\ntag_54:\n    /* \"#utility.yul\":568:690   */\n  pop\n  jump\t// out\n    /* \"#utility.yul\":696:839   */\ntag_34:\n    /* \"#utility.yul\":753:758   */\n  0x00\n    /* \"#utility.yul\":784:790   */\n  dup2\n    /* \"#utility.yul\":778:791   */\n  mload\n    /* \"#utility.yul\":769:791   */\n  swap1\n  pop\n    /* \"#utility.yul\":800:833   */\n  tag_56\n    /* \"#utility.yul\":827:832   */\n  dup2\n    /* \"#utility.yul\":800:833   */\n  tag_33\n  jump\t// in\ntag_56:\n    /* \"#utility.yul\":696:839   */\n  swap3\n  swap2\n  pop\n  pop\n  jump\t// out\n    /* \"#utility.yul\":845:1508   */\ntag_3:\n    /* \"#utility.yul\":933:939   */\n  0x00\n    /* \"#utility.yul\":941:947   */\n  dup1\n    /* \"#utility.yul\":949:955   */\n  0x00\n    /* \"#utility.yul\":998:1000   */\n  0x60\n    /* \"#utility.yul\":986:995   */\n  dup5\n    /* \"#utility.yul\":977:984   */\n  dup7\n    /* \"#utility.yul\":973:996   */\n  sub\n    /* \"#utility.yul\":969:1001   */\n  slt\n    /* \"#utility.yul\":966:1085   */\n  iszero\n  tag_58\n  jumpi\n    /* \"#utility.yul\":1004:1083   */\n  tag_59\n  tag_29\n  jump\t// in\ntag_59:\n    /* \"#utility.yul\":966:1085   */\ntag_58:\n    /* \"#utility.yul\":1124:1125   */\n  0x00\n    /* \"#utility.yul\":1149:1213   */\n  tag_60\n    /* \"#utility.yul\":1205:1212   */\n  dup7\n    /* \"#utility.yul\":1196:1202   */\n  dup3\n    /* \"#utility.yul\":1185:1194   */\n  dup8\n    /* \"#utility.yul\":1181:1203   */\n  add\n    /* \"#utility.yul\":1149:1213   */\n  tag_34\n  jump\t// in\ntag_60:\n    /* \"#utility.yul\":1139:1213   */\n  swap4\n  pop\n    /* \"#utility.yul\":1095:1223   */\n  pop\n    /* \"#utility.yul\":1262:1264   */\n  0x20\n    /* \"#utility.yul\":1288:1352   */\n  tag_61\n    /* \"#utility.yul\":1344:1351   */\n  dup7\n    /* \"#utility.yul\":1335:1341   */\n  dup3\n    /* \"#utility.yul\":1324:1333   */\n  dup8\n    /* \"#utility.yul\":1320:1342   */\n  add\n    /* \"#utility.yul\":1288:1352   */\n  tag_34\n  jump\t// in\ntag_61:\n    /* \"#utility.yul\":1278:1352   */\n  swap3\n  pop\n    /* \"#utility.yul\":1233:1362   */\n  pop\n    /* \"#utility.yul\":1401:1403   */\n  0x40\n    /* \"#utility.yul\":1427:1491   */\n  tag_62\n    /* \"#utility.yul\":1483:1490   */\n  dup7\n    /* \"#utility.yul\":1474:1480   */\n  dup3\n    /* \"#utility.yul\":1463:1472   */\n  dup8\n    /* \"#utility.yul\":1459:1481   */\n  add\n    /* \"#utility.yul\":1427:1491   */\n  tag_34\n  jump\t// in\ntag_62:\n    /* \"#utility.yul\":1417:1491   */\n  swap2\n  pop\n    /* \"#utility.yul\":1372:1501   */\n  pop\n    /* \"#utility.yul\":845:1508   */\n  swap3\n  pop\n  swap3\n  pop\n  swap3\n  jump\t// out\n    /* \"#utility.yul\":1514:1632   */\ntag_35:\n    /* \"#utility.yul\":1601:1625   */\n  tag_64\n    /* \"#utility.yul\":1619:1624   */\n  dup2\n    /* \"#utility.yul\":1601:1625   */\n  tag_32\n  jump\t// in\ntag_64:\n    /* \"#utility.yul\":1596:1599   */\n  dup3\n    /* \"#utility.yul\":1589:1626   */\n  mstore\n    /* \"#utility.yul\":1514:1632   */\n  pop\n  pop\n  jump\t// out\n    /* \"#utility.yul\":1638:1860   */\ntag_9:\n    /* \"#utility.yul\":1731:1735   */\n  0x00\n    /* \"#utility.yul\":1769:1771   */\n  0x20\n    /* \"#utility.yul\":1758:1767   */\n  dup3\n    /* \"#utility.yul\":1754:1772   */\n  add\n    /* \"#utility.yul\":1746:1772   */\n  swap1\n  pop\n    /* \"#utility.yul\":1782:1853   */\n  tag_66\n    /* \"#utility.yul\":1850:1851   */\n  0x00\n    /* \"#utility.yul\":1839:1848   */\n  dup4\n    /* \"#utility.yul\":1835:1852   */\n  add\n    /* \"#utility.yul\":1826:1832   */\n  dup5\n    /* \"#utility.yul\":1782:1853   */\n  tag_35\n  jump\t// in\ntag_66:\n    /* \"#utility.yul\":1638:1860   */\n  swap3\n  swap2\n  pop\n  pop\n  jump\t// out\n    /* \"#utility.yul\":1866:1952   */\ntag_36:\n    /* \"#utility.yul\":1901:1908   */\n  0x00\n    /* \"#utility.yul\":1941:1945   */\n  0xff\n    /* \"#utility.yul\":1934:1939   */\n  dup3\n    /* \"#utility.yul\":1930:1946   */\n  and\n    /* \"#utility.yul\":1919:1946   */\n  swap1\n  pop\n    /* \"#utility.yul\":1866:1952   */\n  swap2\n  swap1\n  pop\n  jump\t// out\n    /* \"#utility.yul\":1958:2076   */\ntag_37:\n    /* \"#utility.yul\":2029:2051   */\n  tag_69\n    /* \"#utility.yul\":2045:2050   */\n  dup2\n    /* \"#utility.yul\":2029:2051   */\n  tag_36\n  jump\t// in\ntag_69:\n    /* \"#utility.yul\":2022:2027   */\n  dup2\n    /* \"#utility.yul\":2019:2052   */\n  eq\n    /* \"#utility.yul\":2009:2070   */\n  tag_70\n  jumpi\n    /* \"#utility.yul\":2066:2067   */\n  0x00\n    /* \"#utility.yul\":2063:2064   */\n  dup1\n    /* \"#utility.yul\":2056:2068   */\n  revert\n    /* \"#utility.yul\":2009:2070   */\ntag_70:\n    /* \"#utility.yul\":1958:2076   */\n  pop\n  jump\t// out\n    /* \"#utility.yul\":2082:2221   */\ntag_38:\n    /* \"#utility.yul\":2137:2142   */\n  0x00\n    /* \"#utility.yul\":2168:2174   */\n  dup2\n    /* \"#utility.yul\":2162:2175   */\n  mload\n    /* \"#utility.yul\":2153:2175   */\n  swap1\n  pop\n    /* \"#utility.yul\":2184:2215   */\n  tag_72\n    /* \"#utility.yul\":2209:2214   */\n  dup2\n    /* \"#utility.yul\":2184:2215   */\n  tag_37\n  jump\t// in\ntag_72:\n    /* \"#utility.yul\":2082:2221   */\n  swap3\n  swap2\n  pop\n  pop\n  jump\t// out\n    /* \"#utility.yul\":2227:2574   */\ntag_16:\n    /* \"#utility.yul\":2295:2301   */\n  0x00\n    /* \"#utility.yul\":2344:2346   */\n  0x20\n    /* \"#utility.yul\":2332:2341   */\n  dup3\n    /* \"#utility.yul\":2323:2330   */\n  dup5\n    /* \"#utility.yul\":2319:2342   */\n  sub\n    /* \"#utility.yul\":2315:2347   */\n  slt\n    /* \"#utility.yul\":2312:2431   */\n  iszero\n  tag_74\n  jumpi\n    /* \"#utility.yul\":2350:2429   */\n  tag_75\n  tag_29\n  jump\t// in\ntag_75:\n    /* \"#utility.yul\":2312:2431   */\ntag_74:\n    /* \"#utility.yul\":2470:2471   */\n  0x00\n    /* \"#utility.yul\":2495:2557   */\n  tag_76\n    /* \"#utility.yul\":2549:2556   */\n  dup5\n    /* \"#utility.yul\":2540:2546   */\n  dup3\n    /* \"#utility.yul\":2529:2538   */\n  dup6\n    /* \"#utility.yul\":2525:2547   */\n  add\n    /* \"#utility.yul\":2495:2557   */\n  tag_38\n  jump\t// in\ntag_76:\n    /* \"#utility.yul\":2485:2557   */\n  swap2\n  pop\n    /* \"#utility.yul\":2441:2567   */\n  pop\n    /* \"#utility.yul\":2227:2574   */\n  swap3\n  swap2\n  pop\n  pop\n  jump\t// out\n    /* \"#utility.yul\":2580:2760   */\ntag_39:\n    /* \"#utility.yul\":2628:2705   */\n  0x4e487b7100000000000000000000000000000000000000000000000000000000\n    /* \"#utility.yul\":2625:2626   */\n  0x00\n    /* \"#utility.yul\":2618:2706   */\n  mstore\n    /* \"#utility.yul\":2725:2729   */\n  0x11\n    /* \"#utility.yul\":2722:2723   */\n  0x04\n    /* \"#utility.yul\":2715:2730   */\n  mstore\n    /* \"#utility.yul\":2749:2753   */\n  0x24\n    /* \"#utility.yul\":2746:2747   */\n  0x00\n    /* \"#utility.yul\":2739:2754   */\n  revert\n    /* \"#utility.yul\":2766:2868   */\ntag_40:\n    /* \"#utility.yul\":2808:2816   */\n  0x00\n    /* \"#utility.yul\":2855:2860   */\n  dup2\n    /* \"#utility.yul\":2852:2853   */\n  0x01\n    /* \"#utility.yul\":2848:2861   */\n  shr\n    /* \"#utility.yul\":2827:2861   */\n  swap1\n  pop\n    /* \"#utility.yul\":2766:2868   */\n  swap2\n  swap1\n  pop\n  jump\t// out\n    /* \"#utility.yul\":2874:3722   */\ntag_41:\n    /* \"#utility.yul\":2935:2940   */\n  0x00\n    /* \"#utility.yul\":2942:2946   */\n  dup1\n    /* \"#utility.yul\":2966:2972   */\n  dup3\n    /* \"#utility.yul\":2957:2972   */\n  swap2\n  pop\n    /* \"#utility.yul\":2990:2995   */\n  dup4\n    /* \"#utility.yul\":2981:2995   */\n  swap1\n  pop\n    /* \"#utility.yul\":3004:3716   */\ntag_80:\n    /* \"#utility.yul\":3025:3026   */\n  0x01\n    /* \"#utility.yul\":3015:3023   */\n  dup6\n    /* \"#utility.yul\":3012:3027   */\n  gt\n    /* \"#utility.yul\":3004:3716   */\n  iszero\n  tag_82\n  jumpi\n    /* \"#utility.yul\":3120:3124   */\n  dup1\n    /* \"#utility.yul\":3115:3118   */\n  dup7\n    /* \"#utility.yul\":3111:3125   */\n  div\n    /* \"#utility.yul\":3105:3109   */\n  dup2\n    /* \"#utility.yul\":3102:3126   */\n  gt\n    /* \"#utility.yul\":3099:3149   */\n  iszero\n  tag_83\n  jumpi\n    /* \"#utility.yul\":3129:3147   */\n  tag_84\n  tag_39\n  jump\t// in\ntag_84:\n    /* \"#utility.yul\":3099:3149   */\ntag_83:\n    /* \"#utility.yul\":3179:3180   */\n  0x01\n    /* \"#utility.yul\":3169:3177   */\n  dup6\n    /* \"#utility.yul\":3165:3181   */\n  and\n    /* \"#utility.yul\":3162:3613   */\n  iszero\n  tag_85\n  jumpi\n    /* \"#utility.yul\":3594:3598   */\n  dup1\n    /* \"#utility.yul\":3587:3592   */\n  dup3\n    /* \"#utility.yul\":3583:3599   */\n  mul\n    /* \"#utility.yul\":3574:3599   */\n  swap2\n  pop\n    /* \"#utility.yul\":3162:3613   */\ntag_85:\n    /* \"#utility.yul\":3644:3648   */\n  dup1\n    /* \"#utility.yul\":3638:3642   */\n  dup2\n    /* \"#utility.yul\":3634:3649   */\n  mul\n    /* \"#utility.yul\":3626:3649   */\n  swap1\n  pop\n    /* \"#utility.yul\":3674:3706   */\n  tag_86\n    /* \"#utility.yul\":3697:3705   */\n  dup6\n    /* \"#utility.yul\":3674:3706   */\n  tag_40\n  jump\t// in\ntag_86:\n    /* \"#utility.yul\":3662:3706   */\n  swap5\n  pop\n    /* \"#utility.yul\":3004:3716   */\n  jump(tag_80)\ntag_82:\n    /* \"#utility.yul\":2874:3722   */\n  swap5\n  pop\n  swap5\n  swap3\n  pop\n  pop\n  pop\n  jump\t// out\n    /* \"#utility.yul\":3728:4801   */\ntag_42:\n    /* \"#utility.yul\":3782:3787   */\n  0x00\n    /* \"#utility.yul\":3973:3981   */\n  dup3\n    /* \"#utility.yul\":3963:4003   */\n  tag_88\n  jumpi\n    /* \"#utility.yul\":3994:3995   */\n  0x01\n    /* \"#utility.yul\":3985:3995   */\n  swap1\n  pop\n    /* \"#utility.yul\":3996:4001   */\n  jump(tag_87)\n    /* \"#utility.yul\":3963:4003   */\ntag_88:\n    /* \"#utility.yul\":4022:4026   */\n  dup2\n    /* \"#utility.yul\":4012:4048   */\n  tag_89\n  jumpi\n    /* \"#utility.yul\":4039:4040   */\n  0x00\n    /* \"#utility.yul\":4030:4040   */\n  swap1\n  pop\n    /* \"#utility.yul\":4041:4046   */\n  jump(tag_87)\n    /* \"#utility.yul\":4012:4048   */\ntag_89:\n    /* \"#utility.yul\":4108:4112   */\n  dup2\n    /* \"#utility.yul\":4156:4157   */\n  0x01\n    /* \"#utility.yul\":4151:4178   */\n  dup2\n  eq\n  tag_91\n  jumpi\n    /* \"#utility.yul\":4192:4193   */\n  0x02\n    /* \"#utility.yul\":4187:4378   */\n  dup2\n  eq\n  tag_92\n  jumpi\n    /* \"#utility.yul\":4101:4378   */\n  jump(tag_90)\n    /* \"#utility.yul\":4151:4178   */\ntag_91:\n    /* \"#utility.yul\":4169:4170   */\n  0x01\n    /* \"#utility.yul\":4160:4170   */\n  swap2\n  pop\n    /* \"#utility.yul\":4171:4176   */\n  pop\n  jump(tag_87)\n    /* \"#utility.yul\":4187:4378   */\ntag_92:\n    /* \"#utility.yul\":4232:4235   */\n  0xff\n    /* \"#utility.yul\":4222:4230   */\n  dup5\n    /* \"#utility.yul\":4219:4236   */\n  gt\n    /* \"#utility.yul\":4216:4259   */\n  iszero\n  tag_93\n  jumpi\n    /* \"#utility.yul\":4239:4257   */\n  tag_94\n  tag_39\n  jump\t// in\ntag_94:\n    /* \"#utility.yul\":4216:4259   */\ntag_93:\n    /* \"#utility.yul\":4288:4296   */\n  dup4\n    /* \"#utility.yul\":4285:4286   */\n  0x02\n    /* \"#utility.yul\":4281:4297   */\n  exp\n    /* \"#utility.yul\":4272:4297   */\n  swap2\n  pop\n    /* \"#utility.yul\":4323:4326   */\n  dup5\n    /* \"#utility.yul\":4316:4321   */\n  dup3\n    /* \"#utility.yul\":4313:4327   */\n  gt\n    /* \"#utility.yul\":4310:4350   */\n  iszero\n  tag_95\n  jumpi\n    /* \"#utility.yul\":4330:4348   */\n  tag_96\n  tag_39\n  jump\t// in\ntag_96:\n    /* \"#utility.yul\":4310:4350   */\ntag_95:\n    /* \"#utility.yul\":4363:4368   */\n  pop\n  jump(tag_87)\n    /* \"#utility.yul\":4101:4378   */\ntag_90:\n  pop\n    /* \"#utility.yul\":4487:4489   */\n  0x20\n    /* \"#utility.yul\":4477:4485   */\n  dup4\n    /* \"#utility.yul\":4474:4490   */\n  lt\n    /* \"#utility.yul\":4468:4471   */\n  0x0133\n    /* \"#utility.yul\":4462:4466   */\n  dup4\n    /* \"#utility.yul\":4459:4472   */\n  lt\n    /* \"#utility.yul\":4455:4491   */\n  and\n    /* \"#utility.yul\":4437:4439   */\n  0x4e\n    /* \"#utility.yul\":4427:4435   */\n  dup5\n    /* \"#utility.yul\":4424:4440   */\n  lt\n    /* \"#utility.yul\":4419:4421   */\n  0x0b\n    /* \"#utility.yul\":4413:4417   */\n  dup5\n    /* \"#utility.yul\":4410:4422   */\n  lt\n    /* \"#utility.yul\":4406:4441   */\n  and\n    /* \"#utility.yul\":4390:4501   */\n  or\n    /* \"#utility.yul\":4387:4633   */\n  iszero\n  tag_97\n  jumpi\n    /* \"#utility.yul\":4543:4551   */\n  dup3\n    /* \"#utility.yul\":4537:4541   */\n  dup3\n    /* \"#utility.yul\":4533:4552   */\n  exp\n    /* \"#utility.yul\":4524:4552   */\n  swap1\n  pop\n    /* \"#utility.yul\":4578:4581   */\n  dup4\n    /* \"#utility.yul\":4571:4576   */\n  dup2\n    /* \"#utility.yul\":4568:4582   */\n  gt\n    /* \"#utility.yul\":4565:4605   */\n  iszero\n  tag_98\n  jumpi\n    /* \"#utility.yul\":4585:4603   */\n  tag_99\n  tag_39\n  jump\t// in\ntag_99:\n    /* \"#utility.yul\":4565:4605   */\ntag_98:\n    /* \"#utility.yul\":4618:4623   */\n  jump(tag_87)\n    /* \"#utility.yul\":4387:4633   */\ntag_97:\n    /* \"#utility.yul\":4658:4700   */\n  tag_100\n    /* \"#utility.yul\":4696:4699   */\n  dup5\n    /* \"#utility.yul\":4686:4694   */\n  dup5\n    /* \"#utility.yul\":4680:4684   */\n  dup5\n    /* \"#utility.yul\":4677:4678   */\n  0x01\n    /* \"#utility.yul\":4658:4700   */\n  tag_41\n  jump\t// in\ntag_100:\n    /* \"#utility.yul\":4643:4700   */\n  swap3\n  pop\n  swap1\n  pop\n    /* \"#utility.yul\":4732:4736   */\n  dup2\n    /* \"#utility.yul\":4727:4730   */\n  dup5\n    /* \"#utility.yul\":4723:4737   */\n  div\n    /* \"#utility.yul\":4716:4721   */\n  dup2\n    /* \"#utility.yul\":4713:4738   */\n  gt\n    /* \"#utility.yul\":4710:4761   */\n  iszero\n  tag_101\n  jumpi\n    /* \"#utility.yul\":4741:4759   */\n  tag_102\n  tag_39\n  jump\t// in\ntag_102:\n    /* \"#utility.yul\":4710:4761   */\ntag_101:\n    /* \"#utility.yul\":4790:4794   */\n  dup2\n    /* \"#utility.yul\":4783:4788   */\n  dup2\n    /* \"#utility.yul\":4779:4795   */\n  mul\n    /* \"#utility.yul\":4770:4795   */\n  swap1\n  pop\n    /* \"#utility.yul\":3728:4801   */\ntag_87:\n  swap4\n  swap3\n  pop\n  pop\n  pop\n  jump\t// out\n    /* \"#utility.yul\":4807:4884   */\ntag_43:\n    /* \"#utility.yul\":4844:4851   */\n  0x00\n    /* \"#utility.yul\":4873:4878   */\n  dup2\n    /* \"#utility.yul\":4862:4878   */\n  swap1\n  pop\n    /* \"#utility.yul\":4807:4884   */\n  swap2\n  swap1\n  pop\n  jump\t// out\n    /* \"#utility.yul\":4890:5171   */\ntag_18:\n    /* \"#utility.yul\":4948:4953   */\n  0x00\n    /* \"#utility.yul\":4972:4995   */\n  tag_105\n    /* \"#utility.yul\":4990:4994   */\n  dup3\n    /* \"#utility.yul\":4972:4995   */\n  tag_43\n  jump\t// in\ntag_105:\n    /* \"#utility.yul\":4964:4995   */\n  swap2\n  pop\n    /* \"#utility.yul\":5016:5041   */\n  tag_106\n    /* \"#utility.yul\":5032:5040   */\n  dup4\n    /* \"#utility.yul\":5016:5041   */\n  tag_36\n  jump\t// in\ntag_106:\n    /* \"#utility.yul\":5004:5041   */\n  swap3\n  pop\n    /* \"#utility.yul\":5060:5164   */\n  tag_107\n    /* \"#utility.yul\":5097:5163   */\n  0xffffffffffffffffffffffffffffffffffffffffffffffffffffffffffffffff\n    /* \"#utility.yul\":5087:5095   */\n  dup5\n    /* \"#utility.yul\":5081:5085   */\n  dup5\n    /* \"#utility.yul\":5060:5164   */\n  tag_42\n  jump\t// in\ntag_107:\n    /* \"#utility.yul\":5051:5164   */\n  swap1\n  pop\n    /* \"#utility.yul\":4890:5171   */\n  swap3\n  swap2\n  pop\n  pop\n  jump\t// out\n    /* \"#utility.yul\":5177:5587   */\ntag_20:\n    /* \"#utility.yul\":5217:5224   */\n  0x00\n    /* \"#utility.yul\":5240:5260   */\n  tag_109\n    /* \"#utility.yul\":5258:5259   */\n  dup3\n    /* \"#utility.yul\":5240:5260   */\n  tag_43\n  jump\t// in\ntag_109:\n    /* \"#utility.yul\":5235:5260   */\n  swap2\n  pop\n    /* \"#utility.yul\":5274:5294   */\n  tag_110\n    /* \"#utility.yul\":5292:5293   */\n  dup4\n    /* \"#utility.yul\":5274:5294   */\n  tag_43\n  jump\t// in\ntag_110:\n    /* \"#utility.yul\":5269:5294   */\n  swap3\n  pop\n    /* \"#utility.yul\":5329:5330   */\n  dup3\n    /* \"#utility.yul\":5326:5327   */\n  dup3\n    /* \"#utility.yul\":5322:5331   */\n  mul\n    /* \"#utility.yul\":5351:5381   */\n  tag_111\n    /* \"#utility.yul\":5369:5380   */\n  dup2\n    /* \"#utility.yul\":5351:5381   */\n  tag_43\n  jump\t// in\ntag_111:\n    /* \"#utility.yul\":5340:5381   */\n  swap2\n  pop\n    /* \"#utility.yul\":5530:5531   */\n  dup3\n    /* \"#utility.yul\":5521:5528   */\n  dup3\n    /* \"#utility.yul\":5517:5532   */\n  div\n    /* \"#utility.yul\":5514:5515   */\n  dup5\n    /* \"#utility.yul\":5511:5533   */\n  eq\n    /* \"#utility.yul\":5491:5492   */\n  dup4\n    /* \"#utility.yul\":5484:5493   */\n  iszero\n    /* \"#utility.yul\":5464:5547   */\n  or\n    /* \"#utility.yul\":5441:5580   */\n  tag_112\n  jumpi\n    /* \"#utility.yul\":5560:5578   */\n  tag_113\n  tag_39\n  jump\t// in\ntag_113:\n    /* \"#utility.yul\":5441:5580   */\ntag_112:\n    /* \"#utility.yul\":5225:5587   */\n  pop\n    /* \"#utility.yul\":5177:5587   */\n  swap3\n  swap2\n  pop\n  pop\n  jump\t// out\n    /* \"#utility.yul\":5593:5711   */\ntag_44:\n    /* \"#utility.yul\":5680:5704   */\n  tag_115\n    /* \"#utility.yul\":5698:5703   */\n  dup2\n    /* \"#utility.yul\":5680:5704   */\n  tag_43\n  jump\t// in\ntag_115:\n    /* \"#utility.yul\":5675:5678   */\n  dup3\n    /* \"#utility.yul\":5668:5705   */\n  mstore\n    /* \"#utility.yul\":5593:5711   */\n  pop\n  pop\n  jump\t// out\n    /* \"#utility.yul\":5717:5939   */\ntag_22:\n    /* \"#utility.yul\":5810:5814   */\n  0x00\n    /* \"#utility.yul\":5848:5850   */\n  0x20\n    /* \"#utility.yul\":5837:5846   */\n  dup3\n    /* \"#utility.yul\":5833:5851   */\n  add\n    /* \"#utility.yul\":5825:5851   */\n  swap1\n  pop\n    /* \"#utility.yul\":5861:5932   */\n  tag_117\n    /* \"#utility.yul\":5929:5930   */\n  0x00\n    /* \"#utility.yul\":5918:5927   */\n  dup4\n    /* \"#utility.yul\":5914:5931   */\n  add\n    /* \"#utility.yul\":5905:5911   */\n  dup5\n    /* \"#utility.yul\":5861:5932   */\n  tag_44\n  jump\t// in\ntag_117:\n    /* \"#utility.yul\":5717:5939   */\n  swap3\n  swap2\n  pop\n  pop\n  jump\t// out\n    /* \"contracts/Eco.sol\":1346:2699  contract EcoCoinController is Ownable {... */\ntag_26:\n  dataSize(sub_0)\n  dup1\n  dataOffset(sub_0)\n  0x00\n  codecopy\n  0x00\n  return\nstop\n\nsub_0: assembly {\n        /* \"contracts/Eco.sol\":1346:2699  contract EcoCoinController is Ownable {... */\n      mstore(0x40, 0x80)\n      callvalue\n      dup1\n      iszero\n      tag_1\n      jumpi\n      0x00\n      dup1\n      revert\n    tag_1:\n      pop\n      jumpi(tag_2, lt(calldatasize, 0x04))\n      shr(0xe0, calldataload(0x00))\n      dup1\n      0xaf14052c\n      gt\n      tag_10\n      jumpi\n      dup1\n      0xaf14052c\n      eq\n      tag_6\n      jumpi\n      dup1\n      0xaf7665ce\n      eq\n      tag_7\n      jumpi\n      dup1\n      0xb86a2fd7\n      eq\n      tag_8\n      jumpi\n      dup1\n      0xf2fde38b\n      eq\n      tag_9\n      jumpi\n      jump(tag_2)\n    tag_10:\n      dup1\n      0x715018a6\n      eq\n      tag_3\n      jumpi\n      dup1\n      0x8da5cb5b\n      eq\n      tag_4\n      jumpi\n      dup1\n      0xacd6325c\n      eq\n      tag_5\n      jumpi\n    tag_2:\n      0x00\n      dup1\n      revert\n        /* \"@openzeppelin/contracts/access/Ownable.sol\":2293:2394  function renounceOwnership() public virtual onlyOwner {... */\n    tag_3:\n      tag_11\n      tag_12\n      jump\t// in\n    tag_11:\n      stop\n        /* \"@openzeppelin/contracts/access/Ownable.sol\":1638:1723  function owner() public view virtual returns (address) {... */\n    tag_4:\n      tag_13\n      tag_14\n      jump\t// in\n    tag_13:\n      mload(0x40)\n      tag_15\n      swap2\n      swap1\n      tag_16\n      jump\t// in\n    tag_15:\n      mload(0x40)\n      dup1\n      swap2\n      sub\n      swap1\n      return\n        /* \"contracts/Eco.sol\":1390:1412  EcoCoin public ecoCoin */\n    tag_5:\n      tag_17\n      tag_18\n      jump\t// in\n    tag_17:\n      mload(0x40)\n      tag_19\n      swap2\n      swap1\n      tag_20\n      jump\t// in\n    tag_19:\n      mload(0x40)\n      dup1\n      swap2\n      sub\n      swap1\n      return\n        /* \"contracts/Eco.sol\":1922:2697  function rebase() external onlyOwner {... */\n    tag_6:\n      tag_21\n      tag_22\n      jump\t// in\n    tag_21:\n      stop\n        /* \"contracts/Eco.sol\":1418:1459  AggregatorV3Interface public ethPriceFeed */\n    tag_7:\n      tag_23\n      tag_24\n      jump\t// in\n    tag_23:\n      mload(0x40)\n      tag_25\n      swap2\n      swap1\n      tag_26\n      jump\t// in\n    tag_25:\n      mload(0x40)\n      dup1\n      swap2\n      sub\n      swap1\n      return\n        /* \"contracts/Eco.sol\":1465:1499  uint256 public lastRebaseTimestamp */\n    tag_8:\n      tag_27\n      tag_28\n      jump\t// in\n    tag_27:\n      mload(0x40)\n      tag_29\n      swap2\n      swap1\n      tag_30\n      jump\t// in\n    tag_29:\n      mload(0x40)\n      dup1\n      swap2\n      sub\n      swap1\n      return\n        /* \"@openzeppelin/contracts/access/Ownable.sol\":2543:2758  function transferOwnership(address newOwner) public virtual onlyOwner {... */\n    tag_9:\n      tag_31\n      0x04\n      dup1\n      calldatasize\n      sub\n      dup2\n      add\n      swap1\n      tag_32\n      swap2\n      swap1\n      tag_33\n      jump\t// in\n    tag_32:\n      tag_34\n      jump\t// in\n    tag_31:\n      stop\n        /* \"@openzeppelin/contracts/access/Ownable.sol\":2293:2394  function renounceOwnership() public virtual onlyOwner {... */\n    tag_12:\n        /* \"@openzeppelin/contracts/access/Ownable.sol\":1531:1544  _checkOwner() */\n      tag_36\n        /* \"@openzeppelin/contracts/access/Ownable.sol\":1531:1542  _checkOwner */\n      tag_37\n        /* \"@openzeppelin/contracts/access/Ownable.sol\":1531:1544  _checkOwner() */\n      jump\t// in\n    tag_36:\n        /* \"@openzeppelin/contracts/access/Ownable.sol\":2357:2387  _transferOwnership(address(0)) */\n      tag_39\n        /* \"@openzeppelin/contracts/access/Ownable.sol\":2384:2385  0 */\n      0x00\n        /* \"@openzeppelin/contracts/access/Ownable.sol\":2357:2375  _transferOwnership */\n      tag_40\n        /* \"@openzeppelin/contracts/access/Ownable.sol\":2357:2387  _transferOwnership(address(0)) */\n      jump\t// in\n    tag_39:\n        /* \"@openzeppelin/contracts/access/Ownable.sol\":2293:2394  function renounceOwnership() public virtual onlyOwner {... */\n      jump\t// out\n        /* \"@openzeppelin/contracts/access/Ownable.sol\":1638:1723  function owner() public view virtual returns (address) {... */\n    tag_14:\n        /* \"@openzeppelin/contracts/access/Ownable.sol\":1684:1691  address */\n      0x00\n        /* \"@openzeppelin/contracts/access/Ownable.sol\":1710:1716  _owner */\n      dup1\n      0x00\n      swap1\n      sload\n      swap1\n      0x0100\n      exp\n      swap1\n      div\n      0xffffffffffffffffffffffffffffffffffffffff\n      and\n        /* \"@openzeppelin/contracts/access/Ownable.sol\":1703:1716  return _owner */\n      swap1\n      pop\n        /* \"@openzeppelin/contracts/access/Ownable.sol\":1638:1723  function owner() public view virtual returns (address) {... */\n      swap1\n      jump\t// out\n        /* \"contracts/Eco.sol\":1390:1412  EcoCoin public ecoCoin */\n    tag_18:\n      0x01\n      0x00\n      swap1\n      sload\n      swap1\n      0x0100\n      exp\n      swap1\n      div\n      0xffffffffffffffffffffffffffffffffffffffff\n      and\n      dup2\n      jump\t// out\n        /* \"contracts/Eco.sol\":1922:2697  function rebase() external onlyOwner {... */\n    tag_22:\n        /* \"@openzeppelin/contracts/access/Ownable.sol\":1531:1544  _checkOwner() */\n      tag_43\n        /* \"@openzeppelin/contracts/access/Ownable.sol\":1531:1542  _checkOwner */\n      tag_37\n        /* \"@openzeppelin/contracts/access/Ownable.sol\":1531:1544  _checkOwner() */\n      jump\t// in\n    tag_43:\n        /* \"contracts/Eco.sol\":1965:1983  uint256 prevSupply */\n      0x00\n        /* \"contracts/Eco.sol\":1986:1993  ecoCoin */\n      0x01\n      0x00\n      swap1\n      sload\n      swap1\n      0x0100\n      exp\n      swap1\n      div\n      0xffffffffffffffffffffffffffffffffffffffff\n      and\n        /* \"contracts/Eco.sol\":1986:2005  ecoCoin.totalSupply */\n      0xffffffffffffffffffffffffffffffffffffffff\n      and\n      0x18160ddd\n        /* \"contracts/Eco.sol\":1986:2007  ecoCoin.totalSupply() */\n      mload(0x40)\n      dup2\n      0xffffffff\n      and\n      0xe0\n      shl\n      dup2\n      mstore\n      0x04\n      add\n      0x20\n      mload(0x40)\n      dup1\n      dup4\n      sub\n      dup2\n      dup7\n      gas\n      staticcall\n      iszero\n      dup1\n      iszero\n      tag_46\n      jumpi\n      returndatasize\n      0x00\n      dup1\n      returndatacopy\n      revert(0x00, returndatasize)\n    tag_46:\n      pop\n      pop\n      pop\n      pop\n      mload(0x40)\n      returndatasize\n      not(0x1f)\n      0x1f\n      dup3\n      add\n      and\n      dup3\n      add\n      dup1\n      0x40\n      mstore\n      pop\n      dup2\n      add\n      swap1\n      tag_47\n      swap2\n      swap1\n      tag_48\n      jump\t// in\n    tag_47:\n        /* \"contracts/Eco.sol\":1965:2007  uint256 prevSupply = ecoCoin.totalSupply() */\n      swap1\n      pop\n        /* \"contracts/Eco.sol\":2016:2034  int256 latestPrice */\n      0x00\n        /* \"contracts/Eco.sol\":2044:2056  ethPriceFeed */\n      0x02\n      0x00\n      swap1\n      sload\n      swap1\n      0x0100\n      exp\n      swap1\n      div\n      0xffffffffffffffffffffffffffffffffffffffff\n      and\n        /* \"contracts/Eco.sol\":2044:2072  ethPriceFeed.latestRoundData */\n      0xffffffffffffffffffffffffffffffffffffffff\n      and\n      0xfeaf968c\n        /* \"contracts/Eco.sol\":2044:2074  ethPriceFeed.latestRoundData() */\n      mload(0x40)\n      dup2\n      0xffffffff\n      and\n      0xe0\n      shl\n      dup2\n      mstore\n      0x04\n      add\n      0xa0\n      mload(0x40)\n      dup1\n      dup4\n      sub\n      dup2\n      dup7\n      gas\n      staticcall\n      iszero\n      dup1\n      iszero\n      tag_50\n      jumpi\n      returndatasize\n      0x00\n      dup1\n      returndatacopy\n      revert(0x00, returndatasize)\n    tag_50:\n      pop\n      pop\n      pop\n      pop\n      mload(0x40)\n      returndatasize\n      not(0x1f)\n      0x1f\n      dup3\n      add\n      and\n      dup3\n      add\n      dup1\n      0x40\n      mstore\n      pop\n      dup2\n      add\n      swap1\n      tag_51\n      swap2\n      swap1\n      tag_52\n      jump\t// in\n    tag_51:\n        /* \"contracts/Eco.sol\":2013:2074  (, int256 latestPrice, , , ) = ethPriceFeed.latestRoundData() */\n      pop\n      pop\n      pop\n      swap2\n      pop\n      pop\n        /* \"contracts/Eco.sol\":2080:2103  uint256 currentEthPrice */\n      0x00\n        /* \"contracts/Eco.sol\":2114:2125  latestPrice */\n      dup2\n        /* \"contracts/Eco.sol\":2080:2126  uint256 currentEthPrice = uint256(latestPrice) */\n      swap1\n      pop\n        /* \"contracts/Eco.sol\":2132:2151  uint256 targetPrice */\n      0x00\n        /* \"contracts/Eco.sol\":2154:2164  1 * 10**18 */\n      0x0de0b6b3a7640000\n        /* \"contracts/Eco.sol\":2132:2164  uint256 targetPrice = 1 * 10**18 */\n      swap1\n      pop\n        /* \"contracts/Eco.sol\":2187:2204  uint256 newSupply */\n      0x00\n        /* \"contracts/Eco.sol\":2261:2276  currentEthPrice */\n      dup3\n        /* \"contracts/Eco.sol\":2239:2246  ecoCoin */\n      0x01\n      0x00\n      swap1\n      sload\n      swap1\n      0x0100\n      exp\n      swap1\n      div\n      0xffffffffffffffffffffffffffffffffffffffff\n      and\n        /* \"contracts/Eco.sol\":2239:2255  ecoCoin.decimals */\n      0xffffffffffffffffffffffffffffffffffffffff\n      and\n      0x313ce567\n        /* \"contracts/Eco.sol\":2239:2257  ecoCoin.decimals() */\n      mload(0x40)\n      dup2\n      0xffffffff\n      and\n      0xe0\n      shl\n      dup2\n      mstore\n      0x04\n      add\n      0x20\n      mload(0x40)\n      dup1\n      dup4\n      sub\n      dup2\n      dup7\n      gas\n      staticcall\n      iszero\n      dup1\n      iszero\n      tag_54\n      jumpi\n      returndatasize\n      0x00\n      dup1\n      returndatacopy\n      revert(0x00, returndatasize)\n    tag_54:\n      pop\n      pop\n      pop\n      pop\n      mload(0x40)\n      returndatasize\n      not(0x1f)\n      0x1f\n      dup3\n      add\n      and\n      dup3\n      add\n      dup1\n      0x40\n      mstore\n      pop\n      dup2\n      add\n      swap1\n      tag_55\n      swap2\n      swap1\n      tag_56\n      jump\t// in\n    tag_55:\n        /* \"contracts/Eco.sol\":2235:2237  10 */\n      0x0a\n        /* \"contracts/Eco.sol\":2235:2257  10**ecoCoin.decimals() */\n      tag_57\n      swap2\n      swap1\n      tag_58\n      jump\t// in\n    tag_57:\n        /* \"contracts/Eco.sol\":2221:2232  targetPrice */\n      dup4\n        /* \"contracts/Eco.sol\":2208:2218  prevSupply */\n      dup8\n        /* \"contracts/Eco.sol\":2208:2232  prevSupply * targetPrice */\n      tag_59\n      swap2\n      swap1\n      tag_60\n      jump\t// in\n    tag_59:\n        /* \"contracts/Eco.sol\":2208:2257  prevSupply * targetPrice * 10**ecoCoin.decimals() */\n      tag_61\n      swap2\n      swap1\n      tag_60\n      jump\t// in\n    tag_61:\n        /* \"contracts/Eco.sol\":2207:2276  (prevSupply * targetPrice * 10**ecoCoin.decimals()) / currentEthPrice */\n      tag_62\n      swap2\n      swap1\n      tag_63\n      jump\t// in\n    tag_62:\n        /* \"contracts/Eco.sol\":2187:2276  uint256 newSupply = (prevSupply * targetPrice * 10**ecoCoin.decimals()) / currentEthPrice */\n      swap1\n      pop\n        /* \"contracts/Eco.sol\":2283:2290  ecoCoin */\n      0x01\n      0x00\n      swap1\n      sload\n      swap1\n      0x0100\n      exp\n      swap1\n      div\n      0xffffffffffffffffffffffffffffffffffffffff\n      and\n        /* \"contracts/Eco.sol\":2283:2305  ecoCoin.setTotalSupply */\n      0xffffffffffffffffffffffffffffffffffffffff\n      and\n      0xf7ea7a3d\n        /* \"contracts/Eco.sol\":2306:2315  newSupply */\n      dup3\n        /* \"contracts/Eco.sol\":2283:2316  ecoCoin.setTotalSupply(newSupply) */\n      mload(0x40)\n      dup3\n      0xffffffff\n      and\n      0xe0\n      shl\n      dup2\n      mstore\n      0x04\n      add\n      tag_64\n      swap2\n      swap1\n      tag_30\n      jump\t// in\n    tag_64:\n      0x00\n      mload(0x40)\n      dup1\n      dup4\n      sub\n      dup2\n      0x00\n      dup8\n      dup1\n      extcodesize\n      iszero\n      dup1\n      iszero\n      tag_65\n      jumpi\n      0x00\n      dup1\n      revert\n    tag_65:\n      pop\n      gas\n      call\n      iszero\n      dup1\n      iszero\n      tag_67\n      jumpi\n      returndatasize\n      0x00\n      dup1\n      returndatacopy\n      revert(0x00, returndatasize)\n    tag_67:\n      pop\n      pop\n      pop\n      pop\n        /* \"contracts/Eco.sol\":2344:2359  block.timestamp */\n      timestamp\n        /* \"contracts/Eco.sol\":2322:2341  lastRebaseTimestamp */\n      0x03\n        /* \"contracts/Eco.sol\":2322:2359  lastRebaseTimestamp = block.timestamp */\n      dup2\n      swap1\n      sstore\n      pop\n        /* \"contracts/Eco.sol\":2366:2388  uint256 balancesLength */\n      0x00\n        /* \"contracts/Eco.sol\":2391:2398  ecoCoin */\n      0x01\n      0x00\n      swap1\n      sload\n      swap1\n      0x0100\n      exp\n      swap1\n      div\n      0xffffffffffffffffffffffffffffffffffffffff\n      and\n        /* \"contracts/Eco.sol\":2391:2413  ecoCoin.balancesLength */\n      0xffffffffffffffffffffffffffffffffffffffff\n      and\n      0xc69199e1\n        /* \"contracts/Eco.sol\":2391:2415  ecoCoin.balancesLength() */\n      mload(0x40)\n      dup2\n      0xffffffff\n      and\n      0xe0\n      shl\n      dup2\n      mstore\n      0x04\n      add\n      0x20\n      mload(0x40)\n      dup1\n      dup4\n      sub\n      dup2\n      dup7\n      gas\n      staticcall\n      iszero\n      dup1\n      iszero\n      tag_69\n      jumpi\n      returndatasize\n      0x00\n      dup1\n      returndatacopy\n      revert(0x00, returndatasize)\n    tag_69:\n      pop\n      pop\n      pop\n      pop\n      mload(0x40)\n      returndatasize\n      not(0x1f)\n      0x1f\n      dup3\n      add\n      and\n      dup3\n      add\n      dup1\n      0x40\n      mstore\n      pop\n      dup2\n      add\n      swap1\n      tag_70\n      swap2\n      swap1\n      tag_48\n      jump\t// in\n    tag_70:\n        /* \"contracts/Eco.sol\":2366:2415  uint256 balancesLength = ecoCoin.balancesLength() */\n      swap1\n      pop\n        /* \"contracts/Eco.sol\":2426:2435  uint256 i */\n      0x00\n        /* \"contracts/Eco.sol\":2421:2654  for (uint256 i = 0; i < balancesLength; i++) {... */\n    tag_71:\n        /* \"contracts/Eco.sol\":2445:2459  balancesLength */\n      dup2\n        /* \"contracts/Eco.sol\":2441:2442  i */\n      dup2\n        /* \"contracts/Eco.sol\":2441:2459  i < balancesLength */\n      lt\n        /* \"contracts/Eco.sol\":2421:2654  for (uint256 i = 0; i < balancesLength; i++) {... */\n      iszero\n      tag_72\n      jumpi\n        /* \"contracts/Eco.sol\":2475:2490  address account */\n      0x00\n        /* \"contracts/Eco.sol\":2517:2518  i */\n      dup2\n        /* \"contracts/Eco.sol\":2475:2521  address account = address(uint160(uint256(i))) */\n      swap1\n      pop\n        /* \"contracts/Eco.sol\":2531:2546  uint256 balance */\n      0x00\n        /* \"contracts/Eco.sol\":2549:2556  ecoCoin */\n      0x01\n      0x00\n      swap1\n      sload\n      swap1\n      0x0100\n      exp\n      swap1\n      div\n      0xffffffffffffffffffffffffffffffffffffffff\n      and\n        /* \"contracts/Eco.sol\":2549:2565  ecoCoin.balances */\n      0xffffffffffffffffffffffffffffffffffffffff\n      and\n      0x27e235e3\n        /* \"contracts/Eco.sol\":2566:2573  account */\n      dup4\n        /* \"contracts/Eco.sol\":2549:2574  ecoCoin.balances(account) */\n      mload(0x40)\n      dup3\n      0xffffffff\n      and\n      0xe0\n      shl\n      dup2\n      mstore\n      0x04\n      add\n      tag_74\n      swap2\n      swap1\n      tag_16\n      jump\t// in\n    tag_74:\n      0x20\n      mload(0x40)\n      dup1\n      dup4\n      sub\n      dup2\n      dup7\n      gas\n      staticcall\n      iszero\n      dup1\n      iszero\n      tag_76\n      jumpi\n      returndatasize\n      0x00\n      dup1\n      returndatacopy\n      revert(0x00, returndatasize)\n    tag_76:\n      pop\n      pop\n      pop\n      pop\n      mload(0x40)\n      returndatasize\n      not(0x1f)\n      0x1f\n      dup3\n      add\n      and\n      dup3\n      add\n      dup1\n      0x40\n      mstore\n      pop\n      dup2\n      add\n      swap1\n      tag_77\n      swap2\n      swap1\n      tag_48\n      jump\t// in\n    tag_77:\n        /* \"contracts/Eco.sol\":2531:2574  uint256 balance = ecoCoin.balances(account) */\n      swap1\n      pop\n        /* \"contracts/Eco.sol\":2584:2591  ecoCoin */\n      0x01\n      0x00\n      swap1\n      sload\n      swap1\n      0x0100\n      exp\n      swap1\n      div\n      0xffffffffffffffffffffffffffffffffffffffff\n      and\n        /* \"contracts/Eco.sol\":2584:2602  ecoCoin.setBalance */\n      0xffffffffffffffffffffffffffffffffffffffff\n      and\n      0xe30443bc\n        /* \"contracts/Eco.sol\":2603:2610  account */\n      dup4\n        /* \"contracts/Eco.sol\":2636:2646  prevSupply */\n      dup12\n        /* \"contracts/Eco.sol\":2623:2632  newSupply */\n      dup9\n        /* \"contracts/Eco.sol\":2613:2620  balance */\n      dup6\n        /* \"contracts/Eco.sol\":2613:2632  balance * newSupply */\n      tag_78\n      swap2\n      swap1\n      tag_60\n      jump\t// in\n    tag_78:\n        /* \"contracts/Eco.sol\":2612:2646  (balance * newSupply) / prevSupply */\n      tag_79\n      swap2\n      swap1\n      tag_63\n      jump\t// in\n    tag_79:\n        /* \"contracts/Eco.sol\":2584:2647  ecoCoin.setBalance(account, (balance * newSupply) / prevSupply) */\n      mload(0x40)\n      dup4\n      0xffffffff\n      and\n      0xe0\n      shl\n      dup2\n      mstore\n      0x04\n      add\n      tag_80\n      swap3\n      swap2\n      swap1\n      tag_81\n      jump\t// in\n    tag_80:\n      0x00\n      mload(0x40)\n      dup1\n      dup4\n      sub\n      dup2\n      0x00\n      dup8\n      dup1\n      extcodesize\n      iszero\n      dup1\n      iszero\n      tag_82\n      jumpi\n      0x00\n      dup1\n      revert\n    tag_82:\n      pop\n      gas\n      call\n      iszero\n      dup1\n      iszero\n      tag_84\n      jumpi\n      returndatasize\n      0x00\n      dup1\n      returndatacopy\n      revert(0x00, returndatasize)\n    tag_84:\n      pop\n      pop\n      pop\n      pop\n        /* \"contracts/Eco.sol\":2466:2654  {... */\n      pop\n      pop\n        /* \"contracts/Eco.sol\":2461:2464  i++ */\n      dup1\n      dup1\n      0x01\n      add\n      swap2\n      pop\n      pop\n        /* \"contracts/Eco.sol\":2421:2654  for (uint256 i = 0; i < balancesLength; i++) {... */\n      jump(tag_71)\n    tag_72:\n      pop\n        /* \"contracts/Eco.sol\":2665:2694  Rebase(prevSupply, newSupply) */\n      0x11c6bf55864ff83827df712625d7a80e5583eef0264921025e7cd22003a21511\n        /* \"contracts/Eco.sol\":2672:2682  prevSupply */\n      dup7\n        /* \"contracts/Eco.sol\":2684:2693  newSupply */\n      dup4\n        /* \"contracts/Eco.sol\":2665:2694  Rebase(prevSupply, newSupply) */\n      mload(0x40)\n      tag_85\n      swap3\n      swap2\n      swap1\n      tag_86\n      jump\t// in\n    tag_85:\n      mload(0x40)\n      dup1\n      swap2\n      sub\n      swap1\n      log1\n        /* \"contracts/Eco.sol\":1959:2697  {... */\n      pop\n      pop\n      pop\n      pop\n      pop\n      pop\n        /* \"contracts/Eco.sol\":1922:2697  function rebase() external onlyOwner {... */\n      jump\t// out\n        /* \"contracts/Eco.sol\":1418:1459  AggregatorV3Interface public ethPriceFeed */\n    tag_24:\n      0x02\n      0x00\n      swap1\n      sload\n      swap1\n      0x0100\n      exp\n      swap1\n      div\n      0xffffffffffffffffffffffffffffffffffffffff\n      and\n      dup2\n      jump\t// out\n        /* \"contracts/Eco.sol\":1465:1499  uint256 public lastRebaseTimestamp */\n    tag_28:\n      sload(0x03)\n      dup2\n      jump\t// out\n        /* \"@openzeppelin/contracts/access/Ownable.sol\":2543:2758  function transferOwnership(address newOwner) public virtual onlyOwner {... */\n    tag_34:\n        /* \"@openzeppelin/contracts/access/Ownable.sol\":1531:1544  _checkOwner() */\n      tag_88\n        /* \"@openzeppelin/contracts/access/Ownable.sol\":1531:1542  _checkOwner */\n      tag_37\n        /* \"@openzeppelin/contracts/access/Ownable.sol\":1531:1544  _checkOwner() */\n      jump\t// in\n    tag_88:\n        /* \"@openzeppelin/contracts/access/Ownable.sol\":2647:2648  0 */\n      0x00\n        /* \"@openzeppelin/contracts/access/Ownable.sol\":2627:2649  newOwner == address(0) */\n      0xffffffffffffffffffffffffffffffffffffffff\n      and\n        /* \"@openzeppelin/contracts/access/Ownable.sol\":2627:2635  newOwner */\n      dup2\n        /* \"@openzeppelin/contracts/access/Ownable.sol\":2627:2649  newOwner == address(0) */\n      0xffffffffffffffffffffffffffffffffffffffff\n      and\n      sub\n        /* \"@openzeppelin/contracts/access/Ownable.sol\":2623:2714  if (newOwner == address(0)) {... */\n      tag_90\n      jumpi\n        /* \"@openzeppelin/contracts/access/Ownable.sol\":2700:2701  0 */\n      0x00\n        /* \"@openzeppelin/contracts/access/Ownable.sol\":2672:2703  OwnableInvalidOwner(address(0)) */\n      mload(0x40)\n      0x1e4fbdf700000000000000000000000000000000000000000000000000000000\n      dup2\n      mstore\n      0x04\n      add\n      tag_91\n      swap2\n      swap1\n      tag_16\n      jump\t// in\n    tag_91:\n      mload(0x40)\n      dup1\n      swap2\n      sub\n      swap1\n      revert\n        /* \"@openzeppelin/contracts/access/Ownable.sol\":2623:2714  if (newOwner == address(0)) {... */\n    tag_90:\n        /* \"@openzeppelin/contracts/access/Ownable.sol\":2723:2751  _transferOwnership(newOwner) */\n      tag_92\n        /* \"@openzeppelin/contracts/access/Ownable.sol\":2742:2750  newOwner */\n      dup2\n        /* \"@openzeppelin/contracts/access/Ownable.sol\":2723:2741  _transferOwnership */\n      tag_40\n        /* \"@openzeppelin/contracts/access/Ownable.sol\":2723:2751  _transferOwnership(newOwner) */\n      jump\t// in\n    tag_92:\n        /* \"@openzeppelin/contracts/access/Ownable.sol\":2543:2758  function transferOwnership(address newOwner) public virtual onlyOwner {... */\n      pop\n      jump\t// out\n        /* \"@openzeppelin/contracts/access/Ownable.sol\":1796:1958  function _checkOwner() internal view virtual {... */\n    tag_37:\n        /* \"@openzeppelin/contracts/access/Ownable.sol\":1866:1878  _msgSender() */\n      tag_94\n        /* \"@openzeppelin/contracts/access/Ownable.sol\":1866:1876  _msgSender */\n      tag_95\n        /* \"@openzeppelin/contracts/access/Ownable.sol\":1866:1878  _msgSender() */\n      jump\t// in\n    tag_94:\n        /* \"@openzeppelin/contracts/access/Ownable.sol\":1855:1878  owner() != _msgSender() */\n      0xffffffffffffffffffffffffffffffffffffffff\n      and\n        /* \"@openzeppelin/contracts/access/Ownable.sol\":1855:1862  owner() */\n      tag_96\n        /* \"@openzeppelin/contracts/access/Ownable.sol\":1855:1860  owner */\n      tag_14\n        /* \"@openzeppelin/contracts/access/Ownable.sol\":1855:1862  owner() */\n      jump\t// in\n    tag_96:\n        /* \"@openzeppelin/contracts/access/Ownable.sol\":1855:1878  owner() != _msgSender() */\n      0xffffffffffffffffffffffffffffffffffffffff\n      and\n      eq\n        /* \"@openzeppelin/contracts/access/Ownable.sol\":1851:1952  if (owner() != _msgSender()) {... */\n      tag_97\n      jumpi\n        /* \"@openzeppelin/contracts/access/Ownable.sol\":1928:1940  _msgSender() */\n      tag_98\n        /* \"@openzeppelin/contracts/access/Ownable.sol\":1928:1938  _msgSender */\n      tag_95\n        /* \"@openzeppelin/contracts/access/Ownable.sol\":1928:1940  _msgSender() */\n      jump\t// in\n    tag_98:\n        /* \"@openzeppelin/contracts/access/Ownable.sol\":1901:1941  OwnableUnauthorizedAccount(_msgSender()) */\n      mload(0x40)\n      0x118cdaa700000000000000000000000000000000000000000000000000000000\n      dup2\n      mstore\n      0x04\n      add\n      tag_99\n      swap2\n      swap1\n      tag_16\n      jump\t// in\n    tag_99:\n      mload(0x40)\n      dup1\n      swap2\n      sub\n      swap1\n      revert\n        /* \"@openzeppelin/contracts/access/Ownable.sol\":1851:1952  if (owner() != _msgSender()) {... */\n    tag_97:\n        /* \"@openzeppelin/contracts/access/Ownable.sol\":1796:1958  function _checkOwner() internal view virtual {... */\n      jump\t// out\n        /* \"@openzeppelin/contracts/access/Ownable.sol\":2912:3099  function _transferOwnership(address newOwner) internal virtual {... */\n    tag_40:\n        /* \"@openzeppelin/contracts/access/Ownable.sol\":2985:3001  address oldOwner */\n      0x00\n        /* \"@openzeppelin/contracts/access/Ownable.sol\":3004:3010  _owner */\n      dup1\n      0x00\n      swap1\n      sload\n      swap1\n      0x0100\n      exp\n      swap1\n      div\n      0xffffffffffffffffffffffffffffffffffffffff\n      and\n        /* \"@openzeppelin/contracts/access/Ownable.sol\":2985:3010  address oldOwner = _owner */\n      swap1\n      pop\n        /* \"@openzeppelin/contracts/access/Ownable.sol\":3029:3037  newOwner */\n      dup2\n        /* \"@openzeppelin/contracts/access/Ownable.sol\":3020:3026  _owner */\n      0x00\n      dup1\n        /* \"@openzeppelin/contracts/access/Ownable.sol\":3020:3037  _owner = newOwner */\n      0x0100\n      exp\n      dup2\n      sload\n      dup2\n      0xffffffffffffffffffffffffffffffffffffffff\n      mul\n      not\n      and\n      swap1\n      dup4\n      0xffffffffffffffffffffffffffffffffffffffff\n      and\n      mul\n      or\n      swap1\n      sstore\n      pop\n        /* \"@openzeppelin/contracts/access/Ownable.sol\":3083:3091  newOwner */\n      dup2\n        /* \"@openzeppelin/contracts/access/Ownable.sol\":3052:3092  OwnershipTransferred(oldOwner, newOwner) */\n      0xffffffffffffffffffffffffffffffffffffffff\n      and\n        /* \"@openzeppelin/contracts/access/Ownable.sol\":3073:3081  oldOwner */\n      dup2\n        /* \"@openzeppelin/contracts/access/Ownable.sol\":3052:3092  OwnershipTransferred(oldOwner, newOwner) */\n      0xffffffffffffffffffffffffffffffffffffffff\n      and\n      0x8be0079c531659141344cd1fd0a4f28419497f9722a3daafe3b4186f6b6457e0\n      mload(0x40)\n      mload(0x40)\n      dup1\n      swap2\n      sub\n      swap1\n      log3\n        /* \"@openzeppelin/contracts/access/Ownable.sol\":2975:3099  {... */\n      pop\n        /* \"@openzeppelin/contracts/access/Ownable.sol\":2912:3099  function _transferOwnership(address newOwner) internal virtual {... */\n      pop\n      jump\t// out\n        /* \"@openzeppelin/contracts/utils/Context.sol\":656:752  function _msgSender() internal view virtual returns (address) {... */\n    tag_95:\n        /* \"@openzeppelin/contracts/utils/Context.sol\":709:716  address */\n      0x00\n        /* \"@openzeppelin/contracts/utils/Context.sol\":735:745  msg.sender */\n      caller\n        /* \"@openzeppelin/contracts/utils/Context.sol\":728:745  return msg.sender */\n      swap1\n      pop\n        /* \"@openzeppelin/contracts/utils/Context.sol\":656:752  function _msgSender() internal view virtual returns (address) {... */\n      swap1\n      jump\t// out\n        /* \"#utility.yul\":7:133   */\n    tag_102:\n        /* \"#utility.yul\":44:51   */\n      0x00\n        /* \"#utility.yul\":84:126   */\n      0xffffffffffffffffffffffffffffffffffffffff\n        /* \"#utility.yul\":77:82   */\n      dup3\n        /* \"#utility.yul\":73:127   */\n      and\n        /* \"#utility.yul\":62:127   */\n      swap1\n      pop\n        /* \"#utility.yul\":7:133   */\n      swap2\n      swap1\n      pop\n      jump\t// out\n        /* \"#utility.yul\":139:235   */\n    tag_103:\n        /* \"#utility.yul\":176:183   */\n      0x00\n        /* \"#utility.yul\":205:229   */\n      tag_138\n        /* \"#utility.yul\":223:228   */\n      dup3\n        /* \"#utility.yul\":205:229   */\n      tag_102\n      jump\t// in\n    tag_138:\n        /* \"#utility.yul\":194:229   */\n      swap1\n      pop\n        /* \"#utility.yul\":139:235   */\n      swap2\n      swap1\n      pop\n      jump\t// out\n        /* \"#utility.yul\":241:359   */\n    tag_104:\n        /* \"#utility.yul\":328:352   */\n      tag_140\n        /* \"#utility.yul\":346:351   */\n      dup2\n        /* \"#utility.yul\":328:352   */\n      tag_103\n      jump\t// in\n    tag_140:\n        /* \"#utility.yul\":323:326   */\n      dup3\n        /* \"#utility.yul\":316:353   */\n      mstore\n        /* \"#utility.yul\":241:359   */\n      pop\n      pop\n      jump\t// out\n        /* \"#utility.yul\":365:587   */\n    tag_16:\n        /* \"#utility.yul\":458:462   */\n      0x00\n        /* \"#utility.yul\":496:498   */\n      0x20\n        /* \"#utility.yul\":485:494   */\n      dup3\n        /* \"#utility.yul\":481:499   */\n      add\n        /* \"#utility.yul\":473:499   */\n      swap1\n      pop\n        /* \"#utility.yul\":509:580   */\n      tag_142\n        /* \"#utility.yul\":577:578   */\n      0x00\n        /* \"#utility.yul\":566:575   */\n      dup4\n        /* \"#utility.yul\":562:579   */\n      add\n        /* \"#utility.yul\":553:559   */\n      dup5\n        /* \"#utility.yul\":509:580   */\n      tag_104\n      jump\t// in\n    tag_142:\n        /* \"#utility.yul\":365:587   */\n      swap3\n      swap2\n      pop\n      pop\n      jump\t// out\n        /* \"#utility.yul\":593:653   */\n    tag_105:\n        /* \"#utility.yul\":621:624   */\n      0x00\n        /* \"#utility.yul\":642:647   */\n      dup2\n        /* \"#utility.yul\":635:647   */\n      swap1\n      pop\n        /* \"#utility.yul\":593:653   */\n      swap2\n      swap1\n      pop\n      jump\t// out\n        /* \"#utility.yul\":659:801   */\n    tag_106:\n        /* \"#utility.yul\":709:718   */\n      0x00\n        /* \"#utility.yul\":742:795   */\n      tag_145\n        /* \"#utility.yul\":760:794   */\n      tag_146\n        /* \"#utility.yul\":769:793   */\n      tag_147\n        /* \"#utility.yul\":787:792   */\n      dup5\n        /* \"#utility.yul\":769:793   */\n      tag_102\n      jump\t// in\n    tag_147:\n        /* \"#utility.yul\":760:794   */\n      tag_105\n      jump\t// in\n    tag_146:\n        /* \"#utility.yul\":742:795   */\n      tag_102\n      jump\t// in\n    tag_145:\n        /* \"#utility.yul\":729:795   */\n      swap1\n      pop\n        /* \"#utility.yul\":659:801   */\n      swap2\n      swap1\n      pop\n      jump\t// out\n        /* \"#utility.yul\":807:933   */\n    tag_107:\n        /* \"#utility.yul\":857:866   */\n      0x00\n        /* \"#utility.yul\":890:927   */\n      tag_149\n        /* \"#utility.yul\":921:926   */\n      dup3\n        /* \"#utility.yul\":890:927   */\n      tag_106\n      jump\t// in\n    tag_149:\n        /* \"#utility.yul\":877:927   */\n      swap1\n      pop\n        /* \"#utility.yul\":807:933   */\n      swap2\n      swap1\n      pop\n      jump\t// out\n        /* \"#utility.yul\":939:1080   */\n    tag_108:\n        /* \"#utility.yul\":1004:1013   */\n      0x00\n        /* \"#utility.yul\":1037:1074   */\n      tag_151\n        /* \"#utility.yul\":1068:1073   */\n      dup3\n        /* \"#utility.yul\":1037:1074   */\n      tag_107\n      jump\t// in\n    tag_151:\n        /* \"#utility.yul\":1024:1074   */\n      swap1\n      pop\n        /* \"#utility.yul\":939:1080   */\n      swap2\n      swap1\n      pop\n      jump\t// out\n        /* \"#utility.yul\":1086:1247   */\n    tag_109:\n        /* \"#utility.yul\":1188:1240   */\n      tag_153\n        /* \"#utility.yul\":1234:1239   */\n      dup2\n        /* \"#utility.yul\":1188:1240   */\n      tag_108\n      jump\t// in\n    tag_153:\n        /* \"#utility.yul\":1183:1186   */\n      dup3\n        /* \"#utility.yul\":1176:1241   */\n      mstore\n        /* \"#utility.yul\":1086:1247   */\n      pop\n      pop\n      jump\t// out\n        /* \"#utility.yul\":1253:1505   */\n    tag_20:\n        /* \"#utility.yul\":1361:1365   */\n      0x00\n        /* \"#utility.yul\":1399:1401   */\n      0x20\n        /* \"#utility.yul\":1388:1397   */\n      dup3\n        /* \"#utility.yul\":1384:1402   */\n      add\n        /* \"#utility.yul\":1376:1402   */\n      swap1\n      pop\n        /* \"#utility.yul\":1412:1498   */\n      tag_155\n        /* \"#utility.yul\":1495:1496   */\n      0x00\n        /* \"#utility.yul\":1484:1493   */\n      dup4\n        /* \"#utility.yul\":1480:1497   */\n      add\n        /* \"#utility.yul\":1471:1477   */\n      dup5\n        /* \"#utility.yul\":1412:1498   */\n      tag_109\n      jump\t// in\n    tag_155:\n        /* \"#utility.yul\":1253:1505   */\n      swap3\n      swap2\n      pop\n      pop\n      jump\t// out\n        /* \"#utility.yul\":1511:1665   */\n    tag_110:\n        /* \"#utility.yul\":1589:1598   */\n      0x00\n        /* \"#utility.yul\":1622:1659   */\n      tag_157\n        /* \"#utility.yul\":1653:1658   */\n      dup3\n        /* \"#utility.yul\":1622:1659   */\n      tag_107\n      jump\t// in\n    tag_157:\n        /* \"#utility.yul\":1609:1659   */\n      swap1\n      pop\n        /* \"#utility.yul\":1511:1665   */\n      swap2\n      swap1\n      pop\n      jump\t// out\n        /* \"#utility.yul\":1671:1858   */\n    tag_111:\n        /* \"#utility.yul\":1786:1851   */\n      tag_159\n        /* \"#utility.yul\":1845:1850   */\n      dup2\n        /* \"#utility.yul\":1786:1851   */\n      tag_110\n      jump\t// in\n    tag_159:\n        /* \"#utility.yul\":1781:1784   */\n      dup3\n        /* \"#utility.yul\":1774:1852   */\n      mstore\n        /* \"#utility.yul\":1671:1858   */\n      pop\n      pop\n      jump\t// out\n        /* \"#utility.yul\":1864:2142   */\n    tag_26:\n        /* \"#utility.yul\":1985:1989   */\n      0x00\n        /* \"#utility.yul\":2023:2025   */\n      0x20\n        /* \"#utility.yul\":2012:2021   */\n      dup3\n        /* \"#utility.yul\":2008:2026   */\n      add\n        /* \"#utility.yul\":2000:2026   */\n      swap1\n      pop\n        /* \"#utility.yul\":2036:2135   */\n      tag_161\n        /* \"#utility.yul\":2132:2133   */\n      0x00\n        /* \"#utility.yul\":2121:2130   */\n      dup4\n        /* \"#utility.yul\":2117:2134   */\n      add\n        /* \"#utility.yul\":2108:2114   */\n      dup5\n        /* \"#utility.yul\":2036:2135   */\n      tag_111\n      jump\t// in\n    tag_161:\n        /* \"#utility.yul\":1864:2142   */\n      swap3\n      swap2\n      pop\n      pop\n      jump\t// out\n        /* \"#utility.yul\":2148:2225   */\n    tag_112:\n        /* \"#utility.yul\":2185:2192   */\n      0x00\n        /* \"#utility.yul\":2214:2219   */\n      dup2\n        /* \"#utility.yul\":2203:2219   */\n      swap1\n      pop\n        /* \"#utility.yul\":2148:2225   */\n      swap2\n      swap1\n      pop\n      jump\t// out\n        /* \"#utility.yul\":2231:2349   */\n    tag_113:\n        /* \"#utility.yul\":2318:2342   */\n      tag_164\n        /* \"#utility.yul\":2336:2341   */\n      dup2\n        /* \"#utility.yul\":2318:2342   */\n      tag_112\n      jump\t// in\n    tag_164:\n        /* \"#utility.yul\":2313:2316   */\n      dup3\n        /* \"#utility.yul\":2306:2343   */\n      mstore\n        /* \"#utility.yul\":2231:2349   */\n      pop\n      pop\n      jump\t// out\n        /* \"#utility.yul\":2355:2577   */\n    tag_30:\n        /* \"#utility.yul\":2448:2452   */\n      0x00\n        /* \"#utility.yul\":2486:2488   */\n      0x20\n        /* \"#utility.yul\":2475:2484   */\n      dup3\n        /* \"#utility.yul\":2471:2489   */\n      add\n        /* \"#utility.yul\":2463:2489   */\n      swap1\n      pop\n        /* \"#utility.yul\":2499:2570   */\n      tag_166\n        /* \"#utility.yul\":2567:2568   */\n      0x00\n        /* \"#utility.yul\":2556:2565   */\n      dup4\n        /* \"#utility.yul\":2552:2569   */\n      add\n        /* \"#utility.yul\":2543:2549   */\n      dup5\n        /* \"#utility.yul\":2499:2570   */\n      tag_113\n      jump\t// in\n    tag_166:\n        /* \"#utility.yul\":2355:2577   */\n      swap3\n      swap2\n      pop\n      pop\n      jump\t// out\n        /* \"#utility.yul\":2664:2781   */\n    tag_115:\n        /* \"#utility.yul\":2773:2774   */\n      0x00\n        /* \"#utility.yul\":2770:2771   */\n      dup1\n        /* \"#utility.yul\":2763:2775   */\n      revert\n        /* \"#utility.yul\":2910:3032   */\n    tag_117:\n        /* \"#utility.yul\":2983:3007   */\n      tag_171\n        /* \"#utility.yul\":3001:3006   */\n      dup2\n        /* \"#utility.yul\":2983:3007   */\n      tag_103\n      jump\t// in\n    tag_171:\n        /* \"#utility.yul\":2976:2981   */\n      dup2\n        /* \"#utility.yul\":2973:3008   */\n      eq\n        /* \"#utility.yul\":2963:3026   */\n      tag_172\n      jumpi\n        /* \"#utility.yul\":3022:3023   */\n      0x00\n        /* \"#utility.yul\":3019:3020   */\n      dup1\n        /* \"#utility.yul\":3012:3024   */\n      revert\n        /* \"#utility.yul\":2963:3026   */\n    tag_172:\n        /* \"#utility.yul\":2910:3032   */\n      pop\n      jump\t// out\n        /* \"#utility.yul\":3038:3177   */\n    tag_118:\n        /* \"#utility.yul\":3084:3089   */\n      0x00\n        /* \"#utility.yul\":3122:3128   */\n      dup2\n        /* \"#utility.yul\":3109:3129   */\n      calldataload\n        /* \"#utility.yul\":3100:3129   */\n      swap1\n      pop\n        /* \"#utility.yul\":3138:3171   */\n      tag_174\n        /* \"#utility.yul\":3165:3170   */\n      dup2\n        /* \"#utility.yul\":3138:3171   */\n      tag_117\n      jump\t// in\n    tag_174:\n        /* \"#utility.yul\":3038:3177   */\n      swap3\n      swap2\n      pop\n      pop\n      jump\t// out\n        /* \"#utility.yul\":3183:3512   */\n    tag_33:\n        /* \"#utility.yul\":3242:3248   */\n      0x00\n        /* \"#utility.yul\":3291:3293   */\n      0x20\n        /* \"#utility.yul\":3279:3288   */\n      dup3\n        /* \"#utility.yul\":3270:3277   */\n      dup5\n        /* \"#utility.yul\":3266:3289   */\n      sub\n        /* \"#utility.yul\":3262:3294   */\n      slt\n        /* \"#utility.yul\":3259:3378   */\n      iszero\n      tag_176\n      jumpi\n        /* \"#utility.yul\":3297:3376   */\n      tag_177\n      tag_115\n      jump\t// in\n    tag_177:\n        /* \"#utility.yul\":3259:3378   */\n    tag_176:\n        /* \"#utility.yul\":3417:3418   */\n      0x00\n        /* \"#utility.yul\":3442:3495   */\n      tag_178\n        /* \"#utility.yul\":3487:3494   */\n      dup5\n        /* \"#utility.yul\":3478:3484   */\n      dup3\n        /* \"#utility.yul\":3467:3476   */\n      dup6\n        /* \"#utility.yul\":3463:3485   */\n      add\n        /* \"#utility.yul\":3442:3495   */\n      tag_118\n      jump\t// in\n    tag_178:\n        /* \"#utility.yul\":3432:3495   */\n      swap2\n      pop\n        /* \"#utility.yul\":3388:3505   */\n      pop\n        /* \"#utility.yul\":3183:3512   */\n      swap3\n      swap2\n      pop\n      pop\n      jump\t// out\n        /* \"#utility.yul\":3518:3640   */\n    tag_119:\n        /* \"#utility.yul\":3591:3615   */\n      tag_180\n        /* \"#utility.yul\":3609:3614   */\n      dup2\n        /* \"#utility.yul\":3591:3615   */\n      tag_112\n      jump\t// in\n    tag_180:\n        /* \"#utility.yul\":3584:3589   */\n      dup2\n        /* \"#utility.yul\":3581:3616   */\n      eq\n        /* \"#utility.yul\":3571:3634   */\n      tag_181\n      jumpi\n        /* \"#utility.yul\":3630:3631   */\n      0x00\n        /* \"#utility.yul\":3627:3628   */\n      dup1\n        /* \"#utility.yul\":3620:3632   */\n      revert\n        /* \"#utility.yul\":3571:3634   */\n    tag_181:\n        /* \"#utility.yul\":3518:3640   */\n      pop\n      jump\t// out\n        /* \"#utility.yul\":3646:3789   */\n    tag_120:\n        /* \"#utility.yul\":3703:3708   */\n      0x00\n        /* \"#utility.yul\":3734:3740   */\n      dup2\n        /* \"#utility.yul\":3728:3741   */\n      mload\n        /* \"#utility.yul\":3719:3741   */\n      swap1\n      pop\n        /* \"#utility.yul\":3750:3783   */\n      tag_183\n        /* \"#utility.yul\":3777:3782   */\n      dup2\n        /* \"#utility.yul\":3750:3783   */\n      tag_119\n      jump\t// in\n    tag_183:\n        /* \"#utility.yul\":3646:3789   */\n      swap3\n      swap2\n      pop\n      pop\n      jump\t// out\n        /* \"#utility.yul\":3795:4146   */\n    tag_48:\n        /* \"#utility.yul\":3865:3871   */\n      0x00\n        /* \"#utility.yul\":3914:3916   */\n      0x20\n        /* \"#utility.yul\":3902:3911   */\n      dup3\n        /* \"#utility.yul\":3893:3900   */\n      dup5\n        /* \"#utility.yul\":3889:3912   */\n      sub\n        /* \"#utility.yul\":3885:3917   */\n      slt\n        /* \"#utility.yul\":3882:4001   */\n      iszero\n      tag_185\n      jumpi\n        /* \"#utility.yul\":3920:3999   */\n      tag_186\n      tag_115\n      jump\t// in\n    tag_186:\n        /* \"#utility.yul\":3882:4001   */\n    tag_185:\n        /* \"#utility.yul\":4040:4041   */\n      0x00\n        /* \"#utility.yul\":4065:4129   */\n      tag_187\n        /* \"#utility.yul\":4121:4128   */\n      dup5\n        /* \"#utility.yul\":4112:4118   */\n      dup3\n        /* \"#utility.yul\":4101:4110   */\n      dup6\n        /* \"#utility.yul\":4097:4119   */\n      add\n        /* \"#utility.yul\":4065:4129   */\n      tag_120\n      jump\t// in\n    tag_187:\n        /* \"#utility.yul\":4055:4129   */\n      swap2\n      pop\n        /* \"#utility.yul\":4011:4139   */\n      pop\n        /* \"#utility.yul\":3795:4146   */\n      swap3\n      swap2\n      pop\n      pop\n      jump\t// out\n        /* \"#utility.yul\":4152:4257   */\n    tag_121:\n        /* \"#utility.yul\":4188:4195   */\n      0x00\n        /* \"#utility.yul\":4228:4250   */\n      0xffffffffffffffffffff\n        /* \"#utility.yul\":4221:4226   */\n      dup3\n        /* \"#utility.yul\":4217:4251   */\n      and\n        /* \"#utility.yul\":4206:4251   */\n      swap1\n      pop\n        /* \"#utility.yul\":4152:4257   */\n      swap2\n      swap1\n      pop\n      jump\t// out\n        /* \"#utility.yul\":4263:4383   */\n    tag_122:\n        /* \"#utility.yul\":4335:4358   */\n      tag_190\n        /* \"#utility.yul\":4352:4357   */\n      dup2\n        /* \"#utility.yul\":4335:4358   */\n      tag_121\n      jump\t// in\n    tag_190:\n        /* \"#utility.yul\":4328:4333   */\n      dup2\n        /* \"#utility.yul\":4325:4359   */\n      eq\n        /* \"#utility.yul\":4315:4377   */\n      tag_191\n      jumpi\n        /* \"#utility.yul\":4373:4374   */\n      0x00\n        /* \"#utility.yul\":4370:4371   */\n      dup1\n        /* \"#utility.yul\":4363:4375   */\n      revert\n        /* \"#utility.yul\":4315:4377   */\n    tag_191:\n        /* \"#utility.yul\":4263:4383   */\n      pop\n      jump\t// out\n        /* \"#utility.yul\":4389:4530   */\n    tag_123:\n        /* \"#utility.yul\":4445:4450   */\n      0x00\n        /* \"#utility.yul\":4476:4482   */\n      dup2\n        /* \"#utility.yul\":4470:4483   */\n      mload\n        /* \"#utility.yul\":4461:4483   */\n      swap1\n      pop\n        /* \"#utility.yul\":4492:4524   */\n      tag_193\n        /* \"#utility.yul\":4518:4523   */\n      dup2\n        /* \"#utility.yul\":4492:4524   */\n      tag_122\n      jump\t// in\n    tag_193:\n        /* \"#utility.yul\":4389:4530   */\n      swap3\n      swap2\n      pop\n      pop\n      jump\t// out\n        /* \"#utility.yul\":4536:4612   */\n    tag_124:\n        /* \"#utility.yul\":4572:4579   */\n      0x00\n        /* \"#utility.yul\":4601:4606   */\n      dup2\n        /* \"#utility.yul\":4590:4606   */\n      swap1\n      pop\n        /* \"#utility.yul\":4536:4612   */\n      swap2\n      swap1\n      pop\n      jump\t// out\n        /* \"#utility.yul\":4618:4738   */\n    tag_125:\n        /* \"#utility.yul\":4690:4713   */\n      tag_196\n        /* \"#utility.yul\":4707:4712   */\n      dup2\n        /* \"#utility.yul\":4690:4713   */\n      tag_124\n      jump\t// in\n    tag_196:\n        /* \"#utility.yul\":4683:4688   */\n      dup2\n        /* \"#utility.yul\":4680:4714   */\n      eq\n        /* \"#utility.yul\":4670:4732   */\n      tag_197\n      jumpi\n        /* \"#utility.yul\":4728:4729   */\n      0x00\n        /* \"#utility.yul\":4725:4726   */\n      dup1\n        /* \"#utility.yul\":4718:4730   */\n      revert\n        /* \"#utility.yul\":4670:4732   */\n    tag_197:\n        /* \"#utility.yul\":4618:4738   */\n      pop\n      jump\t// out\n        /* \"#utility.yul\":4744:4885   */\n    tag_126:\n        /* \"#utility.yul\":4800:4805   */\n      0x00\n        /* \"#utility.yul\":4831:4837   */\n      dup2\n        /* \"#utility.yul\":4825:4838   */\n      mload\n        /* \"#utility.yul\":4816:4838   */\n      swap1\n      pop\n        /* \"#utility.yul\":4847:4879   */\n      tag_199\n        /* \"#utility.yul\":4873:4878   */\n      dup2\n        /* \"#utility.yul\":4847:4879   */\n      tag_125\n      jump\t// in\n    tag_199:\n        /* \"#utility.yul\":4744:4885   */\n      swap3\n      swap2\n      pop\n      pop\n      jump\t// out\n        /* \"#utility.yul\":4891:5862   */\n    tag_52:\n        /* \"#utility.yul\":4994:5000   */\n      0x00\n        /* \"#utility.yul\":5002:5008   */\n      dup1\n        /* \"#utility.yul\":5010:5016   */\n      0x00\n        /* \"#utility.yul\":5018:5024   */\n      dup1\n        /* \"#utility.yul\":5026:5032   */\n      0x00\n        /* \"#utility.yul\":5075:5078   */\n      0xa0\n        /* \"#utility.yul\":5063:5072   */\n      dup7\n        /* \"#utility.yul\":5054:5061   */\n      dup9\n        /* \"#utility.yul\":5050:5073   */\n      sub\n        /* \"#utility.yul\":5046:5079   */\n      slt\n        /* \"#utility.yul\":5043:5163   */\n      iszero\n      tag_201\n      jumpi\n        /* \"#utility.yul\":5082:5161   */\n      tag_202\n      tag_115\n      jump\t// in\n    tag_202:\n        /* \"#utility.yul\":5043:5163   */\n    tag_201:\n        /* \"#utility.yul\":5202:5203   */\n      0x00\n        /* \"#utility.yul\":5227:5290   */\n      tag_203\n        /* \"#utility.yul\":5282:5289   */\n      dup9\n        /* \"#utility.yul\":5273:5279   */\n      dup3\n        /* \"#utility.yul\":5262:5271   */\n      dup10\n        /* \"#utility.yul\":5258:5280   */\n      add\n        /* \"#utility.yul\":5227:5290   */\n      tag_123\n      jump\t// in\n    tag_203:\n        /* \"#utility.yul\":5217:5290   */\n      swap6\n      pop\n        /* \"#utility.yul\":5173:5300   */\n      pop\n        /* \"#utility.yul\":5339:5341   */\n      0x20\n        /* \"#utility.yul\":5365:5428   */\n      tag_204\n        /* \"#utility.yul\":5420:5427   */\n      dup9\n        /* \"#utility.yul\":5411:5417   */\n      dup3\n        /* \"#utility.yul\":5400:5409   */\n      dup10\n        /* \"#utility.yul\":5396:5418   */\n      add\n        /* \"#utility.yul\":5365:5428   */\n      tag_126\n      jump\t// in\n    tag_204:\n        /* \"#utility.yul\":5355:5428   */\n      swap5\n      pop\n        /* \"#utility.yul\":5310:5438   */\n      pop\n        /* \"#utility.yul\":5477:5479   */\n      0x40\n        /* \"#utility.yul\":5503:5567   */\n      tag_205\n        /* \"#utility.yul\":5559:5566   */\n      dup9\n        /* \"#utility.yul\":5550:5556   */\n      dup3\n        /* \"#utility.yul\":5539:5548   */\n      dup10\n        /* \"#utility.yul\":5535:5557   */\n      add\n        /* \"#utility.yul\":5503:5567   */\n      tag_120\n      jump\t// in\n    tag_205:\n        /* \"#utility.yul\":5493:5567   */\n      swap4\n      pop\n        /* \"#utility.yul\":5448:5577   */\n      pop\n        /* \"#utility.yul\":5616:5618   */\n      0x60\n        /* \"#utility.yul\":5642:5706   */\n      tag_206\n        /* \"#utility.yul\":5698:5705   */\n      dup9\n        /* \"#utility.yul\":5689:5695   */\n      dup3\n        /* \"#utility.yul\":5678:5687   */\n      dup10\n        /* \"#utility.yul\":5674:5696   */\n      add\n        /* \"#utility.yul\":5642:5706   */\n      tag_120\n      jump\t// in\n    tag_206:\n        /* \"#utility.yul\":5632:5706   */\n      swap3\n      pop\n        /* \"#utility.yul\":5587:5716   */\n      pop\n        /* \"#utility.yul\":5755:5758   */\n      0x80\n        /* \"#utility.yul\":5782:5845   */\n      tag_207\n        /* \"#utility.yul\":5837:5844   */\n      dup9\n        /* \"#utility.yul\":5828:5834   */\n      dup3\n        /* \"#utility.yul\":5817:5826   */\n      dup10\n        /* \"#utility.yul\":5813:5835   */\n      add\n        /* \"#utility.yul\":5782:5845   */\n      tag_123\n      jump\t// in\n    tag_207:\n        /* \"#utility.yul\":5772:5845   */\n      swap2\n      pop\n        /* \"#utility.yul\":5726:5855   */\n      pop\n        /* \"#utility.yul\":4891:5862   */\n      swap3\n      swap6\n      pop\n      swap3\n      swap6\n      swap1\n      swap4\n      pop\n      jump\t// out\n        /* \"#utility.yul\":5868:5954   */\n    tag_127:\n        /* \"#utility.yul\":5903:5910   */\n      0x00\n        /* \"#utility.yul\":5943:5947   */\n      0xff\n        /* \"#utility.yul\":5936:5941   */\n      dup3\n        /* \"#utility.yul\":5932:5948   */\n      and\n        /* \"#utility.yul\":5921:5948   */\n      swap1\n      pop\n        /* \"#utility.yul\":5868:5954   */\n      swap2\n      swap1\n      pop\n      jump\t// out\n        /* \"#utility.yul\":5960:6078   */\n    tag_128:\n        /* \"#utility.yul\":6031:6053   */\n      tag_210\n        /* \"#utility.yul\":6047:6052   */\n      dup2\n        /* \"#utility.yul\":6031:6053   */\n      tag_127\n      jump\t// in\n    tag_210:\n        /* \"#utility.yul\":6024:6029   */\n      dup2\n        /* \"#utility.yul\":6021:6054   */\n      eq\n        /* \"#utility.yul\":6011:6072   */\n      tag_211\n      jumpi\n        /* \"#utility.yul\":6068:6069   */\n      0x00\n        /* \"#utility.yul\":6065:6066   */\n      dup1\n        /* \"#utility.yul\":6058:6070   */\n      revert\n        /* \"#utility.yul\":6011:6072   */\n    tag_211:\n        /* \"#utility.yul\":5960:6078   */\n      pop\n      jump\t// out\n        /* \"#utility.yul\":6084:6223   */\n    tag_129:\n        /* \"#utility.yul\":6139:6144   */\n      0x00\n        /* \"#utility.yul\":6170:6176   */\n      dup2\n        /* \"#utility.yul\":6164:6177   */\n      mload\n        /* \"#utility.yul\":6155:6177   */\n      swap1\n      pop\n        /* \"#utility.yul\":6186:6217   */\n      tag_213\n        /* \"#utility.yul\":6211:6216   */\n      dup2\n        /* \"#utility.yul\":6186:6217   */\n      tag_128\n      jump\t// in\n    tag_213:\n        /* \"#utility.yul\":6084:6223   */\n      swap3\n      swap2\n      pop\n      pop\n      jump\t// out\n        /* \"#utility.yul\":6229:6576   */\n    tag_56:\n        /* \"#utility.yul\":6297:6303   */\n      0x00\n        /* \"#utility.yul\":6346:6348   */\n      0x20\n        /* \"#utility.yul\":6334:6343   */\n      dup3\n        /* \"#utility.yul\":6325:6332   */\n      dup5\n        /* \"#utility.yul\":6321:6344   */\n      sub\n        /* \"#utility.yul\":6317:6349   */\n      slt\n        /* \"#utility.yul\":6314:6433   */\n      iszero\n      tag_215\n      jumpi\n        /* \"#utility.yul\":6352:6431   */\n      tag_216\n      tag_115\n      jump\t// in\n    tag_216:\n        /* \"#utility.yul\":6314:6433   */\n    tag_215:\n        /* \"#utility.yul\":6472:6473   */\n      0x00\n        /* \"#utility.yul\":6497:6559   */\n      tag_217\n        /* \"#utility.yul\":6551:6558   */\n      dup5\n        /* \"#utility.yul\":6542:6548   */\n      dup3\n        /* \"#utility.yul\":6531:6540   */\n      dup6\n        /* \"#utility.yul\":6527:6549   */\n      add\n        /* \"#utility.yul\":6497:6559   */\n      tag_129\n      jump\t// in\n    tag_217:\n        /* \"#utility.yul\":6487:6559   */\n      swap2\n      pop\n        /* \"#utility.yul\":6443:6569   */\n      pop\n        /* \"#utility.yul\":6229:6576   */\n      swap3\n      swap2\n      pop\n      pop\n      jump\t// out\n        /* \"#utility.yul\":6582:6762   */\n    tag_130:\n        /* \"#utility.yul\":6630:6707   */\n      0x4e487b7100000000000000000000000000000000000000000000000000000000\n        /* \"#utility.yul\":6627:6628   */\n      0x00\n        /* \"#utility.yul\":6620:6708   */\n      mstore\n        /* \"#utility.yul\":6727:6731   */\n      0x11\n        /* \"#utility.yul\":6724:6725   */\n      0x04\n        /* \"#utility.yul\":6717:6732   */\n      mstore\n        /* \"#utility.yul\":6751:6755   */\n      0x24\n        /* \"#utility.yul\":6748:6749   */\n      0x00\n        /* \"#utility.yul\":6741:6756   */\n      revert\n        /* \"#utility.yul\":6768:6870   */\n    tag_131:\n        /* \"#utility.yul\":6810:6818   */\n      0x00\n        /* \"#utility.yul\":6857:6862   */\n      dup2\n        /* \"#utility.yul\":6854:6855   */\n      0x01\n        /* \"#utility.yul\":6850:6863   */\n      shr\n        /* \"#utility.yul\":6829:6863   */\n      swap1\n      pop\n        /* \"#utility.yul\":6768:6870   */\n      swap2\n      swap1\n      pop\n      jump\t// out\n        /* \"#utility.yul\":6876:7724   */\n    tag_132:\n        /* \"#utility.yul\":6937:6942   */\n      0x00\n        /* \"#utility.yul\":6944:6948   */\n      dup1\n        /* \"#utility.yul\":6968:6974   */\n      dup3\n        /* \"#utility.yul\":6959:6974   */\n      swap2\n      pop\n        /* \"#utility.yul\":6992:6997   */\n      dup4\n        /* \"#utility.yul\":6983:6997   */\n      swap1\n      pop\n        /* \"#utility.yul\":7006:7718   */\n    tag_221:\n        /* \"#utility.yul\":7027:7028   */\n      0x01\n        /* \"#utility.yul\":7017:7025   */\n      dup6\n        /* \"#utility.yul\":7014:7029   */\n      gt\n        /* \"#utility.yul\":7006:7718   */\n      iszero\n      tag_223\n      jumpi\n        /* \"#utility.yul\":7122:7126   */\n      dup1\n        /* \"#utility.yul\":7117:7120   */\n      dup7\n        /* \"#utility.yul\":7113:7127   */\n      div\n        /* \"#utility.yul\":7107:7111   */\n      dup2\n        /* \"#utility.yul\":7104:7128   */\n      gt\n        /* \"#utility.yul\":7101:7151   */\n      iszero\n      tag_224\n      jumpi\n        /* \"#utility.yul\":7131:7149   */\n      tag_225\n      tag_130\n      jump\t// in\n    tag_225:\n        /* \"#utility.yul\":7101:7151   */\n    tag_224:\n        /* \"#utility.yul\":7181:7182   */\n      0x01\n        /* \"#utility.yul\":7171:7179   */\n      dup6\n        /* \"#utility.yul\":7167:7183   */\n      and\n        /* \"#utility.yul\":7164:7615   */\n      iszero\n      tag_226\n      jumpi\n        /* \"#utility.yul\":7596:7600   */\n      dup1\n        /* \"#utility.yul\":7589:7594   */\n      dup3\n        /* \"#utility.yul\":7585:7601   */\n      mul\n        /* \"#utility.yul\":7576:7601   */\n      swap2\n      pop\n        /* \"#utility.yul\":7164:7615   */\n    tag_226:\n        /* \"#utility.yul\":7646:7650   */\n      dup1\n        /* \"#utility.yul\":7640:7644   */\n      dup2\n        /* \"#utility.yul\":7636:7651   */\n      mul\n        /* \"#utility.yul\":7628:7651   */\n      swap1\n      pop\n        /* \"#utility.yul\":7676:7708   */\n      tag_227\n        /* \"#utility.yul\":7699:7707   */\n      dup6\n        /* \"#utility.yul\":7676:7708   */\n      tag_131\n      jump\t// in\n    tag_227:\n        /* \"#utility.yul\":7664:7708   */\n      swap5\n      pop\n        /* \"#utility.yul\":7006:7718   */\n      jump(tag_221)\n    tag_223:\n        /* \"#utility.yul\":6876:7724   */\n      swap5\n      pop\n      swap5\n      swap3\n      pop\n      pop\n      pop\n      jump\t// out\n        /* \"#utility.yul\":7730:8803   */\n    tag_133:\n        /* \"#utility.yul\":7784:7789   */\n      0x00\n        /* \"#utility.yul\":7975:7983   */\n      dup3\n        /* \"#utility.yul\":7965:8005   */\n      tag_229\n      jumpi\n        /* \"#utility.yul\":7996:7997   */\n      0x01\n        /* \"#utility.yul\":7987:7997   */\n      swap1\n      pop\n        /* \"#utility.yul\":7998:8003   */\n      jump(tag_228)\n        /* \"#utility.yul\":7965:8005   */\n    tag_229:\n        /* \"#utility.yul\":8024:8028   */\n      dup2\n        /* \"#utility.yul\":8014:8050   */\n      tag_230\n      jumpi\n        /* \"#utility.yul\":8041:8042   */\n      0x00\n        /* \"#utility.yul\":8032:8042   */\n      swap1\n      pop\n        /* \"#utility.yul\":8043:8048   */\n      jump(tag_228)\n        /* \"#utility.yul\":8014:8050   */\n    tag_230:\n        /* \"#utility.yul\":8110:8114   */\n      dup2\n        /* \"#utility.yul\":8158:8159   */\n      0x01\n        /* \"#utility.yul\":8153:8180   */\n      dup2\n      eq\n      tag_232\n      jumpi\n        /* \"#utility.yul\":8194:8195   */\n      0x02\n        /* \"#utility.yul\":8189:8380   */\n      dup2\n      eq\n      tag_233\n      jumpi\n        /* \"#utility.yul\":8103:8380   */\n      jump(tag_231)\n        /* \"#utility.yul\":8153:8180   */\n    tag_232:\n        /* \"#utility.yul\":8171:8172   */\n      0x01\n        /* \"#utility.yul\":8162:8172   */\n      swap2\n      pop\n        /* \"#utility.yul\":8173:8178   */\n      pop\n      jump(tag_228)\n        /* \"#utility.yul\":8189:8380   */\n    tag_233:\n        /* \"#utility.yul\":8234:8237   */\n      0xff\n        /* \"#utility.yul\":8224:8232   */\n      dup5\n        /* \"#utility.yul\":8221:8238   */\n      gt\n        /* \"#utility.yul\":8218:8261   */\n      iszero\n      tag_234\n      jumpi\n        /* \"#utility.yul\":8241:8259   */\n      tag_235\n      tag_130\n      jump\t// in\n    tag_235:\n        /* \"#utility.yul\":8218:8261   */\n    tag_234:\n        /* \"#utility.yul\":8290:8298   */\n      dup4\n        /* \"#utility.yul\":8287:8288   */\n      0x02\n        /* \"#utility.yul\":8283:8299   */\n      exp\n        /* \"#utility.yul\":8274:8299   */\n      swap2\n      pop\n        /* \"#utility.yul\":8325:8328   */\n      dup5\n        /* \"#utility.yul\":8318:8323   */\n      dup3\n        /* \"#utility.yul\":8315:8329   */\n      gt\n        /* \"#utility.yul\":8312:8352   */\n      iszero\n      tag_236\n      jumpi\n        /* \"#utility.yul\":8332:8350   */\n      tag_237\n      tag_130\n      jump\t// in\n    tag_237:\n        /* \"#utility.yul\":8312:8352   */\n    tag_236:\n        /* \"#utility.yul\":8365:8370   */\n      pop\n      jump(tag_228)\n        /* \"#utility.yul\":8103:8380   */\n    tag_231:\n      pop\n        /* \"#utility.yul\":8489:8491   */\n      0x20\n        /* \"#utility.yul\":8479:8487   */\n      dup4\n        /* \"#utility.yul\":8476:8492   */\n      lt\n        /* \"#utility.yul\":8470:8473   */\n      0x0133\n        /* \"#utility.yul\":8464:8468   */\n      dup4\n        /* \"#utility.yul\":8461:8474   */\n      lt\n        /* \"#utility.yul\":8457:8493   */\n      and\n        /* \"#utility.yul\":8439:8441   */\n      0x4e\n        /* \"#utility.yul\":8429:8437   */\n      dup5\n        /* \"#utility.yul\":8426:8442   */\n      lt\n        /* \"#utility.yul\":8421:8423   */\n      0x0b\n        /* \"#utility.yul\":8415:8419   */\n      dup5\n        /* \"#utility.yul\":8412:8424   */\n      lt\n        /* \"#utility.yul\":8408:8443   */\n      and\n        /* \"#utility.yul\":8392:8503   */\n      or\n        /* \"#utility.yul\":8389:8635   */\n      iszero\n      tag_238\n      jumpi\n        /* \"#utility.yul\":8545:8553   */\n      dup3\n        /* \"#utility.yul\":8539:8543   */\n      dup3\n        /* \"#utility.yul\":8535:8554   */\n      exp\n        /* \"#utility.yul\":8526:8554   */\n      swap1\n      pop\n        /* \"#utility.yul\":8580:8583   */\n      dup4\n        /* \"#utility.yul\":8573:8578   */\n      dup2\n        /* \"#utility.yul\":8570:8584   */\n      gt\n        /* \"#utility.yul\":8567:8607   */\n      iszero\n      tag_239\n      jumpi\n        /* \"#utility.yul\":8587:8605   */\n      tag_240\n      tag_130\n      jump\t// in\n    tag_240:\n        /* \"#utility.yul\":8567:8607   */\n    tag_239:\n        /* \"#utility.yul\":8620:8625   */\n      jump(tag_228)\n        /* \"#utility.yul\":8389:8635   */\n    tag_238:\n        /* \"#utility.yul\":8660:8702   */\n      tag_241\n        /* \"#utility.yul\":8698:8701   */\n      dup5\n        /* \"#utility.yul\":8688:8696   */\n      dup5\n        /* \"#utility.yul\":8682:8686   */\n      dup5\n        /* \"#utility.yul\":8679:8680   */\n      0x01\n        /* \"#utility.yul\":8660:8702   */\n      tag_132\n      jump\t// in\n    tag_241:\n        /* \"#utility.yul\":8645:8702   */\n      swap3\n      pop\n      swap1\n      pop\n        /* \"#utility.yul\":8734:8738   */\n      dup2\n        /* \"#utility.yul\":8729:8732   */\n      dup5\n        /* \"#utility.yul\":8725:8739   */\n      div\n        /* \"#utility.yul\":8718:8723   */\n      dup2\n        /* \"#utility.yul\":8715:8740   */\n      gt\n        /* \"#utility.yul\":8712:8763   */\n      iszero\n      tag_242\n      jumpi\n        /* \"#utility.yul\":8743:8761   */\n      tag_243\n      tag_130\n      jump\t// in\n    tag_243:\n        /* \"#utility.yul\":8712:8763   */\n    tag_242:\n        /* \"#utility.yul\":8792:8796   */\n      dup2\n        /* \"#utility.yul\":8785:8790   */\n      dup2\n        /* \"#utility.yul\":8781:8797   */\n      mul\n        /* \"#utility.yul\":8772:8797   */\n      swap1\n      pop\n        /* \"#utility.yul\":7730:8803   */\n    tag_228:\n      swap4\n      swap3\n      pop\n      pop\n      pop\n      jump\t// out\n        /* \"#utility.yul\":8809:9090   */\n    tag_58:\n        /* \"#utility.yul\":8867:8872   */\n      0x00\n        /* \"#utility.yul\":8891:8914   */\n      tag_245\n        /* \"#utility.yul\":8909:8913   */\n      dup3\n        /* \"#utility.yul\":8891:8914   */\n      tag_112\n      jump\t// in\n    tag_245:\n        /* \"#utility.yul\":8883:8914   */\n      swap2\n      pop\n        /* \"#utility.yul\":8935:8960   */\n      tag_246\n        /* \"#utility.yul\":8951:8959   */\n      dup4\n        /* \"#utility.yul\":8935:8960   */\n      tag_127\n      jump\t// in\n    tag_246:\n        /* \"#utility.yul\":8923:8960   */\n      swap3\n      pop\n        /* \"#utility.yul\":8979:9083   */\n      tag_247\n        /* \"#utility.yul\":9016:9082   */\n      0xffffffffffffffffffffffffffffffffffffffffffffffffffffffffffffffff\n        /* \"#utility.yul\":9006:9014   */\n      dup5\n        /* \"#utility.yul\":9000:9004   */\n      dup5\n        /* \"#utility.yul\":8979:9083   */\n      tag_133\n      jump\t// in\n    tag_247:\n        /* \"#utility.yul\":8970:9083   */\n      swap1\n      pop\n        /* \"#utility.yul\":8809:9090   */\n      swap3\n      swap2\n      pop\n      pop\n      jump\t// out\n        /* \"#utility.yul\":9096:9506   */\n    tag_60:\n        /* \"#utility.yul\":9136:9143   */\n      0x00\n        /* \"#utility.yul\":9159:9179   */\n      tag_249\n        /* \"#utility.yul\":9177:9178   */\n      dup3\n        /* \"#utility.yul\":9159:9179   */\n      tag_112\n      jump\t// in\n    tag_249:\n        /* \"#utility.yul\":9154:9179   */\n      swap2\n      pop\n        /* \"#utility.yul\":9193:9213   */\n      tag_250\n        /* \"#utility.yul\":9211:9212   */\n      dup4\n        /* \"#utility.yul\":9193:9213   */\n      tag_112\n      jump\t// in\n    tag_250:\n        /* \"#utility.yul\":9188:9213   */\n      swap3\n      pop\n        /* \"#utility.yul\":9248:9249   */\n      dup3\n        /* \"#utility.yul\":9245:9246   */\n      dup3\n        /* \"#utility.yul\":9241:9250   */\n      mul\n        /* \"#utility.yul\":9270:9300   */\n      tag_251\n        /* \"#utility.yul\":9288:9299   */\n      dup2\n        /* \"#utility.yul\":9270:9300   */\n      tag_112\n      jump\t// in\n    tag_251:\n        /* \"#utility.yul\":9259:9300   */\n      swap2\n      pop\n        /* \"#utility.yul\":9449:9450   */\n      dup3\n        /* \"#utility.yul\":9440:9447   */\n      dup3\n        /* \"#utility.yul\":9436:9451   */\n      div\n        /* \"#utility.yul\":9433:9434   */\n      dup5\n        /* \"#utility.yul\":9430:9452   */\n      eq\n        /* \"#utility.yul\":9410:9411   */\n      dup4\n        /* \"#utility.yul\":9403:9412   */\n      iszero\n        /* \"#utility.yul\":9383:9466   */\n      or\n        /* \"#utility.yul\":9360:9499   */\n      tag_252\n      jumpi\n        /* \"#utility.yul\":9479:9497   */\n      tag_253\n      tag_130\n      jump\t// in\n    tag_253:\n        /* \"#utility.yul\":9360:9499   */\n    tag_252:\n        /* \"#utility.yul\":9144:9506   */\n      pop\n        /* \"#utility.yul\":9096:9506   */\n      swap3\n      swap2\n      pop\n      pop\n      jump\t// out\n        /* \"#utility.yul\":9512:9692   */\n    tag_134:\n        /* \"#utility.yul\":9560:9637   */\n      0x4e487b7100000000000000000000000000000000000000000000000000000000\n        /* \"#utility.yul\":9557:9558   */\n      0x00\n        /* \"#utility.yul\":9550:9638   */\n      mstore\n        /* \"#utility.yul\":9657:9661   */\n      0x12\n        /* \"#utility.yul\":9654:9655   */\n      0x04\n        /* \"#utility.yul\":9647:9662   */\n      mstore\n        /* \"#utility.yul\":9681:9685   */\n      0x24\n        /* \"#utility.yul\":9678:9679   */\n      0x00\n        /* \"#utility.yul\":9671:9686   */\n      revert\n        /* \"#utility.yul\":9698:9883   */\n    tag_63:\n        /* \"#utility.yul\":9738:9739   */\n      0x00\n        /* \"#utility.yul\":9755:9775   */\n      tag_256\n        /* \"#utility.yul\":9773:9774   */\n      dup3\n        /* \"#utility.yul\":9755:9775   */\n      tag_112\n      jump\t// in\n    tag_256:\n        /* \"#utility.yul\":9750:9775   */\n      swap2\n      pop\n        /* \"#utility.yul\":9789:9809   */\n      tag_257\n        /* \"#utility.yul\":9807:9808   */\n      dup4\n        /* \"#utility.yul\":9789:9809   */\n      tag_112\n      jump\t// in\n    tag_257:\n        /* \"#utility.yul\":9784:9809   */\n      swap3\n      pop\n        /* \"#utility.yul\":9828:9829   */\n      dup3\n        /* \"#utility.yul\":9818:9853   */\n      tag_258\n      jumpi\n        /* \"#utility.yul\":9833:9851   */\n      tag_259\n      tag_134\n      jump\t// in\n    tag_259:\n        /* \"#utility.yul\":9818:9853   */\n    tag_258:\n        /* \"#utility.yul\":9875:9876   */\n      dup3\n        /* \"#utility.yul\":9872:9873   */\n      dup3\n        /* \"#utility.yul\":9868:9877   */\n      div\n        /* \"#utility.yul\":9863:9877   */\n      swap1\n      pop\n        /* \"#utility.yul\":9698:9883   */\n      swap3\n      swap2\n      pop\n      pop\n      jump\t// out\n        /* \"#utility.yul\":9889:10221   */\n    tag_81:\n        /* \"#utility.yul\":10010:10014   */\n      0x00\n        /* \"#utility.yul\":10048:10050   */\n      0x40\n        /* \"#utility.yul\":10037:10046   */\n      dup3\n        /* \"#utility.yul\":10033:10051   */\n      add\n        /* \"#utility.yul\":10025:10051   */\n      swap1\n      pop\n        /* \"#utility.yul\":10061:10132   */\n      tag_261\n        /* \"#utility.yul\":10129:10130   */\n      0x00\n        /* \"#utility.yul\":10118:10127   */\n      dup4\n        /* \"#utility.yul\":10114:10131   */\n      add\n        /* \"#utility.yul\":10105:10111   */\n      dup6\n        /* \"#utility.yul\":10061:10132   */\n      tag_104\n      jump\t// in\n    tag_261:\n        /* \"#utility.yul\":10142:10214   */\n      tag_262\n        /* \"#utility.yul\":10210:10212   */\n      0x20\n        /* \"#utility.yul\":10199:10208   */\n      dup4\n        /* \"#utility.yul\":10195:10213   */\n      add\n        /* \"#utility.yul\":10186:10192   */\n      dup5\n        /* \"#utility.yul\":10142:10214   */\n      tag_113\n      jump\t// in\n    tag_262:\n        /* \"#utility.yul\":9889:10221   */\n      swap4\n      swap3\n      pop\n      pop\n      pop\n      jump\t// out\n        /* \"#utility.yul\":10227:10559   */\n    tag_86:\n        /* \"#utility.yul\":10348:10352   */\n      0x00\n        /* \"#utility.yul\":10386:10388   */\n      0x40\n        /* \"#utility.yul\":10375:10384   */\n      dup3\n        /* \"#utility.yul\":10371:10389   */\n      add\n        /* \"#utility.yul\":10363:10389   */\n      swap1\n      pop\n        /* \"#utility.yul\":10399:10470   */\n      tag_264\n        /* \"#utility.yul\":10467:10468   */\n      0x00\n        /* \"#utility.yul\":10456:10465   */\n      dup4\n        /* \"#utility.yul\":10452:10469   */\n      add\n        /* \"#utility.yul\":10443:10449   */\n      dup6\n        /* \"#utility.yul\":10399:10470   */\n      tag_113\n      jump\t// in\n    tag_264:\n        /* \"#utility.yul\":10480:10552   */\n      tag_265\n        /* \"#utility.yul\":10548:10550   */\n      0x20\n        /* \"#utility.yul\":10537:10546   */\n      dup4\n        /* \"#utility.yul\":10533:10551   */\n      add\n        /* \"#utility.yul\":10524:10530   */\n      dup5\n        /* \"#utility.yul\":10480:10552   */\n      tag_113\n      jump\t// in\n    tag_265:\n        /* \"#utility.yul\":10227:10559   */\n      swap4\n      swap3\n      pop\n      pop\n      pop\n      jump\t// out\n\n    auxdata: 0xa2646970667358221220bb3248e9ee9279fb1e416ab15e21979688f83d7800f635db648b9c60f265d10064736f6c63430008180033\n}\n",
				"bytecode": {
					"linkReferences": {},
					"object": "608060405234801562000010575f80fd5b5060405162001524380380620015248339818101604052810190620000369190620003ab565b805f73ffffffffffffffffffffffffffffffffffffffff168173ffffffffffffffffffffffffffffffffffffffff1603620000aa575f6040517f1e4fbdf7000000000000000000000000000000000000000000000000000000008152600401620000a1919062000415565b60405180910390fd5b620000bb816200028560201b60201c565b508260015f6101000a81548173ffffffffffffffffffffffffffffffffffffffff021916908373ffffffffffffffffffffffffffffffffffffffff1602179055508160025f6101000a81548173ffffffffffffffffffffffffffffffffffffffff021916908373ffffffffffffffffffffffffffffffffffffffff16021790555060015f9054906101000a900473ffffffffffffffffffffffffffffffffffffffff1673ffffffffffffffffffffffffffffffffffffffff1663f7ea7a3d60015f9054906101000a900473ffffffffffffffffffffffffffffffffffffffff1673ffffffffffffffffffffffffffffffffffffffff1663313ce5676040518163ffffffff1660e01b8152600401602060405180830381865afa158015620001e4573d5f803e3d5ffd5b505050506040513d601f19601f820116820180604052508101906200020a91906200046b565b600a62000218919062000621565b620186a062000228919062000671565b6040518263ffffffff1660e01b8152600401620002469190620006cc565b5f604051808303815f87803b1580156200025e575f80fd5b505af115801562000271573d5f803e3d5ffd5b5050505042600381905550505050620006e7565b5f805f9054906101000a900473ffffffffffffffffffffffffffffffffffffffff169050815f806101000a81548173ffffffffffffffffffffffffffffffffffffffff021916908373ffffffffffffffffffffffffffffffffffffffff1602179055508173ffffffffffffffffffffffffffffffffffffffff168173ffffffffffffffffffffffffffffffffffffffff167f8be0079c531659141344cd1fd0a4f28419497f9722a3daafe3b4186f6b6457e060405160405180910390a35050565b5f80fd5b5f73ffffffffffffffffffffffffffffffffffffffff82169050919050565b5f62000375826200034a565b9050919050565b620003878162000369565b811462000392575f80fd5b50565b5f81519050620003a5816200037c565b92915050565b5f805f60608486031215620003c557620003c462000346565b5b5f620003d48682870162000395565b9350506020620003e78682870162000395565b9250506040620003fa8682870162000395565b9150509250925092565b6200040f8162000369565b82525050565b5f6020820190506200042a5f83018462000404565b92915050565b5f60ff82169050919050565b620004478162000430565b811462000452575f80fd5b50565b5f8151905062000465816200043c565b92915050565b5f6020828403121562000483576200048262000346565b5b5f620004928482850162000455565b91505092915050565b7f4e487b71000000000000000000000000000000000000000000000000000000005f52601160045260245ffd5b5f8160011c9050919050565b5f808291508390505b60018511156200052557808604811115620004fd57620004fc6200049b565b5b60018516156200050d5780820291505b80810290506200051d85620004c8565b9450620004dd565b94509492505050565b5f826200053f576001905062000611565b816200054e575f905062000611565b81600181146200056757600281146200057257620005a8565b600191505062000611565b60ff8411156200058757620005866200049b565b5b8360020a915084821115620005a157620005a06200049b565b5b5062000611565b5060208310610133831016604e8410600b8410161715620005e25782820a905083811115620005dc57620005db6200049b565b5b62000611565b620005f18484846001620004d4565b925090508184048111156200060b576200060a6200049b565b5b81810290505b9392505050565b5f819050919050565b5f6200062d8262000618565b91506200063a8362000430565b9250620006697fffffffffffffffffffffffffffffffffffffffffffffffffffffffffffffffff84846200052e565b905092915050565b5f6200067d8262000618565b91506200068a8362000618565b92508282026200069a8162000618565b91508282048414831517620006b457620006b36200049b565b5b5092915050565b620006c68162000618565b82525050565b5f602082019050620006e15f830184620006bb565b92915050565b610e2f80620006f55f395ff3fe608060405234801561000f575f80fd5b506004361061007b575f3560e01c8063af14052c11610059578063af14052c146100c5578063af7665ce146100cf578063b86a2fd7146100ed578063f2fde38b1461010b5761007b565b8063715018a61461007f5780638da5cb5b14610089578063acd6325c146100a7575b5f80fd5b610087610127565b005b61009161013a565b60405161009e9190610878565b60405180910390f35b6100af610161565b6040516100bc91906108ec565b60405180910390f35b6100cd610186565b005b6100d761063b565b6040516100e49190610925565b60405180910390f35b6100f5610660565b6040516101029190610956565b60405180910390f35b6101256004803603810190610120919061099d565b610666565b005b61012f6106ea565b6101385f610771565b565b5f805f9054906101000a900473ffffffffffffffffffffffffffffffffffffffff16905090565b60015f9054906101000a900473ffffffffffffffffffffffffffffffffffffffff1681565b61018e6106ea565b5f60015f9054906101000a900473ffffffffffffffffffffffffffffffffffffffff1673ffffffffffffffffffffffffffffffffffffffff166318160ddd6040518163ffffffff1660e01b8152600401602060405180830381865afa1580156101f9573d5f803e3d5ffd5b505050506040513d601f19601f8201168201806040525081019061021d91906109f2565b90505f60025f9054906101000a900473ffffffffffffffffffffffffffffffffffffffff1673ffffffffffffffffffffffffffffffffffffffff1663feaf968c6040518163ffffffff1660e01b815260040160a060405180830381865afa15801561028a573d5f803e3d5ffd5b505050506040513d601f19601f820116820180604052508101906102ae9190610a8f565b5050509150505f8190505f670de0b6b3a764000090505f8260015f9054906101000a900473ffffffffffffffffffffffffffffffffffffffff1673ffffffffffffffffffffffffffffffffffffffff1663313ce5676040518163ffffffff1660e01b8152600401602060405180830381865afa158015610330573d5f803e3d5ffd5b505050506040513d601f19601f820116820180604052508101906103549190610b3c565b600a6103609190610cc3565b838761036c9190610d0d565b6103769190610d0d565b6103809190610d7b565b905060015f9054906101000a900473ffffffffffffffffffffffffffffffffffffffff1673ffffffffffffffffffffffffffffffffffffffff1663f7ea7a3d826040518263ffffffff1660e01b81526004016103dc9190610956565b5f604051808303815f87803b1580156103f3575f80fd5b505af1158015610405573d5f803e3d5ffd5b50505050426003819055505f60015f9054906101000a900473ffffffffffffffffffffffffffffffffffffffff1673ffffffffffffffffffffffffffffffffffffffff1663c69199e16040518163ffffffff1660e01b8152600401602060405180830381865afa15801561047b573d5f803e3d5ffd5b505050506040513d601f19601f8201168201806040525081019061049f91906109f2565b90505f5b818110156105f9575f8190505f60015f9054906101000a900473ffffffffffffffffffffffffffffffffffffffff1673ffffffffffffffffffffffffffffffffffffffff166327e235e3836040518263ffffffff1660e01b815260040161050a9190610878565b602060405180830381865afa158015610525573d5f803e3d5ffd5b505050506040513d601f19601f8201168201806040525081019061054991906109f2565b905060015f9054906101000a900473ffffffffffffffffffffffffffffffffffffffff1673ffffffffffffffffffffffffffffffffffffffff1663e30443bc838b88856105969190610d0d565b6105a09190610d7b565b6040518363ffffffff1660e01b81526004016105bd929190610dab565b5f604051808303815f87803b1580156105d4575f80fd5b505af11580156105e6573d5f803e3d5ffd5b50505050505080806001019150506104a3565b507f11c6bf55864ff83827df712625d7a80e5583eef0264921025e7cd22003a21511868360405161062b929190610dd2565b60405180910390a1505050505050565b60025f9054906101000a900473ffffffffffffffffffffffffffffffffffffffff1681565b60035481565b61066e6106ea565b5f73ffffffffffffffffffffffffffffffffffffffff168173ffffffffffffffffffffffffffffffffffffffff16036106de575f6040517f1e4fbdf70000000000000000000000000000000000000000000000000000000081526004016106d59190610878565b60405180910390fd5b6106e781610771565b50565b6106f2610832565b73ffffffffffffffffffffffffffffffffffffffff1661071061013a565b73ffffffffffffffffffffffffffffffffffffffff161461076f57610733610832565b6040517f118cdaa70000000000000000000000000000000000000000000000000000000081526004016107669190610878565b60405180910390fd5b565b5f805f9054906101000a900473ffffffffffffffffffffffffffffffffffffffff169050815f806101000a81548173ffffffffffffffffffffffffffffffffffffffff021916908373ffffffffffffffffffffffffffffffffffffffff1602179055508173ffffffffffffffffffffffffffffffffffffffff168173ffffffffffffffffffffffffffffffffffffffff167f8be0079c531659141344cd1fd0a4f28419497f9722a3daafe3b4186f6b6457e060405160405180910390a35050565b5f33905090565b5f73ffffffffffffffffffffffffffffffffffffffff82169050919050565b5f61086282610839565b9050919050565b61087281610858565b82525050565b5f60208201905061088b5f830184610869565b92915050565b5f819050919050565b5f6108b46108af6108aa84610839565b610891565b610839565b9050919050565b5f6108c58261089a565b9050919050565b5f6108d6826108bb565b9050919050565b6108e6816108cc565b82525050565b5f6020820190506108ff5f8301846108dd565b92915050565b5f61090f826108bb565b9050919050565b61091f81610905565b82525050565b5f6020820190506109385f830184610916565b92915050565b5f819050919050565b6109508161093e565b82525050565b5f6020820190506109695f830184610947565b92915050565b5f80fd5b61097c81610858565b8114610986575f80fd5b50565b5f8135905061099781610973565b92915050565b5f602082840312156109b2576109b161096f565b5b5f6109bf84828501610989565b91505092915050565b6109d18161093e565b81146109db575f80fd5b50565b5f815190506109ec816109c8565b92915050565b5f60208284031215610a0757610a0661096f565b5b5f610a14848285016109de565b91505092915050565b5f69ffffffffffffffffffff82169050919050565b610a3b81610a1d565b8114610a45575f80fd5b50565b5f81519050610a5681610a32565b92915050565b5f819050919050565b610a6e81610a5c565b8114610a78575f80fd5b50565b5f81519050610a8981610a65565b92915050565b5f805f805f60a08688031215610aa857610aa761096f565b5b5f610ab588828901610a48565b9550506020610ac688828901610a7b565b9450506040610ad7888289016109de565b9350506060610ae8888289016109de565b9250506080610af988828901610a48565b9150509295509295909350565b5f60ff82169050919050565b610b1b81610b06565b8114610b25575f80fd5b50565b5f81519050610b3681610b12565b92915050565b5f60208284031215610b5157610b5061096f565b5b5f610b5e84828501610b28565b91505092915050565b7f4e487b71000000000000000000000000000000000000000000000000000000005f52601160045260245ffd5b5f8160011c9050919050565b5f808291508390505b6001851115610be957808604811115610bc557610bc4610b67565b5b6001851615610bd45780820291505b8081029050610be285610b94565b9450610ba9565b94509492505050565b5f82610c015760019050610cbc565b81610c0e575f9050610cbc565b8160018114610c245760028114610c2e57610c5d565b6001915050610cbc565b60ff841115610c4057610c3f610b67565b5b8360020a915084821115610c5757610c56610b67565b5b50610cbc565b5060208310610133831016604e8410600b8410161715610c925782820a905083811115610c8d57610c8c610b67565b5b610cbc565b610c9f8484846001610ba0565b92509050818404811115610cb657610cb5610b67565b5b81810290505b9392505050565b5f610ccd8261093e565b9150610cd883610b06565b9250610d057fffffffffffffffffffffffffffffffffffffffffffffffffffffffffffffffff8484610bf2565b905092915050565b5f610d178261093e565b9150610d228361093e565b9250828202610d308161093e565b91508282048414831517610d4757610d46610b67565b5b5092915050565b7f4e487b71000000000000000000000000000000000000000000000000000000005f52601260045260245ffd5b5f610d858261093e565b9150610d908361093e565b925082610da057610d9f610d4e565b5b828204905092915050565b5f604082019050610dbe5f830185610869565b610dcb6020830184610947565b9392505050565b5f604082019050610de55f830185610947565b610df26020830184610947565b939250505056fea2646970667358221220bb3248e9ee9279fb1e416ab15e21979688f83d7800f635db648b9c60f265d10064736f6c63430008180033",
					"opcodes": "PUSH1 0x80 PUSH1 0x40 MSTORE CALLVALUE DUP1 ISZERO PUSH3 0x10 JUMPI PUSH0 DUP1 REVERT JUMPDEST POP PUSH1 0x40 MLOAD PUSH3 0x1524 CODESIZE SUB DUP1 PUSH3 0x1524 DUP4 CODECOPY DUP2 DUP2 ADD PUSH1 0x40 MSTORE DUP2 ADD SWAP1 PUSH3 0x36 SWAP2 SWAP1 PUSH3 0x3AB JUMP JUMPDEST DUP1 PUSH0 PUSH20 0xFFFFFFFFFFFFFFFFFFFFFFFFFFFFFFFFFFFFFFFF AND DUP2 PUSH20 0xFFFFFFFFFFFFFFFFFFFFFFFFFFFFFFFFFFFFFFFF AND SUB PUSH3 0xAA JUMPI PUSH0 PUSH1 0x40 MLOAD PUSH32 0x1E4FBDF700000000000000000000000000000000000000000000000000000000 DUP2 MSTORE PUSH1 0x4 ADD PUSH3 0xA1 SWAP2 SWAP1 PUSH3 0x415 JUMP JUMPDEST PUSH1 0x40 MLOAD DUP1 SWAP2 SUB SWAP1 REVERT JUMPDEST PUSH3 0xBB DUP2 PUSH3 0x285 PUSH1 0x20 SHL PUSH1 0x20 SHR JUMP JUMPDEST POP DUP3 PUSH1 0x1 PUSH0 PUSH2 0x100 EXP DUP2 SLOAD DUP2 PUSH20 0xFFFFFFFFFFFFFFFFFFFFFFFFFFFFFFFFFFFFFFFF MUL NOT AND SWAP1 DUP4 PUSH20 0xFFFFFFFFFFFFFFFFFFFFFFFFFFFFFFFFFFFFFFFF AND MUL OR SWAP1 SSTORE POP DUP2 PUSH1 0x2 PUSH0 PUSH2 0x100 EXP DUP2 SLOAD DUP2 PUSH20 0xFFFFFFFFFFFFFFFFFFFFFFFFFFFFFFFFFFFFFFFF MUL NOT AND SWAP1 DUP4 PUSH20 0xFFFFFFFFFFFFFFFFFFFFFFFFFFFFFFFFFFFFFFFF AND MUL OR SWAP1 SSTORE POP PUSH1 0x1 PUSH0 SWAP1 SLOAD SWAP1 PUSH2 0x100 EXP SWAP1 DIV PUSH20 0xFFFFFFFFFFFFFFFFFFFFFFFFFFFFFFFFFFFFFFFF AND PUSH20 0xFFFFFFFFFFFFFFFFFFFFFFFFFFFFFFFFFFFFFFFF AND PUSH4 0xF7EA7A3D PUSH1 0x1 PUSH0 SWAP1 SLOAD SWAP1 PUSH2 0x100 EXP SWAP1 DIV PUSH20 0xFFFFFFFFFFFFFFFFFFFFFFFFFFFFFFFFFFFFFFFF AND PUSH20 0xFFFFFFFFFFFFFFFFFFFFFFFFFFFFFFFFFFFFFFFF AND PUSH4 0x313CE567 PUSH1 0x40 MLOAD DUP2 PUSH4 0xFFFFFFFF AND PUSH1 0xE0 SHL DUP2 MSTORE PUSH1 0x4 ADD PUSH1 0x20 PUSH1 0x40 MLOAD DUP1 DUP4 SUB DUP2 DUP7 GAS STATICCALL ISZERO DUP1 ISZERO PUSH3 0x1E4 JUMPI RETURNDATASIZE PUSH0 DUP1 RETURNDATACOPY RETURNDATASIZE PUSH0 REVERT JUMPDEST POP POP POP POP PUSH1 0x40 MLOAD RETURNDATASIZE PUSH1 0x1F NOT PUSH1 0x1F DUP3 ADD AND DUP3 ADD DUP1 PUSH1 0x40 MSTORE POP DUP2 ADD SWAP1 PUSH3 0x20A SWAP2 SWAP1 PUSH3 0x46B JUMP JUMPDEST PUSH1 0xA PUSH3 0x218 SWAP2 SWAP1 PUSH3 0x621 JUMP JUMPDEST PUSH3 0x186A0 PUSH3 0x228 SWAP2 SWAP1 PUSH3 0x671 JUMP JUMPDEST PUSH1 0x40 MLOAD DUP3 PUSH4 0xFFFFFFFF AND PUSH1 0xE0 SHL DUP2 MSTORE PUSH1 0x4 ADD PUSH3 0x246 SWAP2 SWAP1 PUSH3 0x6CC JUMP JUMPDEST PUSH0 PUSH1 0x40 MLOAD DUP1 DUP4 SUB DUP2 PUSH0 DUP8 DUP1 EXTCODESIZE ISZERO DUP1 ISZERO PUSH3 0x25E JUMPI PUSH0 DUP1 REVERT JUMPDEST POP GAS CALL ISZERO DUP1 ISZERO PUSH3 0x271 JUMPI RETURNDATASIZE PUSH0 DUP1 RETURNDATACOPY RETURNDATASIZE PUSH0 REVERT JUMPDEST POP POP POP POP TIMESTAMP PUSH1 0x3 DUP2 SWAP1 SSTORE POP POP POP POP PUSH3 0x6E7 JUMP JUMPDEST PUSH0 DUP1 PUSH0 SWAP1 SLOAD SWAP1 PUSH2 0x100 EXP SWAP1 DIV PUSH20 0xFFFFFFFFFFFFFFFFFFFFFFFFFFFFFFFFFFFFFFFF AND SWAP1 POP DUP2 PUSH0 DUP1 PUSH2 0x100 EXP DUP2 SLOAD DUP2 PUSH20 0xFFFFFFFFFFFFFFFFFFFFFFFFFFFFFFFFFFFFFFFF MUL NOT AND SWAP1 DUP4 PUSH20 0xFFFFFFFFFFFFFFFFFFFFFFFFFFFFFFFFFFFFFFFF AND MUL OR SWAP1 SSTORE POP DUP2 PUSH20 0xFFFFFFFFFFFFFFFFFFFFFFFFFFFFFFFFFFFFFFFF AND DUP2 PUSH20 0xFFFFFFFFFFFFFFFFFFFFFFFFFFFFFFFFFFFFFFFF AND PUSH32 0x8BE0079C531659141344CD1FD0A4F28419497F9722A3DAAFE3B4186F6B6457E0 PUSH1 0x40 MLOAD PUSH1 0x40 MLOAD DUP1 SWAP2 SUB SWAP1 LOG3 POP POP JUMP JUMPDEST PUSH0 DUP1 REVERT JUMPDEST PUSH0 PUSH20 0xFFFFFFFFFFFFFFFFFFFFFFFFFFFFFFFFFFFFFFFF DUP3 AND SWAP1 POP SWAP2 SWAP1 POP JUMP JUMPDEST PUSH0 PUSH3 0x375 DUP3 PUSH3 0x34A JUMP JUMPDEST SWAP1 POP SWAP2 SWAP1 POP JUMP JUMPDEST PUSH3 0x387 DUP2 PUSH3 0x369 JUMP JUMPDEST DUP2 EQ PUSH3 0x392 JUMPI PUSH0 DUP1 REVERT JUMPDEST POP JUMP JUMPDEST PUSH0 DUP2 MLOAD SWAP1 POP PUSH3 0x3A5 DUP2 PUSH3 0x37C JUMP JUMPDEST SWAP3 SWAP2 POP POP JUMP JUMPDEST PUSH0 DUP1 PUSH0 PUSH1 0x60 DUP5 DUP7 SUB SLT ISZERO PUSH3 0x3C5 JUMPI PUSH3 0x3C4 PUSH3 0x346 JUMP JUMPDEST JUMPDEST PUSH0 PUSH3 0x3D4 DUP7 DUP3 DUP8 ADD PUSH3 0x395 JUMP JUMPDEST SWAP4 POP POP PUSH1 0x20 PUSH3 0x3E7 DUP7 DUP3 DUP8 ADD PUSH3 0x395 JUMP JUMPDEST SWAP3 POP POP PUSH1 0x40 PUSH3 0x3FA DUP7 DUP3 DUP8 ADD PUSH3 0x395 JUMP JUMPDEST SWAP2 POP POP SWAP3 POP SWAP3 POP SWAP3 JUMP JUMPDEST PUSH3 0x40F DUP2 PUSH3 0x369 JUMP JUMPDEST DUP3 MSTORE POP POP JUMP JUMPDEST PUSH0 PUSH1 0x20 DUP3 ADD SWAP1 POP PUSH3 0x42A PUSH0 DUP4 ADD DUP5 PUSH3 0x404 JUMP JUMPDEST SWAP3 SWAP2 POP POP JUMP JUMPDEST PUSH0 PUSH1 0xFF DUP3 AND SWAP1 POP SWAP2 SWAP1 POP JUMP JUMPDEST PUSH3 0x447 DUP2 PUSH3 0x430 JUMP JUMPDEST DUP2 EQ PUSH3 0x452 JUMPI PUSH0 DUP1 REVERT JUMPDEST POP JUMP JUMPDEST PUSH0 DUP2 MLOAD SWAP1 POP PUSH3 0x465 DUP2 PUSH3 0x43C JUMP JUMPDEST SWAP3 SWAP2 POP POP JUMP JUMPDEST PUSH0 PUSH1 0x20 DUP3 DUP5 SUB SLT ISZERO PUSH3 0x483 JUMPI PUSH3 0x482 PUSH3 0x346 JUMP JUMPDEST JUMPDEST PUSH0 PUSH3 0x492 DUP5 DUP3 DUP6 ADD PUSH3 0x455 JUMP JUMPDEST SWAP2 POP POP SWAP3 SWAP2 POP POP JUMP JUMPDEST PUSH32 0x4E487B7100000000000000000000000000000000000000000000000000000000 PUSH0 MSTORE PUSH1 0x11 PUSH1 0x4 MSTORE PUSH1 0x24 PUSH0 REVERT JUMPDEST PUSH0 DUP2 PUSH1 0x1 SHR SWAP1 POP SWAP2 SWAP1 POP JUMP JUMPDEST PUSH0 DUP1 DUP3 SWAP2 POP DUP4 SWAP1 POP JUMPDEST PUSH1 0x1 DUP6 GT ISZERO PUSH3 0x525 JUMPI DUP1 DUP7 DIV DUP2 GT ISZERO PUSH3 0x4FD JUMPI PUSH3 0x4FC PUSH3 0x49B JUMP JUMPDEST JUMPDEST PUSH1 0x1 DUP6 AND ISZERO PUSH3 0x50D JUMPI DUP1 DUP3 MUL SWAP2 POP JUMPDEST DUP1 DUP2 MUL SWAP1 POP PUSH3 0x51D DUP6 PUSH3 0x4C8 JUMP JUMPDEST SWAP5 POP PUSH3 0x4DD JUMP JUMPDEST SWAP5 POP SWAP5 SWAP3 POP POP POP JUMP JUMPDEST PUSH0 DUP3 PUSH3 0x53F JUMPI PUSH1 0x1 SWAP1 POP PUSH3 0x611 JUMP JUMPDEST DUP2 PUSH3 0x54E JUMPI PUSH0 SWAP1 POP PUSH3 0x611 JUMP JUMPDEST DUP2 PUSH1 0x1 DUP2 EQ PUSH3 0x567 JUMPI PUSH1 0x2 DUP2 EQ PUSH3 0x572 JUMPI PUSH3 0x5A8 JUMP JUMPDEST PUSH1 0x1 SWAP2 POP POP PUSH3 0x611 JUMP JUMPDEST PUSH1 0xFF DUP5 GT ISZERO PUSH3 0x587 JUMPI PUSH3 0x586 PUSH3 0x49B JUMP JUMPDEST JUMPDEST DUP4 PUSH1 0x2 EXP SWAP2 POP DUP5 DUP3 GT ISZERO PUSH3 0x5A1 JUMPI PUSH3 0x5A0 PUSH3 0x49B JUMP JUMPDEST JUMPDEST POP PUSH3 0x611 JUMP JUMPDEST POP PUSH1 0x20 DUP4 LT PUSH2 0x133 DUP4 LT AND PUSH1 0x4E DUP5 LT PUSH1 0xB DUP5 LT AND OR ISZERO PUSH3 0x5E2 JUMPI DUP3 DUP3 EXP SWAP1 POP DUP4 DUP2 GT ISZERO PUSH3 0x5DC JUMPI PUSH3 0x5DB PUSH3 0x49B JUMP JUMPDEST JUMPDEST PUSH3 0x611 JUMP JUMPDEST PUSH3 0x5F1 DUP5 DUP5 DUP5 PUSH1 0x1 PUSH3 0x4D4 JUMP JUMPDEST SWAP3 POP SWAP1 POP DUP2 DUP5 DIV DUP2 GT ISZERO PUSH3 0x60B JUMPI PUSH3 0x60A PUSH3 0x49B JUMP JUMPDEST JUMPDEST DUP2 DUP2 MUL SWAP1 POP JUMPDEST SWAP4 SWAP3 POP POP POP JUMP JUMPDEST PUSH0 DUP2 SWAP1 POP SWAP2 SWAP1 POP JUMP JUMPDEST PUSH0 PUSH3 0x62D DUP3 PUSH3 0x618 JUMP JUMPDEST SWAP2 POP PUSH3 0x63A DUP4 PUSH3 0x430 JUMP JUMPDEST SWAP3 POP PUSH3 0x669 PUSH32 0xFFFFFFFFFFFFFFFFFFFFFFFFFFFFFFFFFFFFFFFFFFFFFFFFFFFFFFFFFFFFFFFF DUP5 DUP5 PUSH3 0x52E JUMP JUMPDEST SWAP1 POP SWAP3 SWAP2 POP POP JUMP JUMPDEST PUSH0 PUSH3 0x67D DUP3 PUSH3 0x618 JUMP JUMPDEST SWAP2 POP PUSH3 0x68A DUP4 PUSH3 0x618 JUMP JUMPDEST SWAP3 POP DUP3 DUP3 MUL PUSH3 0x69A DUP2 PUSH3 0x618 JUMP JUMPDEST SWAP2 POP DUP3 DUP3 DIV DUP5 EQ DUP4 ISZERO OR PUSH3 0x6B4 JUMPI PUSH3 0x6B3 PUSH3 0x49B JUMP JUMPDEST JUMPDEST POP SWAP3 SWAP2 POP POP JUMP JUMPDEST PUSH3 0x6C6 DUP2 PUSH3 0x618 JUMP JUMPDEST DUP3 MSTORE POP POP JUMP JUMPDEST PUSH0 PUSH1 0x20 DUP3 ADD SWAP1 POP PUSH3 0x6E1 PUSH0 DUP4 ADD DUP5 PUSH3 0x6BB JUMP JUMPDEST SWAP3 SWAP2 POP POP JUMP JUMPDEST PUSH2 0xE2F DUP1 PUSH3 0x6F5 PUSH0 CODECOPY PUSH0 RETURN INVALID PUSH1 0x80 PUSH1 0x40 MSTORE CALLVALUE DUP1 ISZERO PUSH2 0xF JUMPI PUSH0 DUP1 REVERT JUMPDEST POP PUSH1 0x4 CALLDATASIZE LT PUSH2 0x7B JUMPI PUSH0 CALLDATALOAD PUSH1 0xE0 SHR DUP1 PUSH4 0xAF14052C GT PUSH2 0x59 JUMPI DUP1 PUSH4 0xAF14052C EQ PUSH2 0xC5 JUMPI DUP1 PUSH4 0xAF7665CE EQ PUSH2 0xCF JUMPI DUP1 PUSH4 0xB86A2FD7 EQ PUSH2 0xED JUMPI DUP1 PUSH4 0xF2FDE38B EQ PUSH2 0x10B JUMPI PUSH2 0x7B JUMP JUMPDEST DUP1 PUSH4 0x715018A6 EQ PUSH2 0x7F JUMPI DUP1 PUSH4 0x8DA5CB5B EQ PUSH2 0x89 JUMPI DUP1 PUSH4 0xACD6325C EQ PUSH2 0xA7 JUMPI JUMPDEST PUSH0 DUP1 REVERT JUMPDEST PUSH2 0x87 PUSH2 0x127 JUMP JUMPDEST STOP JUMPDEST PUSH2 0x91 PUSH2 0x13A JUMP JUMPDEST PUSH1 0x40 MLOAD PUSH2 0x9E SWAP2 SWAP1 PUSH2 0x878 JUMP JUMPDEST PUSH1 0x40 MLOAD DUP1 SWAP2 SUB SWAP1 RETURN JUMPDEST PUSH2 0xAF PUSH2 0x161 JUMP JUMPDEST PUSH1 0x40 MLOAD PUSH2 0xBC SWAP2 SWAP1 PUSH2 0x8EC JUMP JUMPDEST PUSH1 0x40 MLOAD DUP1 SWAP2 SUB SWAP1 RETURN JUMPDEST PUSH2 0xCD PUSH2 0x186 JUMP JUMPDEST STOP JUMPDEST PUSH2 0xD7 PUSH2 0x63B JUMP JUMPDEST PUSH1 0x40 MLOAD PUSH2 0xE4 SWAP2 SWAP1 PUSH2 0x925 JUMP JUMPDEST PUSH1 0x40 MLOAD DUP1 SWAP2 SUB SWAP1 RETURN JUMPDEST PUSH2 0xF5 PUSH2 0x660 JUMP JUMPDEST PUSH1 0x40 MLOAD PUSH2 0x102 SWAP2 SWAP1 PUSH2 0x956 JUMP JUMPDEST PUSH1 0x40 MLOAD DUP1 SWAP2 SUB SWAP1 RETURN JUMPDEST PUSH2 0x125 PUSH1 0x4 DUP1 CALLDATASIZE SUB DUP2 ADD SWAP1 PUSH2 0x120 SWAP2 SWAP1 PUSH2 0x99D JUMP JUMPDEST PUSH2 0x666 JUMP JUMPDEST STOP JUMPDEST PUSH2 0x12F PUSH2 0x6EA JUMP JUMPDEST PUSH2 0x138 PUSH0 PUSH2 0x771 JUMP JUMPDEST JUMP JUMPDEST PUSH0 DUP1 PUSH0 SWAP1 SLOAD SWAP1 PUSH2 0x100 EXP SWAP1 DIV PUSH20 0xFFFFFFFFFFFFFFFFFFFFFFFFFFFFFFFFFFFFFFFF AND SWAP1 POP SWAP1 JUMP JUMPDEST PUSH1 0x1 PUSH0 SWAP1 SLOAD SWAP1 PUSH2 0x100 EXP SWAP1 DIV PUSH20 0xFFFFFFFFFFFFFFFFFFFFFFFFFFFFFFFFFFFFFFFF AND DUP2 JUMP JUMPDEST PUSH2 0x18E PUSH2 0x6EA JUMP JUMPDEST PUSH0 PUSH1 0x1 PUSH0 SWAP1 SLOAD SWAP1 PUSH2 0x100 EXP SWAP1 DIV PUSH20 0xFFFFFFFFFFFFFFFFFFFFFFFFFFFFFFFFFFFFFFFF AND PUSH20 0xFFFFFFFFFFFFFFFFFFFFFFFFFFFFFFFFFFFFFFFF AND PUSH4 0x18160DDD PUSH1 0x40 MLOAD DUP2 PUSH4 0xFFFFFFFF AND PUSH1 0xE0 SHL DUP2 MSTORE PUSH1 0x4 ADD PUSH1 0x20 PUSH1 0x40 MLOAD DUP1 DUP4 SUB DUP2 DUP7 GAS STATICCALL ISZERO DUP1 ISZERO PUSH2 0x1F9 JUMPI RETURNDATASIZE PUSH0 DUP1 RETURNDATACOPY RETURNDATASIZE PUSH0 REVERT JUMPDEST POP POP POP POP PUSH1 0x40 MLOAD RETURNDATASIZE PUSH1 0x1F NOT PUSH1 0x1F DUP3 ADD AND DUP3 ADD DUP1 PUSH1 0x40 MSTORE POP DUP2 ADD SWAP1 PUSH2 0x21D SWAP2 SWAP1 PUSH2 0x9F2 JUMP JUMPDEST SWAP1 POP PUSH0 PUSH1 0x2 PUSH0 SWAP1 SLOAD SWAP1 PUSH2 0x100 EXP SWAP1 DIV PUSH20 0xFFFFFFFFFFFFFFFFFFFFFFFFFFFFFFFFFFFFFFFF AND PUSH20 0xFFFFFFFFFFFFFFFFFFFFFFFFFFFFFFFFFFFFFFFF AND PUSH4 0xFEAF968C PUSH1 0x40 MLOAD DUP2 PUSH4 0xFFFFFFFF AND PUSH1 0xE0 SHL DUP2 MSTORE PUSH1 0x4 ADD PUSH1 0xA0 PUSH1 0x40 MLOAD DUP1 DUP4 SUB DUP2 DUP7 GAS STATICCALL ISZERO DUP1 ISZERO PUSH2 0x28A JUMPI RETURNDATASIZE PUSH0 DUP1 RETURNDATACOPY RETURNDATASIZE PUSH0 REVERT JUMPDEST POP POP POP POP PUSH1 0x40 MLOAD RETURNDATASIZE PUSH1 0x1F NOT PUSH1 0x1F DUP3 ADD AND DUP3 ADD DUP1 PUSH1 0x40 MSTORE POP DUP2 ADD SWAP1 PUSH2 0x2AE SWAP2 SWAP1 PUSH2 0xA8F JUMP JUMPDEST POP POP POP SWAP2 POP POP PUSH0 DUP2 SWAP1 POP PUSH0 PUSH8 0xDE0B6B3A7640000 SWAP1 POP PUSH0 DUP3 PUSH1 0x1 PUSH0 SWAP1 SLOAD SWAP1 PUSH2 0x100 EXP SWAP1 DIV PUSH20 0xFFFFFFFFFFFFFFFFFFFFFFFFFFFFFFFFFFFFFFFF AND PUSH20 0xFFFFFFFFFFFFFFFFFFFFFFFFFFFFFFFFFFFFFFFF AND PUSH4 0x313CE567 PUSH1 0x40 MLOAD DUP2 PUSH4 0xFFFFFFFF AND PUSH1 0xE0 SHL DUP2 MSTORE PUSH1 0x4 ADD PUSH1 0x20 PUSH1 0x40 MLOAD DUP1 DUP4 SUB DUP2 DUP7 GAS STATICCALL ISZERO DUP1 ISZERO PUSH2 0x330 JUMPI RETURNDATASIZE PUSH0 DUP1 RETURNDATACOPY RETURNDATASIZE PUSH0 REVERT JUMPDEST POP POP POP POP PUSH1 0x40 MLOAD RETURNDATASIZE PUSH1 0x1F NOT PUSH1 0x1F DUP3 ADD AND DUP3 ADD DUP1 PUSH1 0x40 MSTORE POP DUP2 ADD SWAP1 PUSH2 0x354 SWAP2 SWAP1 PUSH2 0xB3C JUMP JUMPDEST PUSH1 0xA PUSH2 0x360 SWAP2 SWAP1 PUSH2 0xCC3 JUMP JUMPDEST DUP4 DUP8 PUSH2 0x36C SWAP2 SWAP1 PUSH2 0xD0D JUMP JUMPDEST PUSH2 0x376 SWAP2 SWAP1 PUSH2 0xD0D JUMP JUMPDEST PUSH2 0x380 SWAP2 SWAP1 PUSH2 0xD7B JUMP JUMPDEST SWAP1 POP PUSH1 0x1 PUSH0 SWAP1 SLOAD SWAP1 PUSH2 0x100 EXP SWAP1 DIV PUSH20 0xFFFFFFFFFFFFFFFFFFFFFFFFFFFFFFFFFFFFFFFF AND PUSH20 0xFFFFFFFFFFFFFFFFFFFFFFFFFFFFFFFFFFFFFFFF AND PUSH4 0xF7EA7A3D DUP3 PUSH1 0x40 MLOAD DUP3 PUSH4 0xFFFFFFFF AND PUSH1 0xE0 SHL DUP2 MSTORE PUSH1 0x4 ADD PUSH2 0x3DC SWAP2 SWAP1 PUSH2 0x956 JUMP JUMPDEST PUSH0 PUSH1 0x40 MLOAD DUP1 DUP4 SUB DUP2 PUSH0 DUP8 DUP1 EXTCODESIZE ISZERO DUP1 ISZERO PUSH2 0x3F3 JUMPI PUSH0 DUP1 REVERT JUMPDEST POP GAS CALL ISZERO DUP1 ISZERO PUSH2 0x405 JUMPI RETURNDATASIZE PUSH0 DUP1 RETURNDATACOPY RETURNDATASIZE PUSH0 REVERT JUMPDEST POP POP POP POP TIMESTAMP PUSH1 0x3 DUP2 SWAP1 SSTORE POP PUSH0 PUSH1 0x1 PUSH0 SWAP1 SLOAD SWAP1 PUSH2 0x100 EXP SWAP1 DIV PUSH20 0xFFFFFFFFFFFFFFFFFFFFFFFFFFFFFFFFFFFFFFFF AND PUSH20 0xFFFFFFFFFFFFFFFFFFFFFFFFFFFFFFFFFFFFFFFF AND PUSH4 0xC69199E1 PUSH1 0x40 MLOAD DUP2 PUSH4 0xFFFFFFFF AND PUSH1 0xE0 SHL DUP2 MSTORE PUSH1 0x4 ADD PUSH1 0x20 PUSH1 0x40 MLOAD DUP1 DUP4 SUB DUP2 DUP7 GAS STATICCALL ISZERO DUP1 ISZERO PUSH2 0x47B JUMPI RETURNDATASIZE PUSH0 DUP1 RETURNDATACOPY RETURNDATASIZE PUSH0 REVERT JUMPDEST POP POP POP POP PUSH1 0x40 MLOAD RETURNDATASIZE PUSH1 0x1F NOT PUSH1 0x1F DUP3 ADD AND DUP3 ADD DUP1 PUSH1 0x40 MSTORE POP DUP2 ADD SWAP1 PUSH2 0x49F SWAP2 SWAP1 PUSH2 0x9F2 JUMP JUMPDEST SWAP1 POP PUSH0 JUMPDEST DUP2 DUP2 LT ISZERO PUSH2 0x5F9 JUMPI PUSH0 DUP2 SWAP1 POP PUSH0 PUSH1 0x1 PUSH0 SWAP1 SLOAD SWAP1 PUSH2 0x100 EXP SWAP1 DIV PUSH20 0xFFFFFFFFFFFFFFFFFFFFFFFFFFFFFFFFFFFFFFFF AND PUSH20 0xFFFFFFFFFFFFFFFFFFFFFFFFFFFFFFFFFFFFFFFF AND PUSH4 0x27E235E3 DUP4 PUSH1 0x40 MLOAD DUP3 PUSH4 0xFFFFFFFF AND PUSH1 0xE0 SHL DUP2 MSTORE PUSH1 0x4 ADD PUSH2 0x50A SWAP2 SWAP1 PUSH2 0x878 JUMP JUMPDEST PUSH1 0x20 PUSH1 0x40 MLOAD DUP1 DUP4 SUB DUP2 DUP7 GAS STATICCALL ISZERO DUP1 ISZERO PUSH2 0x525 JUMPI RETURNDATASIZE PUSH0 DUP1 RETURNDATACOPY RETURNDATASIZE PUSH0 REVERT JUMPDEST POP POP POP POP PUSH1 0x40 MLOAD RETURNDATASIZE PUSH1 0x1F NOT PUSH1 0x1F DUP3 ADD AND DUP3 ADD DUP1 PUSH1 0x40 MSTORE POP DUP2 ADD SWAP1 PUSH2 0x549 SWAP2 SWAP1 PUSH2 0x9F2 JUMP JUMPDEST SWAP1 POP PUSH1 0x1 PUSH0 SWAP1 SLOAD SWAP1 PUSH2 0x100 EXP SWAP1 DIV PUSH20 0xFFFFFFFFFFFFFFFFFFFFFFFFFFFFFFFFFFFFFFFF AND PUSH20 0xFFFFFFFFFFFFFFFFFFFFFFFFFFFFFFFFFFFFFFFF AND PUSH4 0xE30443BC DUP4 DUP12 DUP9 DUP6 PUSH2 0x596 SWAP2 SWAP1 PUSH2 0xD0D JUMP JUMPDEST PUSH2 0x5A0 SWAP2 SWAP1 PUSH2 0xD7B JUMP JUMPDEST PUSH1 0x40 MLOAD DUP4 PUSH4 0xFFFFFFFF AND PUSH1 0xE0 SHL DUP2 MSTORE PUSH1 0x4 ADD PUSH2 0x5BD SWAP3 SWAP2 SWAP1 PUSH2 0xDAB JUMP JUMPDEST PUSH0 PUSH1 0x40 MLOAD DUP1 DUP4 SUB DUP2 PUSH0 DUP8 DUP1 EXTCODESIZE ISZERO DUP1 ISZERO PUSH2 0x5D4 JUMPI PUSH0 DUP1 REVERT JUMPDEST POP GAS CALL ISZERO DUP1 ISZERO PUSH2 0x5E6 JUMPI RETURNDATASIZE PUSH0 DUP1 RETURNDATACOPY RETURNDATASIZE PUSH0 REVERT JUMPDEST POP POP POP POP POP POP DUP1 DUP1 PUSH1 0x1 ADD SWAP2 POP POP PUSH2 0x4A3 JUMP JUMPDEST POP PUSH32 0x11C6BF55864FF83827DF712625D7A80E5583EEF0264921025E7CD22003A21511 DUP7 DUP4 PUSH1 0x40 MLOAD PUSH2 0x62B SWAP3 SWAP2 SWAP1 PUSH2 0xDD2 JUMP JUMPDEST PUSH1 0x40 MLOAD DUP1 SWAP2 SUB SWAP1 LOG1 POP POP POP POP POP POP JUMP JUMPDEST PUSH1 0x2 PUSH0 SWAP1 SLOAD SWAP1 PUSH2 0x100 EXP SWAP1 DIV PUSH20 0xFFFFFFFFFFFFFFFFFFFFFFFFFFFFFFFFFFFFFFFF AND DUP2 JUMP JUMPDEST PUSH1 0x3 SLOAD DUP2 JUMP JUMPDEST PUSH2 0x66E PUSH2 0x6EA JUMP JUMPDEST PUSH0 PUSH20 0xFFFFFFFFFFFFFFFFFFFFFFFFFFFFFFFFFFFFFFFF AND DUP2 PUSH20 0xFFFFFFFFFFFFFFFFFFFFFFFFFFFFFFFFFFFFFFFF AND SUB PUSH2 0x6DE JUMPI PUSH0 PUSH1 0x40 MLOAD PUSH32 0x1E4FBDF700000000000000000000000000000000000000000000000000000000 DUP2 MSTORE PUSH1 0x4 ADD PUSH2 0x6D5 SWAP2 SWAP1 PUSH2 0x878 JUMP JUMPDEST PUSH1 0x40 MLOAD DUP1 SWAP2 SUB SWAP1 REVERT JUMPDEST PUSH2 0x6E7 DUP2 PUSH2 0x771 JUMP JUMPDEST POP JUMP JUMPDEST PUSH2 0x6F2 PUSH2 0x832 JUMP JUMPDEST PUSH20 0xFFFFFFFFFFFFFFFFFFFFFFFFFFFFFFFFFFFFFFFF AND PUSH2 0x710 PUSH2 0x13A JUMP JUMPDEST PUSH20 0xFFFFFFFFFFFFFFFFFFFFFFFFFFFFFFFFFFFFFFFF AND EQ PUSH2 0x76F JUMPI PUSH2 0x733 PUSH2 0x832 JUMP JUMPDEST PUSH1 0x40 MLOAD PUSH32 0x118CDAA700000000000000000000000000000000000000000000000000000000 DUP2 MSTORE PUSH1 0x4 ADD PUSH2 0x766 SWAP2 SWAP1 PUSH2 0x878 JUMP JUMPDEST PUSH1 0x40 MLOAD DUP1 SWAP2 SUB SWAP1 REVERT JUMPDEST JUMP JUMPDEST PUSH0 DUP1 PUSH0 SWAP1 SLOAD SWAP1 PUSH2 0x100 EXP SWAP1 DIV PUSH20 0xFFFFFFFFFFFFFFFFFFFFFFFFFFFFFFFFFFFFFFFF AND SWAP1 POP DUP2 PUSH0 DUP1 PUSH2 0x100 EXP DUP2 SLOAD DUP2 PUSH20 0xFFFFFFFFFFFFFFFFFFFFFFFFFFFFFFFFFFFFFFFF MUL NOT AND SWAP1 DUP4 PUSH20 0xFFFFFFFFFFFFFFFFFFFFFFFFFFFFFFFFFFFFFFFF AND MUL OR SWAP1 SSTORE POP DUP2 PUSH20 0xFFFFFFFFFFFFFFFFFFFFFFFFFFFFFFFFFFFFFFFF AND DUP2 PUSH20 0xFFFFFFFFFFFFFFFFFFFFFFFFFFFFFFFFFFFFFFFF AND PUSH32 0x8BE0079C531659141344CD1FD0A4F28419497F9722A3DAAFE3B4186F6B6457E0 PUSH1 0x40 MLOAD PUSH1 0x40 MLOAD DUP1 SWAP2 SUB SWAP1 LOG3 POP POP JUMP JUMPDEST PUSH0 CALLER SWAP1 POP SWAP1 JUMP JUMPDEST PUSH0 PUSH20 0xFFFFFFFFFFFFFFFFFFFFFFFFFFFFFFFFFFFFFFFF DUP3 AND SWAP1 POP SWAP2 SWAP1 POP JUMP JUMPDEST PUSH0 PUSH2 0x862 DUP3 PUSH2 0x839 JUMP JUMPDEST SWAP1 POP SWAP2 SWAP1 POP JUMP JUMPDEST PUSH2 0x872 DUP2 PUSH2 0x858 JUMP JUMPDEST DUP3 MSTORE POP POP JUMP JUMPDEST PUSH0 PUSH1 0x20 DUP3 ADD SWAP1 POP PUSH2 0x88B PUSH0 DUP4 ADD DUP5 PUSH2 0x869 JUMP JUMPDEST SWAP3 SWAP2 POP POP JUMP JUMPDEST PUSH0 DUP2 SWAP1 POP SWAP2 SWAP1 POP JUMP JUMPDEST PUSH0 PUSH2 0x8B4 PUSH2 0x8AF PUSH2 0x8AA DUP5 PUSH2 0x839 JUMP JUMPDEST PUSH2 0x891 JUMP JUMPDEST PUSH2 0x839 JUMP JUMPDEST SWAP1 POP SWAP2 SWAP1 POP JUMP JUMPDEST PUSH0 PUSH2 0x8C5 DUP3 PUSH2 0x89A JUMP JUMPDEST SWAP1 POP SWAP2 SWAP1 POP JUMP JUMPDEST PUSH0 PUSH2 0x8D6 DUP3 PUSH2 0x8BB JUMP JUMPDEST SWAP1 POP SWAP2 SWAP1 POP JUMP JUMPDEST PUSH2 0x8E6 DUP2 PUSH2 0x8CC JUMP JUMPDEST DUP3 MSTORE POP POP JUMP JUMPDEST PUSH0 PUSH1 0x20 DUP3 ADD SWAP1 POP PUSH2 0x8FF PUSH0 DUP4 ADD DUP5 PUSH2 0x8DD JUMP JUMPDEST SWAP3 SWAP2 POP POP JUMP JUMPDEST PUSH0 PUSH2 0x90F DUP3 PUSH2 0x8BB JUMP JUMPDEST SWAP1 POP SWAP2 SWAP1 POP JUMP JUMPDEST PUSH2 0x91F DUP2 PUSH2 0x905 JUMP JUMPDEST DUP3 MSTORE POP POP JUMP JUMPDEST PUSH0 PUSH1 0x20 DUP3 ADD SWAP1 POP PUSH2 0x938 PUSH0 DUP4 ADD DUP5 PUSH2 0x916 JUMP JUMPDEST SWAP3 SWAP2 POP POP JUMP JUMPDEST PUSH0 DUP2 SWAP1 POP SWAP2 SWAP1 POP JUMP JUMPDEST PUSH2 0x950 DUP2 PUSH2 0x93E JUMP JUMPDEST DUP3 MSTORE POP POP JUMP JUMPDEST PUSH0 PUSH1 0x20 DUP3 ADD SWAP1 POP PUSH2 0x969 PUSH0 DUP4 ADD DUP5 PUSH2 0x947 JUMP JUMPDEST SWAP3 SWAP2 POP POP JUMP JUMPDEST PUSH0 DUP1 REVERT JUMPDEST PUSH2 0x97C DUP2 PUSH2 0x858 JUMP JUMPDEST DUP2 EQ PUSH2 0x986 JUMPI PUSH0 DUP1 REVERT JUMPDEST POP JUMP JUMPDEST PUSH0 DUP2 CALLDATALOAD SWAP1 POP PUSH2 0x997 DUP2 PUSH2 0x973 JUMP JUMPDEST SWAP3 SWAP2 POP POP JUMP JUMPDEST PUSH0 PUSH1 0x20 DUP3 DUP5 SUB SLT ISZERO PUSH2 0x9B2 JUMPI PUSH2 0x9B1 PUSH2 0x96F JUMP JUMPDEST JUMPDEST PUSH0 PUSH2 0x9BF DUP5 DUP3 DUP6 ADD PUSH2 0x989 JUMP JUMPDEST SWAP2 POP POP SWAP3 SWAP2 POP POP JUMP JUMPDEST PUSH2 0x9D1 DUP2 PUSH2 0x93E JUMP JUMPDEST DUP2 EQ PUSH2 0x9DB JUMPI PUSH0 DUP1 REVERT JUMPDEST POP JUMP JUMPDEST PUSH0 DUP2 MLOAD SWAP1 POP PUSH2 0x9EC DUP2 PUSH2 0x9C8 JUMP JUMPDEST SWAP3 SWAP2 POP POP JUMP JUMPDEST PUSH0 PUSH1 0x20 DUP3 DUP5 SUB SLT ISZERO PUSH2 0xA07 JUMPI PUSH2 0xA06 PUSH2 0x96F JUMP JUMPDEST JUMPDEST PUSH0 PUSH2 0xA14 DUP5 DUP3 DUP6 ADD PUSH2 0x9DE JUMP JUMPDEST SWAP2 POP POP SWAP3 SWAP2 POP POP JUMP JUMPDEST PUSH0 PUSH10 0xFFFFFFFFFFFFFFFFFFFF DUP3 AND SWAP1 POP SWAP2 SWAP1 POP JUMP JUMPDEST PUSH2 0xA3B DUP2 PUSH2 0xA1D JUMP JUMPDEST DUP2 EQ PUSH2 0xA45 JUMPI PUSH0 DUP1 REVERT JUMPDEST POP JUMP JUMPDEST PUSH0 DUP2 MLOAD SWAP1 POP PUSH2 0xA56 DUP2 PUSH2 0xA32 JUMP JUMPDEST SWAP3 SWAP2 POP POP JUMP JUMPDEST PUSH0 DUP2 SWAP1 POP SWAP2 SWAP1 POP JUMP JUMPDEST PUSH2 0xA6E DUP2 PUSH2 0xA5C JUMP JUMPDEST DUP2 EQ PUSH2 0xA78 JUMPI PUSH0 DUP1 REVERT JUMPDEST POP JUMP JUMPDEST PUSH0 DUP2 MLOAD SWAP1 POP PUSH2 0xA89 DUP2 PUSH2 0xA65 JUMP JUMPDEST SWAP3 SWAP2 POP POP JUMP JUMPDEST PUSH0 DUP1 PUSH0 DUP1 PUSH0 PUSH1 0xA0 DUP7 DUP9 SUB SLT ISZERO PUSH2 0xAA8 JUMPI PUSH2 0xAA7 PUSH2 0x96F JUMP JUMPDEST JUMPDEST PUSH0 PUSH2 0xAB5 DUP9 DUP3 DUP10 ADD PUSH2 0xA48 JUMP JUMPDEST SWAP6 POP POP PUSH1 0x20 PUSH2 0xAC6 DUP9 DUP3 DUP10 ADD PUSH2 0xA7B JUMP JUMPDEST SWAP5 POP POP PUSH1 0x40 PUSH2 0xAD7 DUP9 DUP3 DUP10 ADD PUSH2 0x9DE JUMP JUMPDEST SWAP4 POP POP PUSH1 0x60 PUSH2 0xAE8 DUP9 DUP3 DUP10 ADD PUSH2 0x9DE JUMP JUMPDEST SWAP3 POP POP PUSH1 0x80 PUSH2 0xAF9 DUP9 DUP3 DUP10 ADD PUSH2 0xA48 JUMP JUMPDEST SWAP2 POP POP SWAP3 SWAP6 POP SWAP3 SWAP6 SWAP1 SWAP4 POP JUMP JUMPDEST PUSH0 PUSH1 0xFF DUP3 AND SWAP1 POP SWAP2 SWAP1 POP JUMP JUMPDEST PUSH2 0xB1B DUP2 PUSH2 0xB06 JUMP JUMPDEST DUP2 EQ PUSH2 0xB25 JUMPI PUSH0 DUP1 REVERT JUMPDEST POP JUMP JUMPDEST PUSH0 DUP2 MLOAD SWAP1 POP PUSH2 0xB36 DUP2 PUSH2 0xB12 JUMP JUMPDEST SWAP3 SWAP2 POP POP JUMP JUMPDEST PUSH0 PUSH1 0x20 DUP3 DUP5 SUB SLT ISZERO PUSH2 0xB51 JUMPI PUSH2 0xB50 PUSH2 0x96F JUMP JUMPDEST JUMPDEST PUSH0 PUSH2 0xB5E DUP5 DUP3 DUP6 ADD PUSH2 0xB28 JUMP JUMPDEST SWAP2 POP POP SWAP3 SWAP2 POP POP JUMP JUMPDEST PUSH32 0x4E487B7100000000000000000000000000000000000000000000000000000000 PUSH0 MSTORE PUSH1 0x11 PUSH1 0x4 MSTORE PUSH1 0x24 PUSH0 REVERT JUMPDEST PUSH0 DUP2 PUSH1 0x1 SHR SWAP1 POP SWAP2 SWAP1 POP JUMP JUMPDEST PUSH0 DUP1 DUP3 SWAP2 POP DUP4 SWAP1 POP JUMPDEST PUSH1 0x1 DUP6 GT ISZERO PUSH2 0xBE9 JUMPI DUP1 DUP7 DIV DUP2 GT ISZERO PUSH2 0xBC5 JUMPI PUSH2 0xBC4 PUSH2 0xB67 JUMP JUMPDEST JUMPDEST PUSH1 0x1 DUP6 AND ISZERO PUSH2 0xBD4 JUMPI DUP1 DUP3 MUL SWAP2 POP JUMPDEST DUP1 DUP2 MUL SWAP1 POP PUSH2 0xBE2 DUP6 PUSH2 0xB94 JUMP JUMPDEST SWAP5 POP PUSH2 0xBA9 JUMP JUMPDEST SWAP5 POP SWAP5 SWAP3 POP POP POP JUMP JUMPDEST PUSH0 DUP3 PUSH2 0xC01 JUMPI PUSH1 0x1 SWAP1 POP PUSH2 0xCBC JUMP JUMPDEST DUP2 PUSH2 0xC0E JUMPI PUSH0 SWAP1 POP PUSH2 0xCBC JUMP JUMPDEST DUP2 PUSH1 0x1 DUP2 EQ PUSH2 0xC24 JUMPI PUSH1 0x2 DUP2 EQ PUSH2 0xC2E JUMPI PUSH2 0xC5D JUMP JUMPDEST PUSH1 0x1 SWAP2 POP POP PUSH2 0xCBC JUMP JUMPDEST PUSH1 0xFF DUP5 GT ISZERO PUSH2 0xC40 JUMPI PUSH2 0xC3F PUSH2 0xB67 JUMP JUMPDEST JUMPDEST DUP4 PUSH1 0x2 EXP SWAP2 POP DUP5 DUP3 GT ISZERO PUSH2 0xC57 JUMPI PUSH2 0xC56 PUSH2 0xB67 JUMP JUMPDEST JUMPDEST POP PUSH2 0xCBC JUMP JUMPDEST POP PUSH1 0x20 DUP4 LT PUSH2 0x133 DUP4 LT AND PUSH1 0x4E DUP5 LT PUSH1 0xB DUP5 LT AND OR ISZERO PUSH2 0xC92 JUMPI DUP3 DUP3 EXP SWAP1 POP DUP4 DUP2 GT ISZERO PUSH2 0xC8D JUMPI PUSH2 0xC8C PUSH2 0xB67 JUMP JUMPDEST JUMPDEST PUSH2 0xCBC JUMP JUMPDEST PUSH2 0xC9F DUP5 DUP5 DUP5 PUSH1 0x1 PUSH2 0xBA0 JUMP JUMPDEST SWAP3 POP SWAP1 POP DUP2 DUP5 DIV DUP2 GT ISZERO PUSH2 0xCB6 JUMPI PUSH2 0xCB5 PUSH2 0xB67 JUMP JUMPDEST JUMPDEST DUP2 DUP2 MUL SWAP1 POP JUMPDEST SWAP4 SWAP3 POP POP POP JUMP JUMPDEST PUSH0 PUSH2 0xCCD DUP3 PUSH2 0x93E JUMP JUMPDEST SWAP2 POP PUSH2 0xCD8 DUP4 PUSH2 0xB06 JUMP JUMPDEST SWAP3 POP PUSH2 0xD05 PUSH32 0xFFFFFFFFFFFFFFFFFFFFFFFFFFFFFFFFFFFFFFFFFFFFFFFFFFFFFFFFFFFFFFFF DUP5 DUP5 PUSH2 0xBF2 JUMP JUMPDEST SWAP1 POP SWAP3 SWAP2 POP POP JUMP JUMPDEST PUSH0 PUSH2 0xD17 DUP3 PUSH2 0x93E JUMP JUMPDEST SWAP2 POP PUSH2 0xD22 DUP4 PUSH2 0x93E JUMP JUMPDEST SWAP3 POP DUP3 DUP3 MUL PUSH2 0xD30 DUP2 PUSH2 0x93E JUMP JUMPDEST SWAP2 POP DUP3 DUP3 DIV DUP5 EQ DUP4 ISZERO OR PUSH2 0xD47 JUMPI PUSH2 0xD46 PUSH2 0xB67 JUMP JUMPDEST JUMPDEST POP SWAP3 SWAP2 POP POP JUMP JUMPDEST PUSH32 0x4E487B7100000000000000000000000000000000000000000000000000000000 PUSH0 MSTORE PUSH1 0x12 PUSH1 0x4 MSTORE PUSH1 0x24 PUSH0 REVERT JUMPDEST PUSH0 PUSH2 0xD85 DUP3 PUSH2 0x93E JUMP JUMPDEST SWAP2 POP PUSH2 0xD90 DUP4 PUSH2 0x93E JUMP JUMPDEST SWAP3 POP DUP3 PUSH2 0xDA0 JUMPI PUSH2 0xD9F PUSH2 0xD4E JUMP JUMPDEST JUMPDEST DUP3 DUP3 DIV SWAP1 POP SWAP3 SWAP2 POP POP JUMP JUMPDEST PUSH0 PUSH1 0x40 DUP3 ADD SWAP1 POP PUSH2 0xDBE PUSH0 DUP4 ADD DUP6 PUSH2 0x869 JUMP JUMPDEST PUSH2 0xDCB PUSH1 0x20 DUP4 ADD DUP5 PUSH2 0x947 JUMP JUMPDEST SWAP4 SWAP3 POP POP POP JUMP JUMPDEST PUSH0 PUSH1 0x40 DUP3 ADD SWAP1 POP PUSH2 0xDE5 PUSH0 DUP4 ADD DUP6 PUSH2 0x947 JUMP JUMPDEST PUSH2 0xDF2 PUSH1 0x20 DUP4 ADD DUP5 PUSH2 0x947 JUMP JUMPDEST SWAP4 SWAP3 POP POP POP JUMP INVALID LOG2 PUSH5 0x6970667358 0x22 SLT KECCAK256 0xBB ORIGIN BASEFEE 0xE9 0xEE SWAP3 PUSH26 0xFB1E416AB15E21979688F83D7800F635DB648B9C60F265D10064 PUSH20 0x6F6C634300081800330000000000000000000000 "
				},
				"gasEstimates": {
					"creation": {
						"codeDepositCost": "726200",
						"executionCost": "infinite",
						"totalCost": "infinite"
					},
					"external": {
						"ecoCoin()": "infinite",
						"ethPriceFeed()": "infinite",
						"lastRebaseTimestamp()": "2469",
						"owner()": "2538",
						"rebase()": "infinite",
						"renounceOwnership()": "infinite",
						"transferOwnership(address)": "infinite"
					}
				},
				"methodIdentifiers": {
					"ecoCoin()": "acd6325c",
					"ethPriceFeed()": "af7665ce",
					"lastRebaseTimestamp()": "b86a2fd7",
					"owner()": "8da5cb5b",
					"rebase()": "af14052c",
					"renounceOwnership()": "715018a6",
					"transferOwnership(address)": "f2fde38b"
				}
			},
			"storageLayout": {
				"storage": [
					{
						"astId": 54,
						"contract": "contracts/Eco.sol:EcoCoinController",
						"label": "_owner",
						"offset": 0,
						"slot": "0",
						"type": "t_address"
					},
					{
						"astId": 369,
						"contract": "contracts/Eco.sol:EcoCoinController",
						"label": "ecoCoin",
						"offset": 0,
						"slot": "1",
						"type": "t_contract(EcoCoin)364"
					},
					{
						"astId": 372,
						"contract": "contracts/Eco.sol:EcoCoinController",
						"label": "ethPriceFeed",
						"offset": 0,
						"slot": "2",
						"type": "t_contract(AggregatorV3Interface)45"
					},
					{
						"astId": 374,
						"contract": "contracts/Eco.sol:EcoCoinController",
						"label": "lastRebaseTimestamp",
						"offset": 0,
						"slot": "3",
						"type": "t_uint256"
					}
				],
				"types": {
					"t_address": {
						"encoding": "inplace",
						"label": "address",
						"numberOfBytes": "20"
					},
					"t_contract(AggregatorV3Interface)45": {
						"encoding": "inplace",
						"label": "contract AggregatorV3Interface",
						"numberOfBytes": "20"
					},
					"t_contract(EcoCoin)364": {
						"encoding": "inplace",
						"label": "contract EcoCoin",
						"numberOfBytes": "20"
					},
					"t_uint256": {
						"encoding": "inplace",
						"label": "uint256",
						"numberOfBytes": "32"
					}
				}
			},
			"userdoc": {
				"kind": "user",
				"methods": {},
				"version": 1
			}
		}
	}
}