{
	"contracts/bood.sol": {
		"BloodDonationSystem": {
			"abi": [
				{
					"anonymous": false,
					"inputs": [
						{
							"indexed": true,
							"internalType": "address",
							"name": "bankAddress",
							"type": "address"
						},
						{
							"indexed": false,
							"internalType": "string",
							"name": "name",
							"type": "string"
						}
					],
					"name": "BloodBankRegistered",
					"type": "event"
				},
				{
					"anonymous": false,
					"inputs": [
						{
							"indexed": true,
							"internalType": "address",
							"name": "donorAddress",
							"type": "address"
						},
						{
							"indexed": true,
							"internalType": "address",
							"name": "bankAddress",
							"type": "address"
						},
						{
							"indexed": false,
							"internalType": "enum BloodDonationSystem.BloodType",
							"name": "bloodType",
							"type": "uint8"
						},
						{
							"indexed": false,
							"internalType": "uint256",
							"name": "amount",
							"type": "uint256"
						}
					],
					"name": "BloodDonated",
					"type": "event"
				},
				{
					"anonymous": false,
					"inputs": [
						{
							"indexed": true,
							"internalType": "address",
							"name": "donorAddress",
							"type": "address"
						},
						{
							"indexed": false,
							"internalType": "string",
							"name": "name",
							"type": "string"
						}
					],
					"name": "DonorRegistered",
					"type": "event"
				},
				{
					"inputs": [
						{
							"internalType": "uint256",
							"name": "",
							"type": "uint256"
						}
					],
					"name": "bloodBankAddresses",
					"outputs": [
						{
							"internalType": "address",
							"name": "",
							"type": "address"
						}
					],
					"stateMutability": "view",
					"type": "function"
				},
				{
					"inputs": [
						{
							"internalType": "address",
							"name": "",
							"type": "address"
						}
					],
					"name": "bloodBanks",
					"outputs": [
						{
							"internalType": "string",
							"name": "name",
							"type": "string"
						},
						{
							"internalType": "address",
							"name": "owner",
							"type": "address"
						}
					],
					"stateMutability": "view",
					"type": "function"
				},
				{
					"inputs": [
						{
							"internalType": "address",
							"name": "_bloodBankAddress",
							"type": "address"
						},
						{
							"internalType": "uint256",
							"name": "_amount",
							"type": "uint256"
						}
					],
					"name": "donateBlood",
					"outputs": [],
					"stateMutability": "nonpayable",
					"type": "function"
				},
				{
					"inputs": [],
					"name": "getBloodBankAddresses",
					"outputs": [
						{
							"internalType": "address[]",
							"name": "",
							"type": "address[]"
						}
					],
					"stateMutability": "view",
					"type": "function"
				},
				{
					"inputs": [
						{
							"internalType": "address",
							"name": "_bloodBankAddress",
							"type": "address"
						}
					],
					"name": "getBloodStock",
					"outputs": [
						{
							"internalType": "uint256[8]",
							"name": "",
							"type": "uint256[8]"
						}
					],
					"stateMutability": "view",
					"type": "function"
				},
				{
					"inputs": [
						{
							"internalType": "address",
							"name": "_bloodBankAddress",
							"type": "address"
						}
					],
					"name": "getDonationHistory",
					"outputs": [
						{
							"internalType": "uint256[]",
							"name": "",
							"type": "uint256[]"
						}
					],
					"stateMutability": "view",
					"type": "function"
				},
				{
					"inputs": [
						{
							"internalType": "address",
							"name": "_address",
							"type": "address"
						}
					],
					"name": "isBloodBankRegistered",
					"outputs": [
						{
							"internalType": "bool",
							"name": "",
							"type": "bool"
						}
					],
					"stateMutability": "view",
					"type": "function"
				},
				{
					"inputs": [
						{
							"internalType": "address",
							"name": "",
							"type": "address"
						}
					],
					"name": "isDonor",
					"outputs": [
						{
							"internalType": "bool",
							"name": "",
							"type": "bool"
						}
					],
					"stateMutability": "view",
					"type": "function"
				},
				{
					"inputs": [],
					"name": "minDonationInterval",
					"outputs": [
						{
							"internalType": "uint256",
							"name": "",
							"type": "uint256"
						}
					],
					"stateMutability": "view",
					"type": "function"
				},
				{
					"inputs": [
						{
							"internalType": "string",
							"name": "_name",
							"type": "string"
						}
					],
					"name": "registerBloodBank",
					"outputs": [],
					"stateMutability": "nonpayable",
					"type": "function"
				},
				{
					"inputs": [
						{
							"internalType": "string",
							"name": "_name",
							"type": "string"
						},
						{
							"internalType": "enum BloodDonationSystem.BloodType",
							"name": "_bloodType",
							"type": "uint8"
						}
					],
					"name": "registerDonor",
					"outputs": [],
					"stateMutability": "nonpayable",
					"type": "function"
				}
			],
			"devdoc": {
				"kind": "dev",
				"methods": {},
				"version": 1
			},
			"evm": {
				"assembly": "    /* \"contracts/bood.sol\":56:4885  contract BloodDonationSystem {... */\n  mstore(0x40, 0x80)\n    /* \"contracts/bood.sol\":1001:1008  90 days */\n  0x76a700\n    /* \"contracts/bood.sol\":964:1008  uint256 public minDonationInterval = 90 days */\n  0x03\n  sstore\n    /* \"contracts/bood.sol\":56:4885  contract BloodDonationSystem {... */\n  callvalue\n  dup1\n  iszero\n  tag_1\n  jumpi\n  0x00\n  dup1\n  revert\ntag_1:\n  pop\n  dataSize(sub_0)\n  dup1\n  dataOffset(sub_0)\n  0x00\n  codecopy\n  0x00\n  return\nstop\n\nsub_0: assembly {\n        /* \"contracts/bood.sol\":56:4885  contract BloodDonationSystem {... */\n      mstore(0x40, 0x80)\n      callvalue\n      dup1\n      iszero\n      tag_1\n      jumpi\n      0x00\n      dup1\n      revert\n    tag_1:\n      pop\n      jumpi(tag_2, lt(calldatasize, 0x04))\n      shr(0xe0, calldataload(0x00))\n      dup1\n      0x6549a877\n      gt\n      tag_14\n      jumpi\n      dup1\n      0x6549a877\n      eq\n      tag_8\n      jumpi\n      dup1\n      0x8188fe35\n      eq\n      tag_9\n      jumpi\n      dup1\n      0xa59fe388\n      eq\n      tag_10\n      jumpi\n      dup1\n      0xc27f2db7\n      eq\n      tag_11\n      jumpi\n      dup1\n      0xce99e2ca\n      eq\n      tag_12\n      jumpi\n      dup1\n      0xe3fb81e2\n      eq\n      tag_13\n      jumpi\n      jump(tag_2)\n    tag_14:\n      dup1\n      0x1260d846\n      eq\n      tag_3\n      jumpi\n      dup1\n      0x2413bd7f\n      eq\n      tag_4\n      jumpi\n      dup1\n      0x2bc3d7aa\n      eq\n      tag_5\n      jumpi\n      dup1\n      0x40c5fae6\n      eq\n      tag_6\n      jumpi\n      dup1\n      0x52885df5\n      eq\n      tag_7\n      jumpi\n    tag_2:\n      0x00\n      dup1\n      revert\n        /* \"contracts/bood.sol\":4743:4883  function isBloodBankRegistered(address _address) public view returns (bool) {... */\n    tag_3:\n      tag_15\n      0x04\n      dup1\n      calldatasize\n      sub\n      dup2\n      add\n      swap1\n      tag_16\n      swap2\n      swap1\n      tag_17\n      jump\t// in\n    tag_16:\n      tag_18\n      jump\t// in\n    tag_15:\n      mload(0x40)\n      tag_19\n      swap2\n      swap1\n      tag_20\n      jump\t// in\n    tag_19:\n      mload(0x40)\n      dup1\n      swap2\n      sub\n      swap1\n      return\n        /* \"contracts/bood.sol\":3284:3398  function getBloodBankAddresses() public view returns (address[] memory) {... */\n    tag_4:\n      tag_21\n      tag_22\n      jump\t// in\n    tag_21:\n      mload(0x40)\n      tag_23\n      swap2\n      swap1\n      tag_24\n      jump\t// in\n    tag_23:\n      mload(0x40)\n      dup1\n      swap2\n      sub\n      swap1\n      return\n        /* \"contracts/bood.sol\":919:958  mapping(address => bool) public isDonor */\n    tag_5:\n      tag_25\n      0x04\n      dup1\n      calldatasize\n      sub\n      dup2\n      add\n      swap1\n      tag_26\n      swap2\n      swap1\n      tag_17\n      jump\t// in\n    tag_26:\n      tag_27\n      jump\t// in\n    tag_25:\n      mload(0x40)\n      tag_28\n      swap2\n      swap1\n      tag_20\n      jump\t// in\n    tag_28:\n      mload(0x40)\n      dup1\n      swap2\n      sub\n      swap1\n      return\n        /* \"contracts/bood.sol\":3995:4683  function getBloodStock(address _bloodBankAddress) public view onlyBloodBank returns (uint256[8] memory) {... */\n    tag_6:\n      tag_29\n      0x04\n      dup1\n      calldatasize\n      sub\n      dup2\n      add\n      swap1\n      tag_30\n      swap2\n      swap1\n      tag_17\n      jump\t// in\n    tag_30:\n      tag_31\n      jump\t// in\n    tag_29:\n      mload(0x40)\n      tag_32\n      swap2\n      swap1\n      tag_33\n      jump\t// in\n    tag_32:\n      mload(0x40)\n      dup1\n      swap2\n      sub\n      swap1\n      return\n        /* \"contracts/bood.sol\":1537:1978  function registerBloodBank(string memory _name) public {... */\n    tag_7:\n      tag_34\n      0x04\n      dup1\n      calldatasize\n      sub\n      dup2\n      add\n      swap1\n      tag_35\n      swap2\n      swap1\n      tag_36\n      jump\t// in\n    tag_35:\n      tag_37\n      jump\t// in\n    tag_34:\n      stop\n        /* \"contracts/bood.sol\":758:793  address[] public bloodBankAddresses */\n    tag_8:\n      tag_38\n      0x04\n      dup1\n      calldatasize\n      sub\n      dup2\n      add\n      swap1\n      tag_39\n      swap2\n      swap1\n      tag_40\n      jump\t// in\n    tag_39:\n      tag_41\n      jump\t// in\n    tag_38:\n      mload(0x40)\n      tag_42\n      swap2\n      swap1\n      tag_43\n      jump\t// in\n    tag_42:\n      mload(0x40)\n      dup1\n      swap2\n      sub\n      swap1\n      return\n        /* \"contracts/bood.sol\":2012:2475  function registerDonor(string memory _name, BloodType _bloodType) public {... */\n    tag_9:\n      tag_44\n      0x04\n      dup1\n      calldatasize\n      sub\n      dup2\n      add\n      swap1\n      tag_45\n      swap2\n      swap1\n      tag_46\n      jump\t// in\n    tag_45:\n      tag_47\n      jump\t// in\n    tag_44:\n      stop\n        /* \"contracts/bood.sol\":3469:3946  function getDonationHistory(address _bloodBankAddress) public view returns (uint256[] memory) {... */\n    tag_10:\n      tag_48\n      0x04\n      dup1\n      calldatasize\n      sub\n      dup2\n      add\n      swap1\n      tag_49\n      swap2\n      swap1\n      tag_17\n      jump\t// in\n    tag_49:\n      tag_50\n      jump\t// in\n    tag_48:\n      mload(0x40)\n      tag_51\n      swap2\n      swap1\n      tag_52\n      jump\t// in\n    tag_51:\n      mload(0x40)\n      dup1\n      swap2\n      sub\n      swap1\n      return\n        /* \"contracts/bood.sol\":866:913  mapping(address => BloodBank) public bloodBanks */\n    tag_11:\n      tag_53\n      0x04\n      dup1\n      calldatasize\n      sub\n      dup2\n      add\n      swap1\n      tag_54\n      swap2\n      swap1\n      tag_17\n      jump\t// in\n    tag_54:\n      tag_55\n      jump\t// in\n    tag_53:\n      mload(0x40)\n      tag_56\n      swap3\n      swap2\n      swap1\n      tag_57\n      jump\t// in\n    tag_56:\n      mload(0x40)\n      dup1\n      swap2\n      sub\n      swap1\n      return\n        /* \"contracts/bood.sol\":2517:3231  function donateBlood(address _bloodBankAddress, uint256 _amount) public {... */\n    tag_12:\n      tag_58\n      0x04\n      dup1\n      calldatasize\n      sub\n      dup2\n      add\n      swap1\n      tag_59\n      swap2\n      swap1\n      tag_60\n      jump\t// in\n    tag_59:\n      tag_61\n      jump\t// in\n    tag_58:\n      stop\n        /* \"contracts/bood.sol\":964:1008  uint256 public minDonationInterval = 90 days */\n    tag_13:\n      tag_62\n      tag_63\n      jump\t// in\n    tag_62:\n      mload(0x40)\n      tag_64\n      swap2\n      swap1\n      tag_65\n      jump\t// in\n    tag_64:\n      mload(0x40)\n      dup1\n      swap2\n      sub\n      swap1\n      return\n        /* \"contracts/bood.sol\":4743:4883  function isBloodBankRegistered(address _address) public view returns (bool) {... */\n    tag_18:\n        /* \"contracts/bood.sol\":4813:4817  bool */\n      0x00\n        /* \"contracts/bood.sol\":4874:4875  0 */\n      dup1\n        /* \"contracts/bood.sol\":4836:4876  bloodBanks[_address].owner != address(0) */\n      0xffffffffffffffffffffffffffffffffffffffff\n      and\n        /* \"contracts/bood.sol\":4836:4846  bloodBanks */\n      0x01\n        /* \"contracts/bood.sol\":4836:4856  bloodBanks[_address] */\n      0x00\n        /* \"contracts/bood.sol\":4847:4855  _address */\n      dup5\n        /* \"contracts/bood.sol\":4836:4856  bloodBanks[_address] */\n      0xffffffffffffffffffffffffffffffffffffffff\n      and\n      0xffffffffffffffffffffffffffffffffffffffff\n      and\n      dup2\n      mstore\n      0x20\n      add\n      swap1\n      dup2\n      mstore\n      0x20\n      add\n      0x00\n      keccak256\n        /* \"contracts/bood.sol\":4836:4862  bloodBanks[_address].owner */\n      0x01\n      add\n      0x00\n      swap1\n      sload\n      swap1\n      0x0100\n      exp\n      swap1\n      div\n      0xffffffffffffffffffffffffffffffffffffffff\n      and\n        /* \"contracts/bood.sol\":4836:4876  bloodBanks[_address].owner != address(0) */\n      0xffffffffffffffffffffffffffffffffffffffff\n      and\n      eq\n      iszero\n        /* \"contracts/bood.sol\":4829:4876  return bloodBanks[_address].owner != address(0) */\n      swap1\n      pop\n        /* \"contracts/bood.sol\":4743:4883  function isBloodBankRegistered(address _address) public view returns (bool) {... */\n      swap2\n      swap1\n      pop\n      jump\t// out\n        /* \"contracts/bood.sol\":3284:3398  function getBloodBankAddresses() public view returns (address[] memory) {... */\n    tag_22:\n        /* \"contracts/bood.sol\":3338:3354  address[] memory */\n      0x60\n        /* \"contracts/bood.sol\":3373:3391  bloodBankAddresses */\n      0x00\n        /* \"contracts/bood.sol\":3366:3391  return bloodBankAddresses */\n      dup1\n      sload\n      dup1\n      0x20\n      mul\n      0x20\n      add\n      mload(0x40)\n      swap1\n      dup2\n      add\n      0x40\n      mstore\n      dup1\n      swap3\n      swap2\n      swap1\n      dup2\n      dup2\n      mstore\n      0x20\n      add\n      dup3\n      dup1\n      sload\n      dup1\n      iszero\n      tag_68\n      jumpi\n      0x20\n      mul\n      dup3\n      add\n      swap2\n      swap1\n      0x00\n      mstore\n      keccak256(0x00, 0x20)\n      swap1\n    tag_69:\n      dup2\n      0x00\n      swap1\n      sload\n      swap1\n      0x0100\n      exp\n      swap1\n      div\n      0xffffffffffffffffffffffffffffffffffffffff\n      and\n      0xffffffffffffffffffffffffffffffffffffffff\n      and\n      dup2\n      mstore\n      0x20\n      add\n      swap1\n      0x01\n      add\n      swap1\n      dup1\n      dup4\n      gt\n      tag_69\n      jumpi\n    tag_68:\n      pop\n      pop\n      pop\n      pop\n      pop\n      swap1\n      pop\n        /* \"contracts/bood.sol\":3284:3398  function getBloodBankAddresses() public view returns (address[] memory) {... */\n      swap1\n      jump\t// out\n        /* \"contracts/bood.sol\":919:958  mapping(address => bool) public isDonor */\n    tag_27:\n      mstore(0x20, 0x02)\n      dup1\n      0x00\n      mstore\n      keccak256(0x00, 0x40)\n      0x00\n      swap2\n      pop\n      sload\n      swap1\n      0x0100\n      exp\n      swap1\n      div\n      0xff\n      and\n      dup2\n      jump\t// out\n        /* \"contracts/bood.sol\":3995:4683  function getBloodStock(address _bloodBankAddress) public view onlyBloodBank returns (uint256[8] memory) {... */\n    tag_31:\n        /* \"contracts/bood.sol\":4080:4097  uint256[8] memory */\n      tag_70\n      tag_71\n      jump\t// in\n    tag_70:\n        /* \"contracts/bood.sol\":1391:1424  isBloodBankRegistered(msg.sender) */\n      tag_73\n        /* \"contracts/bood.sol\":1413:1423  msg.sender */\n      caller\n        /* \"contracts/bood.sol\":1391:1412  isBloodBankRegistered */\n      tag_18\n        /* \"contracts/bood.sol\":1391:1424  isBloodBankRegistered(msg.sender) */\n      jump\t// in\n    tag_73:\n        /* \"contracts/bood.sol\":1383:1480  require(isBloodBankRegistered(msg.sender), \"Only registered blood banks can perform this action\") */\n      tag_74\n      jumpi\n      mload(0x40)\n      0x08c379a000000000000000000000000000000000000000000000000000000000\n      dup2\n      mstore\n      0x04\n      add\n      tag_75\n      swap1\n      tag_76\n      jump\t// in\n    tag_75:\n      mload(0x40)\n      dup1\n      swap2\n      sub\n      swap1\n      revert\n    tag_74:\n        /* \"contracts/bood.sol\":4109:4131  BloodBank storage bank */\n      0x00\n        /* \"contracts/bood.sol\":4134:4144  bloodBanks */\n      0x01\n        /* \"contracts/bood.sol\":4134:4163  bloodBanks[_bloodBankAddress] */\n      0x00\n        /* \"contracts/bood.sol\":4145:4162  _bloodBankAddress */\n      dup5\n        /* \"contracts/bood.sol\":4134:4163  bloodBanks[_bloodBankAddress] */\n      0xffffffffffffffffffffffffffffffffffffffff\n      and\n      0xffffffffffffffffffffffffffffffffffffffff\n      and\n      dup2\n      mstore\n      0x20\n      add\n      swap1\n      dup2\n      mstore\n      0x20\n      add\n      0x00\n      keccak256\n        /* \"contracts/bood.sol\":4109:4163  BloodBank storage bank = bloodBanks[_bloodBankAddress] */\n      swap1\n      pop\n        /* \"contracts/bood.sol\":4173:4196  uint256[8] memory stock */\n      tag_78\n      tag_71\n      jump\t// in\n    tag_78:\n        /* \"contracts/bood.sol\":4217:4221  bank */\n      dup2\n        /* \"contracts/bood.sol\":4217:4232  bank.bloodStock */\n      0x02\n      add\n        /* \"contracts/bood.sol\":4217:4253  bank.bloodStock[BloodType.APositive] */\n      0x00\n        /* \"contracts/bood.sol\":4233:4252  BloodType.APositive */\n      dup1\n        /* \"contracts/bood.sol\":4217:4253  bank.bloodStock[BloodType.APositive] */\n      0x07\n      dup2\n      gt\n      iszero\n      tag_79\n      jumpi\n      tag_80\n      tag_81\n      jump\t// in\n    tag_80:\n    tag_79:\n      0x07\n      dup2\n      gt\n      iszero\n      tag_82\n      jumpi\n      tag_83\n      tag_81\n      jump\t// in\n    tag_83:\n    tag_82:\n      dup2\n      mstore\n      0x20\n      add\n      swap1\n      dup2\n      mstore\n      0x20\n      add\n      0x00\n      keccak256\n      sload\n        /* \"contracts/bood.sol\":4206:4211  stock */\n      dup2\n        /* \"contracts/bood.sol\":4212:4213  0 */\n      0x00\n        /* \"contracts/bood.sol\":4206:4214  stock[0] */\n      0x08\n      dup2\n      lt\n      tag_84\n      jumpi\n      tag_85\n      tag_86\n      jump\t// in\n    tag_85:\n    tag_84:\n      0x20\n      mul\n      add\n        /* \"contracts/bood.sol\":4206:4253  stock[0] = bank.bloodStock[BloodType.APositive] */\n      dup2\n      dup2\n      mstore\n      pop\n      pop\n        /* \"contracts/bood.sol\":4274:4278  bank */\n      dup2\n        /* \"contracts/bood.sol\":4274:4289  bank.bloodStock */\n      0x02\n      add\n        /* \"contracts/bood.sol\":4274:4310  bank.bloodStock[BloodType.ANegative] */\n      0x00\n        /* \"contracts/bood.sol\":4290:4309  BloodType.ANegative */\n      0x01\n        /* \"contracts/bood.sol\":4274:4310  bank.bloodStock[BloodType.ANegative] */\n      0x07\n      dup2\n      gt\n      iszero\n      tag_87\n      jumpi\n      tag_88\n      tag_81\n      jump\t// in\n    tag_88:\n    tag_87:\n      0x07\n      dup2\n      gt\n      iszero\n      tag_89\n      jumpi\n      tag_90\n      tag_81\n      jump\t// in\n    tag_90:\n    tag_89:\n      dup2\n      mstore\n      0x20\n      add\n      swap1\n      dup2\n      mstore\n      0x20\n      add\n      0x00\n      keccak256\n      sload\n        /* \"contracts/bood.sol\":4263:4268  stock */\n      dup2\n        /* \"contracts/bood.sol\":4269:4270  1 */\n      0x01\n        /* \"contracts/bood.sol\":4263:4271  stock[1] */\n      0x08\n      dup2\n      lt\n      tag_91\n      jumpi\n      tag_92\n      tag_86\n      jump\t// in\n    tag_92:\n    tag_91:\n      0x20\n      mul\n      add\n        /* \"contracts/bood.sol\":4263:4310  stock[1] = bank.bloodStock[BloodType.ANegative] */\n      dup2\n      dup2\n      mstore\n      pop\n      pop\n        /* \"contracts/bood.sol\":4331:4335  bank */\n      dup2\n        /* \"contracts/bood.sol\":4331:4346  bank.bloodStock */\n      0x02\n      add\n        /* \"contracts/bood.sol\":4331:4367  bank.bloodStock[BloodType.BPositive] */\n      0x00\n        /* \"contracts/bood.sol\":4347:4366  BloodType.BPositive */\n      0x02\n        /* \"contracts/bood.sol\":4331:4367  bank.bloodStock[BloodType.BPositive] */\n      0x07\n      dup2\n      gt\n      iszero\n      tag_93\n      jumpi\n      tag_94\n      tag_81\n      jump\t// in\n    tag_94:\n    tag_93:\n      0x07\n      dup2\n      gt\n      iszero\n      tag_95\n      jumpi\n      tag_96\n      tag_81\n      jump\t// in\n    tag_96:\n    tag_95:\n      dup2\n      mstore\n      0x20\n      add\n      swap1\n      dup2\n      mstore\n      0x20\n      add\n      0x00\n      keccak256\n      sload\n        /* \"contracts/bood.sol\":4320:4325  stock */\n      dup2\n        /* \"contracts/bood.sol\":4326:4327  2 */\n      0x02\n        /* \"contracts/bood.sol\":4320:4328  stock[2] */\n      0x08\n      dup2\n      lt\n      tag_97\n      jumpi\n      tag_98\n      tag_86\n      jump\t// in\n    tag_98:\n    tag_97:\n      0x20\n      mul\n      add\n        /* \"contracts/bood.sol\":4320:4367  stock[2] = bank.bloodStock[BloodType.BPositive] */\n      dup2\n      dup2\n      mstore\n      pop\n      pop\n        /* \"contracts/bood.sol\":4388:4392  bank */\n      dup2\n        /* \"contracts/bood.sol\":4388:4403  bank.bloodStock */\n      0x02\n      add\n        /* \"contracts/bood.sol\":4388:4424  bank.bloodStock[BloodType.BNegative] */\n      0x00\n        /* \"contracts/bood.sol\":4404:4423  BloodType.BNegative */\n      0x03\n        /* \"contracts/bood.sol\":4388:4424  bank.bloodStock[BloodType.BNegative] */\n      0x07\n      dup2\n      gt\n      iszero\n      tag_99\n      jumpi\n      tag_100\n      tag_81\n      jump\t// in\n    tag_100:\n    tag_99:\n      0x07\n      dup2\n      gt\n      iszero\n      tag_101\n      jumpi\n      tag_102\n      tag_81\n      jump\t// in\n    tag_102:\n    tag_101:\n      dup2\n      mstore\n      0x20\n      add\n      swap1\n      dup2\n      mstore\n      0x20\n      add\n      0x00\n      keccak256\n      sload\n        /* \"contracts/bood.sol\":4377:4382  stock */\n      dup2\n        /* \"contracts/bood.sol\":4383:4384  3 */\n      0x03\n        /* \"contracts/bood.sol\":4377:4385  stock[3] */\n      0x08\n      dup2\n      lt\n      tag_103\n      jumpi\n      tag_104\n      tag_86\n      jump\t// in\n    tag_104:\n    tag_103:\n      0x20\n      mul\n      add\n        /* \"contracts/bood.sol\":4377:4424  stock[3] = bank.bloodStock[BloodType.BNegative] */\n      dup2\n      dup2\n      mstore\n      pop\n      pop\n        /* \"contracts/bood.sol\":4445:4449  bank */\n      dup2\n        /* \"contracts/bood.sol\":4445:4460  bank.bloodStock */\n      0x02\n      add\n        /* \"contracts/bood.sol\":4445:4482  bank.bloodStock[BloodType.ABPositive] */\n      0x00\n        /* \"contracts/bood.sol\":4461:4481  BloodType.ABPositive */\n      0x04\n        /* \"contracts/bood.sol\":4445:4482  bank.bloodStock[BloodType.ABPositive] */\n      0x07\n      dup2\n      gt\n      iszero\n      tag_105\n      jumpi\n      tag_106\n      tag_81\n      jump\t// in\n    tag_106:\n    tag_105:\n      0x07\n      dup2\n      gt\n      iszero\n      tag_107\n      jumpi\n      tag_108\n      tag_81\n      jump\t// in\n    tag_108:\n    tag_107:\n      dup2\n      mstore\n      0x20\n      add\n      swap1\n      dup2\n      mstore\n      0x20\n      add\n      0x00\n      keccak256\n      sload\n        /* \"contracts/bood.sol\":4434:4439  stock */\n      dup2\n        /* \"contracts/bood.sol\":4440:4441  4 */\n      0x04\n        /* \"contracts/bood.sol\":4434:4442  stock[4] */\n      0x08\n      dup2\n      lt\n      tag_109\n      jumpi\n      tag_110\n      tag_86\n      jump\t// in\n    tag_110:\n    tag_109:\n      0x20\n      mul\n      add\n        /* \"contracts/bood.sol\":4434:4482  stock[4] = bank.bloodStock[BloodType.ABPositive] */\n      dup2\n      dup2\n      mstore\n      pop\n      pop\n        /* \"contracts/bood.sol\":4503:4507  bank */\n      dup2\n        /* \"contracts/bood.sol\":4503:4518  bank.bloodStock */\n      0x02\n      add\n        /* \"contracts/bood.sol\":4503:4540  bank.bloodStock[BloodType.ABNegative] */\n      0x00\n        /* \"contracts/bood.sol\":4519:4539  BloodType.ABNegative */\n      0x05\n        /* \"contracts/bood.sol\":4503:4540  bank.bloodStock[BloodType.ABNegative] */\n      0x07\n      dup2\n      gt\n      iszero\n      tag_111\n      jumpi\n      tag_112\n      tag_81\n      jump\t// in\n    tag_112:\n    tag_111:\n      0x07\n      dup2\n      gt\n      iszero\n      tag_113\n      jumpi\n      tag_114\n      tag_81\n      jump\t// in\n    tag_114:\n    tag_113:\n      dup2\n      mstore\n      0x20\n      add\n      swap1\n      dup2\n      mstore\n      0x20\n      add\n      0x00\n      keccak256\n      sload\n        /* \"contracts/bood.sol\":4492:4497  stock */\n      dup2\n        /* \"contracts/bood.sol\":4498:4499  5 */\n      0x05\n        /* \"contracts/bood.sol\":4492:4500  stock[5] */\n      0x08\n      dup2\n      lt\n      tag_115\n      jumpi\n      tag_116\n      tag_86\n      jump\t// in\n    tag_116:\n    tag_115:\n      0x20\n      mul\n      add\n        /* \"contracts/bood.sol\":4492:4540  stock[5] = bank.bloodStock[BloodType.ABNegative] */\n      dup2\n      dup2\n      mstore\n      pop\n      pop\n        /* \"contracts/bood.sol\":4561:4565  bank */\n      dup2\n        /* \"contracts/bood.sol\":4561:4576  bank.bloodStock */\n      0x02\n      add\n        /* \"contracts/bood.sol\":4561:4597  bank.bloodStock[BloodType.OPositive] */\n      0x00\n        /* \"contracts/bood.sol\":4577:4596  BloodType.OPositive */\n      0x06\n        /* \"contracts/bood.sol\":4561:4597  bank.bloodStock[BloodType.OPositive] */\n      0x07\n      dup2\n      gt\n      iszero\n      tag_117\n      jumpi\n      tag_118\n      tag_81\n      jump\t// in\n    tag_118:\n    tag_117:\n      0x07\n      dup2\n      gt\n      iszero\n      tag_119\n      jumpi\n      tag_120\n      tag_81\n      jump\t// in\n    tag_120:\n    tag_119:\n      dup2\n      mstore\n      0x20\n      add\n      swap1\n      dup2\n      mstore\n      0x20\n      add\n      0x00\n      keccak256\n      sload\n        /* \"contracts/bood.sol\":4550:4555  stock */\n      dup2\n        /* \"contracts/bood.sol\":4556:4557  6 */\n      0x06\n        /* \"contracts/bood.sol\":4550:4558  stock[6] */\n      0x08\n      dup2\n      lt\n      tag_121\n      jumpi\n      tag_122\n      tag_86\n      jump\t// in\n    tag_122:\n    tag_121:\n      0x20\n      mul\n      add\n        /* \"contracts/bood.sol\":4550:4597  stock[6] = bank.bloodStock[BloodType.OPositive] */\n      dup2\n      dup2\n      mstore\n      pop\n      pop\n        /* \"contracts/bood.sol\":4618:4622  bank */\n      dup2\n        /* \"contracts/bood.sol\":4618:4633  bank.bloodStock */\n      0x02\n      add\n        /* \"contracts/bood.sol\":4618:4654  bank.bloodStock[BloodType.ONegative] */\n      0x00\n        /* \"contracts/bood.sol\":4634:4653  BloodType.ONegative */\n      0x07\n        /* \"contracts/bood.sol\":4618:4654  bank.bloodStock[BloodType.ONegative] */\n      dup1\n      dup2\n      gt\n      iszero\n      tag_123\n      jumpi\n      tag_124\n      tag_81\n      jump\t// in\n    tag_124:\n    tag_123:\n      0x07\n      dup2\n      gt\n      iszero\n      tag_125\n      jumpi\n      tag_126\n      tag_81\n      jump\t// in\n    tag_126:\n    tag_125:\n      dup2\n      mstore\n      0x20\n      add\n      swap1\n      dup2\n      mstore\n      0x20\n      add\n      0x00\n      keccak256\n      sload\n        /* \"contracts/bood.sol\":4607:4612  stock */\n      dup2\n        /* \"contracts/bood.sol\":4613:4614  7 */\n      0x07\n        /* \"contracts/bood.sol\":4607:4615  stock[7] */\n      0x08\n      dup2\n      lt\n      tag_127\n      jumpi\n      tag_128\n      tag_86\n      jump\t// in\n    tag_128:\n    tag_127:\n      0x20\n      mul\n      add\n        /* \"contracts/bood.sol\":4607:4654  stock[7] = bank.bloodStock[BloodType.ONegative] */\n      dup2\n      dup2\n      mstore\n      pop\n      pop\n        /* \"contracts/bood.sol\":4671:4676  stock */\n      dup1\n        /* \"contracts/bood.sol\":4664:4676  return stock */\n      swap3\n      pop\n      pop\n      pop\n        /* \"contracts/bood.sol\":3995:4683  function getBloodStock(address _bloodBankAddress) public view onlyBloodBank returns (uint256[8] memory) {... */\n      swap2\n      swap1\n      pop\n      jump\t// out\n        /* \"contracts/bood.sol\":1537:1978  function registerBloodBank(string memory _name) public {... */\n    tag_37:\n        /* \"contracts/bood.sol\":1611:1644  isBloodBankRegistered(msg.sender) */\n      tag_130\n        /* \"contracts/bood.sol\":1633:1643  msg.sender */\n      caller\n        /* \"contracts/bood.sol\":1611:1632  isBloodBankRegistered */\n      tag_18\n        /* \"contracts/bood.sol\":1611:1644  isBloodBankRegistered(msg.sender) */\n      jump\t// in\n    tag_130:\n        /* \"contracts/bood.sol\":1610:1644  !isBloodBankRegistered(msg.sender) */\n      iszero\n        /* \"contracts/bood.sol\":1602:1678  require(!isBloodBankRegistered(msg.sender), \"Blood bank already registered\") */\n      tag_131\n      jumpi\n      mload(0x40)\n      0x08c379a000000000000000000000000000000000000000000000000000000000\n      dup2\n      mstore\n      0x04\n      add\n      tag_132\n      swap1\n      tag_133\n      jump\t// in\n    tag_132:\n      mload(0x40)\n      dup1\n      swap2\n      sub\n      swap1\n      revert\n    tag_131:\n        /* \"contracts/bood.sol\":1697:1727  BloodBank storage newBloodBank */\n      0x00\n        /* \"contracts/bood.sol\":1730:1740  bloodBanks */\n      0x01\n        /* \"contracts/bood.sol\":1730:1752  bloodBanks[msg.sender] */\n      0x00\n        /* \"contracts/bood.sol\":1741:1751  msg.sender */\n      caller\n        /* \"contracts/bood.sol\":1730:1752  bloodBanks[msg.sender] */\n      0xffffffffffffffffffffffffffffffffffffffff\n      and\n      0xffffffffffffffffffffffffffffffffffffffff\n      and\n      dup2\n      mstore\n      0x20\n      add\n      swap1\n      dup2\n      mstore\n      0x20\n      add\n      0x00\n      keccak256\n        /* \"contracts/bood.sol\":1697:1752  BloodBank storage newBloodBank = bloodBanks[msg.sender] */\n      swap1\n      pop\n        /* \"contracts/bood.sol\":1782:1787  _name */\n      dup2\n        /* \"contracts/bood.sol\":1762:1774  newBloodBank */\n      dup2\n        /* \"contracts/bood.sol\":1762:1779  newBloodBank.name */\n      0x00\n      add\n        /* \"contracts/bood.sol\":1762:1787  newBloodBank.name = _name */\n      swap1\n      dup2\n      tag_134\n      swap2\n      swap1\n      tag_135\n      jump\t// in\n    tag_134:\n      pop\n        /* \"contracts/bood.sol\":1818:1828  msg.sender */\n      caller\n        /* \"contracts/bood.sol\":1797:1809  newBloodBank */\n      dup2\n        /* \"contracts/bood.sol\":1797:1815  newBloodBank.owner */\n      0x01\n      add\n      0x00\n        /* \"contracts/bood.sol\":1797:1828  newBloodBank.owner = msg.sender */\n      0x0100\n      exp\n      dup2\n      sload\n      dup2\n      0xffffffffffffffffffffffffffffffffffffffff\n      mul\n      not\n      and\n      swap1\n      dup4\n      0xffffffffffffffffffffffffffffffffffffffff\n      and\n      mul\n      or\n      swap1\n      sstore\n      pop\n        /* \"contracts/bood.sol\":1839:1857  bloodBankAddresses */\n      0x00\n        /* \"contracts/bood.sol\":1863:1873  msg.sender */\n      caller\n        /* \"contracts/bood.sol\":1839:1874  bloodBankAddresses.push(msg.sender) */\n      swap1\n      dup1\n      0x01\n      dup2\n      sload\n      add\n      dup1\n      dup3\n      sstore\n      dup1\n      swap2\n      pop\n      pop\n      0x01\n      swap1\n      sub\n      swap1\n      0x00\n      mstore\n      keccak256(0x00, 0x20)\n      add\n      0x00\n      swap1\n      swap2\n      swap1\n      swap2\n      swap1\n      swap2\n      0x0100\n      exp\n      dup2\n      sload\n      dup2\n      0xffffffffffffffffffffffffffffffffffffffff\n      mul\n      not\n      and\n      swap1\n      dup4\n      0xffffffffffffffffffffffffffffffffffffffff\n      and\n      mul\n      or\n      swap1\n      sstore\n      pop\n        /* \"contracts/bood.sol\":1953:1963  msg.sender */\n      caller\n        /* \"contracts/bood.sol\":1933:1971  BloodBankRegistered(msg.sender, _name) */\n      0xffffffffffffffffffffffffffffffffffffffff\n      and\n      0xf86691fd3a664aeba999269de24b4252590218f3be9868ee5103812c94ec0021\n        /* \"contracts/bood.sol\":1965:1970  _name */\n      dup4\n        /* \"contracts/bood.sol\":1933:1971  BloodBankRegistered(msg.sender, _name) */\n      mload(0x40)\n      tag_137\n      swap2\n      swap1\n      tag_138\n      jump\t// in\n    tag_137:\n      mload(0x40)\n      dup1\n      swap2\n      sub\n      swap1\n      log2\n        /* \"contracts/bood.sol\":1592:1978  {... */\n      pop\n        /* \"contracts/bood.sol\":1537:1978  function registerBloodBank(string memory _name) public {... */\n      pop\n      jump\t// out\n        /* \"contracts/bood.sol\":758:793  address[] public bloodBankAddresses */\n    tag_41:\n      0x00\n      dup2\n      dup2\n      sload\n      dup2\n      lt\n      tag_139\n      jumpi\n      0x00\n      dup1\n      revert\n    tag_139:\n      swap1\n      0x00\n      mstore\n      keccak256(0x00, 0x20)\n      add\n      0x00\n      swap2\n      pop\n      sload\n      swap1\n      0x0100\n      exp\n      swap1\n      div\n      0xffffffffffffffffffffffffffffffffffffffff\n      and\n      dup2\n      jump\t// out\n        /* \"contracts/bood.sol\":2012:2475  function registerDonor(string memory _name, BloodType _bloodType) public {... */\n    tag_47:\n        /* \"contracts/bood.sol\":2104:2111  isDonor */\n      0x02\n        /* \"contracts/bood.sol\":2104:2123  isDonor[msg.sender] */\n      0x00\n        /* \"contracts/bood.sol\":2112:2122  msg.sender */\n      caller\n        /* \"contracts/bood.sol\":2104:2123  isDonor[msg.sender] */\n      0xffffffffffffffffffffffffffffffffffffffff\n      and\n      0xffffffffffffffffffffffffffffffffffffffff\n      and\n      dup2\n      mstore\n      0x20\n      add\n      swap1\n      dup2\n      mstore\n      0x20\n      add\n      0x00\n      keccak256\n      0x00\n      swap1\n      sload\n      swap1\n      0x0100\n      exp\n      swap1\n      div\n      0xff\n      and\n        /* \"contracts/bood.sol\":2103:2123  !isDonor[msg.sender] */\n      iszero\n        /* \"contracts/bood.sol\":2095:2157  require(!isDonor[msg.sender], \"Already registered as a donor\") */\n      tag_142\n      jumpi\n      mload(0x40)\n      0x08c379a000000000000000000000000000000000000000000000000000000000\n      dup2\n      mstore\n      0x04\n      add\n      tag_143\n      swap1\n      tag_144\n      jump\t// in\n    tag_143:\n      mload(0x40)\n      dup1\n      swap2\n      sub\n      swap1\n      revert\n    tag_142:\n        /* \"contracts/bood.sol\":2189:2193  true */\n      0x01\n        /* \"contracts/bood.sol\":2167:2174  isDonor */\n      0x02\n        /* \"contracts/bood.sol\":2167:2186  isDonor[msg.sender] */\n      0x00\n        /* \"contracts/bood.sol\":2175:2185  msg.sender */\n      caller\n        /* \"contracts/bood.sol\":2167:2186  isDonor[msg.sender] */\n      0xffffffffffffffffffffffffffffffffffffffff\n      and\n      0xffffffffffffffffffffffffffffffffffffffff\n      and\n      dup2\n      mstore\n      0x20\n      add\n      swap1\n      dup2\n      mstore\n      0x20\n      add\n      0x00\n      keccak256\n      0x00\n        /* \"contracts/bood.sol\":2167:2193  isDonor[msg.sender] = true */\n      0x0100\n      exp\n      dup2\n      sload\n      dup2\n      0xff\n      mul\n      not\n      and\n      swap1\n      dup4\n      iszero\n      iszero\n      mul\n      or\n      swap1\n      sstore\n      pop\n        /* \"contracts/bood.sol\":2212:2231  Donor storage donor */\n      0x00\n        /* \"contracts/bood.sol\":2234:2244  bloodBanks */\n      0x01\n        /* \"contracts/bood.sol\":2234:2256  bloodBanks[msg.sender] */\n      0x00\n        /* \"contracts/bood.sol\":2245:2255  msg.sender */\n      caller\n        /* \"contracts/bood.sol\":2234:2256  bloodBanks[msg.sender] */\n      0xffffffffffffffffffffffffffffffffffffffff\n      and\n      0xffffffffffffffffffffffffffffffffffffffff\n      and\n      dup2\n      mstore\n      0x20\n      add\n      swap1\n      dup2\n      mstore\n      0x20\n      add\n      0x00\n      keccak256\n        /* \"contracts/bood.sol\":2234:2263  bloodBanks[msg.sender].donors */\n      0x03\n      add\n        /* \"contracts/bood.sol\":2234:2275  bloodBanks[msg.sender].donors[msg.sender] */\n      0x00\n        /* \"contracts/bood.sol\":2264:2274  msg.sender */\n      caller\n        /* \"contracts/bood.sol\":2234:2275  bloodBanks[msg.sender].donors[msg.sender] */\n      0xffffffffffffffffffffffffffffffffffffffff\n      and\n      0xffffffffffffffffffffffffffffffffffffffff\n      and\n      dup2\n      mstore\n      0x20\n      add\n      swap1\n      dup2\n      mstore\n      0x20\n      add\n      0x00\n      keccak256\n        /* \"contracts/bood.sol\":2212:2275  Donor storage donor = bloodBanks[msg.sender].donors[msg.sender] */\n      swap1\n      pop\n        /* \"contracts/bood.sol\":2298:2303  _name */\n      dup3\n        /* \"contracts/bood.sol\":2285:2290  donor */\n      dup2\n        /* \"contracts/bood.sol\":2285:2295  donor.name */\n      0x00\n      add\n        /* \"contracts/bood.sol\":2285:2303  donor.name = _name */\n      swap1\n      dup2\n      tag_145\n      swap2\n      swap1\n      tag_135\n      jump\t// in\n    tag_145:\n      pop\n        /* \"contracts/bood.sol\":2334:2344  msg.sender */\n      caller\n        /* \"contracts/bood.sol\":2313:2318  donor */\n      dup2\n        /* \"contracts/bood.sol\":2313:2331  donor.donorAddress */\n      0x01\n      add\n      0x00\n        /* \"contracts/bood.sol\":2313:2344  donor.donorAddress = msg.sender */\n      0x0100\n      exp\n      dup2\n      sload\n      dup2\n      0xffffffffffffffffffffffffffffffffffffffff\n      mul\n      not\n      and\n      swap1\n      dup4\n      0xffffffffffffffffffffffffffffffffffffffff\n      and\n      mul\n      or\n      swap1\n      sstore\n      pop\n        /* \"contracts/bood.sol\":2372:2382  _bloodType */\n      dup2\n        /* \"contracts/bood.sol\":2354:2359  donor */\n      dup2\n        /* \"contracts/bood.sol\":2354:2369  donor.bloodType */\n      0x01\n      add\n      0x14\n        /* \"contracts/bood.sol\":2354:2382  donor.bloodType = _bloodType */\n      0x0100\n      exp\n      dup2\n      sload\n      dup2\n      0xff\n      mul\n      not\n      and\n      swap1\n      dup4\n      0x07\n      dup2\n      gt\n      iszero\n      tag_146\n      jumpi\n      tag_147\n      tag_81\n      jump\t// in\n    tag_147:\n    tag_146:\n      mul\n      or\n      swap1\n      sstore\n      pop\n        /* \"contracts/bood.sol\":2417:2418  0 */\n      0x00\n        /* \"contracts/bood.sol\":2392:2397  donor */\n      dup2\n        /* \"contracts/bood.sol\":2392:2414  donor.lastDonationTime */\n      0x02\n      add\n        /* \"contracts/bood.sol\":2392:2418  donor.lastDonationTime = 0 */\n      dup2\n      swap1\n      sstore\n      pop\n        /* \"contracts/bood.sol\":2450:2460  msg.sender */\n      caller\n        /* \"contracts/bood.sol\":2434:2468  DonorRegistered(msg.sender, _name) */\n      0xffffffffffffffffffffffffffffffffffffffff\n      and\n      0xf6bba8a2d47514955cc8e64ea9127b51d5615832d1fbd20ec40275f0876cfcbf\n        /* \"contracts/bood.sol\":2462:2467  _name */\n      dup5\n        /* \"contracts/bood.sol\":2434:2468  DonorRegistered(msg.sender, _name) */\n      mload(0x40)\n      tag_148\n      swap2\n      swap1\n      tag_138\n      jump\t// in\n    tag_148:\n      mload(0x40)\n      dup1\n      swap2\n      sub\n      swap1\n      log2\n        /* \"contracts/bood.sol\":2085:2475  {... */\n      pop\n        /* \"contracts/bood.sol\":2012:2475  function registerDonor(string memory _name, BloodType _bloodType) public {... */\n      pop\n      pop\n      jump\t// out\n        /* \"contracts/bood.sol\":3469:3946  function getDonationHistory(address _bloodBankAddress) public view returns (uint256[] memory) {... */\n    tag_50:\n        /* \"contracts/bood.sol\":3545:3561  uint256[] memory */\n      0x60\n        /* \"contracts/bood.sol\":3581:3588  isDonor */\n      0x02\n        /* \"contracts/bood.sol\":3581:3600  isDonor[msg.sender] */\n      0x00\n        /* \"contracts/bood.sol\":3589:3599  msg.sender */\n      caller\n        /* \"contracts/bood.sol\":3581:3600  isDonor[msg.sender] */\n      0xffffffffffffffffffffffffffffffffffffffff\n      and\n      0xffffffffffffffffffffffffffffffffffffffff\n      and\n      dup2\n      mstore\n      0x20\n      add\n      swap1\n      dup2\n      mstore\n      0x20\n      add\n      0x00\n      keccak256\n      0x00\n      swap1\n      sload\n      swap1\n      0x0100\n      exp\n      swap1\n      div\n      0xff\n      and\n        /* \"contracts/bood.sol\":3573:3630  require(isDonor[msg.sender], \"Not registered as a donor\") */\n      tag_150\n      jumpi\n      mload(0x40)\n      0x08c379a000000000000000000000000000000000000000000000000000000000\n      dup2\n      mstore\n      0x04\n      add\n      tag_151\n      swap1\n      tag_152\n      jump\t// in\n    tag_151:\n      mload(0x40)\n      dup1\n      swap2\n      sub\n      swap1\n      revert\n    tag_150:\n        /* \"contracts/bood.sol\":3648:3688  isBloodBankRegistered(_bloodBankAddress) */\n      tag_153\n        /* \"contracts/bood.sol\":3670:3687  _bloodBankAddress */\n      dup3\n        /* \"contracts/bood.sol\":3648:3669  isBloodBankRegistered */\n      tag_18\n        /* \"contracts/bood.sol\":3648:3688  isBloodBankRegistered(_bloodBankAddress) */\n      jump\t// in\n    tag_153:\n        /* \"contracts/bood.sol\":3640:3719  require(isBloodBankRegistered(_bloodBankAddress), \"Invalid blood bank address\") */\n      tag_154\n      jumpi\n      mload(0x40)\n      0x08c379a000000000000000000000000000000000000000000000000000000000\n      dup2\n      mstore\n      0x04\n      add\n      tag_155\n      swap1\n      tag_156\n      jump\t// in\n    tag_155:\n      mload(0x40)\n      dup1\n      swap2\n      sub\n      swap1\n      revert\n    tag_154:\n        /* \"contracts/bood.sol\":3729:3748  Donor storage donor */\n      0x00\n        /* \"contracts/bood.sol\":3751:3761  bloodBanks */\n      0x01\n        /* \"contracts/bood.sol\":3751:3780  bloodBanks[_bloodBankAddress] */\n      0x00\n        /* \"contracts/bood.sol\":3762:3779  _bloodBankAddress */\n      dup5\n        /* \"contracts/bood.sol\":3751:3780  bloodBanks[_bloodBankAddress] */\n      0xffffffffffffffffffffffffffffffffffffffff\n      and\n      0xffffffffffffffffffffffffffffffffffffffff\n      and\n      dup2\n      mstore\n      0x20\n      add\n      swap1\n      dup2\n      mstore\n      0x20\n      add\n      0x00\n      keccak256\n        /* \"contracts/bood.sol\":3751:3787  bloodBanks[_bloodBankAddress].donors */\n      0x03\n      add\n        /* \"contracts/bood.sol\":3751:3799  bloodBanks[_bloodBankAddress].donors[msg.sender] */\n      0x00\n        /* \"contracts/bood.sol\":3788:3798  msg.sender */\n      caller\n        /* \"contracts/bood.sol\":3751:3799  bloodBanks[_bloodBankAddress].donors[msg.sender] */\n      0xffffffffffffffffffffffffffffffffffffffff\n      and\n      0xffffffffffffffffffffffffffffffffffffffff\n      and\n      dup2\n      mstore\n      0x20\n      add\n      swap1\n      dup2\n      mstore\n      0x20\n      add\n      0x00\n      keccak256\n        /* \"contracts/bood.sol\":3729:3799  Donor storage donor = bloodBanks[_bloodBankAddress].donors[msg.sender] */\n      swap1\n      pop\n        /* \"contracts/bood.sol\":3809:3833  uint256[] memory history */\n      0x00\n        /* \"contracts/bood.sol\":3850:3851  1 */\n      0x01\n        /* \"contracts/bood.sol\":3836:3852  new uint256[](1) */\n      0xffffffffffffffff\n      dup2\n      gt\n      iszero\n      tag_157\n      jumpi\n      tag_158\n      tag_159\n      jump\t// in\n    tag_158:\n    tag_157:\n      mload(0x40)\n      swap1\n      dup1\n      dup3\n      mstore\n      dup1\n      0x20\n      mul\n      0x20\n      add\n      dup3\n      add\n      0x40\n      mstore\n      dup1\n      iszero\n      tag_160\n      jumpi\n      dup2\n      0x20\n      add\n      0x20\n      dup3\n      mul\n      dup1\n      calldatasize\n      dup4\n      calldatacopy\n      dup1\n      dup3\n      add\n      swap2\n      pop\n      pop\n      swap1\n      pop\n    tag_160:\n      pop\n        /* \"contracts/bood.sol\":3809:3852  uint256[] memory history = new uint256[](1) */\n      swap1\n      pop\n        /* \"contracts/bood.sol\":3875:3880  donor */\n      dup2\n        /* \"contracts/bood.sol\":3875:3896  donor.donationHistory */\n      0x03\n      add\n        /* \"contracts/bood.sol\":3875:3915  donor.donationHistory[_bloodBankAddress] */\n      0x00\n        /* \"contracts/bood.sol\":3897:3914  _bloodBankAddress */\n      dup6\n        /* \"contracts/bood.sol\":3875:3915  donor.donationHistory[_bloodBankAddress] */\n      0xffffffffffffffffffffffffffffffffffffffff\n      and\n      0xffffffffffffffffffffffffffffffffffffffff\n      and\n      dup2\n      mstore\n      0x20\n      add\n      swap1\n      dup2\n      mstore\n      0x20\n      add\n      0x00\n      keccak256\n      sload\n        /* \"contracts/bood.sol\":3862:3869  history */\n      dup2\n        /* \"contracts/bood.sol\":3870:3871  0 */\n      0x00\n        /* \"contracts/bood.sol\":3862:3872  history[0] */\n      dup2\n      mload\n      dup2\n      lt\n      tag_161\n      jumpi\n      tag_162\n      tag_86\n      jump\t// in\n    tag_162:\n    tag_161:\n      0x20\n      mul\n      0x20\n      add\n      add\n        /* \"contracts/bood.sol\":3862:3915  history[0] = donor.donationHistory[_bloodBankAddress] */\n      dup2\n      dup2\n      mstore\n      pop\n      pop\n        /* \"contracts/bood.sol\":3932:3939  history */\n      dup1\n        /* \"contracts/bood.sol\":3925:3939  return history */\n      swap3\n      pop\n      pop\n      pop\n        /* \"contracts/bood.sol\":3469:3946  function getDonationHistory(address _bloodBankAddress) public view returns (uint256[] memory) {... */\n      swap2\n      swap1\n      pop\n      jump\t// out\n        /* \"contracts/bood.sol\":866:913  mapping(address => BloodBank) public bloodBanks */\n    tag_55:\n      mstore(0x20, 0x01)\n      dup1\n      0x00\n      mstore\n      keccak256(0x00, 0x40)\n      0x00\n      swap2\n      pop\n      swap1\n      pop\n      dup1\n      0x00\n      add\n      dup1\n      sload\n      tag_163\n      swap1\n      tag_164\n      jump\t// in\n    tag_163:\n      dup1\n      0x1f\n      add\n      0x20\n      dup1\n      swap2\n      div\n      mul\n      0x20\n      add\n      mload(0x40)\n      swap1\n      dup2\n      add\n      0x40\n      mstore\n      dup1\n      swap3\n      swap2\n      swap1\n      dup2\n      dup2\n      mstore\n      0x20\n      add\n      dup3\n      dup1\n      sload\n      tag_165\n      swap1\n      tag_164\n      jump\t// in\n    tag_165:\n      dup1\n      iszero\n      tag_166\n      jumpi\n      dup1\n      0x1f\n      lt\n      tag_167\n      jumpi\n      0x0100\n      dup1\n      dup4\n      sload\n      div\n      mul\n      dup4\n      mstore\n      swap2\n      0x20\n      add\n      swap2\n      jump(tag_166)\n    tag_167:\n      dup3\n      add\n      swap2\n      swap1\n      0x00\n      mstore\n      keccak256(0x00, 0x20)\n      swap1\n    tag_168:\n      dup2\n      sload\n      dup2\n      mstore\n      swap1\n      0x01\n      add\n      swap1\n      0x20\n      add\n      dup1\n      dup4\n      gt\n      tag_168\n      jumpi\n      dup3\n      swap1\n      sub\n      0x1f\n      and\n      dup3\n      add\n      swap2\n    tag_166:\n      pop\n      pop\n      pop\n      pop\n      pop\n      swap1\n      dup1\n      0x01\n      add\n      0x00\n      swap1\n      sload\n      swap1\n      0x0100\n      exp\n      swap1\n      div\n      0xffffffffffffffffffffffffffffffffffffffff\n      and\n      swap1\n      pop\n      dup3\n      jump\t// out\n        /* \"contracts/bood.sol\":2517:3231  function donateBlood(address _bloodBankAddress, uint256 _amount) public {... */\n    tag_61:\n        /* \"contracts/bood.sol\":2607:2614  isDonor */\n      0x02\n        /* \"contracts/bood.sol\":2607:2626  isDonor[msg.sender] */\n      0x00\n        /* \"contracts/bood.sol\":2615:2625  msg.sender */\n      caller\n        /* \"contracts/bood.sol\":2607:2626  isDonor[msg.sender] */\n      0xffffffffffffffffffffffffffffffffffffffff\n      and\n      0xffffffffffffffffffffffffffffffffffffffff\n      and\n      dup2\n      mstore\n      0x20\n      add\n      swap1\n      dup2\n      mstore\n      0x20\n      add\n      0x00\n      keccak256\n      0x00\n      swap1\n      sload\n      swap1\n      0x0100\n      exp\n      swap1\n      div\n      0xff\n      and\n        /* \"contracts/bood.sol\":2599:2656  require(isDonor[msg.sender], \"Not registered as a donor\") */\n      tag_170\n      jumpi\n      mload(0x40)\n      0x08c379a000000000000000000000000000000000000000000000000000000000\n      dup2\n      mstore\n      0x04\n      add\n      tag_171\n      swap1\n      tag_152\n      jump\t// in\n    tag_171:\n      mload(0x40)\n      dup1\n      swap2\n      sub\n      swap1\n      revert\n    tag_170:\n        /* \"contracts/bood.sol\":2674:2714  isBloodBankRegistered(_bloodBankAddress) */\n      tag_172\n        /* \"contracts/bood.sol\":2696:2713  _bloodBankAddress */\n      dup3\n        /* \"contracts/bood.sol\":2674:2695  isBloodBankRegistered */\n      tag_18\n        /* \"contracts/bood.sol\":2674:2714  isBloodBankRegistered(_bloodBankAddress) */\n      jump\t// in\n    tag_172:\n        /* \"contracts/bood.sol\":2666:2745  require(isBloodBankRegistered(_bloodBankAddress), \"Invalid blood bank address\") */\n      tag_173\n      jumpi\n      mload(0x40)\n      0x08c379a000000000000000000000000000000000000000000000000000000000\n      dup2\n      mstore\n      0x04\n      add\n      tag_174\n      swap1\n      tag_156\n      jump\t// in\n    tag_174:\n      mload(0x40)\n      dup1\n      swap2\n      sub\n      swap1\n      revert\n    tag_173:\n        /* \"contracts/bood.sol\":2755:2774  Donor storage donor */\n      0x00\n        /* \"contracts/bood.sol\":2777:2787  bloodBanks */\n      0x01\n        /* \"contracts/bood.sol\":2777:2806  bloodBanks[_bloodBankAddress] */\n      0x00\n        /* \"contracts/bood.sol\":2788:2805  _bloodBankAddress */\n      dup5\n        /* \"contracts/bood.sol\":2777:2806  bloodBanks[_bloodBankAddress] */\n      0xffffffffffffffffffffffffffffffffffffffff\n      and\n      0xffffffffffffffffffffffffffffffffffffffff\n      and\n      dup2\n      mstore\n      0x20\n      add\n      swap1\n      dup2\n      mstore\n      0x20\n      add\n      0x00\n      keccak256\n        /* \"contracts/bood.sol\":2777:2813  bloodBanks[_bloodBankAddress].donors */\n      0x03\n      add\n        /* \"contracts/bood.sol\":2777:2825  bloodBanks[_bloodBankAddress].donors[msg.sender] */\n      0x00\n        /* \"contracts/bood.sol\":2814:2824  msg.sender */\n      caller\n        /* \"contracts/bood.sol\":2777:2825  bloodBanks[_bloodBankAddress].donors[msg.sender] */\n      0xffffffffffffffffffffffffffffffffffffffff\n      and\n      0xffffffffffffffffffffffffffffffffffffffff\n      and\n      dup2\n      mstore\n      0x20\n      add\n      swap1\n      dup2\n      mstore\n      0x20\n      add\n      0x00\n      keccak256\n        /* \"contracts/bood.sol\":2755:2825  Donor storage donor = bloodBanks[_bloodBankAddress].donors[msg.sender] */\n      swap1\n      pop\n        /* \"contracts/bood.sol\":2887:2906  minDonationInterval */\n      sload(0x03)\n        /* \"contracts/bood.sol\":2862:2867  donor */\n      dup2\n        /* \"contracts/bood.sol\":2862:2884  donor.lastDonationTime */\n      0x02\n      add\n      sload\n        /* \"contracts/bood.sol\":2862:2906  donor.lastDonationTime + minDonationInterval */\n      tag_175\n      swap2\n      swap1\n      tag_176\n      jump\t// in\n    tag_175:\n        /* \"contracts/bood.sol\":2843:2858  block.timestamp */\n      timestamp\n        /* \"contracts/bood.sol\":2843:2906  block.timestamp >= donor.lastDonationTime + minDonationInterval */\n      lt\n      iszero\n        /* \"contracts/bood.sol\":2835:2944  require(block.timestamp >= donor.lastDonationTime + minDonationInterval, \"Minimum donation interval not met\") */\n      tag_177\n      jumpi\n      mload(0x40)\n      0x08c379a000000000000000000000000000000000000000000000000000000000\n      dup2\n      mstore\n      0x04\n      add\n      tag_178\n      swap1\n      tag_179\n      jump\t// in\n    tag_178:\n      mload(0x40)\n      dup1\n      swap2\n      sub\n      swap1\n      revert\n    tag_177:\n        /* \"contracts/bood.sol\":2979:2994  block.timestamp */\n      timestamp\n        /* \"contracts/bood.sol\":2954:2959  donor */\n      dup2\n        /* \"contracts/bood.sol\":2954:2976  donor.lastDonationTime */\n      0x02\n      add\n        /* \"contracts/bood.sol\":2954:2994  donor.lastDonationTime = block.timestamp */\n      dup2\n      swap1\n      sstore\n      pop\n        /* \"contracts/bood.sol\":3047:3062  block.timestamp */\n      timestamp\n        /* \"contracts/bood.sol\":3004:3009  donor */\n      dup2\n        /* \"contracts/bood.sol\":3004:3025  donor.donationHistory */\n      0x03\n      add\n        /* \"contracts/bood.sol\":3004:3044  donor.donationHistory[_bloodBankAddress] */\n      0x00\n        /* \"contracts/bood.sol\":3026:3043  _bloodBankAddress */\n      dup6\n        /* \"contracts/bood.sol\":3004:3044  donor.donationHistory[_bloodBankAddress] */\n      0xffffffffffffffffffffffffffffffffffffffff\n      and\n      0xffffffffffffffffffffffffffffffffffffffff\n      and\n      dup2\n      mstore\n      0x20\n      add\n      swap1\n      dup2\n      mstore\n      0x20\n      add\n      0x00\n      keccak256\n        /* \"contracts/bood.sol\":3004:3062  donor.donationHistory[_bloodBankAddress] = block.timestamp */\n      dup2\n      swap1\n      sstore\n      pop\n        /* \"contracts/bood.sol\":3133:3140  _amount */\n      dup2\n        /* \"contracts/bood.sol\":3072:3082  bloodBanks */\n      0x01\n        /* \"contracts/bood.sol\":3072:3101  bloodBanks[_bloodBankAddress] */\n      0x00\n        /* \"contracts/bood.sol\":3083:3100  _bloodBankAddress */\n      dup6\n        /* \"contracts/bood.sol\":3072:3101  bloodBanks[_bloodBankAddress] */\n      0xffffffffffffffffffffffffffffffffffffffff\n      and\n      0xffffffffffffffffffffffffffffffffffffffff\n      and\n      dup2\n      mstore\n      0x20\n      add\n      swap1\n      dup2\n      mstore\n      0x20\n      add\n      0x00\n      keccak256\n        /* \"contracts/bood.sol\":3072:3112  bloodBanks[_bloodBankAddress].bloodStock */\n      0x02\n      add\n        /* \"contracts/bood.sol\":3072:3129  bloodBanks[_bloodBankAddress].bloodStock[donor.bloodType] */\n      0x00\n        /* \"contracts/bood.sol\":3113:3118  donor */\n      dup4\n        /* \"contracts/bood.sol\":3113:3128  donor.bloodType */\n      0x01\n      add\n      0x14\n      swap1\n      sload\n      swap1\n      0x0100\n      exp\n      swap1\n      div\n      0xff\n      and\n        /* \"contracts/bood.sol\":3072:3129  bloodBanks[_bloodBankAddress].bloodStock[donor.bloodType] */\n      0x07\n      dup2\n      gt\n      iszero\n      tag_180\n      jumpi\n      tag_181\n      tag_81\n      jump\t// in\n    tag_181:\n    tag_180:\n      0x07\n      dup2\n      gt\n      iszero\n      tag_182\n      jumpi\n      tag_183\n      tag_81\n      jump\t// in\n    tag_183:\n    tag_182:\n      dup2\n      mstore\n      0x20\n      add\n      swap1\n      dup2\n      mstore\n      0x20\n      add\n      0x00\n      keccak256\n      0x00\n        /* \"contracts/bood.sol\":3072:3140  bloodBanks[_bloodBankAddress].bloodStock[donor.bloodType] += _amount */\n      dup3\n      dup3\n      sload\n      tag_184\n      swap2\n      swap1\n      tag_176\n      jump\t// in\n    tag_184:\n      swap3\n      pop\n      pop\n      dup2\n      swap1\n      sstore\n      pop\n        /* \"contracts/bood.sol\":3180:3197  _bloodBankAddress */\n      dup3\n        /* \"contracts/bood.sol\":3155:3224  BloodDonated(msg.sender, _bloodBankAddress, donor.bloodType, _amount) */\n      0xffffffffffffffffffffffffffffffffffffffff\n      and\n        /* \"contracts/bood.sol\":3168:3178  msg.sender */\n      caller\n        /* \"contracts/bood.sol\":3155:3224  BloodDonated(msg.sender, _bloodBankAddress, donor.bloodType, _amount) */\n      0xffffffffffffffffffffffffffffffffffffffff\n      and\n      0x8fe5a1a5f6ab4a41a24aabdc28e11662b383a7f7e65f146996b82c74dffee15b\n        /* \"contracts/bood.sol\":3199:3204  donor */\n      dup4\n        /* \"contracts/bood.sol\":3199:3214  donor.bloodType */\n      0x01\n      add\n      0x14\n      swap1\n      sload\n      swap1\n      0x0100\n      exp\n      swap1\n      div\n      0xff\n      and\n        /* \"contracts/bood.sol\":3216:3223  _amount */\n      dup6\n        /* \"contracts/bood.sol\":3155:3224  BloodDonated(msg.sender, _bloodBankAddress, donor.bloodType, _amount) */\n      mload(0x40)\n      tag_185\n      swap3\n      swap2\n      swap1\n      tag_186\n      jump\t// in\n    tag_185:\n      mload(0x40)\n      dup1\n      swap2\n      sub\n      swap1\n      log3\n        /* \"contracts/bood.sol\":2589:3231  {... */\n      pop\n        /* \"contracts/bood.sol\":2517:3231  function donateBlood(address _bloodBankAddress, uint256 _amount) public {... */\n      pop\n      pop\n      jump\t// out\n        /* \"contracts/bood.sol\":964:1008  uint256 public minDonationInterval = 90 days */\n    tag_63:\n      sload(0x03)\n      dup2\n      jump\t// out\n    tag_71:\n      mload(0x40)\n      dup1\n      0x0100\n      add\n      0x40\n      mstore\n      dup1\n      0x08\n      swap1\n      0x20\n      dup3\n      mul\n      dup1\n      calldatasize\n      dup4\n      calldatacopy\n      dup1\n      dup3\n      add\n      swap2\n      pop\n      pop\n      swap1\n      pop\n      pop\n      swap1\n      jump\t// out\n        /* \"#utility.yul\":7:82   */\n    tag_187:\n        /* \"#utility.yul\":40:46   */\n      0x00\n        /* \"#utility.yul\":73:75   */\n      0x40\n        /* \"#utility.yul\":67:76   */\n      mload\n        /* \"#utility.yul\":57:76   */\n      swap1\n      pop\n        /* \"#utility.yul\":7:82   */\n      swap1\n      jump\t// out\n        /* \"#utility.yul\":88:205   */\n    tag_188:\n        /* \"#utility.yul\":197:198   */\n      0x00\n        /* \"#utility.yul\":194:195   */\n      dup1\n        /* \"#utility.yul\":187:199   */\n      revert\n        /* \"#utility.yul\":211:328   */\n    tag_189:\n        /* \"#utility.yul\":320:321   */\n      0x00\n        /* \"#utility.yul\":317:318   */\n      dup1\n        /* \"#utility.yul\":310:322   */\n      revert\n        /* \"#utility.yul\":334:460   */\n    tag_190:\n        /* \"#utility.yul\":371:378   */\n      0x00\n        /* \"#utility.yul\":411:453   */\n      0xffffffffffffffffffffffffffffffffffffffff\n        /* \"#utility.yul\":404:409   */\n      dup3\n        /* \"#utility.yul\":400:454   */\n      and\n        /* \"#utility.yul\":389:454   */\n      swap1\n      pop\n        /* \"#utility.yul\":334:460   */\n      swap2\n      swap1\n      pop\n      jump\t// out\n        /* \"#utility.yul\":466:562   */\n    tag_191:\n        /* \"#utility.yul\":503:510   */\n      0x00\n        /* \"#utility.yul\":532:556   */\n      tag_274\n        /* \"#utility.yul\":550:555   */\n      dup3\n        /* \"#utility.yul\":532:556   */\n      tag_190\n      jump\t// in\n    tag_274:\n        /* \"#utility.yul\":521:556   */\n      swap1\n      pop\n        /* \"#utility.yul\":466:562   */\n      swap2\n      swap1\n      pop\n      jump\t// out\n        /* \"#utility.yul\":568:690   */\n    tag_192:\n        /* \"#utility.yul\":641:665   */\n      tag_276\n        /* \"#utility.yul\":659:664   */\n      dup2\n        /* \"#utility.yul\":641:665   */\n      tag_191\n      jump\t// in\n    tag_276:\n        /* \"#utility.yul\":634:639   */\n      dup2\n        /* \"#utility.yul\":631:666   */\n      eq\n        /* \"#utility.yul\":621:684   */\n      tag_277\n      jumpi\n        /* \"#utility.yul\":680:681   */\n      0x00\n        /* \"#utility.yul\":677:678   */\n      dup1\n        /* \"#utility.yul\":670:682   */\n      revert\n        /* \"#utility.yul\":621:684   */\n    tag_277:\n        /* \"#utility.yul\":568:690   */\n      pop\n      jump\t// out\n        /* \"#utility.yul\":696:835   */\n    tag_193:\n        /* \"#utility.yul\":742:747   */\n      0x00\n        /* \"#utility.yul\":780:786   */\n      dup2\n        /* \"#utility.yul\":767:787   */\n      calldataload\n        /* \"#utility.yul\":758:787   */\n      swap1\n      pop\n        /* \"#utility.yul\":796:829   */\n      tag_279\n        /* \"#utility.yul\":823:828   */\n      dup2\n        /* \"#utility.yul\":796:829   */\n      tag_192\n      jump\t// in\n    tag_279:\n        /* \"#utility.yul\":696:835   */\n      swap3\n      swap2\n      pop\n      pop\n      jump\t// out\n        /* \"#utility.yul\":841:1170   */\n    tag_17:\n        /* \"#utility.yul\":900:906   */\n      0x00\n        /* \"#utility.yul\":949:951   */\n      0x20\n        /* \"#utility.yul\":937:946   */\n      dup3\n        /* \"#utility.yul\":928:935   */\n      dup5\n        /* \"#utility.yul\":924:947   */\n      sub\n        /* \"#utility.yul\":920:952   */\n      slt\n        /* \"#utility.yul\":917:1036   */\n      iszero\n      tag_281\n      jumpi\n        /* \"#utility.yul\":955:1034   */\n      tag_282\n      tag_188\n      jump\t// in\n    tag_282:\n        /* \"#utility.yul\":917:1036   */\n    tag_281:\n        /* \"#utility.yul\":1075:1076   */\n      0x00\n        /* \"#utility.yul\":1100:1153   */\n      tag_283\n        /* \"#utility.yul\":1145:1152   */\n      dup5\n        /* \"#utility.yul\":1136:1142   */\n      dup3\n        /* \"#utility.yul\":1125:1134   */\n      dup6\n        /* \"#utility.yul\":1121:1143   */\n      add\n        /* \"#utility.yul\":1100:1153   */\n      tag_193\n      jump\t// in\n    tag_283:\n        /* \"#utility.yul\":1090:1153   */\n      swap2\n      pop\n        /* \"#utility.yul\":1046:1163   */\n      pop\n        /* \"#utility.yul\":841:1170   */\n      swap3\n      swap2\n      pop\n      pop\n      jump\t// out\n        /* \"#utility.yul\":1176:1266   */\n    tag_194:\n        /* \"#utility.yul\":1210:1217   */\n      0x00\n        /* \"#utility.yul\":1253:1258   */\n      dup2\n        /* \"#utility.yul\":1246:1259   */\n      iszero\n        /* \"#utility.yul\":1239:1260   */\n      iszero\n        /* \"#utility.yul\":1228:1260   */\n      swap1\n      pop\n        /* \"#utility.yul\":1176:1266   */\n      swap2\n      swap1\n      pop\n      jump\t// out\n        /* \"#utility.yul\":1272:1381   */\n    tag_195:\n        /* \"#utility.yul\":1353:1374   */\n      tag_286\n        /* \"#utility.yul\":1368:1373   */\n      dup2\n        /* \"#utility.yul\":1353:1374   */\n      tag_194\n      jump\t// in\n    tag_286:\n        /* \"#utility.yul\":1348:1351   */\n      dup3\n        /* \"#utility.yul\":1341:1375   */\n      mstore\n        /* \"#utility.yul\":1272:1381   */\n      pop\n      pop\n      jump\t// out\n        /* \"#utility.yul\":1387:1597   */\n    tag_20:\n        /* \"#utility.yul\":1474:1478   */\n      0x00\n        /* \"#utility.yul\":1512:1514   */\n      0x20\n        /* \"#utility.yul\":1501:1510   */\n      dup3\n        /* \"#utility.yul\":1497:1515   */\n      add\n        /* \"#utility.yul\":1489:1515   */\n      swap1\n      pop\n        /* \"#utility.yul\":1525:1590   */\n      tag_288\n        /* \"#utility.yul\":1587:1588   */\n      0x00\n        /* \"#utility.yul\":1576:1585   */\n      dup4\n        /* \"#utility.yul\":1572:1589   */\n      add\n        /* \"#utility.yul\":1563:1569   */\n      dup5\n        /* \"#utility.yul\":1525:1590   */\n      tag_195\n      jump\t// in\n    tag_288:\n        /* \"#utility.yul\":1387:1597   */\n      swap3\n      swap2\n      pop\n      pop\n      jump\t// out\n        /* \"#utility.yul\":1603:1717   */\n    tag_196:\n        /* \"#utility.yul\":1670:1676   */\n      0x00\n        /* \"#utility.yul\":1704:1709   */\n      dup2\n        /* \"#utility.yul\":1698:1710   */\n      mload\n        /* \"#utility.yul\":1688:1710   */\n      swap1\n      pop\n        /* \"#utility.yul\":1603:1717   */\n      swap2\n      swap1\n      pop\n      jump\t// out\n        /* \"#utility.yul\":1723:1907   */\n    tag_197:\n        /* \"#utility.yul\":1822:1833   */\n      0x00\n        /* \"#utility.yul\":1856:1862   */\n      dup3\n        /* \"#utility.yul\":1851:1854   */\n      dup3\n        /* \"#utility.yul\":1844:1863   */\n      mstore\n        /* \"#utility.yul\":1896:1900   */\n      0x20\n        /* \"#utility.yul\":1891:1894   */\n      dup3\n        /* \"#utility.yul\":1887:1901   */\n      add\n        /* \"#utility.yul\":1872:1901   */\n      swap1\n      pop\n        /* \"#utility.yul\":1723:1907   */\n      swap3\n      swap2\n      pop\n      pop\n      jump\t// out\n        /* \"#utility.yul\":1913:2045   */\n    tag_198:\n        /* \"#utility.yul\":1980:1984   */\n      0x00\n        /* \"#utility.yul\":2003:2006   */\n      dup2\n        /* \"#utility.yul\":1995:2006   */\n      swap1\n      pop\n        /* \"#utility.yul\":2033:2037   */\n      0x20\n        /* \"#utility.yul\":2028:2031   */\n      dup3\n        /* \"#utility.yul\":2024:2038   */\n      add\n        /* \"#utility.yul\":2016:2038   */\n      swap1\n      pop\n        /* \"#utility.yul\":1913:2045   */\n      swap2\n      swap1\n      pop\n      jump\t// out\n        /* \"#utility.yul\":2051:2159   */\n    tag_199:\n        /* \"#utility.yul\":2128:2152   */\n      tag_293\n        /* \"#utility.yul\":2146:2151   */\n      dup2\n        /* \"#utility.yul\":2128:2152   */\n      tag_191\n      jump\t// in\n    tag_293:\n        /* \"#utility.yul\":2123:2126   */\n      dup3\n        /* \"#utility.yul\":2116:2153   */\n      mstore\n        /* \"#utility.yul\":2051:2159   */\n      pop\n      pop\n      jump\t// out\n        /* \"#utility.yul\":2165:2344   */\n    tag_200:\n        /* \"#utility.yul\":2234:2244   */\n      0x00\n        /* \"#utility.yul\":2255:2301   */\n      tag_295\n        /* \"#utility.yul\":2297:2300   */\n      dup4\n        /* \"#utility.yul\":2289:2295   */\n      dup4\n        /* \"#utility.yul\":2255:2301   */\n      tag_199\n      jump\t// in\n    tag_295:\n        /* \"#utility.yul\":2333:2337   */\n      0x20\n        /* \"#utility.yul\":2328:2331   */\n      dup4\n        /* \"#utility.yul\":2324:2338   */\n      add\n        /* \"#utility.yul\":2310:2338   */\n      swap1\n      pop\n        /* \"#utility.yul\":2165:2344   */\n      swap3\n      swap2\n      pop\n      pop\n      jump\t// out\n        /* \"#utility.yul\":2350:2463   */\n    tag_201:\n        /* \"#utility.yul\":2420:2424   */\n      0x00\n        /* \"#utility.yul\":2452:2456   */\n      0x20\n        /* \"#utility.yul\":2447:2450   */\n      dup3\n        /* \"#utility.yul\":2443:2457   */\n      add\n        /* \"#utility.yul\":2435:2457   */\n      swap1\n      pop\n        /* \"#utility.yul\":2350:2463   */\n      swap2\n      swap1\n      pop\n      jump\t// out\n        /* \"#utility.yul\":2499:3231   */\n    tag_202:\n        /* \"#utility.yul\":2618:2621   */\n      0x00\n        /* \"#utility.yul\":2647:2701   */\n      tag_298\n        /* \"#utility.yul\":2695:2700   */\n      dup3\n        /* \"#utility.yul\":2647:2701   */\n      tag_196\n      jump\t// in\n    tag_298:\n        /* \"#utility.yul\":2717:2803   */\n      tag_299\n        /* \"#utility.yul\":2796:2802   */\n      dup2\n        /* \"#utility.yul\":2791:2794   */\n      dup6\n        /* \"#utility.yul\":2717:2803   */\n      tag_197\n      jump\t// in\n    tag_299:\n        /* \"#utility.yul\":2710:2803   */\n      swap4\n      pop\n        /* \"#utility.yul\":2827:2883   */\n      tag_300\n        /* \"#utility.yul\":2877:2882   */\n      dup4\n        /* \"#utility.yul\":2827:2883   */\n      tag_198\n      jump\t// in\n    tag_300:\n        /* \"#utility.yul\":2906:2913   */\n      dup1\n        /* \"#utility.yul\":2937:2938   */\n      0x00\n        /* \"#utility.yul\":2922:3206   */\n    tag_301:\n        /* \"#utility.yul\":2947:2953   */\n      dup4\n        /* \"#utility.yul\":2944:2945   */\n      dup2\n        /* \"#utility.yul\":2941:2954   */\n      lt\n        /* \"#utility.yul\":2922:3206   */\n      iszero\n      tag_303\n      jumpi\n        /* \"#utility.yul\":3023:3029   */\n      dup2\n        /* \"#utility.yul\":3017:3030   */\n      mload\n        /* \"#utility.yul\":3050:3113   */\n      tag_304\n        /* \"#utility.yul\":3109:3112   */\n      dup9\n        /* \"#utility.yul\":3094:3107   */\n      dup3\n        /* \"#utility.yul\":3050:3113   */\n      tag_200\n      jump\t// in\n    tag_304:\n        /* \"#utility.yul\":3043:3113   */\n      swap8\n      pop\n        /* \"#utility.yul\":3136:3196   */\n      tag_305\n        /* \"#utility.yul\":3189:3195   */\n      dup4\n        /* \"#utility.yul\":3136:3196   */\n      tag_201\n      jump\t// in\n    tag_305:\n        /* \"#utility.yul\":3126:3196   */\n      swap3\n      pop\n        /* \"#utility.yul\":2982:3206   */\n      pop\n        /* \"#utility.yul\":2969:2970   */\n      0x01\n        /* \"#utility.yul\":2966:2967   */\n      dup2\n        /* \"#utility.yul\":2962:2971   */\n      add\n        /* \"#utility.yul\":2957:2971   */\n      swap1\n      pop\n        /* \"#utility.yul\":2922:3206   */\n      jump(tag_301)\n    tag_303:\n        /* \"#utility.yul\":2926:2940   */\n      pop\n        /* \"#utility.yul\":3222:3225   */\n      dup6\n        /* \"#utility.yul\":3215:3225   */\n      swap4\n      pop\n        /* \"#utility.yul\":2623:3231   */\n      pop\n      pop\n      pop\n        /* \"#utility.yul\":2499:3231   */\n      swap3\n      swap2\n      pop\n      pop\n      jump\t// out\n        /* \"#utility.yul\":3237:3610   */\n    tag_24:\n        /* \"#utility.yul\":3380:3384   */\n      0x00\n        /* \"#utility.yul\":3418:3420   */\n      0x20\n        /* \"#utility.yul\":3407:3416   */\n      dup3\n        /* \"#utility.yul\":3403:3421   */\n      add\n        /* \"#utility.yul\":3395:3421   */\n      swap1\n      pop\n        /* \"#utility.yul\":3467:3476   */\n      dup2\n        /* \"#utility.yul\":3461:3465   */\n      dup2\n        /* \"#utility.yul\":3457:3477   */\n      sub\n        /* \"#utility.yul\":3453:3454   */\n      0x00\n        /* \"#utility.yul\":3442:3451   */\n      dup4\n        /* \"#utility.yul\":3438:3455   */\n      add\n        /* \"#utility.yul\":3431:3478   */\n      mstore\n        /* \"#utility.yul\":3495:3603   */\n      tag_307\n        /* \"#utility.yul\":3598:3602   */\n      dup2\n        /* \"#utility.yul\":3589:3595   */\n      dup5\n        /* \"#utility.yul\":3495:3603   */\n      tag_202\n      jump\t// in\n    tag_307:\n        /* \"#utility.yul\":3487:3603   */\n      swap1\n      pop\n        /* \"#utility.yul\":3237:3610   */\n      swap3\n      swap2\n      pop\n      pop\n      jump\t// out\n        /* \"#utility.yul\":3616:3720   */\n    tag_203:\n        /* \"#utility.yul\":3681:3687   */\n      0x00\n        /* \"#utility.yul\":3709:3713   */\n      0x08\n        /* \"#utility.yul\":3699:3713   */\n      swap1\n      pop\n        /* \"#utility.yul\":3616:3720   */\n      swap2\n      swap1\n      pop\n      jump\t// out\n        /* \"#utility.yul\":3726:3869   */\n    tag_204:\n        /* \"#utility.yul\":3823:3834   */\n      0x00\n        /* \"#utility.yul\":3860:3863   */\n      dup2\n        /* \"#utility.yul\":3845:3863   */\n      swap1\n      pop\n        /* \"#utility.yul\":3726:3869   */\n      swap3\n      swap2\n      pop\n      pop\n      jump\t// out\n        /* \"#utility.yul\":3875:3973   */\n    tag_205:\n        /* \"#utility.yul\":3940:3944   */\n      0x00\n        /* \"#utility.yul\":3963:3966   */\n      dup2\n        /* \"#utility.yul\":3955:3966   */\n      swap1\n      pop\n        /* \"#utility.yul\":3875:3973   */\n      swap2\n      swap1\n      pop\n      jump\t// out\n        /* \"#utility.yul\":3979:4056   */\n    tag_206:\n        /* \"#utility.yul\":4016:4023   */\n      0x00\n        /* \"#utility.yul\":4045:4050   */\n      dup2\n        /* \"#utility.yul\":4034:4050   */\n      swap1\n      pop\n        /* \"#utility.yul\":3979:4056   */\n      swap2\n      swap1\n      pop\n      jump\t// out\n        /* \"#utility.yul\":4062:4170   */\n    tag_207:\n        /* \"#utility.yul\":4139:4163   */\n      tag_313\n        /* \"#utility.yul\":4157:4162   */\n      dup2\n        /* \"#utility.yul\":4139:4163   */\n      tag_206\n      jump\t// in\n    tag_313:\n        /* \"#utility.yul\":4134:4137   */\n      dup3\n        /* \"#utility.yul\":4127:4164   */\n      mstore\n        /* \"#utility.yul\":4062:4170   */\n      pop\n      pop\n      jump\t// out\n        /* \"#utility.yul\":4176:4355   */\n    tag_208:\n        /* \"#utility.yul\":4245:4255   */\n      0x00\n        /* \"#utility.yul\":4266:4312   */\n      tag_315\n        /* \"#utility.yul\":4308:4311   */\n      dup4\n        /* \"#utility.yul\":4300:4306   */\n      dup4\n        /* \"#utility.yul\":4266:4312   */\n      tag_207\n      jump\t// in\n    tag_315:\n        /* \"#utility.yul\":4344:4348   */\n      0x20\n        /* \"#utility.yul\":4339:4342   */\n      dup4\n        /* \"#utility.yul\":4335:4349   */\n      add\n        /* \"#utility.yul\":4321:4349   */\n      swap1\n      pop\n        /* \"#utility.yul\":4176:4355   */\n      swap3\n      swap2\n      pop\n      pop\n      jump\t// out\n        /* \"#utility.yul\":4361:4472   */\n    tag_209:\n        /* \"#utility.yul\":4429:4433   */\n      0x00\n        /* \"#utility.yul\":4461:4465   */\n      0x20\n        /* \"#utility.yul\":4456:4459   */\n      dup3\n        /* \"#utility.yul\":4452:4466   */\n      add\n        /* \"#utility.yul\":4444:4466   */\n      swap1\n      pop\n        /* \"#utility.yul\":4361:4472   */\n      swap2\n      swap1\n      pop\n      jump\t// out\n        /* \"#utility.yul\":4510:5204   */\n    tag_210:\n        /* \"#utility.yul\":4646:4698   */\n      tag_318\n        /* \"#utility.yul\":4692:4697   */\n      dup2\n        /* \"#utility.yul\":4646:4698   */\n      tag_203\n      jump\t// in\n    tag_318:\n        /* \"#utility.yul\":4714:4798   */\n      tag_319\n        /* \"#utility.yul\":4791:4797   */\n      dup2\n        /* \"#utility.yul\":4786:4789   */\n      dup5\n        /* \"#utility.yul\":4714:4798   */\n      tag_204\n      jump\t// in\n    tag_319:\n        /* \"#utility.yul\":4707:4798   */\n      swap3\n      pop\n        /* \"#utility.yul\":4822:4876   */\n      tag_320\n        /* \"#utility.yul\":4870:4875   */\n      dup3\n        /* \"#utility.yul\":4822:4876   */\n      tag_205\n      jump\t// in\n    tag_320:\n        /* \"#utility.yul\":4899:4906   */\n      dup1\n        /* \"#utility.yul\":4930:4931   */\n      0x00\n        /* \"#utility.yul\":4915:5197   */\n    tag_321:\n        /* \"#utility.yul\":4940:4946   */\n      dup4\n        /* \"#utility.yul\":4937:4938   */\n      dup2\n        /* \"#utility.yul\":4934:4947   */\n      lt\n        /* \"#utility.yul\":4915:5197   */\n      iszero\n      tag_323\n      jumpi\n        /* \"#utility.yul\":5016:5022   */\n      dup2\n        /* \"#utility.yul\":5010:5023   */\n      mload\n        /* \"#utility.yul\":5043:5106   */\n      tag_324\n        /* \"#utility.yul\":5102:5105   */\n      dup8\n        /* \"#utility.yul\":5087:5100   */\n      dup3\n        /* \"#utility.yul\":5043:5106   */\n      tag_208\n      jump\t// in\n    tag_324:\n        /* \"#utility.yul\":5036:5106   */\n      swap7\n      pop\n        /* \"#utility.yul\":5129:5187   */\n      tag_325\n        /* \"#utility.yul\":5180:5186   */\n      dup4\n        /* \"#utility.yul\":5129:5187   */\n      tag_209\n      jump\t// in\n    tag_325:\n        /* \"#utility.yul\":5119:5187   */\n      swap3\n      pop\n        /* \"#utility.yul\":4975:5197   */\n      pop\n        /* \"#utility.yul\":4962:4963   */\n      0x01\n        /* \"#utility.yul\":4959:4960   */\n      dup2\n        /* \"#utility.yul\":4955:4964   */\n      add\n        /* \"#utility.yul\":4950:4964   */\n      swap1\n      pop\n        /* \"#utility.yul\":4915:5197   */\n      jump(tag_321)\n    tag_323:\n        /* \"#utility.yul\":4919:4933   */\n      pop\n        /* \"#utility.yul\":4622:5204   */\n      pop\n      pop\n      pop\n        /* \"#utility.yul\":4510:5204   */\n      pop\n      pop\n      jump\t// out\n        /* \"#utility.yul\":5210:5525   */\n    tag_33:\n        /* \"#utility.yul\":5349:5353   */\n      0x00\n        /* \"#utility.yul\":5387:5390   */\n      0x0100\n        /* \"#utility.yul\":5376:5385   */\n      dup3\n        /* \"#utility.yul\":5372:5391   */\n      add\n        /* \"#utility.yul\":5364:5391   */\n      swap1\n      pop\n        /* \"#utility.yul\":5401:5518   */\n      tag_327\n        /* \"#utility.yul\":5515:5516   */\n      0x00\n        /* \"#utility.yul\":5504:5513   */\n      dup4\n        /* \"#utility.yul\":5500:5517   */\n      add\n        /* \"#utility.yul\":5491:5497   */\n      dup5\n        /* \"#utility.yul\":5401:5518   */\n      tag_210\n      jump\t// in\n    tag_327:\n        /* \"#utility.yul\":5210:5525   */\n      swap3\n      swap2\n      pop\n      pop\n      jump\t// out\n        /* \"#utility.yul\":5531:5648   */\n    tag_211:\n        /* \"#utility.yul\":5640:5641   */\n      0x00\n        /* \"#utility.yul\":5637:5638   */\n      dup1\n        /* \"#utility.yul\":5630:5642   */\n      revert\n        /* \"#utility.yul\":5654:5771   */\n    tag_212:\n        /* \"#utility.yul\":5763:5764   */\n      0x00\n        /* \"#utility.yul\":5760:5761   */\n      dup1\n        /* \"#utility.yul\":5753:5765   */\n      revert\n        /* \"#utility.yul\":5777:5879   */\n    tag_213:\n        /* \"#utility.yul\":5818:5824   */\n      0x00\n        /* \"#utility.yul\":5869:5871   */\n      0x1f\n        /* \"#utility.yul\":5865:5872   */\n      not\n        /* \"#utility.yul\":5860:5862   */\n      0x1f\n        /* \"#utility.yul\":5853:5858   */\n      dup4\n        /* \"#utility.yul\":5849:5863   */\n      add\n        /* \"#utility.yul\":5845:5873   */\n      and\n        /* \"#utility.yul\":5835:5873   */\n      swap1\n      pop\n        /* \"#utility.yul\":5777:5879   */\n      swap2\n      swap1\n      pop\n      jump\t// out\n        /* \"#utility.yul\":5885:6065   */\n    tag_159:\n        /* \"#utility.yul\":5933:6010   */\n      0x4e487b7100000000000000000000000000000000000000000000000000000000\n        /* \"#utility.yul\":5930:5931   */\n      0x00\n        /* \"#utility.yul\":5923:6011   */\n      mstore\n        /* \"#utility.yul\":6030:6034   */\n      0x41\n        /* \"#utility.yul\":6027:6028   */\n      0x04\n        /* \"#utility.yul\":6020:6035   */\n      mstore\n        /* \"#utility.yul\":6054:6058   */\n      0x24\n        /* \"#utility.yul\":6051:6052   */\n      0x00\n        /* \"#utility.yul\":6044:6059   */\n      revert\n        /* \"#utility.yul\":6071:6352   */\n    tag_214:\n        /* \"#utility.yul\":6154:6181   */\n      tag_333\n        /* \"#utility.yul\":6176:6180   */\n      dup3\n        /* \"#utility.yul\":6154:6181   */\n      tag_213\n      jump\t// in\n    tag_333:\n        /* \"#utility.yul\":6146:6152   */\n      dup2\n        /* \"#utility.yul\":6142:6182   */\n      add\n        /* \"#utility.yul\":6284:6290   */\n      dup2\n        /* \"#utility.yul\":6272:6282   */\n      dup2\n        /* \"#utility.yul\":6269:6291   */\n      lt\n        /* \"#utility.yul\":6248:6266   */\n      0xffffffffffffffff\n        /* \"#utility.yul\":6236:6246   */\n      dup3\n        /* \"#utility.yul\":6233:6267   */\n      gt\n        /* \"#utility.yul\":6230:6292   */\n      or\n        /* \"#utility.yul\":6227:6315   */\n      iszero\n      tag_334\n      jumpi\n        /* \"#utility.yul\":6295:6313   */\n      tag_335\n      tag_159\n      jump\t// in\n    tag_335:\n        /* \"#utility.yul\":6227:6315   */\n    tag_334:\n        /* \"#utility.yul\":6335:6345   */\n      dup1\n        /* \"#utility.yul\":6331:6333   */\n      0x40\n        /* \"#utility.yul\":6324:6346   */\n      mstore\n        /* \"#utility.yul\":6114:6352   */\n      pop\n        /* \"#utility.yul\":6071:6352   */\n      pop\n      pop\n      jump\t// out\n        /* \"#utility.yul\":6358:6487   */\n    tag_215:\n        /* \"#utility.yul\":6392:6398   */\n      0x00\n        /* \"#utility.yul\":6419:6439   */\n      tag_337\n      tag_187\n      jump\t// in\n    tag_337:\n        /* \"#utility.yul\":6409:6439   */\n      swap1\n      pop\n        /* \"#utility.yul\":6448:6481   */\n      tag_338\n        /* \"#utility.yul\":6476:6480   */\n      dup3\n        /* \"#utility.yul\":6468:6474   */\n      dup3\n        /* \"#utility.yul\":6448:6481   */\n      tag_214\n      jump\t// in\n    tag_338:\n        /* \"#utility.yul\":6358:6487   */\n      swap2\n      swap1\n      pop\n      jump\t// out\n        /* \"#utility.yul\":6493:6801   */\n    tag_216:\n        /* \"#utility.yul\":6555:6559   */\n      0x00\n        /* \"#utility.yul\":6645:6663   */\n      0xffffffffffffffff\n        /* \"#utility.yul\":6637:6643   */\n      dup3\n        /* \"#utility.yul\":6634:6664   */\n      gt\n        /* \"#utility.yul\":6631:6687   */\n      iszero\n      tag_340\n      jumpi\n        /* \"#utility.yul\":6667:6685   */\n      tag_341\n      tag_159\n      jump\t// in\n    tag_341:\n        /* \"#utility.yul\":6631:6687   */\n    tag_340:\n        /* \"#utility.yul\":6705:6734   */\n      tag_342\n        /* \"#utility.yul\":6727:6733   */\n      dup3\n        /* \"#utility.yul\":6705:6734   */\n      tag_213\n      jump\t// in\n    tag_342:\n        /* \"#utility.yul\":6697:6734   */\n      swap1\n      pop\n        /* \"#utility.yul\":6789:6793   */\n      0x20\n        /* \"#utility.yul\":6783:6787   */\n      dup2\n        /* \"#utility.yul\":6779:6794   */\n      add\n        /* \"#utility.yul\":6771:6794   */\n      swap1\n      pop\n        /* \"#utility.yul\":6493:6801   */\n      swap2\n      swap1\n      pop\n      jump\t// out\n        /* \"#utility.yul\":6807:6955   */\n    tag_217:\n        /* \"#utility.yul\":6905:6911   */\n      dup3\n        /* \"#utility.yul\":6900:6903   */\n      dup2\n        /* \"#utility.yul\":6895:6898   */\n      dup4\n        /* \"#utility.yul\":6882:6912   */\n      calldatacopy\n        /* \"#utility.yul\":6946:6947   */\n      0x00\n        /* \"#utility.yul\":6937:6943   */\n      dup4\n        /* \"#utility.yul\":6932:6935   */\n      dup4\n        /* \"#utility.yul\":6928:6944   */\n      add\n        /* \"#utility.yul\":6921:6948   */\n      mstore\n        /* \"#utility.yul\":6807:6955   */\n      pop\n      pop\n      pop\n      jump\t// out\n        /* \"#utility.yul\":6961:7386   */\n    tag_218:\n        /* \"#utility.yul\":7039:7044   */\n      0x00\n        /* \"#utility.yul\":7064:7130   */\n      tag_345\n        /* \"#utility.yul\":7080:7129   */\n      tag_346\n        /* \"#utility.yul\":7122:7128   */\n      dup5\n        /* \"#utility.yul\":7080:7129   */\n      tag_216\n      jump\t// in\n    tag_346:\n        /* \"#utility.yul\":7064:7130   */\n      tag_215\n      jump\t// in\n    tag_345:\n        /* \"#utility.yul\":7055:7130   */\n      swap1\n      pop\n        /* \"#utility.yul\":7153:7159   */\n      dup3\n        /* \"#utility.yul\":7146:7151   */\n      dup2\n        /* \"#utility.yul\":7139:7160   */\n      mstore\n        /* \"#utility.yul\":7191:7195   */\n      0x20\n        /* \"#utility.yul\":7184:7189   */\n      dup2\n        /* \"#utility.yul\":7180:7196   */\n      add\n        /* \"#utility.yul\":7229:7232   */\n      dup5\n        /* \"#utility.yul\":7220:7226   */\n      dup5\n        /* \"#utility.yul\":7215:7218   */\n      dup5\n        /* \"#utility.yul\":7211:7227   */\n      add\n        /* \"#utility.yul\":7208:7233   */\n      gt\n        /* \"#utility.yul\":7205:7317   */\n      iszero\n      tag_347\n      jumpi\n        /* \"#utility.yul\":7236:7315   */\n      tag_348\n      tag_212\n      jump\t// in\n    tag_348:\n        /* \"#utility.yul\":7205:7317   */\n    tag_347:\n        /* \"#utility.yul\":7326:7380   */\n      tag_349\n        /* \"#utility.yul\":7373:7379   */\n      dup5\n        /* \"#utility.yul\":7368:7371   */\n      dup3\n        /* \"#utility.yul\":7363:7366   */\n      dup6\n        /* \"#utility.yul\":7326:7380   */\n      tag_217\n      jump\t// in\n    tag_349:\n        /* \"#utility.yul\":7045:7386   */\n      pop\n        /* \"#utility.yul\":6961:7386   */\n      swap4\n      swap3\n      pop\n      pop\n      pop\n      jump\t// out\n        /* \"#utility.yul\":7406:7746   */\n    tag_219:\n        /* \"#utility.yul\":7462:7467   */\n      0x00\n        /* \"#utility.yul\":7511:7514   */\n      dup3\n        /* \"#utility.yul\":7504:7508   */\n      0x1f\n        /* \"#utility.yul\":7496:7502   */\n      dup4\n        /* \"#utility.yul\":7492:7509   */\n      add\n        /* \"#utility.yul\":7488:7515   */\n      slt\n        /* \"#utility.yul\":7478:7600   */\n      tag_351\n      jumpi\n        /* \"#utility.yul\":7519:7598   */\n      tag_352\n      tag_211\n      jump\t// in\n    tag_352:\n        /* \"#utility.yul\":7478:7600   */\n    tag_351:\n        /* \"#utility.yul\":7636:7642   */\n      dup2\n        /* \"#utility.yul\":7623:7643   */\n      calldataload\n        /* \"#utility.yul\":7661:7740   */\n      tag_353\n        /* \"#utility.yul\":7736:7739   */\n      dup5\n        /* \"#utility.yul\":7728:7734   */\n      dup3\n        /* \"#utility.yul\":7721:7725   */\n      0x20\n        /* \"#utility.yul\":7713:7719   */\n      dup7\n        /* \"#utility.yul\":7709:7726   */\n      add\n        /* \"#utility.yul\":7661:7740   */\n      tag_218\n      jump\t// in\n    tag_353:\n        /* \"#utility.yul\":7652:7740   */\n      swap2\n      pop\n        /* \"#utility.yul\":7468:7746   */\n      pop\n        /* \"#utility.yul\":7406:7746   */\n      swap3\n      swap2\n      pop\n      pop\n      jump\t// out\n        /* \"#utility.yul\":7752:8261   */\n    tag_36:\n        /* \"#utility.yul\":7821:7827   */\n      0x00\n        /* \"#utility.yul\":7870:7872   */\n      0x20\n        /* \"#utility.yul\":7858:7867   */\n      dup3\n        /* \"#utility.yul\":7849:7856   */\n      dup5\n        /* \"#utility.yul\":7845:7868   */\n      sub\n        /* \"#utility.yul\":7841:7873   */\n      slt\n        /* \"#utility.yul\":7838:7957   */\n      iszero\n      tag_355\n      jumpi\n        /* \"#utility.yul\":7876:7955   */\n      tag_356\n      tag_188\n      jump\t// in\n    tag_356:\n        /* \"#utility.yul\":7838:7957   */\n    tag_355:\n        /* \"#utility.yul\":8024:8025   */\n      0x00\n        /* \"#utility.yul\":8013:8022   */\n      dup3\n        /* \"#utility.yul\":8009:8026   */\n      add\n        /* \"#utility.yul\":7996:8027   */\n      calldataload\n        /* \"#utility.yul\":8054:8072   */\n      0xffffffffffffffff\n        /* \"#utility.yul\":8046:8052   */\n      dup2\n        /* \"#utility.yul\":8043:8073   */\n      gt\n        /* \"#utility.yul\":8040:8157   */\n      iszero\n      tag_357\n      jumpi\n        /* \"#utility.yul\":8076:8155   */\n      tag_358\n      tag_189\n      jump\t// in\n    tag_358:\n        /* \"#utility.yul\":8040:8157   */\n    tag_357:\n        /* \"#utility.yul\":8181:8244   */\n      tag_359\n        /* \"#utility.yul\":8236:8243   */\n      dup5\n        /* \"#utility.yul\":8227:8233   */\n      dup3\n        /* \"#utility.yul\":8216:8225   */\n      dup6\n        /* \"#utility.yul\":8212:8234   */\n      add\n        /* \"#utility.yul\":8181:8244   */\n      tag_219\n      jump\t// in\n    tag_359:\n        /* \"#utility.yul\":8171:8244   */\n      swap2\n      pop\n        /* \"#utility.yul\":7967:8254   */\n      pop\n        /* \"#utility.yul\":7752:8261   */\n      swap3\n      swap2\n      pop\n      pop\n      jump\t// out\n        /* \"#utility.yul\":8267:8389   */\n    tag_220:\n        /* \"#utility.yul\":8340:8364   */\n      tag_361\n        /* \"#utility.yul\":8358:8363   */\n      dup2\n        /* \"#utility.yul\":8340:8364   */\n      tag_206\n      jump\t// in\n    tag_361:\n        /* \"#utility.yul\":8333:8338   */\n      dup2\n        /* \"#utility.yul\":8330:8365   */\n      eq\n        /* \"#utility.yul\":8320:8383   */\n      tag_362\n      jumpi\n        /* \"#utility.yul\":8379:8380   */\n      0x00\n        /* \"#utility.yul\":8376:8377   */\n      dup1\n        /* \"#utility.yul\":8369:8381   */\n      revert\n        /* \"#utility.yul\":8320:8383   */\n    tag_362:\n        /* \"#utility.yul\":8267:8389   */\n      pop\n      jump\t// out\n        /* \"#utility.yul\":8395:8534   */\n    tag_221:\n        /* \"#utility.yul\":8441:8446   */\n      0x00\n        /* \"#utility.yul\":8479:8485   */\n      dup2\n        /* \"#utility.yul\":8466:8486   */\n      calldataload\n        /* \"#utility.yul\":8457:8486   */\n      swap1\n      pop\n        /* \"#utility.yul\":8495:8528   */\n      tag_364\n        /* \"#utility.yul\":8522:8527   */\n      dup2\n        /* \"#utility.yul\":8495:8528   */\n      tag_220\n      jump\t// in\n    tag_364:\n        /* \"#utility.yul\":8395:8534   */\n      swap3\n      swap2\n      pop\n      pop\n      jump\t// out\n        /* \"#utility.yul\":8540:8869   */\n    tag_40:\n        /* \"#utility.yul\":8599:8605   */\n      0x00\n        /* \"#utility.yul\":8648:8650   */\n      0x20\n        /* \"#utility.yul\":8636:8645   */\n      dup3\n        /* \"#utility.yul\":8627:8634   */\n      dup5\n        /* \"#utility.yul\":8623:8646   */\n      sub\n        /* \"#utility.yul\":8619:8651   */\n      slt\n        /* \"#utility.yul\":8616:8735   */\n      iszero\n      tag_366\n      jumpi\n        /* \"#utility.yul\":8654:8733   */\n      tag_367\n      tag_188\n      jump\t// in\n    tag_367:\n        /* \"#utility.yul\":8616:8735   */\n    tag_366:\n        /* \"#utility.yul\":8774:8775   */\n      0x00\n        /* \"#utility.yul\":8799:8852   */\n      tag_368\n        /* \"#utility.yul\":8844:8851   */\n      dup5\n        /* \"#utility.yul\":8835:8841   */\n      dup3\n        /* \"#utility.yul\":8824:8833   */\n      dup6\n        /* \"#utility.yul\":8820:8842   */\n      add\n        /* \"#utility.yul\":8799:8852   */\n      tag_221\n      jump\t// in\n    tag_368:\n        /* \"#utility.yul\":8789:8852   */\n      swap2\n      pop\n        /* \"#utility.yul\":8745:8862   */\n      pop\n        /* \"#utility.yul\":8540:8869   */\n      swap3\n      swap2\n      pop\n      pop\n      jump\t// out\n        /* \"#utility.yul\":8875:8993   */\n    tag_222:\n        /* \"#utility.yul\":8962:8986   */\n      tag_370\n        /* \"#utility.yul\":8980:8985   */\n      dup2\n        /* \"#utility.yul\":8962:8986   */\n      tag_191\n      jump\t// in\n    tag_370:\n        /* \"#utility.yul\":8957:8960   */\n      dup3\n        /* \"#utility.yul\":8950:8987   */\n      mstore\n        /* \"#utility.yul\":8875:8993   */\n      pop\n      pop\n      jump\t// out\n        /* \"#utility.yul\":8999:9221   */\n    tag_43:\n        /* \"#utility.yul\":9092:9096   */\n      0x00\n        /* \"#utility.yul\":9130:9132   */\n      0x20\n        /* \"#utility.yul\":9119:9128   */\n      dup3\n        /* \"#utility.yul\":9115:9133   */\n      add\n        /* \"#utility.yul\":9107:9133   */\n      swap1\n      pop\n        /* \"#utility.yul\":9143:9214   */\n      tag_372\n        /* \"#utility.yul\":9211:9212   */\n      0x00\n        /* \"#utility.yul\":9200:9209   */\n      dup4\n        /* \"#utility.yul\":9196:9213   */\n      add\n        /* \"#utility.yul\":9187:9193   */\n      dup5\n        /* \"#utility.yul\":9143:9214   */\n      tag_222\n      jump\t// in\n    tag_372:\n        /* \"#utility.yul\":8999:9221   */\n      swap3\n      swap2\n      pop\n      pop\n      jump\t// out\n        /* \"#utility.yul\":9227:9338   */\n    tag_223:\n        /* \"#utility.yul\":9312:9313   */\n      0x08\n        /* \"#utility.yul\":9305:9310   */\n      dup2\n        /* \"#utility.yul\":9302:9314   */\n      lt\n        /* \"#utility.yul\":9292:9332   */\n      tag_374\n      jumpi\n        /* \"#utility.yul\":9328:9329   */\n      0x00\n        /* \"#utility.yul\":9325:9326   */\n      dup1\n        /* \"#utility.yul\":9318:9330   */\n      revert\n        /* \"#utility.yul\":9292:9332   */\n    tag_374:\n        /* \"#utility.yul\":9227:9338   */\n      pop\n      jump\t// out\n        /* \"#utility.yul\":9344:9507   */\n    tag_224:\n        /* \"#utility.yul\":9402:9407   */\n      0x00\n        /* \"#utility.yul\":9440:9446   */\n      dup2\n        /* \"#utility.yul\":9427:9447   */\n      calldataload\n        /* \"#utility.yul\":9418:9447   */\n      swap1\n      pop\n        /* \"#utility.yul\":9456:9501   */\n      tag_376\n        /* \"#utility.yul\":9495:9500   */\n      dup2\n        /* \"#utility.yul\":9456:9501   */\n      tag_223\n      jump\t// in\n    tag_376:\n        /* \"#utility.yul\":9344:9507   */\n      swap3\n      swap2\n      pop\n      pop\n      jump\t// out\n        /* \"#utility.yul\":9513:10191   */\n    tag_46:\n        /* \"#utility.yul\":9603:9609   */\n      0x00\n        /* \"#utility.yul\":9611:9617   */\n      dup1\n        /* \"#utility.yul\":9660:9662   */\n      0x40\n        /* \"#utility.yul\":9648:9657   */\n      dup4\n        /* \"#utility.yul\":9639:9646   */\n      dup6\n        /* \"#utility.yul\":9635:9658   */\n      sub\n        /* \"#utility.yul\":9631:9663   */\n      slt\n        /* \"#utility.yul\":9628:9747   */\n      iszero\n      tag_378\n      jumpi\n        /* \"#utility.yul\":9666:9745   */\n      tag_379\n      tag_188\n      jump\t// in\n    tag_379:\n        /* \"#utility.yul\":9628:9747   */\n    tag_378:\n        /* \"#utility.yul\":9814:9815   */\n      0x00\n        /* \"#utility.yul\":9803:9812   */\n      dup4\n        /* \"#utility.yul\":9799:9816   */\n      add\n        /* \"#utility.yul\":9786:9817   */\n      calldataload\n        /* \"#utility.yul\":9844:9862   */\n      0xffffffffffffffff\n        /* \"#utility.yul\":9836:9842   */\n      dup2\n        /* \"#utility.yul\":9833:9863   */\n      gt\n        /* \"#utility.yul\":9830:9947   */\n      iszero\n      tag_380\n      jumpi\n        /* \"#utility.yul\":9866:9945   */\n      tag_381\n      tag_189\n      jump\t// in\n    tag_381:\n        /* \"#utility.yul\":9830:9947   */\n    tag_380:\n        /* \"#utility.yul\":9971:10034   */\n      tag_382\n        /* \"#utility.yul\":10026:10033   */\n      dup6\n        /* \"#utility.yul\":10017:10023   */\n      dup3\n        /* \"#utility.yul\":10006:10015   */\n      dup7\n        /* \"#utility.yul\":10002:10024   */\n      add\n        /* \"#utility.yul\":9971:10034   */\n      tag_219\n      jump\t// in\n    tag_382:\n        /* \"#utility.yul\":9961:10034   */\n      swap3\n      pop\n        /* \"#utility.yul\":9757:10044   */\n      pop\n        /* \"#utility.yul\":10083:10085   */\n      0x20\n        /* \"#utility.yul\":10109:10174   */\n      tag_383\n        /* \"#utility.yul\":10166:10173   */\n      dup6\n        /* \"#utility.yul\":10157:10163   */\n      dup3\n        /* \"#utility.yul\":10146:10155   */\n      dup7\n        /* \"#utility.yul\":10142:10164   */\n      add\n        /* \"#utility.yul\":10109:10174   */\n      tag_224\n      jump\t// in\n    tag_383:\n        /* \"#utility.yul\":10099:10174   */\n      swap2\n      pop\n        /* \"#utility.yul\":10054:10184   */\n      pop\n        /* \"#utility.yul\":9513:10191   */\n      swap3\n      pop\n      swap3\n      swap1\n      pop\n      jump\t// out\n        /* \"#utility.yul\":10197:10311   */\n    tag_225:\n        /* \"#utility.yul\":10264:10270   */\n      0x00\n        /* \"#utility.yul\":10298:10303   */\n      dup2\n        /* \"#utility.yul\":10292:10304   */\n      mload\n        /* \"#utility.yul\":10282:10304   */\n      swap1\n      pop\n        /* \"#utility.yul\":10197:10311   */\n      swap2\n      swap1\n      pop\n      jump\t// out\n        /* \"#utility.yul\":10317:10501   */\n    tag_226:\n        /* \"#utility.yul\":10416:10427   */\n      0x00\n        /* \"#utility.yul\":10450:10456   */\n      dup3\n        /* \"#utility.yul\":10445:10448   */\n      dup3\n        /* \"#utility.yul\":10438:10457   */\n      mstore\n        /* \"#utility.yul\":10490:10494   */\n      0x20\n        /* \"#utility.yul\":10485:10488   */\n      dup3\n        /* \"#utility.yul\":10481:10495   */\n      add\n        /* \"#utility.yul\":10466:10495   */\n      swap1\n      pop\n        /* \"#utility.yul\":10317:10501   */\n      swap3\n      swap2\n      pop\n      pop\n      jump\t// out\n        /* \"#utility.yul\":10507:10639   */\n    tag_227:\n        /* \"#utility.yul\":10574:10578   */\n      0x00\n        /* \"#utility.yul\":10597:10600   */\n      dup2\n        /* \"#utility.yul\":10589:10600   */\n      swap1\n      pop\n        /* \"#utility.yul\":10627:10631   */\n      0x20\n        /* \"#utility.yul\":10622:10625   */\n      dup3\n        /* \"#utility.yul\":10618:10632   */\n      add\n        /* \"#utility.yul\":10610:10632   */\n      swap1\n      pop\n        /* \"#utility.yul\":10507:10639   */\n      swap2\n      swap1\n      pop\n      jump\t// out\n        /* \"#utility.yul\":10645:10758   */\n    tag_228:\n        /* \"#utility.yul\":10715:10719   */\n      0x00\n        /* \"#utility.yul\":10747:10751   */\n      0x20\n        /* \"#utility.yul\":10742:10745   */\n      dup3\n        /* \"#utility.yul\":10738:10752   */\n      add\n        /* \"#utility.yul\":10730:10752   */\n      swap1\n      pop\n        /* \"#utility.yul\":10645:10758   */\n      swap2\n      swap1\n      pop\n      jump\t// out\n        /* \"#utility.yul\":10794:11526   */\n    tag_229:\n        /* \"#utility.yul\":10913:10916   */\n      0x00\n        /* \"#utility.yul\":10942:10996   */\n      tag_389\n        /* \"#utility.yul\":10990:10995   */\n      dup3\n        /* \"#utility.yul\":10942:10996   */\n      tag_225\n      jump\t// in\n    tag_389:\n        /* \"#utility.yul\":11012:11098   */\n      tag_390\n        /* \"#utility.yul\":11091:11097   */\n      dup2\n        /* \"#utility.yul\":11086:11089   */\n      dup6\n        /* \"#utility.yul\":11012:11098   */\n      tag_226\n      jump\t// in\n    tag_390:\n        /* \"#utility.yul\":11005:11098   */\n      swap4\n      pop\n        /* \"#utility.yul\":11122:11178   */\n      tag_391\n        /* \"#utility.yul\":11172:11177   */\n      dup4\n        /* \"#utility.yul\":11122:11178   */\n      tag_227\n      jump\t// in\n    tag_391:\n        /* \"#utility.yul\":11201:11208   */\n      dup1\n        /* \"#utility.yul\":11232:11233   */\n      0x00\n        /* \"#utility.yul\":11217:11501   */\n    tag_392:\n        /* \"#utility.yul\":11242:11248   */\n      dup4\n        /* \"#utility.yul\":11239:11240   */\n      dup2\n        /* \"#utility.yul\":11236:11249   */\n      lt\n        /* \"#utility.yul\":11217:11501   */\n      iszero\n      tag_394\n      jumpi\n        /* \"#utility.yul\":11318:11324   */\n      dup2\n        /* \"#utility.yul\":11312:11325   */\n      mload\n        /* \"#utility.yul\":11345:11408   */\n      tag_395\n        /* \"#utility.yul\":11404:11407   */\n      dup9\n        /* \"#utility.yul\":11389:11402   */\n      dup3\n        /* \"#utility.yul\":11345:11408   */\n      tag_208\n      jump\t// in\n    tag_395:\n        /* \"#utility.yul\":11338:11408   */\n      swap8\n      pop\n        /* \"#utility.yul\":11431:11491   */\n      tag_396\n        /* \"#utility.yul\":11484:11490   */\n      dup4\n        /* \"#utility.yul\":11431:11491   */\n      tag_228\n      jump\t// in\n    tag_396:\n        /* \"#utility.yul\":11421:11491   */\n      swap3\n      pop\n        /* \"#utility.yul\":11277:11501   */\n      pop\n        /* \"#utility.yul\":11264:11265   */\n      0x01\n        /* \"#utility.yul\":11261:11262   */\n      dup2\n        /* \"#utility.yul\":11257:11266   */\n      add\n        /* \"#utility.yul\":11252:11266   */\n      swap1\n      pop\n        /* \"#utility.yul\":11217:11501   */\n      jump(tag_392)\n    tag_394:\n        /* \"#utility.yul\":11221:11235   */\n      pop\n        /* \"#utility.yul\":11517:11520   */\n      dup6\n        /* \"#utility.yul\":11510:11520   */\n      swap4\n      pop\n        /* \"#utility.yul\":10918:11526   */\n      pop\n      pop\n      pop\n        /* \"#utility.yul\":10794:11526   */\n      swap3\n      swap2\n      pop\n      pop\n      jump\t// out\n        /* \"#utility.yul\":11532:11905   */\n    tag_52:\n        /* \"#utility.yul\":11675:11679   */\n      0x00\n        /* \"#utility.yul\":11713:11715   */\n      0x20\n        /* \"#utility.yul\":11702:11711   */\n      dup3\n        /* \"#utility.yul\":11698:11716   */\n      add\n        /* \"#utility.yul\":11690:11716   */\n      swap1\n      pop\n        /* \"#utility.yul\":11762:11771   */\n      dup2\n        /* \"#utility.yul\":11756:11760   */\n      dup2\n        /* \"#utility.yul\":11752:11772   */\n      sub\n        /* \"#utility.yul\":11748:11749   */\n      0x00\n        /* \"#utility.yul\":11737:11746   */\n      dup4\n        /* \"#utility.yul\":11733:11750   */\n      add\n        /* \"#utility.yul\":11726:11773   */\n      mstore\n        /* \"#utility.yul\":11790:11898   */\n      tag_398\n        /* \"#utility.yul\":11893:11897   */\n      dup2\n        /* \"#utility.yul\":11884:11890   */\n      dup5\n        /* \"#utility.yul\":11790:11898   */\n      tag_229\n      jump\t// in\n    tag_398:\n        /* \"#utility.yul\":11782:11898   */\n      swap1\n      pop\n        /* \"#utility.yul\":11532:11905   */\n      swap3\n      swap2\n      pop\n      pop\n      jump\t// out\n        /* \"#utility.yul\":11911:12010   */\n    tag_230:\n        /* \"#utility.yul\":11963:11969   */\n      0x00\n        /* \"#utility.yul\":11997:12002   */\n      dup2\n        /* \"#utility.yul\":11991:12003   */\n      mload\n        /* \"#utility.yul\":11981:12003   */\n      swap1\n      pop\n        /* \"#utility.yul\":11911:12010   */\n      swap2\n      swap1\n      pop\n      jump\t// out\n        /* \"#utility.yul\":12016:12185   */\n    tag_231:\n        /* \"#utility.yul\":12100:12111   */\n      0x00\n        /* \"#utility.yul\":12134:12140   */\n      dup3\n        /* \"#utility.yul\":12129:12132   */\n      dup3\n        /* \"#utility.yul\":12122:12141   */\n      mstore\n        /* \"#utility.yul\":12174:12178   */\n      0x20\n        /* \"#utility.yul\":12169:12172   */\n      dup3\n        /* \"#utility.yul\":12165:12179   */\n      add\n        /* \"#utility.yul\":12150:12179   */\n      swap1\n      pop\n        /* \"#utility.yul\":12016:12185   */\n      swap3\n      swap2\n      pop\n      pop\n      jump\t// out\n        /* \"#utility.yul\":12191:12330   */\n    tag_232:\n        /* \"#utility.yul\":12280:12286   */\n      dup3\n        /* \"#utility.yul\":12275:12278   */\n      dup2\n        /* \"#utility.yul\":12270:12273   */\n      dup4\n        /* \"#utility.yul\":12264:12287   */\n      mcopy\n        /* \"#utility.yul\":12321:12322   */\n      0x00\n        /* \"#utility.yul\":12312:12318   */\n      dup4\n        /* \"#utility.yul\":12307:12310   */\n      dup4\n        /* \"#utility.yul\":12303:12319   */\n      add\n        /* \"#utility.yul\":12296:12323   */\n      mstore\n        /* \"#utility.yul\":12191:12330   */\n      pop\n      pop\n      pop\n      jump\t// out\n        /* \"#utility.yul\":12336:12713   */\n    tag_233:\n        /* \"#utility.yul\":12424:12427   */\n      0x00\n        /* \"#utility.yul\":12452:12491   */\n      tag_403\n        /* \"#utility.yul\":12485:12490   */\n      dup3\n        /* \"#utility.yul\":12452:12491   */\n      tag_230\n      jump\t// in\n    tag_403:\n        /* \"#utility.yul\":12507:12578   */\n      tag_404\n        /* \"#utility.yul\":12571:12577   */\n      dup2\n        /* \"#utility.yul\":12566:12569   */\n      dup6\n        /* \"#utility.yul\":12507:12578   */\n      tag_231\n      jump\t// in\n    tag_404:\n        /* \"#utility.yul\":12500:12578   */\n      swap4\n      pop\n        /* \"#utility.yul\":12587:12652   */\n      tag_405\n        /* \"#utility.yul\":12645:12651   */\n      dup2\n        /* \"#utility.yul\":12640:12643   */\n      dup6\n        /* \"#utility.yul\":12633:12637   */\n      0x20\n        /* \"#utility.yul\":12626:12631   */\n      dup7\n        /* \"#utility.yul\":12622:12638   */\n      add\n        /* \"#utility.yul\":12587:12652   */\n      tag_232\n      jump\t// in\n    tag_405:\n        /* \"#utility.yul\":12677:12706   */\n      tag_406\n        /* \"#utility.yul\":12699:12705   */\n      dup2\n        /* \"#utility.yul\":12677:12706   */\n      tag_213\n      jump\t// in\n    tag_406:\n        /* \"#utility.yul\":12672:12675   */\n      dup5\n        /* \"#utility.yul\":12668:12707   */\n      add\n        /* \"#utility.yul\":12661:12707   */\n      swap2\n      pop\n        /* \"#utility.yul\":12428:12713   */\n      pop\n        /* \"#utility.yul\":12336:12713   */\n      swap3\n      swap2\n      pop\n      pop\n      jump\t// out\n        /* \"#utility.yul\":12719:13142   */\n    tag_57:\n        /* \"#utility.yul\":12860:12864   */\n      0x00\n        /* \"#utility.yul\":12898:12900   */\n      0x40\n        /* \"#utility.yul\":12887:12896   */\n      dup3\n        /* \"#utility.yul\":12883:12901   */\n      add\n        /* \"#utility.yul\":12875:12901   */\n      swap1\n      pop\n        /* \"#utility.yul\":12947:12956   */\n      dup2\n        /* \"#utility.yul\":12941:12945   */\n      dup2\n        /* \"#utility.yul\":12937:12957   */\n      sub\n        /* \"#utility.yul\":12933:12934   */\n      0x00\n        /* \"#utility.yul\":12922:12931   */\n      dup4\n        /* \"#utility.yul\":12918:12935   */\n      add\n        /* \"#utility.yul\":12911:12958   */\n      mstore\n        /* \"#utility.yul\":12975:13053   */\n      tag_408\n        /* \"#utility.yul\":13048:13052   */\n      dup2\n        /* \"#utility.yul\":13039:13045   */\n      dup6\n        /* \"#utility.yul\":12975:13053   */\n      tag_233\n      jump\t// in\n    tag_408:\n        /* \"#utility.yul\":12967:13053   */\n      swap1\n      pop\n        /* \"#utility.yul\":13063:13135   */\n      tag_409\n        /* \"#utility.yul\":13131:13133   */\n      0x20\n        /* \"#utility.yul\":13120:13129   */\n      dup4\n        /* \"#utility.yul\":13116:13134   */\n      add\n        /* \"#utility.yul\":13107:13113   */\n      dup5\n        /* \"#utility.yul\":13063:13135   */\n      tag_222\n      jump\t// in\n    tag_409:\n        /* \"#utility.yul\":12719:13142   */\n      swap4\n      swap3\n      pop\n      pop\n      pop\n      jump\t// out\n        /* \"#utility.yul\":13148:13622   */\n    tag_60:\n        /* \"#utility.yul\":13216:13222   */\n      0x00\n        /* \"#utility.yul\":13224:13230   */\n      dup1\n        /* \"#utility.yul\":13273:13275   */\n      0x40\n        /* \"#utility.yul\":13261:13270   */\n      dup4\n        /* \"#utility.yul\":13252:13259   */\n      dup6\n        /* \"#utility.yul\":13248:13271   */\n      sub\n        /* \"#utility.yul\":13244:13276   */\n      slt\n        /* \"#utility.yul\":13241:13360   */\n      iszero\n      tag_411\n      jumpi\n        /* \"#utility.yul\":13279:13358   */\n      tag_412\n      tag_188\n      jump\t// in\n    tag_412:\n        /* \"#utility.yul\":13241:13360   */\n    tag_411:\n        /* \"#utility.yul\":13399:13400   */\n      0x00\n        /* \"#utility.yul\":13424:13477   */\n      tag_413\n        /* \"#utility.yul\":13469:13476   */\n      dup6\n        /* \"#utility.yul\":13460:13466   */\n      dup3\n        /* \"#utility.yul\":13449:13458   */\n      dup7\n        /* \"#utility.yul\":13445:13467   */\n      add\n        /* \"#utility.yul\":13424:13477   */\n      tag_193\n      jump\t// in\n    tag_413:\n        /* \"#utility.yul\":13414:13477   */\n      swap3\n      pop\n        /* \"#utility.yul\":13370:13487   */\n      pop\n        /* \"#utility.yul\":13526:13528   */\n      0x20\n        /* \"#utility.yul\":13552:13605   */\n      tag_414\n        /* \"#utility.yul\":13597:13604   */\n      dup6\n        /* \"#utility.yul\":13588:13594   */\n      dup3\n        /* \"#utility.yul\":13577:13586   */\n      dup7\n        /* \"#utility.yul\":13573:13595   */\n      add\n        /* \"#utility.yul\":13552:13605   */\n      tag_221\n      jump\t// in\n    tag_414:\n        /* \"#utility.yul\":13542:13605   */\n      swap2\n      pop\n        /* \"#utility.yul\":13497:13615   */\n      pop\n        /* \"#utility.yul\":13148:13622   */\n      swap3\n      pop\n      swap3\n      swap1\n      pop\n      jump\t// out\n        /* \"#utility.yul\":13628:13746   */\n    tag_234:\n        /* \"#utility.yul\":13715:13739   */\n      tag_416\n        /* \"#utility.yul\":13733:13738   */\n      dup2\n        /* \"#utility.yul\":13715:13739   */\n      tag_206\n      jump\t// in\n    tag_416:\n        /* \"#utility.yul\":13710:13713   */\n      dup3\n        /* \"#utility.yul\":13703:13740   */\n      mstore\n        /* \"#utility.yul\":13628:13746   */\n      pop\n      pop\n      jump\t// out\n        /* \"#utility.yul\":13752:13974   */\n    tag_65:\n        /* \"#utility.yul\":13845:13849   */\n      0x00\n        /* \"#utility.yul\":13883:13885   */\n      0x20\n        /* \"#utility.yul\":13872:13881   */\n      dup3\n        /* \"#utility.yul\":13868:13886   */\n      add\n        /* \"#utility.yul\":13860:13886   */\n      swap1\n      pop\n        /* \"#utility.yul\":13896:13967   */\n      tag_418\n        /* \"#utility.yul\":13964:13965   */\n      0x00\n        /* \"#utility.yul\":13953:13962   */\n      dup4\n        /* \"#utility.yul\":13949:13966   */\n      add\n        /* \"#utility.yul\":13940:13946   */\n      dup5\n        /* \"#utility.yul\":13896:13967   */\n      tag_234\n      jump\t// in\n    tag_418:\n        /* \"#utility.yul\":13752:13974   */\n      swap3\n      swap2\n      pop\n      pop\n      jump\t// out\n        /* \"#utility.yul\":13980:14218   */\n    tag_235:\n        /* \"#utility.yul\":14120:14154   */\n      0x4f6e6c79207265676973746572656420626c6f6f642062616e6b732063616e20\n        /* \"#utility.yul\":14116:14117   */\n      0x00\n        /* \"#utility.yul\":14108:14114   */\n      dup3\n        /* \"#utility.yul\":14104:14118   */\n      add\n        /* \"#utility.yul\":14097:14155   */\n      mstore\n        /* \"#utility.yul\":14189:14210   */\n      0x706572666f726d207468697320616374696f6e00000000000000000000000000\n        /* \"#utility.yul\":14184:14186   */\n      0x20\n        /* \"#utility.yul\":14176:14182   */\n      dup3\n        /* \"#utility.yul\":14172:14187   */\n      add\n        /* \"#utility.yul\":14165:14211   */\n      mstore\n        /* \"#utility.yul\":13980:14218   */\n      pop\n      jump\t// out\n        /* \"#utility.yul\":14224:14590   */\n    tag_236:\n        /* \"#utility.yul\":14366:14369   */\n      0x00\n        /* \"#utility.yul\":14387:14454   */\n      tag_421\n        /* \"#utility.yul\":14451:14453   */\n      0x33\n        /* \"#utility.yul\":14446:14449   */\n      dup4\n        /* \"#utility.yul\":14387:14454   */\n      tag_231\n      jump\t// in\n    tag_421:\n        /* \"#utility.yul\":14380:14454   */\n      swap2\n      pop\n        /* \"#utility.yul\":14463:14556   */\n      tag_422\n        /* \"#utility.yul\":14552:14555   */\n      dup3\n        /* \"#utility.yul\":14463:14556   */\n      tag_235\n      jump\t// in\n    tag_422:\n        /* \"#utility.yul\":14581:14583   */\n      0x40\n        /* \"#utility.yul\":14576:14579   */\n      dup3\n        /* \"#utility.yul\":14572:14584   */\n      add\n        /* \"#utility.yul\":14565:14584   */\n      swap1\n      pop\n        /* \"#utility.yul\":14224:14590   */\n      swap2\n      swap1\n      pop\n      jump\t// out\n        /* \"#utility.yul\":14596:15015   */\n    tag_76:\n        /* \"#utility.yul\":14762:14766   */\n      0x00\n        /* \"#utility.yul\":14800:14802   */\n      0x20\n        /* \"#utility.yul\":14789:14798   */\n      dup3\n        /* \"#utility.yul\":14785:14803   */\n      add\n        /* \"#utility.yul\":14777:14803   */\n      swap1\n      pop\n        /* \"#utility.yul\":14849:14858   */\n      dup2\n        /* \"#utility.yul\":14843:14847   */\n      dup2\n        /* \"#utility.yul\":14839:14859   */\n      sub\n        /* \"#utility.yul\":14835:14836   */\n      0x00\n        /* \"#utility.yul\":14824:14833   */\n      dup4\n        /* \"#utility.yul\":14820:14837   */\n      add\n        /* \"#utility.yul\":14813:14860   */\n      mstore\n        /* \"#utility.yul\":14877:15008   */\n      tag_424\n        /* \"#utility.yul\":15003:15007   */\n      dup2\n        /* \"#utility.yul\":14877:15008   */\n      tag_236\n      jump\t// in\n    tag_424:\n        /* \"#utility.yul\":14869:15008   */\n      swap1\n      pop\n        /* \"#utility.yul\":14596:15015   */\n      swap2\n      swap1\n      pop\n      jump\t// out\n        /* \"#utility.yul\":15021:15201   */\n    tag_81:\n        /* \"#utility.yul\":15069:15146   */\n      0x4e487b7100000000000000000000000000000000000000000000000000000000\n        /* \"#utility.yul\":15066:15067   */\n      0x00\n        /* \"#utility.yul\":15059:15147   */\n      mstore\n        /* \"#utility.yul\":15166:15170   */\n      0x21\n        /* \"#utility.yul\":15163:15164   */\n      0x04\n        /* \"#utility.yul\":15156:15171   */\n      mstore\n        /* \"#utility.yul\":15190:15194   */\n      0x24\n        /* \"#utility.yul\":15187:15188   */\n      0x00\n        /* \"#utility.yul\":15180:15195   */\n      revert\n        /* \"#utility.yul\":15207:15387   */\n    tag_86:\n        /* \"#utility.yul\":15255:15332   */\n      0x4e487b7100000000000000000000000000000000000000000000000000000000\n        /* \"#utility.yul\":15252:15253   */\n      0x00\n        /* \"#utility.yul\":15245:15333   */\n      mstore\n        /* \"#utility.yul\":15352:15356   */\n      0x32\n        /* \"#utility.yul\":15349:15350   */\n      0x04\n        /* \"#utility.yul\":15342:15357   */\n      mstore\n        /* \"#utility.yul\":15376:15380   */\n      0x24\n        /* \"#utility.yul\":15373:15374   */\n      0x00\n        /* \"#utility.yul\":15366:15381   */\n      revert\n        /* \"#utility.yul\":15393:15572   */\n    tag_237:\n        /* \"#utility.yul\":15533:15564   */\n      0x426c6f6f642062616e6b20616c72656164792072656769737465726564000000\n        /* \"#utility.yul\":15529:15530   */\n      0x00\n        /* \"#utility.yul\":15521:15527   */\n      dup3\n        /* \"#utility.yul\":15517:15531   */\n      add\n        /* \"#utility.yul\":15510:15565   */\n      mstore\n        /* \"#utility.yul\":15393:15572   */\n      pop\n      jump\t// out\n        /* \"#utility.yul\":15578:15944   */\n    tag_238:\n        /* \"#utility.yul\":15720:15723   */\n      0x00\n        /* \"#utility.yul\":15741:15808   */\n      tag_429\n        /* \"#utility.yul\":15805:15807   */\n      0x1d\n        /* \"#utility.yul\":15800:15803   */\n      dup4\n        /* \"#utility.yul\":15741:15808   */\n      tag_231\n      jump\t// in\n    tag_429:\n        /* \"#utility.yul\":15734:15808   */\n      swap2\n      pop\n        /* \"#utility.yul\":15817:15910   */\n      tag_430\n        /* \"#utility.yul\":15906:15909   */\n      dup3\n        /* \"#utility.yul\":15817:15910   */\n      tag_237\n      jump\t// in\n    tag_430:\n        /* \"#utility.yul\":15935:15937   */\n      0x20\n        /* \"#utility.yul\":15930:15933   */\n      dup3\n        /* \"#utility.yul\":15926:15938   */\n      add\n        /* \"#utility.yul\":15919:15938   */\n      swap1\n      pop\n        /* \"#utility.yul\":15578:15944   */\n      swap2\n      swap1\n      pop\n      jump\t// out\n        /* \"#utility.yul\":15950:16369   */\n    tag_133:\n        /* \"#utility.yul\":16116:16120   */\n      0x00\n        /* \"#utility.yul\":16154:16156   */\n      0x20\n        /* \"#utility.yul\":16143:16152   */\n      dup3\n        /* \"#utility.yul\":16139:16157   */\n      add\n        /* \"#utility.yul\":16131:16157   */\n      swap1\n      pop\n        /* \"#utility.yul\":16203:16212   */\n      dup2\n        /* \"#utility.yul\":16197:16201   */\n      dup2\n        /* \"#utility.yul\":16193:16213   */\n      sub\n        /* \"#utility.yul\":16189:16190   */\n      0x00\n        /* \"#utility.yul\":16178:16187   */\n      dup4\n        /* \"#utility.yul\":16174:16191   */\n      add\n        /* \"#utility.yul\":16167:16214   */\n      mstore\n        /* \"#utility.yul\":16231:16362   */\n      tag_432\n        /* \"#utility.yul\":16357:16361   */\n      dup2\n        /* \"#utility.yul\":16231:16362   */\n      tag_238\n      jump\t// in\n    tag_432:\n        /* \"#utility.yul\":16223:16362   */\n      swap1\n      pop\n        /* \"#utility.yul\":15950:16369   */\n      swap2\n      swap1\n      pop\n      jump\t// out\n        /* \"#utility.yul\":16375:16555   */\n    tag_239:\n        /* \"#utility.yul\":16423:16500   */\n      0x4e487b7100000000000000000000000000000000000000000000000000000000\n        /* \"#utility.yul\":16420:16421   */\n      0x00\n        /* \"#utility.yul\":16413:16501   */\n      mstore\n        /* \"#utility.yul\":16520:16524   */\n      0x22\n        /* \"#utility.yul\":16517:16518   */\n      0x04\n        /* \"#utility.yul\":16510:16525   */\n      mstore\n        /* \"#utility.yul\":16544:16548   */\n      0x24\n        /* \"#utility.yul\":16541:16542   */\n      0x00\n        /* \"#utility.yul\":16534:16549   */\n      revert\n        /* \"#utility.yul\":16561:16881   */\n    tag_164:\n        /* \"#utility.yul\":16605:16611   */\n      0x00\n        /* \"#utility.yul\":16642:16643   */\n      0x02\n        /* \"#utility.yul\":16636:16640   */\n      dup3\n        /* \"#utility.yul\":16632:16644   */\n      div\n        /* \"#utility.yul\":16622:16644   */\n      swap1\n      pop\n        /* \"#utility.yul\":16689:16690   */\n      0x01\n        /* \"#utility.yul\":16683:16687   */\n      dup3\n        /* \"#utility.yul\":16679:16691   */\n      and\n        /* \"#utility.yul\":16710:16728   */\n      dup1\n        /* \"#utility.yul\":16700:16781   */\n      tag_435\n      jumpi\n        /* \"#utility.yul\":16766:16770   */\n      0x7f\n        /* \"#utility.yul\":16758:16764   */\n      dup3\n        /* \"#utility.yul\":16754:16771   */\n      and\n        /* \"#utility.yul\":16744:16771   */\n      swap2\n      pop\n        /* \"#utility.yul\":16700:16781   */\n    tag_435:\n        /* \"#utility.yul\":16828:16830   */\n      0x20\n        /* \"#utility.yul\":16820:16826   */\n      dup3\n        /* \"#utility.yul\":16817:16831   */\n      lt\n        /* \"#utility.yul\":16797:16815   */\n      dup2\n        /* \"#utility.yul\":16794:16832   */\n      sub\n        /* \"#utility.yul\":16791:16875   */\n      tag_436\n      jumpi\n        /* \"#utility.yul\":16847:16865   */\n      tag_437\n      tag_239\n      jump\t// in\n    tag_437:\n        /* \"#utility.yul\":16791:16875   */\n    tag_436:\n        /* \"#utility.yul\":16612:16881   */\n      pop\n        /* \"#utility.yul\":16561:16881   */\n      swap2\n      swap1\n      pop\n      jump\t// out\n        /* \"#utility.yul\":16887:17028   */\n    tag_240:\n        /* \"#utility.yul\":16936:16940   */\n      0x00\n        /* \"#utility.yul\":16959:16962   */\n      dup2\n        /* \"#utility.yul\":16951:16962   */\n      swap1\n      pop\n        /* \"#utility.yul\":16982:16985   */\n      dup2\n        /* \"#utility.yul\":16979:16980   */\n      0x00\n        /* \"#utility.yul\":16972:16986   */\n      mstore\n        /* \"#utility.yul\":17016:17020   */\n      0x20\n        /* \"#utility.yul\":17013:17014   */\n      0x00\n        /* \"#utility.yul\":17003:17021   */\n      keccak256\n        /* \"#utility.yul\":16995:17021   */\n      swap1\n      pop\n        /* \"#utility.yul\":16887:17028   */\n      swap2\n      swap1\n      pop\n      jump\t// out\n        /* \"#utility.yul\":17034:17127   */\n    tag_241:\n        /* \"#utility.yul\":17071:17077   */\n      0x00\n        /* \"#utility.yul\":17118:17120   */\n      0x20\n        /* \"#utility.yul\":17113:17115   */\n      0x1f\n        /* \"#utility.yul\":17106:17111   */\n      dup4\n        /* \"#utility.yul\":17102:17116   */\n      add\n        /* \"#utility.yul\":17098:17121   */\n      div\n        /* \"#utility.yul\":17088:17121   */\n      swap1\n      pop\n        /* \"#utility.yul\":17034:17127   */\n      swap2\n      swap1\n      pop\n      jump\t// out\n        /* \"#utility.yul\":17133:17240   */\n    tag_242:\n        /* \"#utility.yul\":17177:17185   */\n      0x00\n        /* \"#utility.yul\":17227:17232   */\n      dup3\n        /* \"#utility.yul\":17221:17225   */\n      dup3\n        /* \"#utility.yul\":17217:17233   */\n      shl\n        /* \"#utility.yul\":17196:17233   */\n      swap1\n      pop\n        /* \"#utility.yul\":17133:17240   */\n      swap3\n      swap2\n      pop\n      pop\n      jump\t// out\n        /* \"#utility.yul\":17246:17639   */\n    tag_243:\n        /* \"#utility.yul\":17315:17321   */\n      0x00\n        /* \"#utility.yul\":17365:17366   */\n      0x08\n        /* \"#utility.yul\":17353:17363   */\n      dup4\n        /* \"#utility.yul\":17349:17367   */\n      mul\n        /* \"#utility.yul\":17388:17485   */\n      tag_442\n        /* \"#utility.yul\":17418:17484   */\n      0xffffffffffffffffffffffffffffffffffffffffffffffffffffffffffffffff\n        /* \"#utility.yul\":17407:17416   */\n      dup3\n        /* \"#utility.yul\":17388:17485   */\n      tag_242\n      jump\t// in\n    tag_442:\n        /* \"#utility.yul\":17506:17545   */\n      tag_443\n        /* \"#utility.yul\":17536:17544   */\n      dup7\n        /* \"#utility.yul\":17525:17534   */\n      dup4\n        /* \"#utility.yul\":17506:17545   */\n      tag_242\n      jump\t// in\n    tag_443:\n        /* \"#utility.yul\":17494:17545   */\n      swap6\n      pop\n        /* \"#utility.yul\":17578:17582   */\n      dup1\n        /* \"#utility.yul\":17574:17583   */\n      not\n        /* \"#utility.yul\":17567:17572   */\n      dup5\n        /* \"#utility.yul\":17563:17584   */\n      and\n        /* \"#utility.yul\":17554:17584   */\n      swap4\n      pop\n        /* \"#utility.yul\":17627:17631   */\n      dup1\n        /* \"#utility.yul\":17617:17625   */\n      dup7\n        /* \"#utility.yul\":17613:17632   */\n      and\n        /* \"#utility.yul\":17606:17611   */\n      dup5\n        /* \"#utility.yul\":17603:17633   */\n      or\n        /* \"#utility.yul\":17593:17633   */\n      swap3\n      pop\n        /* \"#utility.yul\":17322:17639   */\n      pop\n      pop\n        /* \"#utility.yul\":17246:17639   */\n      swap4\n      swap3\n      pop\n      pop\n      pop\n      jump\t// out\n        /* \"#utility.yul\":17645:17705   */\n    tag_244:\n        /* \"#utility.yul\":17673:17676   */\n      0x00\n        /* \"#utility.yul\":17694:17699   */\n      dup2\n        /* \"#utility.yul\":17687:17699   */\n      swap1\n      pop\n        /* \"#utility.yul\":17645:17705   */\n      swap2\n      swap1\n      pop\n      jump\t// out\n        /* \"#utility.yul\":17711:17853   */\n    tag_245:\n        /* \"#utility.yul\":17761:17770   */\n      0x00\n        /* \"#utility.yul\":17794:17847   */\n      tag_446\n        /* \"#utility.yul\":17812:17846   */\n      tag_447\n        /* \"#utility.yul\":17821:17845   */\n      tag_448\n        /* \"#utility.yul\":17839:17844   */\n      dup5\n        /* \"#utility.yul\":17821:17845   */\n      tag_206\n      jump\t// in\n    tag_448:\n        /* \"#utility.yul\":17812:17846   */\n      tag_244\n      jump\t// in\n    tag_447:\n        /* \"#utility.yul\":17794:17847   */\n      tag_206\n      jump\t// in\n    tag_446:\n        /* \"#utility.yul\":17781:17847   */\n      swap1\n      pop\n        /* \"#utility.yul\":17711:17853   */\n      swap2\n      swap1\n      pop\n      jump\t// out\n        /* \"#utility.yul\":17859:17934   */\n    tag_246:\n        /* \"#utility.yul\":17902:17905   */\n      0x00\n        /* \"#utility.yul\":17923:17928   */\n      dup2\n        /* \"#utility.yul\":17916:17928   */\n      swap1\n      pop\n        /* \"#utility.yul\":17859:17934   */\n      swap2\n      swap1\n      pop\n      jump\t// out\n        /* \"#utility.yul\":17940:18209   */\n    tag_247:\n        /* \"#utility.yul\":18050:18089   */\n      tag_451\n        /* \"#utility.yul\":18081:18088   */\n      dup4\n        /* \"#utility.yul\":18050:18089   */\n      tag_245\n      jump\t// in\n    tag_451:\n        /* \"#utility.yul\":18111:18202   */\n      tag_452\n        /* \"#utility.yul\":18160:18201   */\n      tag_453\n        /* \"#utility.yul\":18184:18200   */\n      dup3\n        /* \"#utility.yul\":18160:18201   */\n      tag_246\n      jump\t// in\n    tag_453:\n        /* \"#utility.yul\":18152:18158   */\n      dup5\n        /* \"#utility.yul\":18145:18149   */\n      dup5\n        /* \"#utility.yul\":18139:18150   */\n      sload\n        /* \"#utility.yul\":18111:18202   */\n      tag_243\n      jump\t// in\n    tag_452:\n        /* \"#utility.yul\":18105:18109   */\n      dup3\n        /* \"#utility.yul\":18098:18203   */\n      sstore\n        /* \"#utility.yul\":18016:18209   */\n      pop\n        /* \"#utility.yul\":17940:18209   */\n      pop\n      pop\n      pop\n      jump\t// out\n        /* \"#utility.yul\":18215:18288   */\n    tag_248:\n        /* \"#utility.yul\":18260:18263   */\n      0x00\n        /* \"#utility.yul\":18215:18288   */\n      swap1\n      jump\t// out\n        /* \"#utility.yul\":18294:18483   */\n    tag_249:\n        /* \"#utility.yul\":18371:18403   */\n      tag_456\n      tag_248\n      jump\t// in\n    tag_456:\n        /* \"#utility.yul\":18412:18477   */\n      tag_457\n        /* \"#utility.yul\":18470:18476   */\n      dup2\n        /* \"#utility.yul\":18462:18468   */\n      dup5\n        /* \"#utility.yul\":18456:18460   */\n      dup5\n        /* \"#utility.yul\":18412:18477   */\n      tag_247\n      jump\t// in\n    tag_457:\n        /* \"#utility.yul\":18347:18483   */\n      pop\n        /* \"#utility.yul\":18294:18483   */\n      pop\n      pop\n      jump\t// out\n        /* \"#utility.yul\":18489:18675   */\n    tag_250:\n        /* \"#utility.yul\":18549:18669   */\n    tag_459:\n        /* \"#utility.yul\":18566:18569   */\n      dup2\n        /* \"#utility.yul\":18559:18564   */\n      dup2\n        /* \"#utility.yul\":18556:18570   */\n      lt\n        /* \"#utility.yul\":18549:18669   */\n      iszero\n      tag_461\n      jumpi\n        /* \"#utility.yul\":18620:18659   */\n      tag_462\n        /* \"#utility.yul\":18657:18658   */\n      0x00\n        /* \"#utility.yul\":18650:18655   */\n      dup3\n        /* \"#utility.yul\":18620:18659   */\n      tag_249\n      jump\t// in\n    tag_462:\n        /* \"#utility.yul\":18593:18594   */\n      0x01\n        /* \"#utility.yul\":18586:18591   */\n      dup2\n        /* \"#utility.yul\":18582:18595   */\n      add\n        /* \"#utility.yul\":18573:18595   */\n      swap1\n      pop\n        /* \"#utility.yul\":18549:18669   */\n      jump(tag_459)\n    tag_461:\n        /* \"#utility.yul\":18489:18675   */\n      pop\n      pop\n      jump\t// out\n        /* \"#utility.yul\":18681:19224   */\n    tag_251:\n        /* \"#utility.yul\":18782:18784   */\n      0x1f\n        /* \"#utility.yul\":18777:18780   */\n      dup3\n        /* \"#utility.yul\":18774:18785   */\n      gt\n        /* \"#utility.yul\":18771:19217   */\n      iszero\n      tag_464\n      jumpi\n        /* \"#utility.yul\":18816:18854   */\n      tag_465\n        /* \"#utility.yul\":18848:18853   */\n      dup2\n        /* \"#utility.yul\":18816:18854   */\n      tag_240\n      jump\t// in\n    tag_465:\n        /* \"#utility.yul\":18900:18929   */\n      tag_466\n        /* \"#utility.yul\":18918:18928   */\n      dup5\n        /* \"#utility.yul\":18900:18929   */\n      tag_241\n      jump\t// in\n    tag_466:\n        /* \"#utility.yul\":18890:18898   */\n      dup2\n        /* \"#utility.yul\":18886:18930   */\n      add\n        /* \"#utility.yul\":19083:19085   */\n      0x20\n        /* \"#utility.yul\":19071:19081   */\n      dup6\n        /* \"#utility.yul\":19068:19086   */\n      lt\n        /* \"#utility.yul\":19065:19114   */\n      iszero\n      tag_467\n      jumpi\n        /* \"#utility.yul\":19104:19112   */\n      dup2\n        /* \"#utility.yul\":19089:19112   */\n      swap1\n      pop\n        /* \"#utility.yul\":19065:19114   */\n    tag_467:\n        /* \"#utility.yul\":19127:19207   */\n      tag_468\n        /* \"#utility.yul\":19183:19205   */\n      tag_469\n        /* \"#utility.yul\":19201:19204   */\n      dup6\n        /* \"#utility.yul\":19183:19205   */\n      tag_241\n      jump\t// in\n    tag_469:\n        /* \"#utility.yul\":19173:19181   */\n      dup4\n        /* \"#utility.yul\":19169:19206   */\n      add\n        /* \"#utility.yul\":19156:19167   */\n      dup3\n        /* \"#utility.yul\":19127:19207   */\n      tag_250\n      jump\t// in\n    tag_468:\n        /* \"#utility.yul\":18786:19217   */\n      pop\n      pop\n        /* \"#utility.yul\":18771:19217   */\n    tag_464:\n        /* \"#utility.yul\":18681:19224   */\n      pop\n      pop\n      pop\n      jump\t// out\n        /* \"#utility.yul\":19230:19347   */\n    tag_252:\n        /* \"#utility.yul\":19284:19292   */\n      0x00\n        /* \"#utility.yul\":19334:19339   */\n      dup3\n        /* \"#utility.yul\":19328:19332   */\n      dup3\n        /* \"#utility.yul\":19324:19340   */\n      shr\n        /* \"#utility.yul\":19303:19340   */\n      swap1\n      pop\n        /* \"#utility.yul\":19230:19347   */\n      swap3\n      swap2\n      pop\n      pop\n      jump\t// out\n        /* \"#utility.yul\":19353:19522   */\n    tag_253:\n        /* \"#utility.yul\":19397:19403   */\n      0x00\n        /* \"#utility.yul\":19430:19481   */\n      tag_472\n        /* \"#utility.yul\":19478:19479   */\n      0x00\n        /* \"#utility.yul\":19474:19480   */\n      not\n        /* \"#utility.yul\":19466:19471   */\n      dup5\n        /* \"#utility.yul\":19463:19464   */\n      0x08\n        /* \"#utility.yul\":19459:19472   */\n      mul\n        /* \"#utility.yul\":19430:19481   */\n      tag_252\n      jump\t// in\n    tag_472:\n        /* \"#utility.yul\":19426:19482   */\n      not\n        /* \"#utility.yul\":19511:19515   */\n      dup1\n        /* \"#utility.yul\":19505:19509   */\n      dup4\n        /* \"#utility.yul\":19501:19516   */\n      and\n        /* \"#utility.yul\":19491:19516   */\n      swap2\n      pop\n        /* \"#utility.yul\":19404:19522   */\n      pop\n        /* \"#utility.yul\":19353:19522   */\n      swap3\n      swap2\n      pop\n      pop\n      jump\t// out\n        /* \"#utility.yul\":19527:19822   */\n    tag_254:\n        /* \"#utility.yul\":19603:19607   */\n      0x00\n        /* \"#utility.yul\":19749:19778   */\n      tag_474\n        /* \"#utility.yul\":19774:19777   */\n      dup4\n        /* \"#utility.yul\":19768:19772   */\n      dup4\n        /* \"#utility.yul\":19749:19778   */\n      tag_253\n      jump\t// in\n    tag_474:\n        /* \"#utility.yul\":19741:19778   */\n      swap2\n      pop\n        /* \"#utility.yul\":19811:19814   */\n      dup3\n        /* \"#utility.yul\":19808:19809   */\n      0x02\n        /* \"#utility.yul\":19804:19815   */\n      mul\n        /* \"#utility.yul\":19798:19802   */\n      dup3\n        /* \"#utility.yul\":19795:19816   */\n      or\n        /* \"#utility.yul\":19787:19816   */\n      swap1\n      pop\n        /* \"#utility.yul\":19527:19822   */\n      swap3\n      swap2\n      pop\n      pop\n      jump\t// out\n        /* \"#utility.yul\":19827:21222   */\n    tag_135:\n        /* \"#utility.yul\":19944:19981   */\n      tag_476\n        /* \"#utility.yul\":19977:19980   */\n      dup3\n        /* \"#utility.yul\":19944:19981   */\n      tag_230\n      jump\t// in\n    tag_476:\n        /* \"#utility.yul\":20046:20064   */\n      0xffffffffffffffff\n        /* \"#utility.yul\":20038:20044   */\n      dup2\n        /* \"#utility.yul\":20035:20065   */\n      gt\n        /* \"#utility.yul\":20032:20088   */\n      iszero\n      tag_477\n      jumpi\n        /* \"#utility.yul\":20068:20086   */\n      tag_478\n      tag_159\n      jump\t// in\n    tag_478:\n        /* \"#utility.yul\":20032:20088   */\n    tag_477:\n        /* \"#utility.yul\":20112:20150   */\n      tag_479\n        /* \"#utility.yul\":20144:20148   */\n      dup3\n        /* \"#utility.yul\":20138:20149   */\n      sload\n        /* \"#utility.yul\":20112:20150   */\n      tag_164\n      jump\t// in\n    tag_479:\n        /* \"#utility.yul\":20197:20264   */\n      tag_480\n        /* \"#utility.yul\":20257:20263   */\n      dup3\n        /* \"#utility.yul\":20249:20255   */\n      dup3\n        /* \"#utility.yul\":20243:20247   */\n      dup6\n        /* \"#utility.yul\":20197:20264   */\n      tag_251\n      jump\t// in\n    tag_480:\n        /* \"#utility.yul\":20291:20292   */\n      0x00\n        /* \"#utility.yul\":20315:20319   */\n      0x20\n        /* \"#utility.yul\":20302:20319   */\n      swap1\n      pop\n        /* \"#utility.yul\":20347:20349   */\n      0x1f\n        /* \"#utility.yul\":20339:20345   */\n      dup4\n        /* \"#utility.yul\":20336:20350   */\n      gt\n        /* \"#utility.yul\":20364:20365   */\n      0x01\n        /* \"#utility.yul\":20359:20977   */\n      dup2\n      eq\n      tag_482\n      jumpi\n        /* \"#utility.yul\":21021:21022   */\n      0x00\n        /* \"#utility.yul\":21038:21044   */\n      dup5\n        /* \"#utility.yul\":21035:21112   */\n      iszero\n      tag_483\n      jumpi\n        /* \"#utility.yul\":21087:21096   */\n      dup3\n        /* \"#utility.yul\":21082:21085   */\n      dup8\n        /* \"#utility.yul\":21078:21097   */\n      add\n        /* \"#utility.yul\":21072:21098   */\n      mload\n        /* \"#utility.yul\":21063:21098   */\n      swap1\n      pop\n        /* \"#utility.yul\":21035:21112   */\n    tag_483:\n        /* \"#utility.yul\":21138:21205   */\n      tag_484\n        /* \"#utility.yul\":21198:21204   */\n      dup6\n        /* \"#utility.yul\":21191:21196   */\n      dup3\n        /* \"#utility.yul\":21138:21205   */\n      tag_254\n      jump\t// in\n    tag_484:\n        /* \"#utility.yul\":21132:21136   */\n      dup7\n        /* \"#utility.yul\":21125:21206   */\n      sstore\n        /* \"#utility.yul\":20994:21216   */\n      pop\n        /* \"#utility.yul\":20329:21216   */\n      jump(tag_481)\n        /* \"#utility.yul\":20359:20977   */\n    tag_482:\n        /* \"#utility.yul\":20411:20415   */\n      0x1f\n        /* \"#utility.yul\":20407:20416   */\n      not\n        /* \"#utility.yul\":20399:20405   */\n      dup5\n        /* \"#utility.yul\":20395:20417   */\n      and\n        /* \"#utility.yul\":20445:20482   */\n      tag_485\n        /* \"#utility.yul\":20477:20481   */\n      dup7\n        /* \"#utility.yul\":20445:20482   */\n      tag_240\n      jump\t// in\n    tag_485:\n        /* \"#utility.yul\":20504:20505   */\n      0x00\n        /* \"#utility.yul\":20518:20726   */\n    tag_486:\n        /* \"#utility.yul\":20532:20539   */\n      dup3\n        /* \"#utility.yul\":20529:20530   */\n      dup2\n        /* \"#utility.yul\":20526:20540   */\n      lt\n        /* \"#utility.yul\":20518:20726   */\n      iszero\n      tag_488\n      jumpi\n        /* \"#utility.yul\":20611:20620   */\n      dup5\n        /* \"#utility.yul\":20606:20609   */\n      dup10\n        /* \"#utility.yul\":20602:20621   */\n      add\n        /* \"#utility.yul\":20596:20622   */\n      mload\n        /* \"#utility.yul\":20588:20594   */\n      dup3\n        /* \"#utility.yul\":20581:20623   */\n      sstore\n        /* \"#utility.yul\":20662:20663   */\n      0x01\n        /* \"#utility.yul\":20654:20660   */\n      dup3\n        /* \"#utility.yul\":20650:20664   */\n      add\n        /* \"#utility.yul\":20640:20664   */\n      swap2\n      pop\n        /* \"#utility.yul\":20709:20711   */\n      0x20\n        /* \"#utility.yul\":20698:20707   */\n      dup6\n        /* \"#utility.yul\":20694:20712   */\n      add\n        /* \"#utility.yul\":20681:20712   */\n      swap5\n      pop\n        /* \"#utility.yul\":20555:20559   */\n      0x20\n        /* \"#utility.yul\":20552:20553   */\n      dup2\n        /* \"#utility.yul\":20548:20560   */\n      add\n        /* \"#utility.yul\":20543:20560   */\n      swap1\n      pop\n        /* \"#utility.yul\":20518:20726   */\n      jump(tag_486)\n    tag_488:\n        /* \"#utility.yul\":20754:20760   */\n      dup7\n        /* \"#utility.yul\":20745:20752   */\n      dup4\n        /* \"#utility.yul\":20742:20761   */\n      lt\n        /* \"#utility.yul\":20739:20918   */\n      iszero\n      tag_489\n      jumpi\n        /* \"#utility.yul\":20812:20821   */\n      dup5\n        /* \"#utility.yul\":20807:20810   */\n      dup10\n        /* \"#utility.yul\":20803:20822   */\n      add\n        /* \"#utility.yul\":20797:20823   */\n      mload\n        /* \"#utility.yul\":20855:20903   */\n      tag_490\n        /* \"#utility.yul\":20897:20901   */\n      0x1f\n        /* \"#utility.yul\":20889:20895   */\n      dup10\n        /* \"#utility.yul\":20885:20902   */\n      and\n        /* \"#utility.yul\":20874:20883   */\n      dup3\n        /* \"#utility.yul\":20855:20903   */\n      tag_253\n      jump\t// in\n    tag_490:\n        /* \"#utility.yul\":20847:20853   */\n      dup4\n        /* \"#utility.yul\":20840:20904   */\n      sstore\n        /* \"#utility.yul\":20762:20918   */\n      pop\n        /* \"#utility.yul\":20739:20918   */\n    tag_489:\n        /* \"#utility.yul\":20964:20965   */\n      0x01\n        /* \"#utility.yul\":20960:20961   */\n      0x02\n        /* \"#utility.yul\":20952:20958   */\n      dup9\n        /* \"#utility.yul\":20948:20962   */\n      mul\n        /* \"#utility.yul\":20944:20966   */\n      add\n        /* \"#utility.yul\":20938:20942   */\n      dup9\n        /* \"#utility.yul\":20931:20967   */\n      sstore\n        /* \"#utility.yul\":20366:20977   */\n      pop\n      pop\n      pop\n        /* \"#utility.yul\":20329:21216   */\n    tag_481:\n      pop\n        /* \"#utility.yul\":19919:21222   */\n      pop\n      pop\n      pop\n        /* \"#utility.yul\":19827:21222   */\n      pop\n      pop\n      jump\t// out\n        /* \"#utility.yul\":21228:21541   */\n    tag_138:\n        /* \"#utility.yul\":21341:21345   */\n      0x00\n        /* \"#utility.yul\":21379:21381   */\n      0x20\n        /* \"#utility.yul\":21368:21377   */\n      dup3\n        /* \"#utility.yul\":21364:21382   */\n      add\n        /* \"#utility.yul\":21356:21382   */\n      swap1\n      pop\n        /* \"#utility.yul\":21428:21437   */\n      dup2\n        /* \"#utility.yul\":21422:21426   */\n      dup2\n        /* \"#utility.yul\":21418:21438   */\n      sub\n        /* \"#utility.yul\":21414:21415   */\n      0x00\n        /* \"#utility.yul\":21403:21412   */\n      dup4\n        /* \"#utility.yul\":21399:21416   */\n      add\n        /* \"#utility.yul\":21392:21439   */\n      mstore\n        /* \"#utility.yul\":21456:21534   */\n      tag_492\n        /* \"#utility.yul\":21529:21533   */\n      dup2\n        /* \"#utility.yul\":21520:21526   */\n      dup5\n        /* \"#utility.yul\":21456:21534   */\n      tag_233\n      jump\t// in\n    tag_492:\n        /* \"#utility.yul\":21448:21534   */\n      swap1\n      pop\n        /* \"#utility.yul\":21228:21541   */\n      swap3\n      swap2\n      pop\n      pop\n      jump\t// out\n        /* \"#utility.yul\":21547:21726   */\n    tag_255:\n        /* \"#utility.yul\":21687:21718   */\n      0x416c72656164792072656769737465726564206173206120646f6e6f72000000\n        /* \"#utility.yul\":21683:21684   */\n      0x00\n        /* \"#utility.yul\":21675:21681   */\n      dup3\n        /* \"#utility.yul\":21671:21685   */\n      add\n        /* \"#utility.yul\":21664:21719   */\n      mstore\n        /* \"#utility.yul\":21547:21726   */\n      pop\n      jump\t// out\n        /* \"#utility.yul\":21732:22098   */\n    tag_256:\n        /* \"#utility.yul\":21874:21877   */\n      0x00\n        /* \"#utility.yul\":21895:21962   */\n      tag_495\n        /* \"#utility.yul\":21959:21961   */\n      0x1d\n        /* \"#utility.yul\":21954:21957   */\n      dup4\n        /* \"#utility.yul\":21895:21962   */\n      tag_231\n      jump\t// in\n    tag_495:\n        /* \"#utility.yul\":21888:21962   */\n      swap2\n      pop\n        /* \"#utility.yul\":21971:22064   */\n      tag_496\n        /* \"#utility.yul\":22060:22063   */\n      dup3\n        /* \"#utility.yul\":21971:22064   */\n      tag_255\n      jump\t// in\n    tag_496:\n        /* \"#utility.yul\":22089:22091   */\n      0x20\n        /* \"#utility.yul\":22084:22087   */\n      dup3\n        /* \"#utility.yul\":22080:22092   */\n      add\n        /* \"#utility.yul\":22073:22092   */\n      swap1\n      pop\n        /* \"#utility.yul\":21732:22098   */\n      swap2\n      swap1\n      pop\n      jump\t// out\n        /* \"#utility.yul\":22104:22523   */\n    tag_144:\n        /* \"#utility.yul\":22270:22274   */\n      0x00\n        /* \"#utility.yul\":22308:22310   */\n      0x20\n        /* \"#utility.yul\":22297:22306   */\n      dup3\n        /* \"#utility.yul\":22293:22311   */\n      add\n        /* \"#utility.yul\":22285:22311   */\n      swap1\n      pop\n        /* \"#utility.yul\":22357:22366   */\n      dup2\n        /* \"#utility.yul\":22351:22355   */\n      dup2\n        /* \"#utility.yul\":22347:22367   */\n      sub\n        /* \"#utility.yul\":22343:22344   */\n      0x00\n        /* \"#utility.yul\":22332:22341   */\n      dup4\n        /* \"#utility.yul\":22328:22345   */\n      add\n        /* \"#utility.yul\":22321:22368   */\n      mstore\n        /* \"#utility.yul\":22385:22516   */\n      tag_498\n        /* \"#utility.yul\":22511:22515   */\n      dup2\n        /* \"#utility.yul\":22385:22516   */\n      tag_256\n      jump\t// in\n    tag_498:\n        /* \"#utility.yul\":22377:22516   */\n      swap1\n      pop\n        /* \"#utility.yul\":22104:22523   */\n      swap2\n      swap1\n      pop\n      jump\t// out\n        /* \"#utility.yul\":22529:22704   */\n    tag_257:\n        /* \"#utility.yul\":22669:22696   */\n      0x4e6f742072656769737465726564206173206120646f6e6f7200000000000000\n        /* \"#utility.yul\":22665:22666   */\n      0x00\n        /* \"#utility.yul\":22657:22663   */\n      dup3\n        /* \"#utility.yul\":22653:22667   */\n      add\n        /* \"#utility.yul\":22646:22697   */\n      mstore\n        /* \"#utility.yul\":22529:22704   */\n      pop\n      jump\t// out\n        /* \"#utility.yul\":22710:23076   */\n    tag_258:\n        /* \"#utility.yul\":22852:22855   */\n      0x00\n        /* \"#utility.yul\":22873:22940   */\n      tag_501\n        /* \"#utility.yul\":22937:22939   */\n      0x19\n        /* \"#utility.yul\":22932:22935   */\n      dup4\n        /* \"#utility.yul\":22873:22940   */\n      tag_231\n      jump\t// in\n    tag_501:\n        /* \"#utility.yul\":22866:22940   */\n      swap2\n      pop\n        /* \"#utility.yul\":22949:23042   */\n      tag_502\n        /* \"#utility.yul\":23038:23041   */\n      dup3\n        /* \"#utility.yul\":22949:23042   */\n      tag_257\n      jump\t// in\n    tag_502:\n        /* \"#utility.yul\":23067:23069   */\n      0x20\n        /* \"#utility.yul\":23062:23065   */\n      dup3\n        /* \"#utility.yul\":23058:23070   */\n      add\n        /* \"#utility.yul\":23051:23070   */\n      swap1\n      pop\n        /* \"#utility.yul\":22710:23076   */\n      swap2\n      swap1\n      pop\n      jump\t// out\n        /* \"#utility.yul\":23082:23501   */\n    tag_152:\n        /* \"#utility.yul\":23248:23252   */\n      0x00\n        /* \"#utility.yul\":23286:23288   */\n      0x20\n        /* \"#utility.yul\":23275:23284   */\n      dup3\n        /* \"#utility.yul\":23271:23289   */\n      add\n        /* \"#utility.yul\":23263:23289   */\n      swap1\n      pop\n        /* \"#utility.yul\":23335:23344   */\n      dup2\n        /* \"#utility.yul\":23329:23333   */\n      dup2\n        /* \"#utility.yul\":23325:23345   */\n      sub\n        /* \"#utility.yul\":23321:23322   */\n      0x00\n        /* \"#utility.yul\":23310:23319   */\n      dup4\n        /* \"#utility.yul\":23306:23323   */\n      add\n        /* \"#utility.yul\":23299:23346   */\n      mstore\n        /* \"#utility.yul\":23363:23494   */\n      tag_504\n        /* \"#utility.yul\":23489:23493   */\n      dup2\n        /* \"#utility.yul\":23363:23494   */\n      tag_258\n      jump\t// in\n    tag_504:\n        /* \"#utility.yul\":23355:23494   */\n      swap1\n      pop\n        /* \"#utility.yul\":23082:23501   */\n      swap2\n      swap1\n      pop\n      jump\t// out\n        /* \"#utility.yul\":23507:23683   */\n    tag_259:\n        /* \"#utility.yul\":23647:23675   */\n      0x496e76616c696420626c6f6f642062616e6b2061646472657373000000000000\n        /* \"#utility.yul\":23643:23644   */\n      0x00\n        /* \"#utility.yul\":23635:23641   */\n      dup3\n        /* \"#utility.yul\":23631:23645   */\n      add\n        /* \"#utility.yul\":23624:23676   */\n      mstore\n        /* \"#utility.yul\":23507:23683   */\n      pop\n      jump\t// out\n        /* \"#utility.yul\":23689:24055   */\n    tag_260:\n        /* \"#utility.yul\":23831:23834   */\n      0x00\n        /* \"#utility.yul\":23852:23919   */\n      tag_507\n        /* \"#utility.yul\":23916:23918   */\n      0x1a\n        /* \"#utility.yul\":23911:23914   */\n      dup4\n        /* \"#utility.yul\":23852:23919   */\n      tag_231\n      jump\t// in\n    tag_507:\n        /* \"#utility.yul\":23845:23919   */\n      swap2\n      pop\n        /* \"#utility.yul\":23928:24021   */\n      tag_508\n        /* \"#utility.yul\":24017:24020   */\n      dup3\n        /* \"#utility.yul\":23928:24021   */\n      tag_259\n      jump\t// in\n    tag_508:\n        /* \"#utility.yul\":24046:24048   */\n      0x20\n        /* \"#utility.yul\":24041:24044   */\n      dup3\n        /* \"#utility.yul\":24037:24049   */\n      add\n        /* \"#utility.yul\":24030:24049   */\n      swap1\n      pop\n        /* \"#utility.yul\":23689:24055   */\n      swap2\n      swap1\n      pop\n      jump\t// out\n        /* \"#utility.yul\":24061:24480   */\n    tag_156:\n        /* \"#utility.yul\":24227:24231   */\n      0x00\n        /* \"#utility.yul\":24265:24267   */\n      0x20\n        /* \"#utility.yul\":24254:24263   */\n      dup3\n        /* \"#utility.yul\":24250:24268   */\n      add\n        /* \"#utility.yul\":24242:24268   */\n      swap1\n      pop\n        /* \"#utility.yul\":24314:24323   */\n      dup2\n        /* \"#utility.yul\":24308:24312   */\n      dup2\n        /* \"#utility.yul\":24304:24324   */\n      sub\n        /* \"#utility.yul\":24300:24301   */\n      0x00\n        /* \"#utility.yul\":24289:24298   */\n      dup4\n        /* \"#utility.yul\":24285:24302   */\n      add\n        /* \"#utility.yul\":24278:24325   */\n      mstore\n        /* \"#utility.yul\":24342:24473   */\n      tag_510\n        /* \"#utility.yul\":24468:24472   */\n      dup2\n        /* \"#utility.yul\":24342:24473   */\n      tag_260\n      jump\t// in\n    tag_510:\n        /* \"#utility.yul\":24334:24473   */\n      swap1\n      pop\n        /* \"#utility.yul\":24061:24480   */\n      swap2\n      swap1\n      pop\n      jump\t// out\n        /* \"#utility.yul\":24486:24666   */\n    tag_261:\n        /* \"#utility.yul\":24534:24611   */\n      0x4e487b7100000000000000000000000000000000000000000000000000000000\n        /* \"#utility.yul\":24531:24532   */\n      0x00\n        /* \"#utility.yul\":24524:24612   */\n      mstore\n        /* \"#utility.yul\":24631:24635   */\n      0x11\n        /* \"#utility.yul\":24628:24629   */\n      0x04\n        /* \"#utility.yul\":24621:24636   */\n      mstore\n        /* \"#utility.yul\":24655:24659   */\n      0x24\n        /* \"#utility.yul\":24652:24653   */\n      0x00\n        /* \"#utility.yul\":24645:24660   */\n      revert\n        /* \"#utility.yul\":24672:24863   */\n    tag_176:\n        /* \"#utility.yul\":24712:24715   */\n      0x00\n        /* \"#utility.yul\":24731:24751   */\n      tag_513\n        /* \"#utility.yul\":24749:24750   */\n      dup3\n        /* \"#utility.yul\":24731:24751   */\n      tag_206\n      jump\t// in\n    tag_513:\n        /* \"#utility.yul\":24726:24751   */\n      swap2\n      pop\n        /* \"#utility.yul\":24765:24785   */\n      tag_514\n        /* \"#utility.yul\":24783:24784   */\n      dup4\n        /* \"#utility.yul\":24765:24785   */\n      tag_206\n      jump\t// in\n    tag_514:\n        /* \"#utility.yul\":24760:24785   */\n      swap3\n      pop\n        /* \"#utility.yul\":24808:24809   */\n      dup3\n        /* \"#utility.yul\":24805:24806   */\n      dup3\n        /* \"#utility.yul\":24801:24810   */\n      add\n        /* \"#utility.yul\":24794:24810   */\n      swap1\n      pop\n        /* \"#utility.yul\":24829:24832   */\n      dup1\n        /* \"#utility.yul\":24826:24827   */\n      dup3\n        /* \"#utility.yul\":24823:24833   */\n      gt\n        /* \"#utility.yul\":24820:24856   */\n      iszero\n      tag_515\n      jumpi\n        /* \"#utility.yul\":24836:24854   */\n      tag_516\n      tag_261\n      jump\t// in\n    tag_516:\n        /* \"#utility.yul\":24820:24856   */\n    tag_515:\n        /* \"#utility.yul\":24672:24863   */\n      swap3\n      swap2\n      pop\n      pop\n      jump\t// out\n        /* \"#utility.yul\":24869:25089   */\n    tag_262:\n        /* \"#utility.yul\":25009:25043   */\n      0x4d696e696d756d20646f6e6174696f6e20696e74657276616c206e6f74206d65\n        /* \"#utility.yul\":25005:25006   */\n      0x00\n        /* \"#utility.yul\":24997:25003   */\n      dup3\n        /* \"#utility.yul\":24993:25007   */\n      add\n        /* \"#utility.yul\":24986:25044   */\n      mstore\n        /* \"#utility.yul\":25078:25081   */\n      0x7400000000000000000000000000000000000000000000000000000000000000\n        /* \"#utility.yul\":25073:25075   */\n      0x20\n        /* \"#utility.yul\":25065:25071   */\n      dup3\n        /* \"#utility.yul\":25061:25076   */\n      add\n        /* \"#utility.yul\":25054:25082   */\n      mstore\n        /* \"#utility.yul\":24869:25089   */\n      pop\n      jump\t// out\n        /* \"#utility.yul\":25095:25461   */\n    tag_263:\n        /* \"#utility.yul\":25237:25240   */\n      0x00\n        /* \"#utility.yul\":25258:25325   */\n      tag_519\n        /* \"#utility.yul\":25322:25324   */\n      0x21\n        /* \"#utility.yul\":25317:25320   */\n      dup4\n        /* \"#utility.yul\":25258:25325   */\n      tag_231\n      jump\t// in\n    tag_519:\n        /* \"#utility.yul\":25251:25325   */\n      swap2\n      pop\n        /* \"#utility.yul\":25334:25427   */\n      tag_520\n        /* \"#utility.yul\":25423:25426   */\n      dup3\n        /* \"#utility.yul\":25334:25427   */\n      tag_262\n      jump\t// in\n    tag_520:\n        /* \"#utility.yul\":25452:25454   */\n      0x40\n        /* \"#utility.yul\":25447:25450   */\n      dup3\n        /* \"#utility.yul\":25443:25455   */\n      add\n        /* \"#utility.yul\":25436:25455   */\n      swap1\n      pop\n        /* \"#utility.yul\":25095:25461   */\n      swap2\n      swap1\n      pop\n      jump\t// out\n        /* \"#utility.yul\":25467:25886   */\n    tag_179:\n        /* \"#utility.yul\":25633:25637   */\n      0x00\n        /* \"#utility.yul\":25671:25673   */\n      0x20\n        /* \"#utility.yul\":25660:25669   */\n      dup3\n        /* \"#utility.yul\":25656:25674   */\n      add\n        /* \"#utility.yul\":25648:25674   */\n      swap1\n      pop\n        /* \"#utility.yul\":25720:25729   */\n      dup2\n        /* \"#utility.yul\":25714:25718   */\n      dup2\n        /* \"#utility.yul\":25710:25730   */\n      sub\n        /* \"#utility.yul\":25706:25707   */\n      0x00\n        /* \"#utility.yul\":25695:25704   */\n      dup4\n        /* \"#utility.yul\":25691:25708   */\n      add\n        /* \"#utility.yul\":25684:25731   */\n      mstore\n        /* \"#utility.yul\":25748:25879   */\n      tag_522\n        /* \"#utility.yul\":25874:25878   */\n      dup2\n        /* \"#utility.yul\":25748:25879   */\n      tag_263\n      jump\t// in\n    tag_522:\n        /* \"#utility.yul\":25740:25879   */\n      swap1\n      pop\n        /* \"#utility.yul\":25467:25886   */\n      swap2\n      swap1\n      pop\n      jump\t// out\n        /* \"#utility.yul\":25892:26009   */\n    tag_264:\n        /* \"#utility.yul\":25977:25978   */\n      0x08\n        /* \"#utility.yul\":25970:25975   */\n      dup2\n        /* \"#utility.yul\":25967:25979   */\n      lt\n        /* \"#utility.yul\":25957:26003   */\n      tag_524\n      jumpi\n        /* \"#utility.yul\":25983:26001   */\n      tag_525\n      tag_81\n      jump\t// in\n    tag_525:\n        /* \"#utility.yul\":25957:26003   */\n    tag_524:\n        /* \"#utility.yul\":25892:26009   */\n      pop\n      jump\t// out\n        /* \"#utility.yul\":26015:26150   */\n    tag_265:\n        /* \"#utility.yul\":26064:26071   */\n      0x00\n        /* \"#utility.yul\":26093:26098   */\n      dup2\n        /* \"#utility.yul\":26082:26098   */\n      swap1\n      pop\n        /* \"#utility.yul\":26099:26144   */\n      tag_527\n        /* \"#utility.yul\":26138:26143   */\n      dup3\n        /* \"#utility.yul\":26099:26144   */\n      tag_264\n      jump\t// in\n    tag_527:\n        /* \"#utility.yul\":26015:26150   */\n      swap2\n      swap1\n      pop\n      jump\t// out\n        /* \"#utility.yul\":26156:26291   */\n    tag_266:\n        /* \"#utility.yul\":26216:26225   */\n      0x00\n        /* \"#utility.yul\":26249:26285   */\n      tag_529\n        /* \"#utility.yul\":26279:26284   */\n      dup3\n        /* \"#utility.yul\":26249:26285   */\n      tag_265\n      jump\t// in\n    tag_529:\n        /* \"#utility.yul\":26236:26285   */\n      swap1\n      pop\n        /* \"#utility.yul\":26156:26291   */\n      swap2\n      swap1\n      pop\n      jump\t// out\n        /* \"#utility.yul\":26297:26448   */\n    tag_267:\n        /* \"#utility.yul\":26394:26441   */\n      tag_531\n        /* \"#utility.yul\":26435:26440   */\n      dup2\n        /* \"#utility.yul\":26394:26441   */\n      tag_266\n      jump\t// in\n    tag_531:\n        /* \"#utility.yul\":26389:26392   */\n      dup3\n        /* \"#utility.yul\":26382:26442   */\n      mstore\n        /* \"#utility.yul\":26297:26448   */\n      pop\n      pop\n      jump\t// out\n        /* \"#utility.yul\":26454:26806   */\n    tag_186:\n        /* \"#utility.yul\":26585:26589   */\n      0x00\n        /* \"#utility.yul\":26623:26625   */\n      0x40\n        /* \"#utility.yul\":26612:26621   */\n      dup3\n        /* \"#utility.yul\":26608:26626   */\n      add\n        /* \"#utility.yul\":26600:26626   */\n      swap1\n      pop\n        /* \"#utility.yul\":26636:26717   */\n      tag_533\n        /* \"#utility.yul\":26714:26715   */\n      0x00\n        /* \"#utility.yul\":26703:26712   */\n      dup4\n        /* \"#utility.yul\":26699:26716   */\n      add\n        /* \"#utility.yul\":26690:26696   */\n      dup6\n        /* \"#utility.yul\":26636:26717   */\n      tag_267\n      jump\t// in\n    tag_533:\n        /* \"#utility.yul\":26727:26799   */\n      tag_534\n        /* \"#utility.yul\":26795:26797   */\n      0x20\n        /* \"#utility.yul\":26784:26793   */\n      dup4\n        /* \"#utility.yul\":26780:26798   */\n      add\n        /* \"#utility.yul\":26771:26777   */\n      dup5\n        /* \"#utility.yul\":26727:26799   */\n      tag_234\n      jump\t// in\n    tag_534:\n        /* \"#utility.yul\":26454:26806   */\n      swap4\n      swap3\n      pop\n      pop\n      pop\n      jump\t// out\n\n    auxdata: 0xa2646970667358221220a076870724805cfa5a0bb326d98f2b246c2d767439915d04b32d22113945f4e764736f6c63430008190033\n}\n",
				"bytecode": {
					"linkReferences": {},
					"object": "60806040526276a7006003553480156015575f80fd5b50611e70806100235f395ff3fe608060405234801561000f575f80fd5b50600436106100a7575f3560e01c80636549a8771161006f5780636549a877146101755780638188fe35146101a5578063a59fe388146101c1578063c27f2db7146101f1578063ce99e2ca14610222578063e3fb81e21461023e576100a7565b80631260d846146100ab5780632413bd7f146100db5780632bc3d7aa146100f957806340c5fae61461012957806352885df514610159575b5f80fd5b6100c560048036038101906100c0919061114f565b61025c565b6040516100d29190611194565b60405180910390f35b6100e36102f3565b6040516100f09190611264565b60405180910390f35b610113600480360381019061010e919061114f565b61037d565b6040516101209190611194565b60405180910390f35b610143600480360381019061013e919061114f565b61039a565b6040516101509190611332565b60405180910390f35b610173600480360381019061016e9190611488565b6106e9565b005b61018f600480360381019061018a91906114f9565b610876565b60405161019c9190611533565b60405180910390f35b6101bf60048036038101906101ba919061156f565b6108b0565b005b6101db60048036038101906101d6919061114f565b610ae8565b6040516101e8919061165a565b60405180910390f35b61020b6004803603810190610206919061114f565b610cef565b6040516102199291906116da565b60405180910390f35b61023c60048036038101906102379190611708565b610db4565b005b6102466110bb565b6040516102539190611755565b60405180910390f35b5f8073ffffffffffffffffffffffffffffffffffffffff1660015f8473ffffffffffffffffffffffffffffffffffffffff1673ffffffffffffffffffffffffffffffffffffffff1681526020019081526020015f206001015f9054906101000a900473ffffffffffffffffffffffffffffffffffffffff1673ffffffffffffffffffffffffffffffffffffffff1614159050919050565b60605f80548060200260200160405190810160405280929190818152602001828054801561037357602002820191905f5260205f20905b815f9054906101000a900473ffffffffffffffffffffffffffffffffffffffff1673ffffffffffffffffffffffffffffffffffffffff168152602001906001019080831161032a575b5050505050905090565b6002602052805f5260405f205f915054906101000a900460ff1681565b6103a26110c1565b6103ab3361025c565b6103ea576040517f08c379a00000000000000000000000000000000000000000000000000000000081526004016103e1906117de565b60405180910390fd5b5f60015f8473ffffffffffffffffffffffffffffffffffffffff1673ffffffffffffffffffffffffffffffffffffffff1681526020019081526020015f2090506104326110c1565b816002015f80600781111561044a576104496117fc565b5b600781111561045c5761045b6117fc565b5b81526020019081526020015f2054815f6008811061047d5761047c611829565b5b602002018181525050816002015f6001600781111561049f5761049e6117fc565b5b60078111156104b1576104b06117fc565b5b81526020019081526020015f2054816001600881106104d3576104d2611829565b5b602002018181525050816002015f600260078111156104f5576104f46117fc565b5b6007811115610507576105066117fc565b5b81526020019081526020015f20548160026008811061052957610528611829565b5b602002018181525050816002015f6003600781111561054b5761054a6117fc565b5b600781111561055d5761055c6117fc565b5b81526020019081526020015f20548160036008811061057f5761057e611829565b5b602002018181525050816002015f600460078111156105a1576105a06117fc565b5b60078111156105b3576105b26117fc565b5b81526020019081526020015f2054816004600881106105d5576105d4611829565b5b602002018181525050816002015f600560078111156105f7576105f66117fc565b5b6007811115610609576106086117fc565b5b81526020019081526020015f20548160056008811061062b5761062a611829565b5b602002018181525050816002015f6006600781111561064d5761064c6117fc565b5b600781111561065f5761065e6117fc565b5b81526020019081526020015f20548160066008811061068157610680611829565b5b602002018181525050816002015f6007808111156106a2576106a16117fc565b5b60078111156106b4576106b36117fc565b5b81526020019081526020015f2054816007600881106106d6576106d5611829565b5b6020020181815250508092505050919050565b6106f23361025c565b15610732576040517f08c379a0000000000000000000000000000000000000000000000000000000008152600401610729906118a0565b60405180910390fd5b5f60015f3373ffffffffffffffffffffffffffffffffffffffff1673ffffffffffffffffffffffffffffffffffffffff1681526020019081526020015f20905081815f0190816107829190611ab8565b5033816001015f6101000a81548173ffffffffffffffffffffffffffffffffffffffff021916908373ffffffffffffffffffffffffffffffffffffffff1602179055505f33908060018154018082558091505060019003905f5260205f20015f9091909190916101000a81548173ffffffffffffffffffffffffffffffffffffffff021916908373ffffffffffffffffffffffffffffffffffffffff1602179055503373ffffffffffffffffffffffffffffffffffffffff167ff86691fd3a664aeba999269de24b4252590218f3be9868ee5103812c94ec00218360405161086a9190611b87565b60405180910390a25050565b5f8181548110610884575f80fd5b905f5260205f20015f915054906101000a900473ffffffffffffffffffffffffffffffffffffffff1681565b60025f3373ffffffffffffffffffffffffffffffffffffffff1673ffffffffffffffffffffffffffffffffffffffff1681526020019081526020015f205f9054906101000a900460ff161561093a576040517f08c379a000000000000000000000000000000000000000000000000000000000815260040161093190611bf1565b60405180910390fd5b600160025f3373ffffffffffffffffffffffffffffffffffffffff1673ffffffffffffffffffffffffffffffffffffffff1681526020019081526020015f205f6101000a81548160ff0219169083151502179055505f60015f3373ffffffffffffffffffffffffffffffffffffffff1673ffffffffffffffffffffffffffffffffffffffff1681526020019081526020015f206003015f3373ffffffffffffffffffffffffffffffffffffffff1673ffffffffffffffffffffffffffffffffffffffff1681526020019081526020015f20905082815f019081610a1d9190611ab8565b5033816001015f6101000a81548173ffffffffffffffffffffffffffffffffffffffff021916908373ffffffffffffffffffffffffffffffffffffffff160217905550818160010160146101000a81548160ff02191690836007811115610a8757610a866117fc565b5b02179055505f81600201819055503373ffffffffffffffffffffffffffffffffffffffff167ff6bba8a2d47514955cc8e64ea9127b51d5615832d1fbd20ec40275f0876cfcbf84604051610adb9190611b87565b60405180910390a2505050565b606060025f3373ffffffffffffffffffffffffffffffffffffffff1673ffffffffffffffffffffffffffffffffffffffff1681526020019081526020015f205f9054906101000a900460ff16610b73576040517f08c379a0000000000000000000000000000000000000000000000000000000008152600401610b6a90611c59565b60405180910390fd5b610b7c8261025c565b610bbb576040517f08c379a0000000000000000000000000000000000000000000000000000000008152600401610bb290611cc1565b60405180910390fd5b5f60015f8473ffffffffffffffffffffffffffffffffffffffff1673ffffffffffffffffffffffffffffffffffffffff1681526020019081526020015f206003015f3373ffffffffffffffffffffffffffffffffffffffff1673ffffffffffffffffffffffffffffffffffffffff1681526020019081526020015f2090505f600167ffffffffffffffff811115610c5557610c54611364565b5b604051908082528060200260200182016040528015610c835781602001602082028036833780820191505090505b509050816003015f8573ffffffffffffffffffffffffffffffffffffffff1673ffffffffffffffffffffffffffffffffffffffff1681526020019081526020015f2054815f81518110610cd957610cd8611829565b5b6020026020010181815250508092505050919050565b6001602052805f5260405f205f91509050805f018054610d0e906118eb565b80601f0160208091040260200160405190810160405280929190818152602001828054610d3a906118eb565b8015610d855780601f10610d5c57610100808354040283529160200191610d85565b820191905f5260205f20905b815481529060010190602001808311610d6857829003601f168201915b505050505090806001015f9054906101000a900473ffffffffffffffffffffffffffffffffffffffff16905082565b60025f3373ffffffffffffffffffffffffffffffffffffffff1673ffffffffffffffffffffffffffffffffffffffff1681526020019081526020015f205f9054906101000a900460ff16610e3d576040517f08c379a0000000000000000000000000000000000000000000000000000000008152600401610e3490611c59565b60405180910390fd5b610e468261025c565b610e85576040517f08c379a0000000000000000000000000000000000000000000000000000000008152600401610e7c90611cc1565b60405180910390fd5b5f60015f8473ffffffffffffffffffffffffffffffffffffffff1673ffffffffffffffffffffffffffffffffffffffff1681526020019081526020015f206003015f3373ffffffffffffffffffffffffffffffffffffffff1673ffffffffffffffffffffffffffffffffffffffff1681526020019081526020015f2090506003548160020154610f159190611d0c565b421015610f57576040517f08c379a0000000000000000000000000000000000000000000000000000000008152600401610f4e90611daf565b60405180910390fd5b42816002018190555042816003015f8573ffffffffffffffffffffffffffffffffffffffff1673ffffffffffffffffffffffffffffffffffffffff1681526020019081526020015f20819055508160015f8573ffffffffffffffffffffffffffffffffffffffff1673ffffffffffffffffffffffffffffffffffffffff1681526020019081526020015f206002015f8360010160149054906101000a900460ff16600781111561100a576110096117fc565b5b600781111561101c5761101b6117fc565b5b81526020019081526020015f205f8282546110379190611d0c565b925050819055508273ffffffffffffffffffffffffffffffffffffffff163373ffffffffffffffffffffffffffffffffffffffff167f8fe5a1a5f6ab4a41a24aabdc28e11662b383a7f7e65f146996b82c74dffee15b8360010160149054906101000a900460ff16856040516110ae929190611e13565b60405180910390a3505050565b60035481565b604051806101000160405280600890602082028036833780820191505090505090565b5f604051905090565b5f80fd5b5f80fd5b5f73ffffffffffffffffffffffffffffffffffffffff82169050919050565b5f61111e826110f5565b9050919050565b61112e81611114565b8114611138575f80fd5b50565b5f8135905061114981611125565b92915050565b5f60208284031215611164576111636110ed565b5b5f6111718482850161113b565b91505092915050565b5f8115159050919050565b61118e8161117a565b82525050565b5f6020820190506111a75f830184611185565b92915050565b5f81519050919050565b5f82825260208201905092915050565b5f819050602082019050919050565b6111df81611114565b82525050565b5f6111f083836111d6565b60208301905092915050565b5f602082019050919050565b5f611212826111ad565b61121c81856111b7565b9350611227836111c7565b805f5b8381101561125757815161123e88826111e5565b9750611249836111fc565b92505060018101905061122a565b5085935050505092915050565b5f6020820190508181035f83015261127c8184611208565b905092915050565b5f60089050919050565b5f81905092915050565b5f819050919050565b5f819050919050565b6112b3816112a1565b82525050565b5f6112c483836112aa565b60208301905092915050565b5f602082019050919050565b6112e581611284565b6112ef818461128e565b92506112fa82611298565b805f5b8381101561132a57815161131187826112b9565b965061131c836112d0565b9250506001810190506112fd565b505050505050565b5f610100820190506113465f8301846112dc565b92915050565b5f80fd5b5f80fd5b5f601f19601f8301169050919050565b7f4e487b71000000000000000000000000000000000000000000000000000000005f52604160045260245ffd5b61139a82611354565b810181811067ffffffffffffffff821117156113b9576113b8611364565b5b80604052505050565b5f6113cb6110e4565b90506113d78282611391565b919050565b5f67ffffffffffffffff8211156113f6576113f5611364565b5b6113ff82611354565b9050602081019050919050565b828183375f83830152505050565b5f61142c611427846113dc565b6113c2565b90508281526020810184848401111561144857611447611350565b5b61145384828561140c565b509392505050565b5f82601f83011261146f5761146e61134c565b5b813561147f84826020860161141a565b91505092915050565b5f6020828403121561149d5761149c6110ed565b5b5f82013567ffffffffffffffff8111156114ba576114b96110f1565b5b6114c68482850161145b565b91505092915050565b6114d8816112a1565b81146114e2575f80fd5b50565b5f813590506114f3816114cf565b92915050565b5f6020828403121561150e5761150d6110ed565b5b5f61151b848285016114e5565b91505092915050565b61152d81611114565b82525050565b5f6020820190506115465f830184611524565b92915050565b60088110611558575f80fd5b50565b5f813590506115698161154c565b92915050565b5f8060408385031215611585576115846110ed565b5b5f83013567ffffffffffffffff8111156115a2576115a16110f1565b5b6115ae8582860161145b565b92505060206115bf8582860161155b565b9150509250929050565b5f81519050919050565b5f82825260208201905092915050565b5f819050602082019050919050565b5f602082019050919050565b5f611608826115c9565b61161281856115d3565b935061161d836115e3565b805f5b8381101561164d57815161163488826112b9565b975061163f836115f2565b925050600181019050611620565b5085935050505092915050565b5f6020820190508181035f83015261167281846115fe565b905092915050565b5f81519050919050565b5f82825260208201905092915050565b8281835e5f83830152505050565b5f6116ac8261167a565b6116b68185611684565b93506116c6818560208601611694565b6116cf81611354565b840191505092915050565b5f6040820190508181035f8301526116f281856116a2565b90506117016020830184611524565b9392505050565b5f806040838503121561171e5761171d6110ed565b5b5f61172b8582860161113b565b925050602061173c858286016114e5565b9150509250929050565b61174f816112a1565b82525050565b5f6020820190506117685f830184611746565b92915050565b7f4f6e6c79207265676973746572656420626c6f6f642062616e6b732063616e205f8201527f706572666f726d207468697320616374696f6e00000000000000000000000000602082015250565b5f6117c8603383611684565b91506117d38261176e565b604082019050919050565b5f6020820190508181035f8301526117f5816117bc565b9050919050565b7f4e487b71000000000000000000000000000000000000000000000000000000005f52602160045260245ffd5b7f4e487b71000000000000000000000000000000000000000000000000000000005f52603260045260245ffd5b7f426c6f6f642062616e6b20616c726561647920726567697374657265640000005f82015250565b5f61188a601d83611684565b915061189582611856565b602082019050919050565b5f6020820190508181035f8301526118b78161187e565b9050919050565b7f4e487b71000000000000000000000000000000000000000000000000000000005f52602260045260245ffd5b5f600282049050600182168061190257607f821691505b602082108103611915576119146118be565b5b50919050565b5f819050815f5260205f209050919050565b5f6020601f8301049050919050565b5f82821b905092915050565b5f600883026119777fffffffffffffffffffffffffffffffffffffffffffffffffffffffffffffffff8261193c565b611981868361193c565b95508019841693508086168417925050509392505050565b5f819050919050565b5f6119bc6119b76119b2846112a1565b611999565b6112a1565b9050919050565b5f819050919050565b6119d5836119a2565b6119e96119e1826119c3565b848454611948565b825550505050565b5f90565b6119fd6119f1565b611a088184846119cc565b505050565b5b81811015611a2b57611a205f826119f5565b600181019050611a0e565b5050565b601f821115611a7057611a418161191b565b611a4a8461192d565b81016020851015611a59578190505b611a6d611a658561192d565b830182611a0d565b50505b505050565b5f82821c905092915050565b5f611a905f1984600802611a75565b1980831691505092915050565b5f611aa88383611a81565b9150826002028217905092915050565b611ac18261167a565b67ffffffffffffffff811115611ada57611ad9611364565b5b611ae482546118eb565b611aef828285611a2f565b5f60209050601f831160018114611b20575f8415611b0e578287015190505b611b188582611a9d565b865550611b7f565b601f198416611b2e8661191b565b5f5b82811015611b5557848901518255600182019150602085019450602081019050611b30565b86831015611b725784890151611b6e601f891682611a81565b8355505b6001600288020188555050505b505050505050565b5f6020820190508181035f830152611b9f81846116a2565b905092915050565b7f416c72656164792072656769737465726564206173206120646f6e6f720000005f82015250565b5f611bdb601d83611684565b9150611be682611ba7565b602082019050919050565b5f6020820190508181035f830152611c0881611bcf565b9050919050565b7f4e6f742072656769737465726564206173206120646f6e6f72000000000000005f82015250565b5f611c43601983611684565b9150611c4e82611c0f565b602082019050919050565b5f6020820190508181035f830152611c7081611c37565b9050919050565b7f496e76616c696420626c6f6f642062616e6b20616464726573730000000000005f82015250565b5f611cab601a83611684565b9150611cb682611c77565b602082019050919050565b5f6020820190508181035f830152611cd881611c9f565b9050919050565b7f4e487b71000000000000000000000000000000000000000000000000000000005f52601160045260245ffd5b5f611d16826112a1565b9150611d21836112a1565b9250828201905080821115611d3957611d38611cdf565b5b92915050565b7f4d696e696d756d20646f6e6174696f6e20696e74657276616c206e6f74206d655f8201527f7400000000000000000000000000000000000000000000000000000000000000602082015250565b5f611d99602183611684565b9150611da482611d3f565b604082019050919050565b5f6020820190508181035f830152611dc681611d8d565b9050919050565b60088110611dde57611ddd6117fc565b5b50565b5f819050611dee82611dcd565b919050565b5f611dfd82611de1565b9050919050565b611e0d81611df3565b82525050565b5f604082019050611e265f830185611e04565b611e336020830184611746565b939250505056fea2646970667358221220a076870724805cfa5a0bb326d98f2b246c2d767439915d04b32d22113945f4e764736f6c63430008190033",
					"opcodes": "PUSH1 0x80 PUSH1 0x40 MSTORE PUSH3 0x76A700 PUSH1 0x3 SSTORE CALLVALUE DUP1 ISZERO PUSH1 0x15 JUMPI PUSH0 DUP1 REVERT JUMPDEST POP PUSH2 0x1E70 DUP1 PUSH2 0x23 PUSH0 CODECOPY PUSH0 RETURN INVALID PUSH1 0x80 PUSH1 0x40 MSTORE CALLVALUE DUP1 ISZERO PUSH2 0xF JUMPI PUSH0 DUP1 REVERT JUMPDEST POP PUSH1 0x4 CALLDATASIZE LT PUSH2 0xA7 JUMPI PUSH0 CALLDATALOAD PUSH1 0xE0 SHR DUP1 PUSH4 0x6549A877 GT PUSH2 0x6F JUMPI DUP1 PUSH4 0x6549A877 EQ PUSH2 0x175 JUMPI DUP1 PUSH4 0x8188FE35 EQ PUSH2 0x1A5 JUMPI DUP1 PUSH4 0xA59FE388 EQ PUSH2 0x1C1 JUMPI DUP1 PUSH4 0xC27F2DB7 EQ PUSH2 0x1F1 JUMPI DUP1 PUSH4 0xCE99E2CA EQ PUSH2 0x222 JUMPI DUP1 PUSH4 0xE3FB81E2 EQ PUSH2 0x23E JUMPI PUSH2 0xA7 JUMP JUMPDEST DUP1 PUSH4 0x1260D846 EQ PUSH2 0xAB JUMPI DUP1 PUSH4 0x2413BD7F EQ PUSH2 0xDB JUMPI DUP1 PUSH4 0x2BC3D7AA EQ PUSH2 0xF9 JUMPI DUP1 PUSH4 0x40C5FAE6 EQ PUSH2 0x129 JUMPI DUP1 PUSH4 0x52885DF5 EQ PUSH2 0x159 JUMPI JUMPDEST PUSH0 DUP1 REVERT JUMPDEST PUSH2 0xC5 PUSH1 0x4 DUP1 CALLDATASIZE SUB DUP2 ADD SWAP1 PUSH2 0xC0 SWAP2 SWAP1 PUSH2 0x114F JUMP JUMPDEST PUSH2 0x25C JUMP JUMPDEST PUSH1 0x40 MLOAD PUSH2 0xD2 SWAP2 SWAP1 PUSH2 0x1194 JUMP JUMPDEST PUSH1 0x40 MLOAD DUP1 SWAP2 SUB SWAP1 RETURN JUMPDEST PUSH2 0xE3 PUSH2 0x2F3 JUMP JUMPDEST PUSH1 0x40 MLOAD PUSH2 0xF0 SWAP2 SWAP1 PUSH2 0x1264 JUMP JUMPDEST PUSH1 0x40 MLOAD DUP1 SWAP2 SUB SWAP1 RETURN JUMPDEST PUSH2 0x113 PUSH1 0x4 DUP1 CALLDATASIZE SUB DUP2 ADD SWAP1 PUSH2 0x10E SWAP2 SWAP1 PUSH2 0x114F JUMP JUMPDEST PUSH2 0x37D JUMP JUMPDEST PUSH1 0x40 MLOAD PUSH2 0x120 SWAP2 SWAP1 PUSH2 0x1194 JUMP JUMPDEST PUSH1 0x40 MLOAD DUP1 SWAP2 SUB SWAP1 RETURN JUMPDEST PUSH2 0x143 PUSH1 0x4 DUP1 CALLDATASIZE SUB DUP2 ADD SWAP1 PUSH2 0x13E SWAP2 SWAP1 PUSH2 0x114F JUMP JUMPDEST PUSH2 0x39A JUMP JUMPDEST PUSH1 0x40 MLOAD PUSH2 0x150 SWAP2 SWAP1 PUSH2 0x1332 JUMP JUMPDEST PUSH1 0x40 MLOAD DUP1 SWAP2 SUB SWAP1 RETURN JUMPDEST PUSH2 0x173 PUSH1 0x4 DUP1 CALLDATASIZE SUB DUP2 ADD SWAP1 PUSH2 0x16E SWAP2 SWAP1 PUSH2 0x1488 JUMP JUMPDEST PUSH2 0x6E9 JUMP JUMPDEST STOP JUMPDEST PUSH2 0x18F PUSH1 0x4 DUP1 CALLDATASIZE SUB DUP2 ADD SWAP1 PUSH2 0x18A SWAP2 SWAP1 PUSH2 0x14F9 JUMP JUMPDEST PUSH2 0x876 JUMP JUMPDEST PUSH1 0x40 MLOAD PUSH2 0x19C SWAP2 SWAP1 PUSH2 0x1533 JUMP JUMPDEST PUSH1 0x40 MLOAD DUP1 SWAP2 SUB SWAP1 RETURN JUMPDEST PUSH2 0x1BF PUSH1 0x4 DUP1 CALLDATASIZE SUB DUP2 ADD SWAP1 PUSH2 0x1BA SWAP2 SWAP1 PUSH2 0x156F JUMP JUMPDEST PUSH2 0x8B0 JUMP JUMPDEST STOP JUMPDEST PUSH2 0x1DB PUSH1 0x4 DUP1 CALLDATASIZE SUB DUP2 ADD SWAP1 PUSH2 0x1D6 SWAP2 SWAP1 PUSH2 0x114F JUMP JUMPDEST PUSH2 0xAE8 JUMP JUMPDEST PUSH1 0x40 MLOAD PUSH2 0x1E8 SWAP2 SWAP1 PUSH2 0x165A JUMP JUMPDEST PUSH1 0x40 MLOAD DUP1 SWAP2 SUB SWAP1 RETURN JUMPDEST PUSH2 0x20B PUSH1 0x4 DUP1 CALLDATASIZE SUB DUP2 ADD SWAP1 PUSH2 0x206 SWAP2 SWAP1 PUSH2 0x114F JUMP JUMPDEST PUSH2 0xCEF JUMP JUMPDEST PUSH1 0x40 MLOAD PUSH2 0x219 SWAP3 SWAP2 SWAP1 PUSH2 0x16DA JUMP JUMPDEST PUSH1 0x40 MLOAD DUP1 SWAP2 SUB SWAP1 RETURN JUMPDEST PUSH2 0x23C PUSH1 0x4 DUP1 CALLDATASIZE SUB DUP2 ADD SWAP1 PUSH2 0x237 SWAP2 SWAP1 PUSH2 0x1708 JUMP JUMPDEST PUSH2 0xDB4 JUMP JUMPDEST STOP JUMPDEST PUSH2 0x246 PUSH2 0x10BB JUMP JUMPDEST PUSH1 0x40 MLOAD PUSH2 0x253 SWAP2 SWAP1 PUSH2 0x1755 JUMP JUMPDEST PUSH1 0x40 MLOAD DUP1 SWAP2 SUB SWAP1 RETURN JUMPDEST PUSH0 DUP1 PUSH20 0xFFFFFFFFFFFFFFFFFFFFFFFFFFFFFFFFFFFFFFFF AND PUSH1 0x1 PUSH0 DUP5 PUSH20 0xFFFFFFFFFFFFFFFFFFFFFFFFFFFFFFFFFFFFFFFF AND PUSH20 0xFFFFFFFFFFFFFFFFFFFFFFFFFFFFFFFFFFFFFFFF AND DUP2 MSTORE PUSH1 0x20 ADD SWAP1 DUP2 MSTORE PUSH1 0x20 ADD PUSH0 KECCAK256 PUSH1 0x1 ADD PUSH0 SWAP1 SLOAD SWAP1 PUSH2 0x100 EXP SWAP1 DIV PUSH20 0xFFFFFFFFFFFFFFFFFFFFFFFFFFFFFFFFFFFFFFFF AND PUSH20 0xFFFFFFFFFFFFFFFFFFFFFFFFFFFFFFFFFFFFFFFF AND EQ ISZERO SWAP1 POP SWAP2 SWAP1 POP JUMP JUMPDEST PUSH1 0x60 PUSH0 DUP1 SLOAD DUP1 PUSH1 0x20 MUL PUSH1 0x20 ADD PUSH1 0x40 MLOAD SWAP1 DUP2 ADD PUSH1 0x40 MSTORE DUP1 SWAP3 SWAP2 SWAP1 DUP2 DUP2 MSTORE PUSH1 0x20 ADD DUP3 DUP1 SLOAD DUP1 ISZERO PUSH2 0x373 JUMPI PUSH1 0x20 MUL DUP3 ADD SWAP2 SWAP1 PUSH0 MSTORE PUSH1 0x20 PUSH0 KECCAK256 SWAP1 JUMPDEST DUP2 PUSH0 SWAP1 SLOAD SWAP1 PUSH2 0x100 EXP SWAP1 DIV PUSH20 0xFFFFFFFFFFFFFFFFFFFFFFFFFFFFFFFFFFFFFFFF AND PUSH20 0xFFFFFFFFFFFFFFFFFFFFFFFFFFFFFFFFFFFFFFFF AND DUP2 MSTORE PUSH1 0x20 ADD SWAP1 PUSH1 0x1 ADD SWAP1 DUP1 DUP4 GT PUSH2 0x32A JUMPI JUMPDEST POP POP POP POP POP SWAP1 POP SWAP1 JUMP JUMPDEST PUSH1 0x2 PUSH1 0x20 MSTORE DUP1 PUSH0 MSTORE PUSH1 0x40 PUSH0 KECCAK256 PUSH0 SWAP2 POP SLOAD SWAP1 PUSH2 0x100 EXP SWAP1 DIV PUSH1 0xFF AND DUP2 JUMP JUMPDEST PUSH2 0x3A2 PUSH2 0x10C1 JUMP JUMPDEST PUSH2 0x3AB CALLER PUSH2 0x25C JUMP JUMPDEST PUSH2 0x3EA JUMPI PUSH1 0x40 MLOAD PUSH32 0x8C379A000000000000000000000000000000000000000000000000000000000 DUP2 MSTORE PUSH1 0x4 ADD PUSH2 0x3E1 SWAP1 PUSH2 0x17DE JUMP JUMPDEST PUSH1 0x40 MLOAD DUP1 SWAP2 SUB SWAP1 REVERT JUMPDEST PUSH0 PUSH1 0x1 PUSH0 DUP5 PUSH20 0xFFFFFFFFFFFFFFFFFFFFFFFFFFFFFFFFFFFFFFFF AND PUSH20 0xFFFFFFFFFFFFFFFFFFFFFFFFFFFFFFFFFFFFFFFF AND DUP2 MSTORE PUSH1 0x20 ADD SWAP1 DUP2 MSTORE PUSH1 0x20 ADD PUSH0 KECCAK256 SWAP1 POP PUSH2 0x432 PUSH2 0x10C1 JUMP JUMPDEST DUP2 PUSH1 0x2 ADD PUSH0 DUP1 PUSH1 0x7 DUP2 GT ISZERO PUSH2 0x44A JUMPI PUSH2 0x449 PUSH2 0x17FC JUMP JUMPDEST JUMPDEST PUSH1 0x7 DUP2 GT ISZERO PUSH2 0x45C JUMPI PUSH2 0x45B PUSH2 0x17FC JUMP JUMPDEST JUMPDEST DUP2 MSTORE PUSH1 0x20 ADD SWAP1 DUP2 MSTORE PUSH1 0x20 ADD PUSH0 KECCAK256 SLOAD DUP2 PUSH0 PUSH1 0x8 DUP2 LT PUSH2 0x47D JUMPI PUSH2 0x47C PUSH2 0x1829 JUMP JUMPDEST JUMPDEST PUSH1 0x20 MUL ADD DUP2 DUP2 MSTORE POP POP DUP2 PUSH1 0x2 ADD PUSH0 PUSH1 0x1 PUSH1 0x7 DUP2 GT ISZERO PUSH2 0x49F JUMPI PUSH2 0x49E PUSH2 0x17FC JUMP JUMPDEST JUMPDEST PUSH1 0x7 DUP2 GT ISZERO PUSH2 0x4B1 JUMPI PUSH2 0x4B0 PUSH2 0x17FC JUMP JUMPDEST JUMPDEST DUP2 MSTORE PUSH1 0x20 ADD SWAP1 DUP2 MSTORE PUSH1 0x20 ADD PUSH0 KECCAK256 SLOAD DUP2 PUSH1 0x1 PUSH1 0x8 DUP2 LT PUSH2 0x4D3 JUMPI PUSH2 0x4D2 PUSH2 0x1829 JUMP JUMPDEST JUMPDEST PUSH1 0x20 MUL ADD DUP2 DUP2 MSTORE POP POP DUP2 PUSH1 0x2 ADD PUSH0 PUSH1 0x2 PUSH1 0x7 DUP2 GT ISZERO PUSH2 0x4F5 JUMPI PUSH2 0x4F4 PUSH2 0x17FC JUMP JUMPDEST JUMPDEST PUSH1 0x7 DUP2 GT ISZERO PUSH2 0x507 JUMPI PUSH2 0x506 PUSH2 0x17FC JUMP JUMPDEST JUMPDEST DUP2 MSTORE PUSH1 0x20 ADD SWAP1 DUP2 MSTORE PUSH1 0x20 ADD PUSH0 KECCAK256 SLOAD DUP2 PUSH1 0x2 PUSH1 0x8 DUP2 LT PUSH2 0x529 JUMPI PUSH2 0x528 PUSH2 0x1829 JUMP JUMPDEST JUMPDEST PUSH1 0x20 MUL ADD DUP2 DUP2 MSTORE POP POP DUP2 PUSH1 0x2 ADD PUSH0 PUSH1 0x3 PUSH1 0x7 DUP2 GT ISZERO PUSH2 0x54B JUMPI PUSH2 0x54A PUSH2 0x17FC JUMP JUMPDEST JUMPDEST PUSH1 0x7 DUP2 GT ISZERO PUSH2 0x55D JUMPI PUSH2 0x55C PUSH2 0x17FC JUMP JUMPDEST JUMPDEST DUP2 MSTORE PUSH1 0x20 ADD SWAP1 DUP2 MSTORE PUSH1 0x20 ADD PUSH0 KECCAK256 SLOAD DUP2 PUSH1 0x3 PUSH1 0x8 DUP2 LT PUSH2 0x57F JUMPI PUSH2 0x57E PUSH2 0x1829 JUMP JUMPDEST JUMPDEST PUSH1 0x20 MUL ADD DUP2 DUP2 MSTORE POP POP DUP2 PUSH1 0x2 ADD PUSH0 PUSH1 0x4 PUSH1 0x7 DUP2 GT ISZERO PUSH2 0x5A1 JUMPI PUSH2 0x5A0 PUSH2 0x17FC JUMP JUMPDEST JUMPDEST PUSH1 0x7 DUP2 GT ISZERO PUSH2 0x5B3 JUMPI PUSH2 0x5B2 PUSH2 0x17FC JUMP JUMPDEST JUMPDEST DUP2 MSTORE PUSH1 0x20 ADD SWAP1 DUP2 MSTORE PUSH1 0x20 ADD PUSH0 KECCAK256 SLOAD DUP2 PUSH1 0x4 PUSH1 0x8 DUP2 LT PUSH2 0x5D5 JUMPI PUSH2 0x5D4 PUSH2 0x1829 JUMP JUMPDEST JUMPDEST PUSH1 0x20 MUL ADD DUP2 DUP2 MSTORE POP POP DUP2 PUSH1 0x2 ADD PUSH0 PUSH1 0x5 PUSH1 0x7 DUP2 GT ISZERO PUSH2 0x5F7 JUMPI PUSH2 0x5F6 PUSH2 0x17FC JUMP JUMPDEST JUMPDEST PUSH1 0x7 DUP2 GT ISZERO PUSH2 0x609 JUMPI PUSH2 0x608 PUSH2 0x17FC JUMP JUMPDEST JUMPDEST DUP2 MSTORE PUSH1 0x20 ADD SWAP1 DUP2 MSTORE PUSH1 0x20 ADD PUSH0 KECCAK256 SLOAD DUP2 PUSH1 0x5 PUSH1 0x8 DUP2 LT PUSH2 0x62B JUMPI PUSH2 0x62A PUSH2 0x1829 JUMP JUMPDEST JUMPDEST PUSH1 0x20 MUL ADD DUP2 DUP2 MSTORE POP POP DUP2 PUSH1 0x2 ADD PUSH0 PUSH1 0x6 PUSH1 0x7 DUP2 GT ISZERO PUSH2 0x64D JUMPI PUSH2 0x64C PUSH2 0x17FC JUMP JUMPDEST JUMPDEST PUSH1 0x7 DUP2 GT ISZERO PUSH2 0x65F JUMPI PUSH2 0x65E PUSH2 0x17FC JUMP JUMPDEST JUMPDEST DUP2 MSTORE PUSH1 0x20 ADD SWAP1 DUP2 MSTORE PUSH1 0x20 ADD PUSH0 KECCAK256 SLOAD DUP2 PUSH1 0x6 PUSH1 0x8 DUP2 LT PUSH2 0x681 JUMPI PUSH2 0x680 PUSH2 0x1829 JUMP JUMPDEST JUMPDEST PUSH1 0x20 MUL ADD DUP2 DUP2 MSTORE POP POP DUP2 PUSH1 0x2 ADD PUSH0 PUSH1 0x7 DUP1 DUP2 GT ISZERO PUSH2 0x6A2 JUMPI PUSH2 0x6A1 PUSH2 0x17FC JUMP JUMPDEST JUMPDEST PUSH1 0x7 DUP2 GT ISZERO PUSH2 0x6B4 JUMPI PUSH2 0x6B3 PUSH2 0x17FC JUMP JUMPDEST JUMPDEST DUP2 MSTORE PUSH1 0x20 ADD SWAP1 DUP2 MSTORE PUSH1 0x20 ADD PUSH0 KECCAK256 SLOAD DUP2 PUSH1 0x7 PUSH1 0x8 DUP2 LT PUSH2 0x6D6 JUMPI PUSH2 0x6D5 PUSH2 0x1829 JUMP JUMPDEST JUMPDEST PUSH1 0x20 MUL ADD DUP2 DUP2 MSTORE POP POP DUP1 SWAP3 POP POP POP SWAP2 SWAP1 POP JUMP JUMPDEST PUSH2 0x6F2 CALLER PUSH2 0x25C JUMP JUMPDEST ISZERO PUSH2 0x732 JUMPI PUSH1 0x40 MLOAD PUSH32 0x8C379A000000000000000000000000000000000000000000000000000000000 DUP2 MSTORE PUSH1 0x4 ADD PUSH2 0x729 SWAP1 PUSH2 0x18A0 JUMP JUMPDEST PUSH1 0x40 MLOAD DUP1 SWAP2 SUB SWAP1 REVERT JUMPDEST PUSH0 PUSH1 0x1 PUSH0 CALLER PUSH20 0xFFFFFFFFFFFFFFFFFFFFFFFFFFFFFFFFFFFFFFFF AND PUSH20 0xFFFFFFFFFFFFFFFFFFFFFFFFFFFFFFFFFFFFFFFF AND DUP2 MSTORE PUSH1 0x20 ADD SWAP1 DUP2 MSTORE PUSH1 0x20 ADD PUSH0 KECCAK256 SWAP1 POP DUP2 DUP2 PUSH0 ADD SWAP1 DUP2 PUSH2 0x782 SWAP2 SWAP1 PUSH2 0x1AB8 JUMP JUMPDEST POP CALLER DUP2 PUSH1 0x1 ADD PUSH0 PUSH2 0x100 EXP DUP2 SLOAD DUP2 PUSH20 0xFFFFFFFFFFFFFFFFFFFFFFFFFFFFFFFFFFFFFFFF MUL NOT AND SWAP1 DUP4 PUSH20 0xFFFFFFFFFFFFFFFFFFFFFFFFFFFFFFFFFFFFFFFF AND MUL OR SWAP1 SSTORE POP PUSH0 CALLER SWAP1 DUP1 PUSH1 0x1 DUP2 SLOAD ADD DUP1 DUP3 SSTORE DUP1 SWAP2 POP POP PUSH1 0x1 SWAP1 SUB SWAP1 PUSH0 MSTORE PUSH1 0x20 PUSH0 KECCAK256 ADD PUSH0 SWAP1 SWAP2 SWAP1 SWAP2 SWAP1 SWAP2 PUSH2 0x100 EXP DUP2 SLOAD DUP2 PUSH20 0xFFFFFFFFFFFFFFFFFFFFFFFFFFFFFFFFFFFFFFFF MUL NOT AND SWAP1 DUP4 PUSH20 0xFFFFFFFFFFFFFFFFFFFFFFFFFFFFFFFFFFFFFFFF AND MUL OR SWAP1 SSTORE POP CALLER PUSH20 0xFFFFFFFFFFFFFFFFFFFFFFFFFFFFFFFFFFFFFFFF AND PUSH32 0xF86691FD3A664AEBA999269DE24B4252590218F3BE9868EE5103812C94EC0021 DUP4 PUSH1 0x40 MLOAD PUSH2 0x86A SWAP2 SWAP1 PUSH2 0x1B87 JUMP JUMPDEST PUSH1 0x40 MLOAD DUP1 SWAP2 SUB SWAP1 LOG2 POP POP JUMP JUMPDEST PUSH0 DUP2 DUP2 SLOAD DUP2 LT PUSH2 0x884 JUMPI PUSH0 DUP1 REVERT JUMPDEST SWAP1 PUSH0 MSTORE PUSH1 0x20 PUSH0 KECCAK256 ADD PUSH0 SWAP2 POP SLOAD SWAP1 PUSH2 0x100 EXP SWAP1 DIV PUSH20 0xFFFFFFFFFFFFFFFFFFFFFFFFFFFFFFFFFFFFFFFF AND DUP2 JUMP JUMPDEST PUSH1 0x2 PUSH0 CALLER PUSH20 0xFFFFFFFFFFFFFFFFFFFFFFFFFFFFFFFFFFFFFFFF AND PUSH20 0xFFFFFFFFFFFFFFFFFFFFFFFFFFFFFFFFFFFFFFFF AND DUP2 MSTORE PUSH1 0x20 ADD SWAP1 DUP2 MSTORE PUSH1 0x20 ADD PUSH0 KECCAK256 PUSH0 SWAP1 SLOAD SWAP1 PUSH2 0x100 EXP SWAP1 DIV PUSH1 0xFF AND ISZERO PUSH2 0x93A JUMPI PUSH1 0x40 MLOAD PUSH32 0x8C379A000000000000000000000000000000000000000000000000000000000 DUP2 MSTORE PUSH1 0x4 ADD PUSH2 0x931 SWAP1 PUSH2 0x1BF1 JUMP JUMPDEST PUSH1 0x40 MLOAD DUP1 SWAP2 SUB SWAP1 REVERT JUMPDEST PUSH1 0x1 PUSH1 0x2 PUSH0 CALLER PUSH20 0xFFFFFFFFFFFFFFFFFFFFFFFFFFFFFFFFFFFFFFFF AND PUSH20 0xFFFFFFFFFFFFFFFFFFFFFFFFFFFFFFFFFFFFFFFF AND DUP2 MSTORE PUSH1 0x20 ADD SWAP1 DUP2 MSTORE PUSH1 0x20 ADD PUSH0 KECCAK256 PUSH0 PUSH2 0x100 EXP DUP2 SLOAD DUP2 PUSH1 0xFF MUL NOT AND SWAP1 DUP4 ISZERO ISZERO MUL OR SWAP1 SSTORE POP PUSH0 PUSH1 0x1 PUSH0 CALLER PUSH20 0xFFFFFFFFFFFFFFFFFFFFFFFFFFFFFFFFFFFFFFFF AND PUSH20 0xFFFFFFFFFFFFFFFFFFFFFFFFFFFFFFFFFFFFFFFF AND DUP2 MSTORE PUSH1 0x20 ADD SWAP1 DUP2 MSTORE PUSH1 0x20 ADD PUSH0 KECCAK256 PUSH1 0x3 ADD PUSH0 CALLER PUSH20 0xFFFFFFFFFFFFFFFFFFFFFFFFFFFFFFFFFFFFFFFF AND PUSH20 0xFFFFFFFFFFFFFFFFFFFFFFFFFFFFFFFFFFFFFFFF AND DUP2 MSTORE PUSH1 0x20 ADD SWAP1 DUP2 MSTORE PUSH1 0x20 ADD PUSH0 KECCAK256 SWAP1 POP DUP3 DUP2 PUSH0 ADD SWAP1 DUP2 PUSH2 0xA1D SWAP2 SWAP1 PUSH2 0x1AB8 JUMP JUMPDEST POP CALLER DUP2 PUSH1 0x1 ADD PUSH0 PUSH2 0x100 EXP DUP2 SLOAD DUP2 PUSH20 0xFFFFFFFFFFFFFFFFFFFFFFFFFFFFFFFFFFFFFFFF MUL NOT AND SWAP1 DUP4 PUSH20 0xFFFFFFFFFFFFFFFFFFFFFFFFFFFFFFFFFFFFFFFF AND MUL OR SWAP1 SSTORE POP DUP2 DUP2 PUSH1 0x1 ADD PUSH1 0x14 PUSH2 0x100 EXP DUP2 SLOAD DUP2 PUSH1 0xFF MUL NOT AND SWAP1 DUP4 PUSH1 0x7 DUP2 GT ISZERO PUSH2 0xA87 JUMPI PUSH2 0xA86 PUSH2 0x17FC JUMP JUMPDEST JUMPDEST MUL OR SWAP1 SSTORE POP PUSH0 DUP2 PUSH1 0x2 ADD DUP2 SWAP1 SSTORE POP CALLER PUSH20 0xFFFFFFFFFFFFFFFFFFFFFFFFFFFFFFFFFFFFFFFF AND PUSH32 0xF6BBA8A2D47514955CC8E64EA9127B51D5615832D1FBD20EC40275F0876CFCBF DUP5 PUSH1 0x40 MLOAD PUSH2 0xADB SWAP2 SWAP1 PUSH2 0x1B87 JUMP JUMPDEST PUSH1 0x40 MLOAD DUP1 SWAP2 SUB SWAP1 LOG2 POP POP POP JUMP JUMPDEST PUSH1 0x60 PUSH1 0x2 PUSH0 CALLER PUSH20 0xFFFFFFFFFFFFFFFFFFFFFFFFFFFFFFFFFFFFFFFF AND PUSH20 0xFFFFFFFFFFFFFFFFFFFFFFFFFFFFFFFFFFFFFFFF AND DUP2 MSTORE PUSH1 0x20 ADD SWAP1 DUP2 MSTORE PUSH1 0x20 ADD PUSH0 KECCAK256 PUSH0 SWAP1 SLOAD SWAP1 PUSH2 0x100 EXP SWAP1 DIV PUSH1 0xFF AND PUSH2 0xB73 JUMPI PUSH1 0x40 MLOAD PUSH32 0x8C379A000000000000000000000000000000000000000000000000000000000 DUP2 MSTORE PUSH1 0x4 ADD PUSH2 0xB6A SWAP1 PUSH2 0x1C59 JUMP JUMPDEST PUSH1 0x40 MLOAD DUP1 SWAP2 SUB SWAP1 REVERT JUMPDEST PUSH2 0xB7C DUP3 PUSH2 0x25C JUMP JUMPDEST PUSH2 0xBBB JUMPI PUSH1 0x40 MLOAD PUSH32 0x8C379A000000000000000000000000000000000000000000000000000000000 DUP2 MSTORE PUSH1 0x4 ADD PUSH2 0xBB2 SWAP1 PUSH2 0x1CC1 JUMP JUMPDEST PUSH1 0x40 MLOAD DUP1 SWAP2 SUB SWAP1 REVERT JUMPDEST PUSH0 PUSH1 0x1 PUSH0 DUP5 PUSH20 0xFFFFFFFFFFFFFFFFFFFFFFFFFFFFFFFFFFFFFFFF AND PUSH20 0xFFFFFFFFFFFFFFFFFFFFFFFFFFFFFFFFFFFFFFFF AND DUP2 MSTORE PUSH1 0x20 ADD SWAP1 DUP2 MSTORE PUSH1 0x20 ADD PUSH0 KECCAK256 PUSH1 0x3 ADD PUSH0 CALLER PUSH20 0xFFFFFFFFFFFFFFFFFFFFFFFFFFFFFFFFFFFFFFFF AND PUSH20 0xFFFFFFFFFFFFFFFFFFFFFFFFFFFFFFFFFFFFFFFF AND DUP2 MSTORE PUSH1 0x20 ADD SWAP1 DUP2 MSTORE PUSH1 0x20 ADD PUSH0 KECCAK256 SWAP1 POP PUSH0 PUSH1 0x1 PUSH8 0xFFFFFFFFFFFFFFFF DUP2 GT ISZERO PUSH2 0xC55 JUMPI PUSH2 0xC54 PUSH2 0x1364 JUMP JUMPDEST JUMPDEST PUSH1 0x40 MLOAD SWAP1 DUP1 DUP3 MSTORE DUP1 PUSH1 0x20 MUL PUSH1 0x20 ADD DUP3 ADD PUSH1 0x40 MSTORE DUP1 ISZERO PUSH2 0xC83 JUMPI DUP2 PUSH1 0x20 ADD PUSH1 0x20 DUP3 MUL DUP1 CALLDATASIZE DUP4 CALLDATACOPY DUP1 DUP3 ADD SWAP2 POP POP SWAP1 POP JUMPDEST POP SWAP1 POP DUP2 PUSH1 0x3 ADD PUSH0 DUP6 PUSH20 0xFFFFFFFFFFFFFFFFFFFFFFFFFFFFFFFFFFFFFFFF AND PUSH20 0xFFFFFFFFFFFFFFFFFFFFFFFFFFFFFFFFFFFFFFFF AND DUP2 MSTORE PUSH1 0x20 ADD SWAP1 DUP2 MSTORE PUSH1 0x20 ADD PUSH0 KECCAK256 SLOAD DUP2 PUSH0 DUP2 MLOAD DUP2 LT PUSH2 0xCD9 JUMPI PUSH2 0xCD8 PUSH2 0x1829 JUMP JUMPDEST JUMPDEST PUSH1 0x20 MUL PUSH1 0x20 ADD ADD DUP2 DUP2 MSTORE POP POP DUP1 SWAP3 POP POP POP SWAP2 SWAP1 POP JUMP JUMPDEST PUSH1 0x1 PUSH1 0x20 MSTORE DUP1 PUSH0 MSTORE PUSH1 0x40 PUSH0 KECCAK256 PUSH0 SWAP2 POP SWAP1 POP DUP1 PUSH0 ADD DUP1 SLOAD PUSH2 0xD0E SWAP1 PUSH2 0x18EB JUMP JUMPDEST DUP1 PUSH1 0x1F ADD PUSH1 0x20 DUP1 SWAP2 DIV MUL PUSH1 0x20 ADD PUSH1 0x40 MLOAD SWAP1 DUP2 ADD PUSH1 0x40 MSTORE DUP1 SWAP3 SWAP2 SWAP1 DUP2 DUP2 MSTORE PUSH1 0x20 ADD DUP3 DUP1 SLOAD PUSH2 0xD3A SWAP1 PUSH2 0x18EB JUMP JUMPDEST DUP1 ISZERO PUSH2 0xD85 JUMPI DUP1 PUSH1 0x1F LT PUSH2 0xD5C JUMPI PUSH2 0x100 DUP1 DUP4 SLOAD DIV MUL DUP4 MSTORE SWAP2 PUSH1 0x20 ADD SWAP2 PUSH2 0xD85 JUMP JUMPDEST DUP3 ADD SWAP2 SWAP1 PUSH0 MSTORE PUSH1 0x20 PUSH0 KECCAK256 SWAP1 JUMPDEST DUP2 SLOAD DUP2 MSTORE SWAP1 PUSH1 0x1 ADD SWAP1 PUSH1 0x20 ADD DUP1 DUP4 GT PUSH2 0xD68 JUMPI DUP3 SWAP1 SUB PUSH1 0x1F AND DUP3 ADD SWAP2 JUMPDEST POP POP POP POP POP SWAP1 DUP1 PUSH1 0x1 ADD PUSH0 SWAP1 SLOAD SWAP1 PUSH2 0x100 EXP SWAP1 DIV PUSH20 0xFFFFFFFFFFFFFFFFFFFFFFFFFFFFFFFFFFFFFFFF AND SWAP1 POP DUP3 JUMP JUMPDEST PUSH1 0x2 PUSH0 CALLER PUSH20 0xFFFFFFFFFFFFFFFFFFFFFFFFFFFFFFFFFFFFFFFF AND PUSH20 0xFFFFFFFFFFFFFFFFFFFFFFFFFFFFFFFFFFFFFFFF AND DUP2 MSTORE PUSH1 0x20 ADD SWAP1 DUP2 MSTORE PUSH1 0x20 ADD PUSH0 KECCAK256 PUSH0 SWAP1 SLOAD SWAP1 PUSH2 0x100 EXP SWAP1 DIV PUSH1 0xFF AND PUSH2 0xE3D JUMPI PUSH1 0x40 MLOAD PUSH32 0x8C379A000000000000000000000000000000000000000000000000000000000 DUP2 MSTORE PUSH1 0x4 ADD PUSH2 0xE34 SWAP1 PUSH2 0x1C59 JUMP JUMPDEST PUSH1 0x40 MLOAD DUP1 SWAP2 SUB SWAP1 REVERT JUMPDEST PUSH2 0xE46 DUP3 PUSH2 0x25C JUMP JUMPDEST PUSH2 0xE85 JUMPI PUSH1 0x40 MLOAD PUSH32 0x8C379A000000000000000000000000000000000000000000000000000000000 DUP2 MSTORE PUSH1 0x4 ADD PUSH2 0xE7C SWAP1 PUSH2 0x1CC1 JUMP JUMPDEST PUSH1 0x40 MLOAD DUP1 SWAP2 SUB SWAP1 REVERT JUMPDEST PUSH0 PUSH1 0x1 PUSH0 DUP5 PUSH20 0xFFFFFFFFFFFFFFFFFFFFFFFFFFFFFFFFFFFFFFFF AND PUSH20 0xFFFFFFFFFFFFFFFFFFFFFFFFFFFFFFFFFFFFFFFF AND DUP2 MSTORE PUSH1 0x20 ADD SWAP1 DUP2 MSTORE PUSH1 0x20 ADD PUSH0 KECCAK256 PUSH1 0x3 ADD PUSH0 CALLER PUSH20 0xFFFFFFFFFFFFFFFFFFFFFFFFFFFFFFFFFFFFFFFF AND PUSH20 0xFFFFFFFFFFFFFFFFFFFFFFFFFFFFFFFFFFFFFFFF AND DUP2 MSTORE PUSH1 0x20 ADD SWAP1 DUP2 MSTORE PUSH1 0x20 ADD PUSH0 KECCAK256 SWAP1 POP PUSH1 0x3 SLOAD DUP2 PUSH1 0x2 ADD SLOAD PUSH2 0xF15 SWAP2 SWAP1 PUSH2 0x1D0C JUMP JUMPDEST TIMESTAMP LT ISZERO PUSH2 0xF57 JUMPI PUSH1 0x40 MLOAD PUSH32 0x8C379A000000000000000000000000000000000000000000000000000000000 DUP2 MSTORE PUSH1 0x4 ADD PUSH2 0xF4E SWAP1 PUSH2 0x1DAF JUMP JUMPDEST PUSH1 0x40 MLOAD DUP1 SWAP2 SUB SWAP1 REVERT JUMPDEST TIMESTAMP DUP2 PUSH1 0x2 ADD DUP2 SWAP1 SSTORE POP TIMESTAMP DUP2 PUSH1 0x3 ADD PUSH0 DUP6 PUSH20 0xFFFFFFFFFFFFFFFFFFFFFFFFFFFFFFFFFFFFFFFF AND PUSH20 0xFFFFFFFFFFFFFFFFFFFFFFFFFFFFFFFFFFFFFFFF AND DUP2 MSTORE PUSH1 0x20 ADD SWAP1 DUP2 MSTORE PUSH1 0x20 ADD PUSH0 KECCAK256 DUP2 SWAP1 SSTORE POP DUP2 PUSH1 0x1 PUSH0 DUP6 PUSH20 0xFFFFFFFFFFFFFFFFFFFFFFFFFFFFFFFFFFFFFFFF AND PUSH20 0xFFFFFFFFFFFFFFFFFFFFFFFFFFFFFFFFFFFFFFFF AND DUP2 MSTORE PUSH1 0x20 ADD SWAP1 DUP2 MSTORE PUSH1 0x20 ADD PUSH0 KECCAK256 PUSH1 0x2 ADD PUSH0 DUP4 PUSH1 0x1 ADD PUSH1 0x14 SWAP1 SLOAD SWAP1 PUSH2 0x100 EXP SWAP1 DIV PUSH1 0xFF AND PUSH1 0x7 DUP2 GT ISZERO PUSH2 0x100A JUMPI PUSH2 0x1009 PUSH2 0x17FC JUMP JUMPDEST JUMPDEST PUSH1 0x7 DUP2 GT ISZERO PUSH2 0x101C JUMPI PUSH2 0x101B PUSH2 0x17FC JUMP JUMPDEST JUMPDEST DUP2 MSTORE PUSH1 0x20 ADD SWAP1 DUP2 MSTORE PUSH1 0x20 ADD PUSH0 KECCAK256 PUSH0 DUP3 DUP3 SLOAD PUSH2 0x1037 SWAP2 SWAP1 PUSH2 0x1D0C JUMP JUMPDEST SWAP3 POP POP DUP2 SWAP1 SSTORE POP DUP3 PUSH20 0xFFFFFFFFFFFFFFFFFFFFFFFFFFFFFFFFFFFFFFFF AND CALLER PUSH20 0xFFFFFFFFFFFFFFFFFFFFFFFFFFFFFFFFFFFFFFFF AND PUSH32 0x8FE5A1A5F6AB4A41A24AABDC28E11662B383A7F7E65F146996B82C74DFFEE15B DUP4 PUSH1 0x1 ADD PUSH1 0x14 SWAP1 SLOAD SWAP1 PUSH2 0x100 EXP SWAP1 DIV PUSH1 0xFF AND DUP6 PUSH1 0x40 MLOAD PUSH2 0x10AE SWAP3 SWAP2 SWAP1 PUSH2 0x1E13 JUMP JUMPDEST PUSH1 0x40 MLOAD DUP1 SWAP2 SUB SWAP1 LOG3 POP POP POP JUMP JUMPDEST PUSH1 0x3 SLOAD DUP2 JUMP JUMPDEST PUSH1 0x40 MLOAD DUP1 PUSH2 0x100 ADD PUSH1 0x40 MSTORE DUP1 PUSH1 0x8 SWAP1 PUSH1 0x20 DUP3 MUL DUP1 CALLDATASIZE DUP4 CALLDATACOPY DUP1 DUP3 ADD SWAP2 POP POP SWAP1 POP POP SWAP1 JUMP JUMPDEST PUSH0 PUSH1 0x40 MLOAD SWAP1 POP SWAP1 JUMP JUMPDEST PUSH0 DUP1 REVERT JUMPDEST PUSH0 DUP1 REVERT JUMPDEST PUSH0 PUSH20 0xFFFFFFFFFFFFFFFFFFFFFFFFFFFFFFFFFFFFFFFF DUP3 AND SWAP1 POP SWAP2 SWAP1 POP JUMP JUMPDEST PUSH0 PUSH2 0x111E DUP3 PUSH2 0x10F5 JUMP JUMPDEST SWAP1 POP SWAP2 SWAP1 POP JUMP JUMPDEST PUSH2 0x112E DUP2 PUSH2 0x1114 JUMP JUMPDEST DUP2 EQ PUSH2 0x1138 JUMPI PUSH0 DUP1 REVERT JUMPDEST POP JUMP JUMPDEST PUSH0 DUP2 CALLDATALOAD SWAP1 POP PUSH2 0x1149 DUP2 PUSH2 0x1125 JUMP JUMPDEST SWAP3 SWAP2 POP POP JUMP JUMPDEST PUSH0 PUSH1 0x20 DUP3 DUP5 SUB SLT ISZERO PUSH2 0x1164 JUMPI PUSH2 0x1163 PUSH2 0x10ED JUMP JUMPDEST JUMPDEST PUSH0 PUSH2 0x1171 DUP5 DUP3 DUP6 ADD PUSH2 0x113B JUMP JUMPDEST SWAP2 POP POP SWAP3 SWAP2 POP POP JUMP JUMPDEST PUSH0 DUP2 ISZERO ISZERO SWAP1 POP SWAP2 SWAP1 POP JUMP JUMPDEST PUSH2 0x118E DUP2 PUSH2 0x117A JUMP JUMPDEST DUP3 MSTORE POP POP JUMP JUMPDEST PUSH0 PUSH1 0x20 DUP3 ADD SWAP1 POP PUSH2 0x11A7 PUSH0 DUP4 ADD DUP5 PUSH2 0x1185 JUMP JUMPDEST SWAP3 SWAP2 POP POP JUMP JUMPDEST PUSH0 DUP2 MLOAD SWAP1 POP SWAP2 SWAP1 POP JUMP JUMPDEST PUSH0 DUP3 DUP3 MSTORE PUSH1 0x20 DUP3 ADD SWAP1 POP SWAP3 SWAP2 POP POP JUMP JUMPDEST PUSH0 DUP2 SWAP1 POP PUSH1 0x20 DUP3 ADD SWAP1 POP SWAP2 SWAP1 POP JUMP JUMPDEST PUSH2 0x11DF DUP2 PUSH2 0x1114 JUMP JUMPDEST DUP3 MSTORE POP POP JUMP JUMPDEST PUSH0 PUSH2 0x11F0 DUP4 DUP4 PUSH2 0x11D6 JUMP JUMPDEST PUSH1 0x20 DUP4 ADD SWAP1 POP SWAP3 SWAP2 POP POP JUMP JUMPDEST PUSH0 PUSH1 0x20 DUP3 ADD SWAP1 POP SWAP2 SWAP1 POP JUMP JUMPDEST PUSH0 PUSH2 0x1212 DUP3 PUSH2 0x11AD JUMP JUMPDEST PUSH2 0x121C DUP2 DUP6 PUSH2 0x11B7 JUMP JUMPDEST SWAP4 POP PUSH2 0x1227 DUP4 PUSH2 0x11C7 JUMP JUMPDEST DUP1 PUSH0 JUMPDEST DUP4 DUP2 LT ISZERO PUSH2 0x1257 JUMPI DUP2 MLOAD PUSH2 0x123E DUP9 DUP3 PUSH2 0x11E5 JUMP JUMPDEST SWAP8 POP PUSH2 0x1249 DUP4 PUSH2 0x11FC JUMP JUMPDEST SWAP3 POP POP PUSH1 0x1 DUP2 ADD SWAP1 POP PUSH2 0x122A JUMP JUMPDEST POP DUP6 SWAP4 POP POP POP POP SWAP3 SWAP2 POP POP JUMP JUMPDEST PUSH0 PUSH1 0x20 DUP3 ADD SWAP1 POP DUP2 DUP2 SUB PUSH0 DUP4 ADD MSTORE PUSH2 0x127C DUP2 DUP5 PUSH2 0x1208 JUMP JUMPDEST SWAP1 POP SWAP3 SWAP2 POP POP JUMP JUMPDEST PUSH0 PUSH1 0x8 SWAP1 POP SWAP2 SWAP1 POP JUMP JUMPDEST PUSH0 DUP2 SWAP1 POP SWAP3 SWAP2 POP POP JUMP JUMPDEST PUSH0 DUP2 SWAP1 POP SWAP2 SWAP1 POP JUMP JUMPDEST PUSH0 DUP2 SWAP1 POP SWAP2 SWAP1 POP JUMP JUMPDEST PUSH2 0x12B3 DUP2 PUSH2 0x12A1 JUMP JUMPDEST DUP3 MSTORE POP POP JUMP JUMPDEST PUSH0 PUSH2 0x12C4 DUP4 DUP4 PUSH2 0x12AA JUMP JUMPDEST PUSH1 0x20 DUP4 ADD SWAP1 POP SWAP3 SWAP2 POP POP JUMP JUMPDEST PUSH0 PUSH1 0x20 DUP3 ADD SWAP1 POP SWAP2 SWAP1 POP JUMP JUMPDEST PUSH2 0x12E5 DUP2 PUSH2 0x1284 JUMP JUMPDEST PUSH2 0x12EF DUP2 DUP5 PUSH2 0x128E JUMP JUMPDEST SWAP3 POP PUSH2 0x12FA DUP3 PUSH2 0x1298 JUMP JUMPDEST DUP1 PUSH0 JUMPDEST DUP4 DUP2 LT ISZERO PUSH2 0x132A JUMPI DUP2 MLOAD PUSH2 0x1311 DUP8 DUP3 PUSH2 0x12B9 JUMP JUMPDEST SWAP7 POP PUSH2 0x131C DUP4 PUSH2 0x12D0 JUMP JUMPDEST SWAP3 POP POP PUSH1 0x1 DUP2 ADD SWAP1 POP PUSH2 0x12FD JUMP JUMPDEST POP POP POP POP POP POP JUMP JUMPDEST PUSH0 PUSH2 0x100 DUP3 ADD SWAP1 POP PUSH2 0x1346 PUSH0 DUP4 ADD DUP5 PUSH2 0x12DC JUMP JUMPDEST SWAP3 SWAP2 POP POP JUMP JUMPDEST PUSH0 DUP1 REVERT JUMPDEST PUSH0 DUP1 REVERT JUMPDEST PUSH0 PUSH1 0x1F NOT PUSH1 0x1F DUP4 ADD AND SWAP1 POP SWAP2 SWAP1 POP JUMP JUMPDEST PUSH32 0x4E487B7100000000000000000000000000000000000000000000000000000000 PUSH0 MSTORE PUSH1 0x41 PUSH1 0x4 MSTORE PUSH1 0x24 PUSH0 REVERT JUMPDEST PUSH2 0x139A DUP3 PUSH2 0x1354 JUMP JUMPDEST DUP2 ADD DUP2 DUP2 LT PUSH8 0xFFFFFFFFFFFFFFFF DUP3 GT OR ISZERO PUSH2 0x13B9 JUMPI PUSH2 0x13B8 PUSH2 0x1364 JUMP JUMPDEST JUMPDEST DUP1 PUSH1 0x40 MSTORE POP POP POP JUMP JUMPDEST PUSH0 PUSH2 0x13CB PUSH2 0x10E4 JUMP JUMPDEST SWAP1 POP PUSH2 0x13D7 DUP3 DUP3 PUSH2 0x1391 JUMP JUMPDEST SWAP2 SWAP1 POP JUMP JUMPDEST PUSH0 PUSH8 0xFFFFFFFFFFFFFFFF DUP3 GT ISZERO PUSH2 0x13F6 JUMPI PUSH2 0x13F5 PUSH2 0x1364 JUMP JUMPDEST JUMPDEST PUSH2 0x13FF DUP3 PUSH2 0x1354 JUMP JUMPDEST SWAP1 POP PUSH1 0x20 DUP2 ADD SWAP1 POP SWAP2 SWAP1 POP JUMP JUMPDEST DUP3 DUP2 DUP4 CALLDATACOPY PUSH0 DUP4 DUP4 ADD MSTORE POP POP POP JUMP JUMPDEST PUSH0 PUSH2 0x142C PUSH2 0x1427 DUP5 PUSH2 0x13DC JUMP JUMPDEST PUSH2 0x13C2 JUMP JUMPDEST SWAP1 POP DUP3 DUP2 MSTORE PUSH1 0x20 DUP2 ADD DUP5 DUP5 DUP5 ADD GT ISZERO PUSH2 0x1448 JUMPI PUSH2 0x1447 PUSH2 0x1350 JUMP JUMPDEST JUMPDEST PUSH2 0x1453 DUP5 DUP3 DUP6 PUSH2 0x140C JUMP JUMPDEST POP SWAP4 SWAP3 POP POP POP JUMP JUMPDEST PUSH0 DUP3 PUSH1 0x1F DUP4 ADD SLT PUSH2 0x146F JUMPI PUSH2 0x146E PUSH2 0x134C JUMP JUMPDEST JUMPDEST DUP2 CALLDATALOAD PUSH2 0x147F DUP5 DUP3 PUSH1 0x20 DUP7 ADD PUSH2 0x141A JUMP JUMPDEST SWAP2 POP POP SWAP3 SWAP2 POP POP JUMP JUMPDEST PUSH0 PUSH1 0x20 DUP3 DUP5 SUB SLT ISZERO PUSH2 0x149D JUMPI PUSH2 0x149C PUSH2 0x10ED JUMP JUMPDEST JUMPDEST PUSH0 DUP3 ADD CALLDATALOAD PUSH8 0xFFFFFFFFFFFFFFFF DUP2 GT ISZERO PUSH2 0x14BA JUMPI PUSH2 0x14B9 PUSH2 0x10F1 JUMP JUMPDEST JUMPDEST PUSH2 0x14C6 DUP5 DUP3 DUP6 ADD PUSH2 0x145B JUMP JUMPDEST SWAP2 POP POP SWAP3 SWAP2 POP POP JUMP JUMPDEST PUSH2 0x14D8 DUP2 PUSH2 0x12A1 JUMP JUMPDEST DUP2 EQ PUSH2 0x14E2 JUMPI PUSH0 DUP1 REVERT JUMPDEST POP JUMP JUMPDEST PUSH0 DUP2 CALLDATALOAD SWAP1 POP PUSH2 0x14F3 DUP2 PUSH2 0x14CF JUMP JUMPDEST SWAP3 SWAP2 POP POP JUMP JUMPDEST PUSH0 PUSH1 0x20 DUP3 DUP5 SUB SLT ISZERO PUSH2 0x150E JUMPI PUSH2 0x150D PUSH2 0x10ED JUMP JUMPDEST JUMPDEST PUSH0 PUSH2 0x151B DUP5 DUP3 DUP6 ADD PUSH2 0x14E5 JUMP JUMPDEST SWAP2 POP POP SWAP3 SWAP2 POP POP JUMP JUMPDEST PUSH2 0x152D DUP2 PUSH2 0x1114 JUMP JUMPDEST DUP3 MSTORE POP POP JUMP JUMPDEST PUSH0 PUSH1 0x20 DUP3 ADD SWAP1 POP PUSH2 0x1546 PUSH0 DUP4 ADD DUP5 PUSH2 0x1524 JUMP JUMPDEST SWAP3 SWAP2 POP POP JUMP JUMPDEST PUSH1 0x8 DUP2 LT PUSH2 0x1558 JUMPI PUSH0 DUP1 REVERT JUMPDEST POP JUMP JUMPDEST PUSH0 DUP2 CALLDATALOAD SWAP1 POP PUSH2 0x1569 DUP2 PUSH2 0x154C JUMP JUMPDEST SWAP3 SWAP2 POP POP JUMP JUMPDEST PUSH0 DUP1 PUSH1 0x40 DUP4 DUP6 SUB SLT ISZERO PUSH2 0x1585 JUMPI PUSH2 0x1584 PUSH2 0x10ED JUMP JUMPDEST JUMPDEST PUSH0 DUP4 ADD CALLDATALOAD PUSH8 0xFFFFFFFFFFFFFFFF DUP2 GT ISZERO PUSH2 0x15A2 JUMPI PUSH2 0x15A1 PUSH2 0x10F1 JUMP JUMPDEST JUMPDEST PUSH2 0x15AE DUP6 DUP3 DUP7 ADD PUSH2 0x145B JUMP JUMPDEST SWAP3 POP POP PUSH1 0x20 PUSH2 0x15BF DUP6 DUP3 DUP7 ADD PUSH2 0x155B JUMP JUMPDEST SWAP2 POP POP SWAP3 POP SWAP3 SWAP1 POP JUMP JUMPDEST PUSH0 DUP2 MLOAD SWAP1 POP SWAP2 SWAP1 POP JUMP JUMPDEST PUSH0 DUP3 DUP3 MSTORE PUSH1 0x20 DUP3 ADD SWAP1 POP SWAP3 SWAP2 POP POP JUMP JUMPDEST PUSH0 DUP2 SWAP1 POP PUSH1 0x20 DUP3 ADD SWAP1 POP SWAP2 SWAP1 POP JUMP JUMPDEST PUSH0 PUSH1 0x20 DUP3 ADD SWAP1 POP SWAP2 SWAP1 POP JUMP JUMPDEST PUSH0 PUSH2 0x1608 DUP3 PUSH2 0x15C9 JUMP JUMPDEST PUSH2 0x1612 DUP2 DUP6 PUSH2 0x15D3 JUMP JUMPDEST SWAP4 POP PUSH2 0x161D DUP4 PUSH2 0x15E3 JUMP JUMPDEST DUP1 PUSH0 JUMPDEST DUP4 DUP2 LT ISZERO PUSH2 0x164D JUMPI DUP2 MLOAD PUSH2 0x1634 DUP9 DUP3 PUSH2 0x12B9 JUMP JUMPDEST SWAP8 POP PUSH2 0x163F DUP4 PUSH2 0x15F2 JUMP JUMPDEST SWAP3 POP POP PUSH1 0x1 DUP2 ADD SWAP1 POP PUSH2 0x1620 JUMP JUMPDEST POP DUP6 SWAP4 POP POP POP POP SWAP3 SWAP2 POP POP JUMP JUMPDEST PUSH0 PUSH1 0x20 DUP3 ADD SWAP1 POP DUP2 DUP2 SUB PUSH0 DUP4 ADD MSTORE PUSH2 0x1672 DUP2 DUP5 PUSH2 0x15FE JUMP JUMPDEST SWAP1 POP SWAP3 SWAP2 POP POP JUMP JUMPDEST PUSH0 DUP2 MLOAD SWAP1 POP SWAP2 SWAP1 POP JUMP JUMPDEST PUSH0 DUP3 DUP3 MSTORE PUSH1 0x20 DUP3 ADD SWAP1 POP SWAP3 SWAP2 POP POP JUMP JUMPDEST DUP3 DUP2 DUP4 MCOPY PUSH0 DUP4 DUP4 ADD MSTORE POP POP POP JUMP JUMPDEST PUSH0 PUSH2 0x16AC DUP3 PUSH2 0x167A JUMP JUMPDEST PUSH2 0x16B6 DUP2 DUP6 PUSH2 0x1684 JUMP JUMPDEST SWAP4 POP PUSH2 0x16C6 DUP2 DUP6 PUSH1 0x20 DUP7 ADD PUSH2 0x1694 JUMP JUMPDEST PUSH2 0x16CF DUP2 PUSH2 0x1354 JUMP JUMPDEST DUP5 ADD SWAP2 POP POP SWAP3 SWAP2 POP POP JUMP JUMPDEST PUSH0 PUSH1 0x40 DUP3 ADD SWAP1 POP DUP2 DUP2 SUB PUSH0 DUP4 ADD MSTORE PUSH2 0x16F2 DUP2 DUP6 PUSH2 0x16A2 JUMP JUMPDEST SWAP1 POP PUSH2 0x1701 PUSH1 0x20 DUP4 ADD DUP5 PUSH2 0x1524 JUMP JUMPDEST SWAP4 SWAP3 POP POP POP JUMP JUMPDEST PUSH0 DUP1 PUSH1 0x40 DUP4 DUP6 SUB SLT ISZERO PUSH2 0x171E JUMPI PUSH2 0x171D PUSH2 0x10ED JUMP JUMPDEST JUMPDEST PUSH0 PUSH2 0x172B DUP6 DUP3 DUP7 ADD PUSH2 0x113B JUMP JUMPDEST SWAP3 POP POP PUSH1 0x20 PUSH2 0x173C DUP6 DUP3 DUP7 ADD PUSH2 0x14E5 JUMP JUMPDEST SWAP2 POP POP SWAP3 POP SWAP3 SWAP1 POP JUMP JUMPDEST PUSH2 0x174F DUP2 PUSH2 0x12A1 JUMP JUMPDEST DUP3 MSTORE POP POP JUMP JUMPDEST PUSH0 PUSH1 0x20 DUP3 ADD SWAP1 POP PUSH2 0x1768 PUSH0 DUP4 ADD DUP5 PUSH2 0x1746 JUMP JUMPDEST SWAP3 SWAP2 POP POP JUMP JUMPDEST PUSH32 0x4F6E6C79207265676973746572656420626C6F6F642062616E6B732063616E20 PUSH0 DUP3 ADD MSTORE PUSH32 0x706572666F726D207468697320616374696F6E00000000000000000000000000 PUSH1 0x20 DUP3 ADD MSTORE POP JUMP JUMPDEST PUSH0 PUSH2 0x17C8 PUSH1 0x33 DUP4 PUSH2 0x1684 JUMP JUMPDEST SWAP2 POP PUSH2 0x17D3 DUP3 PUSH2 0x176E JUMP JUMPDEST PUSH1 0x40 DUP3 ADD SWAP1 POP SWAP2 SWAP1 POP JUMP JUMPDEST PUSH0 PUSH1 0x20 DUP3 ADD SWAP1 POP DUP2 DUP2 SUB PUSH0 DUP4 ADD MSTORE PUSH2 0x17F5 DUP2 PUSH2 0x17BC JUMP JUMPDEST SWAP1 POP SWAP2 SWAP1 POP JUMP JUMPDEST PUSH32 0x4E487B7100000000000000000000000000000000000000000000000000000000 PUSH0 MSTORE PUSH1 0x21 PUSH1 0x4 MSTORE PUSH1 0x24 PUSH0 REVERT JUMPDEST PUSH32 0x4E487B7100000000000000000000000000000000000000000000000000000000 PUSH0 MSTORE PUSH1 0x32 PUSH1 0x4 MSTORE PUSH1 0x24 PUSH0 REVERT JUMPDEST PUSH32 0x426C6F6F642062616E6B20616C72656164792072656769737465726564000000 PUSH0 DUP3 ADD MSTORE POP JUMP JUMPDEST PUSH0 PUSH2 0x188A PUSH1 0x1D DUP4 PUSH2 0x1684 JUMP JUMPDEST SWAP2 POP PUSH2 0x1895 DUP3 PUSH2 0x1856 JUMP JUMPDEST PUSH1 0x20 DUP3 ADD SWAP1 POP SWAP2 SWAP1 POP JUMP JUMPDEST PUSH0 PUSH1 0x20 DUP3 ADD SWAP1 POP DUP2 DUP2 SUB PUSH0 DUP4 ADD MSTORE PUSH2 0x18B7 DUP2 PUSH2 0x187E JUMP JUMPDEST SWAP1 POP SWAP2 SWAP1 POP JUMP JUMPDEST PUSH32 0x4E487B7100000000000000000000000000000000000000000000000000000000 PUSH0 MSTORE PUSH1 0x22 PUSH1 0x4 MSTORE PUSH1 0x24 PUSH0 REVERT JUMPDEST PUSH0 PUSH1 0x2 DUP3 DIV SWAP1 POP PUSH1 0x1 DUP3 AND DUP1 PUSH2 0x1902 JUMPI PUSH1 0x7F DUP3 AND SWAP2 POP JUMPDEST PUSH1 0x20 DUP3 LT DUP2 SUB PUSH2 0x1915 JUMPI PUSH2 0x1914 PUSH2 0x18BE JUMP JUMPDEST JUMPDEST POP SWAP2 SWAP1 POP JUMP JUMPDEST PUSH0 DUP2 SWAP1 POP DUP2 PUSH0 MSTORE PUSH1 0x20 PUSH0 KECCAK256 SWAP1 POP SWAP2 SWAP1 POP JUMP JUMPDEST PUSH0 PUSH1 0x20 PUSH1 0x1F DUP4 ADD DIV SWAP1 POP SWAP2 SWAP1 POP JUMP JUMPDEST PUSH0 DUP3 DUP3 SHL SWAP1 POP SWAP3 SWAP2 POP POP JUMP JUMPDEST PUSH0 PUSH1 0x8 DUP4 MUL PUSH2 0x1977 PUSH32 0xFFFFFFFFFFFFFFFFFFFFFFFFFFFFFFFFFFFFFFFFFFFFFFFFFFFFFFFFFFFFFFFF DUP3 PUSH2 0x193C JUMP JUMPDEST PUSH2 0x1981 DUP7 DUP4 PUSH2 0x193C JUMP JUMPDEST SWAP6 POP DUP1 NOT DUP5 AND SWAP4 POP DUP1 DUP7 AND DUP5 OR SWAP3 POP POP POP SWAP4 SWAP3 POP POP POP JUMP JUMPDEST PUSH0 DUP2 SWAP1 POP SWAP2 SWAP1 POP JUMP JUMPDEST PUSH0 PUSH2 0x19BC PUSH2 0x19B7 PUSH2 0x19B2 DUP5 PUSH2 0x12A1 JUMP JUMPDEST PUSH2 0x1999 JUMP JUMPDEST PUSH2 0x12A1 JUMP JUMPDEST SWAP1 POP SWAP2 SWAP1 POP JUMP JUMPDEST PUSH0 DUP2 SWAP1 POP SWAP2 SWAP1 POP JUMP JUMPDEST PUSH2 0x19D5 DUP4 PUSH2 0x19A2 JUMP JUMPDEST PUSH2 0x19E9 PUSH2 0x19E1 DUP3 PUSH2 0x19C3 JUMP JUMPDEST DUP5 DUP5 SLOAD PUSH2 0x1948 JUMP JUMPDEST DUP3 SSTORE POP POP POP POP JUMP JUMPDEST PUSH0 SWAP1 JUMP JUMPDEST PUSH2 0x19FD PUSH2 0x19F1 JUMP JUMPDEST PUSH2 0x1A08 DUP2 DUP5 DUP5 PUSH2 0x19CC JUMP JUMPDEST POP POP POP JUMP JUMPDEST JUMPDEST DUP2 DUP2 LT ISZERO PUSH2 0x1A2B JUMPI PUSH2 0x1A20 PUSH0 DUP3 PUSH2 0x19F5 JUMP JUMPDEST PUSH1 0x1 DUP2 ADD SWAP1 POP PUSH2 0x1A0E JUMP JUMPDEST POP POP JUMP JUMPDEST PUSH1 0x1F DUP3 GT ISZERO PUSH2 0x1A70 JUMPI PUSH2 0x1A41 DUP2 PUSH2 0x191B JUMP JUMPDEST PUSH2 0x1A4A DUP5 PUSH2 0x192D JUMP JUMPDEST DUP2 ADD PUSH1 0x20 DUP6 LT ISZERO PUSH2 0x1A59 JUMPI DUP2 SWAP1 POP JUMPDEST PUSH2 0x1A6D PUSH2 0x1A65 DUP6 PUSH2 0x192D JUMP JUMPDEST DUP4 ADD DUP3 PUSH2 0x1A0D JUMP JUMPDEST POP POP JUMPDEST POP POP POP JUMP JUMPDEST PUSH0 DUP3 DUP3 SHR SWAP1 POP SWAP3 SWAP2 POP POP JUMP JUMPDEST PUSH0 PUSH2 0x1A90 PUSH0 NOT DUP5 PUSH1 0x8 MUL PUSH2 0x1A75 JUMP JUMPDEST NOT DUP1 DUP4 AND SWAP2 POP POP SWAP3 SWAP2 POP POP JUMP JUMPDEST PUSH0 PUSH2 0x1AA8 DUP4 DUP4 PUSH2 0x1A81 JUMP JUMPDEST SWAP2 POP DUP3 PUSH1 0x2 MUL DUP3 OR SWAP1 POP SWAP3 SWAP2 POP POP JUMP JUMPDEST PUSH2 0x1AC1 DUP3 PUSH2 0x167A JUMP JUMPDEST PUSH8 0xFFFFFFFFFFFFFFFF DUP2 GT ISZERO PUSH2 0x1ADA JUMPI PUSH2 0x1AD9 PUSH2 0x1364 JUMP JUMPDEST JUMPDEST PUSH2 0x1AE4 DUP3 SLOAD PUSH2 0x18EB JUMP JUMPDEST PUSH2 0x1AEF DUP3 DUP3 DUP6 PUSH2 0x1A2F JUMP JUMPDEST PUSH0 PUSH1 0x20 SWAP1 POP PUSH1 0x1F DUP4 GT PUSH1 0x1 DUP2 EQ PUSH2 0x1B20 JUMPI PUSH0 DUP5 ISZERO PUSH2 0x1B0E JUMPI DUP3 DUP8 ADD MLOAD SWAP1 POP JUMPDEST PUSH2 0x1B18 DUP6 DUP3 PUSH2 0x1A9D JUMP JUMPDEST DUP7 SSTORE POP PUSH2 0x1B7F JUMP JUMPDEST PUSH1 0x1F NOT DUP5 AND PUSH2 0x1B2E DUP7 PUSH2 0x191B JUMP JUMPDEST PUSH0 JUMPDEST DUP3 DUP2 LT ISZERO PUSH2 0x1B55 JUMPI DUP5 DUP10 ADD MLOAD DUP3 SSTORE PUSH1 0x1 DUP3 ADD SWAP2 POP PUSH1 0x20 DUP6 ADD SWAP5 POP PUSH1 0x20 DUP2 ADD SWAP1 POP PUSH2 0x1B30 JUMP JUMPDEST DUP7 DUP4 LT ISZERO PUSH2 0x1B72 JUMPI DUP5 DUP10 ADD MLOAD PUSH2 0x1B6E PUSH1 0x1F DUP10 AND DUP3 PUSH2 0x1A81 JUMP JUMPDEST DUP4 SSTORE POP JUMPDEST PUSH1 0x1 PUSH1 0x2 DUP9 MUL ADD DUP9 SSTORE POP POP POP JUMPDEST POP POP POP POP POP POP JUMP JUMPDEST PUSH0 PUSH1 0x20 DUP3 ADD SWAP1 POP DUP2 DUP2 SUB PUSH0 DUP4 ADD MSTORE PUSH2 0x1B9F DUP2 DUP5 PUSH2 0x16A2 JUMP JUMPDEST SWAP1 POP SWAP3 SWAP2 POP POP JUMP JUMPDEST PUSH32 0x416C72656164792072656769737465726564206173206120646F6E6F72000000 PUSH0 DUP3 ADD MSTORE POP JUMP JUMPDEST PUSH0 PUSH2 0x1BDB PUSH1 0x1D DUP4 PUSH2 0x1684 JUMP JUMPDEST SWAP2 POP PUSH2 0x1BE6 DUP3 PUSH2 0x1BA7 JUMP JUMPDEST PUSH1 0x20 DUP3 ADD SWAP1 POP SWAP2 SWAP1 POP JUMP JUMPDEST PUSH0 PUSH1 0x20 DUP3 ADD SWAP1 POP DUP2 DUP2 SUB PUSH0 DUP4 ADD MSTORE PUSH2 0x1C08 DUP2 PUSH2 0x1BCF JUMP JUMPDEST SWAP1 POP SWAP2 SWAP1 POP JUMP JUMPDEST PUSH32 0x4E6F742072656769737465726564206173206120646F6E6F7200000000000000 PUSH0 DUP3 ADD MSTORE POP JUMP JUMPDEST PUSH0 PUSH2 0x1C43 PUSH1 0x19 DUP4 PUSH2 0x1684 JUMP JUMPDEST SWAP2 POP PUSH2 0x1C4E DUP3 PUSH2 0x1C0F JUMP JUMPDEST PUSH1 0x20 DUP3 ADD SWAP1 POP SWAP2 SWAP1 POP JUMP JUMPDEST PUSH0 PUSH1 0x20 DUP3 ADD SWAP1 POP DUP2 DUP2 SUB PUSH0 DUP4 ADD MSTORE PUSH2 0x1C70 DUP2 PUSH2 0x1C37 JUMP JUMPDEST SWAP1 POP SWAP2 SWAP1 POP JUMP JUMPDEST PUSH32 0x496E76616C696420626C6F6F642062616E6B2061646472657373000000000000 PUSH0 DUP3 ADD MSTORE POP JUMP JUMPDEST PUSH0 PUSH2 0x1CAB PUSH1 0x1A DUP4 PUSH2 0x1684 JUMP JUMPDEST SWAP2 POP PUSH2 0x1CB6 DUP3 PUSH2 0x1C77 JUMP JUMPDEST PUSH1 0x20 DUP3 ADD SWAP1 POP SWAP2 SWAP1 POP JUMP JUMPDEST PUSH0 PUSH1 0x20 DUP3 ADD SWAP1 POP DUP2 DUP2 SUB PUSH0 DUP4 ADD MSTORE PUSH2 0x1CD8 DUP2 PUSH2 0x1C9F JUMP JUMPDEST SWAP1 POP SWAP2 SWAP1 POP JUMP JUMPDEST PUSH32 0x4E487B7100000000000000000000000000000000000000000000000000000000 PUSH0 MSTORE PUSH1 0x11 PUSH1 0x4 MSTORE PUSH1 0x24 PUSH0 REVERT JUMPDEST PUSH0 PUSH2 0x1D16 DUP3 PUSH2 0x12A1 JUMP JUMPDEST SWAP2 POP PUSH2 0x1D21 DUP4 PUSH2 0x12A1 JUMP JUMPDEST SWAP3 POP DUP3 DUP3 ADD SWAP1 POP DUP1 DUP3 GT ISZERO PUSH2 0x1D39 JUMPI PUSH2 0x1D38 PUSH2 0x1CDF JUMP JUMPDEST JUMPDEST SWAP3 SWAP2 POP POP JUMP JUMPDEST PUSH32 0x4D696E696D756D20646F6E6174696F6E20696E74657276616C206E6F74206D65 PUSH0 DUP3 ADD MSTORE PUSH32 0x7400000000000000000000000000000000000000000000000000000000000000 PUSH1 0x20 DUP3 ADD MSTORE POP JUMP JUMPDEST PUSH0 PUSH2 0x1D99 PUSH1 0x21 DUP4 PUSH2 0x1684 JUMP JUMPDEST SWAP2 POP PUSH2 0x1DA4 DUP3 PUSH2 0x1D3F JUMP JUMPDEST PUSH1 0x40 DUP3 ADD SWAP1 POP SWAP2 SWAP1 POP JUMP JUMPDEST PUSH0 PUSH1 0x20 DUP3 ADD SWAP1 POP DUP2 DUP2 SUB PUSH0 DUP4 ADD MSTORE PUSH2 0x1DC6 DUP2 PUSH2 0x1D8D JUMP JUMPDEST SWAP1 POP SWAP2 SWAP1 POP JUMP JUMPDEST PUSH1 0x8 DUP2 LT PUSH2 0x1DDE JUMPI PUSH2 0x1DDD PUSH2 0x17FC JUMP JUMPDEST JUMPDEST POP JUMP JUMPDEST PUSH0 DUP2 SWAP1 POP PUSH2 0x1DEE DUP3 PUSH2 0x1DCD JUMP JUMPDEST SWAP2 SWAP1 POP JUMP JUMPDEST PUSH0 PUSH2 0x1DFD DUP3 PUSH2 0x1DE1 JUMP JUMPDEST SWAP1 POP SWAP2 SWAP1 POP JUMP JUMPDEST PUSH2 0x1E0D DUP2 PUSH2 0x1DF3 JUMP JUMPDEST DUP3 MSTORE POP POP JUMP JUMPDEST PUSH0 PUSH1 0x40 DUP3 ADD SWAP1 POP PUSH2 0x1E26 PUSH0 DUP4 ADD DUP6 PUSH2 0x1E04 JUMP JUMPDEST PUSH2 0x1E33 PUSH1 0x20 DUP4 ADD DUP5 PUSH2 0x1746 JUMP JUMPDEST SWAP4 SWAP3 POP POP POP JUMP INVALID LOG2 PUSH5 0x6970667358 0x22 SLT KECCAK256 LOG0 PUSH23 0x870724805CFA5A0BB326D98F2B246C2D767439915D04B3 0x2D 0x22 GT CODECOPY GASLIMIT DELEGATECALL 0xE7 PUSH5 0x736F6C6343 STOP ADDMOD NOT STOP CALLER "
				},
				"gasEstimates": {
					"creation": {
						"codeDepositCost": "1558400",
						"executionCost": "23735",
						"totalCost": "1582135"
					},
					"external": {
						"bloodBankAddresses(uint256)": "4943",
						"bloodBanks(address)": "infinite",
						"donateBlood(address,uint256)": "infinite",
						"getBloodBankAddresses()": "infinite",
						"getBloodStock(address)": "infinite",
						"getDonationHistory(address)": "infinite",
						"isBloodBankRegistered(address)": "2898",
						"isDonor(address)": "2878",
						"minDonationInterval()": "2535",
						"registerBloodBank(string)": "infinite",
						"registerDonor(string,uint8)": "infinite"
					}
				},
				"methodIdentifiers": {
					"bloodBankAddresses(uint256)": "6549a877",
					"bloodBanks(address)": "c27f2db7",
					"donateBlood(address,uint256)": "ce99e2ca",
					"getBloodBankAddresses()": "2413bd7f",
					"getBloodStock(address)": "40c5fae6",
					"getDonationHistory(address)": "a59fe388",
					"isBloodBankRegistered(address)": "1260d846",
					"isDonor(address)": "2bc3d7aa",
					"minDonationInterval()": "e3fb81e2",
					"registerBloodBank(string)": "52885df5",
					"registerDonor(string,uint8)": "8188fe35"
				}
			},
			"storageLayout": {
				"storage": [
					{
						"astId": 42,
						"contract": "contracts/bood.sol:BloodDonationSystem",
						"label": "bloodBankAddresses",
						"offset": 0,
						"slot": "0",
						"type": "t_array(t_address)dyn_storage"
					},
					{
						"astId": 47,
						"contract": "contracts/bood.sol:BloodDonationSystem",
						"label": "bloodBanks",
						"offset": 0,
						"slot": "1",
						"type": "t_mapping(t_address,t_struct(BloodBank)39_storage)"
					},
					{
						"astId": 51,
						"contract": "contracts/bood.sol:BloodDonationSystem",
						"label": "isDonor",
						"offset": 0,
						"slot": "2",
						"type": "t_mapping(t_address,t_bool)"
					},
					{
						"astId": 54,
						"contract": "contracts/bood.sol:BloodDonationSystem",
						"label": "minDonationInterval",
						"offset": 0,
						"slot": "3",
						"type": "t_uint256"
					}
				],
				"types": {
					"t_address": {
						"encoding": "inplace",
						"label": "address",
						"numberOfBytes": "20"
					},
					"t_array(t_address)dyn_storage": {
						"base": "t_address",
						"encoding": "dynamic_array",
						"label": "address[]",
						"numberOfBytes": "32"
					},
					"t_bool": {
						"encoding": "inplace",
						"label": "bool",
						"numberOfBytes": "1"
					},
					"t_enum(BloodType)10": {
						"encoding": "inplace",
						"label": "enum BloodDonationSystem.BloodType",
						"numberOfBytes": "1"
					},
					"t_mapping(t_address,t_bool)": {
						"encoding": "mapping",
						"key": "t_address",
						"label": "mapping(address => bool)",
						"numberOfBytes": "32",
						"value": "t_bool"
					},
					"t_mapping(t_address,t_struct(BloodBank)39_storage)": {
						"encoding": "mapping",
						"key": "t_address",
						"label": "mapping(address => struct BloodDonationSystem.BloodBank)",
						"numberOfBytes": "32",
						"value": "t_struct(BloodBank)39_storage"
					},
					"t_mapping(t_address,t_struct(Donor)24_storage)": {
						"encoding": "mapping",
						"key": "t_address",
						"label": "mapping(address => struct BloodDonationSystem.Donor)",
						"numberOfBytes": "32",
						"value": "t_struct(Donor)24_storage"
					},
					"t_mapping(t_address,t_uint256)": {
						"encoding": "mapping",
						"key": "t_address",
						"label": "mapping(address => uint256)",
						"numberOfBytes": "32",
						"value": "t_uint256"
					},
					"t_mapping(t_enum(BloodType)10,t_uint256)": {
						"encoding": "mapping",
						"key": "t_enum(BloodType)10",
						"label": "mapping(enum BloodDonationSystem.BloodType => uint256)",
						"numberOfBytes": "32",
						"value": "t_uint256"
					},
					"t_string_storage": {
						"encoding": "bytes",
						"label": "string",
						"numberOfBytes": "32"
					},
					"t_struct(BloodBank)39_storage": {
						"encoding": "inplace",
						"label": "struct BloodDonationSystem.BloodBank",
						"members": [
							{
								"astId": 26,
								"contract": "contracts/bood.sol:BloodDonationSystem",
								"label": "name",
								"offset": 0,
								"slot": "0",
								"type": "t_string_storage"
							},
							{
								"astId": 28,
								"contract": "contracts/bood.sol:BloodDonationSystem",
								"label": "owner",
								"offset": 0,
								"slot": "1",
								"type": "t_address"
							},
							{
								"astId": 33,
								"contract": "contracts/bood.sol:BloodDonationSystem",
								"label": "bloodStock",
								"offset": 0,
								"slot": "2",
								"type": "t_mapping(t_enum(BloodType)10,t_uint256)"
							},
							{
								"astId": 38,
								"contract": "contracts/bood.sol:BloodDonationSystem",
								"label": "donors",
								"offset": 0,
								"slot": "3",
								"type": "t_mapping(t_address,t_struct(Donor)24_storage)"
							}
						],
						"numberOfBytes": "128"
					},
					"t_struct(Donor)24_storage": {
						"encoding": "inplace",
						"label": "struct BloodDonationSystem.Donor",
						"members": [
							{
								"astId": 12,
								"contract": "contracts/bood.sol:BloodDonationSystem",
								"label": "name",
								"offset": 0,
								"slot": "0",
								"type": "t_string_storage"
							},
							{
								"astId": 14,
								"contract": "contracts/bood.sol:BloodDonationSystem",
								"label": "donorAddress",
								"offset": 0,
								"slot": "1",
								"type": "t_address"
							},
							{
								"astId": 17,
								"contract": "contracts/bood.sol:BloodDonationSystem",
								"label": "bloodType",
								"offset": 20,
								"slot": "1",
								"type": "t_enum(BloodType)10"
							},
							{
								"astId": 19,
								"contract": "contracts/bood.sol:BloodDonationSystem",
								"label": "lastDonationTime",
								"offset": 0,
								"slot": "2",
								"type": "t_uint256"
							},
							{
								"astId": 23,
								"contract": "contracts/bood.sol:BloodDonationSystem",
								"label": "donationHistory",
								"offset": 0,
								"slot": "3",
								"type": "t_mapping(t_address,t_uint256)"
							}
						],
						"numberOfBytes": "128"
					},
					"t_uint256": {
						"encoding": "inplace",
						"label": "uint256",
						"numberOfBytes": "32"
					}
				}
			},
			"userdoc": {
				"kind": "user",
				"methods": {},
				"version": 1
			}
		}
	}
}