{
	"data": {
		"bytecode": {
			"linkReferences": {},
			"object": "608060405234801562000010575f80fd5b50604051620010ad380380620010ad83398181016040528101906200003691906200025e565b815f806101000a81548173ffffffffffffffffffffffffffffffffffffffff021916908373ffffffffffffffffffffffffffffffffffffffff1602179055508060015f6101000a81548173ffffffffffffffffffffffffffffffffffffffff021916908373ffffffffffffffffffffffffffffffffffffffff1602179055505f8054906101000a900473ffffffffffffffffffffffffffffffffffffffff1673ffffffffffffffffffffffffffffffffffffffff1663f7ea7a3d5f8054906101000a900473ffffffffffffffffffffffffffffffffffffffff1673ffffffffffffffffffffffffffffffffffffffff1663313ce5676040518163ffffffff1660e01b8152600401602060405180830381865afa15801562000159573d5f803e3d5ffd5b505050506040513d601f19601f820116820180604052508101906200017f9190620002de565b600a6200018d919062000494565b620186a06200019d9190620004e4565b6040518263ffffffff1660e01b8152600401620001bb91906200053f565b5f604051808303815f87803b158015620001d3575f80fd5b505af1158015620001e6573d5f803e3d5ffd5b505050504260028190555050506200055a565b5f80fd5b5f73ffffffffffffffffffffffffffffffffffffffff82169050919050565b5f6200022882620001fd565b9050919050565b6200023a816200021c565b811462000245575f80fd5b50565b5f8151905062000258816200022f565b92915050565b5f8060408385031215620002775762000276620001f9565b5b5f620002868582860162000248565b9250506020620002998582860162000248565b9150509250929050565b5f60ff82169050919050565b620002ba81620002a3565b8114620002c5575f80fd5b50565b5f81519050620002d881620002af565b92915050565b5f60208284031215620002f657620002f5620001f9565b5b5f6200030584828501620002c8565b91505092915050565b7f4e487b71000000000000000000000000000000000000000000000000000000005f52601160045260245ffd5b5f8160011c9050919050565b5f808291508390505b6001851115620003985780860481111562000370576200036f6200030e565b5b6001851615620003805780820291505b808102905062000390856200033b565b945062000350565b94509492505050565b5f82620003b2576001905062000484565b81620003c1575f905062000484565b8160018114620003da5760028114620003e5576200041b565b600191505062000484565b60ff841115620003fa57620003f96200030e565b5b8360020a9150848211156200041457620004136200030e565b5b5062000484565b5060208310610133831016604e8410600b8410161715620004555782820a9050838111156200044f576200044e6200030e565b5b62000484565b62000464848484600162000347565b925090508184048111156200047e576200047d6200030e565b5b81810290505b9392505050565b5f819050919050565b5f620004a0826200048b565b9150620004ad83620002a3565b9250620004dc7fffffffffffffffffffffffffffffffffffffffffffffffffffffffffffffffff8484620003a1565b905092915050565b5f620004f0826200048b565b9150620004fd836200048b565b92508282026200050d816200048b565b915082820484148315176200052757620005266200030e565b5b5092915050565b62000539816200048b565b82525050565b5f602082019050620005545f8301846200052e565b92915050565b610b4580620005685f395ff3fe608060405234801561000f575f80fd5b506004361061004a575f3560e01c8063acd6325c1461004e578063af14052c1461006c578063af7665ce14610076578063b86a2fd714610094575b5f80fd5b6100566100b2565b604051610063919061061e565b60405180910390f35b6100746100d5565b005b61007e610579565b60405161008b9190610657565b60405180910390f35b61009c61059e565b6040516100a99190610688565b60405180910390f35b5f8054906101000a900473ffffffffffffffffffffffffffffffffffffffff1681565b5f805f9054906101000a900473ffffffffffffffffffffffffffffffffffffffff1673ffffffffffffffffffffffffffffffffffffffff166318160ddd6040518163ffffffff1660e01b8152600401602060405180830381865afa15801561013f573d5f803e3d5ffd5b505050506040513d601f19601f8201168201806040525081019061016391906106cf565b90505f60015f9054906101000a900473ffffffffffffffffffffffffffffffffffffffff1673ffffffffffffffffffffffffffffffffffffffff1663feaf968c6040518163ffffffff1660e01b815260040160a060405180830381865afa1580156101d0573d5f803e3d5ffd5b505050506040513d601f19601f820116820180604052508101906101f4919061076c565b5050509150505f8190505f670de0b6b3a764000090505f825f8054906101000a900473ffffffffffffffffffffffffffffffffffffffff1673ffffffffffffffffffffffffffffffffffffffff1663313ce5676040518163ffffffff1660e01b8152600401602060405180830381865afa158015610274573d5f803e3d5ffd5b505050506040513d601f19601f820116820180604052508101906102989190610819565b600a6102a491906109a0565b83876102b091906109ea565b6102ba91906109ea565b6102c49190610a58565b90505f8054906101000a900473ffffffffffffffffffffffffffffffffffffffff1673ffffffffffffffffffffffffffffffffffffffff1663f7ea7a3d826040518263ffffffff1660e01b815260040161031e9190610688565b5f604051808303815f87803b158015610335575f80fd5b505af1158015610347573d5f803e3d5ffd5b50505050426002819055505f805f9054906101000a900473ffffffffffffffffffffffffffffffffffffffff1673ffffffffffffffffffffffffffffffffffffffff1663c69199e16040518163ffffffff1660e01b8152600401602060405180830381865afa1580156103bc573d5f803e3d5ffd5b505050506040513d601f19601f820116820180604052508101906103e091906106cf565b90505f5b81811015610537575f8190505f805f9054906101000a900473ffffffffffffffffffffffffffffffffffffffff1673ffffffffffffffffffffffffffffffffffffffff166327e235e3836040518263ffffffff1660e01b815260040161044a9190610aa8565b602060405180830381865afa158015610465573d5f803e3d5ffd5b505050506040513d601f19601f8201168201806040525081019061048991906106cf565b90505f8054906101000a900473ffffffffffffffffffffffffffffffffffffffff1673ffffffffffffffffffffffffffffffffffffffff1663e30443bc838b88856104d491906109ea565b6104de9190610a58565b6040518363ffffffff1660e01b81526004016104fb929190610ac1565b5f604051808303815f87803b158015610512575f80fd5b505af1158015610524573d5f803e3d5ffd5b50505050505080806001019150506103e4565b507f11c6bf55864ff83827df712625d7a80e5583eef0264921025e7cd22003a215118683604051610569929190610ae8565b60405180910390a1505050505050565b60015f9054906101000a900473ffffffffffffffffffffffffffffffffffffffff1681565b60025481565b5f73ffffffffffffffffffffffffffffffffffffffff82169050919050565b5f819050919050565b5f6105e66105e16105dc846105a4565b6105c3565b6105a4565b9050919050565b5f6105f7826105cc565b9050919050565b5f610608826105ed565b9050919050565b610618816105fe565b82525050565b5f6020820190506106315f83018461060f565b92915050565b5f610641826105ed565b9050919050565b61065181610637565b82525050565b5f60208201905061066a5f830184610648565b92915050565b5f819050919050565b61068281610670565b82525050565b5f60208201905061069b5f830184610679565b92915050565b5f80fd5b6106ae81610670565b81146106b8575f80fd5b50565b5f815190506106c9816106a5565b92915050565b5f602082840312156106e4576106e36106a1565b5b5f6106f1848285016106bb565b91505092915050565b5f69ffffffffffffffffffff82169050919050565b610718816106fa565b8114610722575f80fd5b50565b5f815190506107338161070f565b92915050565b5f819050919050565b61074b81610739565b8114610755575f80fd5b50565b5f8151905061076681610742565b92915050565b5f805f805f60a08688031215610785576107846106a1565b5b5f61079288828901610725565b95505060206107a388828901610758565b94505060406107b4888289016106bb565b93505060606107c5888289016106bb565b92505060806107d688828901610725565b9150509295509295909350565b5f60ff82169050919050565b6107f8816107e3565b8114610802575f80fd5b50565b5f81519050610813816107ef565b92915050565b5f6020828403121561082e5761082d6106a1565b5b5f61083b84828501610805565b91505092915050565b7f4e487b71000000000000000000000000000000000000000000000000000000005f52601160045260245ffd5b5f8160011c9050919050565b5f808291508390505b60018511156108c6578086048111156108a2576108a1610844565b5b60018516156108b15780820291505b80810290506108bf85610871565b9450610886565b94509492505050565b5f826108de5760019050610999565b816108eb575f9050610999565b8160018114610901576002811461090b5761093a565b6001915050610999565b60ff84111561091d5761091c610844565b5b8360020a91508482111561093457610933610844565b5b50610999565b5060208310610133831016604e8410600b841016171561096f5782820a90508381111561096a57610969610844565b5b610999565b61097c848484600161087d565b9250905081840481111561099357610992610844565b5b81810290505b9392505050565b5f6109aa82610670565b91506109b5836107e3565b92506109e27fffffffffffffffffffffffffffffffffffffffffffffffffffffffffffffffff84846108cf565b905092915050565b5f6109f482610670565b91506109ff83610670565b9250828202610a0d81610670565b91508282048414831517610a2457610a23610844565b5b5092915050565b7f4e487b71000000000000000000000000000000000000000000000000000000005f52601260045260245ffd5b5f610a6282610670565b9150610a6d83610670565b925082610a7d57610a7c610a2b565b5b828204905092915050565b5f610a92826105a4565b9050919050565b610aa281610a88565b82525050565b5f602082019050610abb5f830184610a99565b92915050565b5f604082019050610ad45f830185610a99565b610ae16020830184610679565b9392505050565b5f604082019050610afb5f830185610679565b610b086020830184610679565b939250505056fea2646970667358221220e7e8c5567712bfa50b76d5d9757055f4d57e9c18272271aa4727272ac4521d0e64736f6c63430008180033",
			"opcodes": "PUSH1 0x80 PUSH1 0x40 MSTORE CALLVALUE DUP1 ISZERO PUSH3 0x10 JUMPI PUSH0 DUP1 REVERT JUMPDEST POP PUSH1 0x40 MLOAD PUSH3 0x10AD CODESIZE SUB DUP1 PUSH3 0x10AD DUP4 CODECOPY DUP2 DUP2 ADD PUSH1 0x40 MSTORE DUP2 ADD SWAP1 PUSH3 0x36 SWAP2 SWAP1 PUSH3 0x25E JUMP JUMPDEST DUP2 PUSH0 DUP1 PUSH2 0x100 EXP DUP2 SLOAD DUP2 PUSH20 0xFFFFFFFFFFFFFFFFFFFFFFFFFFFFFFFFFFFFFFFF MUL NOT AND SWAP1 DUP4 PUSH20 0xFFFFFFFFFFFFFFFFFFFFFFFFFFFFFFFFFFFFFFFF AND MUL OR SWAP1 SSTORE POP DUP1 PUSH1 0x1 PUSH0 PUSH2 0x100 EXP DUP2 SLOAD DUP2 PUSH20 0xFFFFFFFFFFFFFFFFFFFFFFFFFFFFFFFFFFFFFFFF MUL NOT AND SWAP1 DUP4 PUSH20 0xFFFFFFFFFFFFFFFFFFFFFFFFFFFFFFFFFFFFFFFF AND MUL OR SWAP1 SSTORE POP PUSH0 DUP1 SLOAD SWAP1 PUSH2 0x100 EXP SWAP1 DIV PUSH20 0xFFFFFFFFFFFFFFFFFFFFFFFFFFFFFFFFFFFFFFFF AND PUSH20 0xFFFFFFFFFFFFFFFFFFFFFFFFFFFFFFFFFFFFFFFF AND PUSH4 0xF7EA7A3D PUSH0 DUP1 SLOAD SWAP1 PUSH2 0x100 EXP SWAP1 DIV PUSH20 0xFFFFFFFFFFFFFFFFFFFFFFFFFFFFFFFFFFFFFFFF AND PUSH20 0xFFFFFFFFFFFFFFFFFFFFFFFFFFFFFFFFFFFFFFFF AND PUSH4 0x313CE567 PUSH1 0x40 MLOAD DUP2 PUSH4 0xFFFFFFFF AND PUSH1 0xE0 SHL DUP2 MSTORE PUSH1 0x4 ADD PUSH1 0x20 PUSH1 0x40 MLOAD DUP1 DUP4 SUB DUP2 DUP7 GAS STATICCALL ISZERO DUP1 ISZERO PUSH3 0x159 JUMPI RETURNDATASIZE PUSH0 DUP1 RETURNDATACOPY RETURNDATASIZE PUSH0 REVERT JUMPDEST POP POP POP POP PUSH1 0x40 MLOAD RETURNDATASIZE PUSH1 0x1F NOT PUSH1 0x1F DUP3 ADD AND DUP3 ADD DUP1 PUSH1 0x40 MSTORE POP DUP2 ADD SWAP1 PUSH3 0x17F SWAP2 SWAP1 PUSH3 0x2DE JUMP JUMPDEST PUSH1 0xA PUSH3 0x18D SWAP2 SWAP1 PUSH3 0x494 JUMP JUMPDEST PUSH3 0x186A0 PUSH3 0x19D SWAP2 SWAP1 PUSH3 0x4E4 JUMP JUMPDEST PUSH1 0x40 MLOAD DUP3 PUSH4 0xFFFFFFFF AND PUSH1 0xE0 SHL DUP2 MSTORE PUSH1 0x4 ADD PUSH3 0x1BB SWAP2 SWAP1 PUSH3 0x53F JUMP JUMPDEST PUSH0 PUSH1 0x40 MLOAD DUP1 DUP4 SUB DUP2 PUSH0 DUP8 DUP1 EXTCODESIZE ISZERO DUP1 ISZERO PUSH3 0x1D3 JUMPI PUSH0 DUP1 REVERT JUMPDEST POP GAS CALL ISZERO DUP1 ISZERO PUSH3 0x1E6 JUMPI RETURNDATASIZE PUSH0 DUP1 RETURNDATACOPY RETURNDATASIZE PUSH0 REVERT JUMPDEST POP POP POP POP TIMESTAMP PUSH1 0x2 DUP2 SWAP1 SSTORE POP POP POP PUSH3 0x55A JUMP JUMPDEST PUSH0 DUP1 REVERT JUMPDEST PUSH0 PUSH20 0xFFFFFFFFFFFFFFFFFFFFFFFFFFFFFFFFFFFFFFFF DUP3 AND SWAP1 POP SWAP2 SWAP1 POP JUMP JUMPDEST PUSH0 PUSH3 0x228 DUP3 PUSH3 0x1FD JUMP JUMPDEST SWAP1 POP SWAP2 SWAP1 POP JUMP JUMPDEST PUSH3 0x23A DUP2 PUSH3 0x21C JUMP JUMPDEST DUP2 EQ PUSH3 0x245 JUMPI PUSH0 DUP1 REVERT JUMPDEST POP JUMP JUMPDEST PUSH0 DUP2 MLOAD SWAP1 POP PUSH3 0x258 DUP2 PUSH3 0x22F JUMP JUMPDEST SWAP3 SWAP2 POP POP JUMP JUMPDEST PUSH0 DUP1 PUSH1 0x40 DUP4 DUP6 SUB SLT ISZERO PUSH3 0x277 JUMPI PUSH3 0x276 PUSH3 0x1F9 JUMP JUMPDEST JUMPDEST PUSH0 PUSH3 0x286 DUP6 DUP3 DUP7 ADD PUSH3 0x248 JUMP JUMPDEST SWAP3 POP POP PUSH1 0x20 PUSH3 0x299 DUP6 DUP3 DUP7 ADD PUSH3 0x248 JUMP JUMPDEST SWAP2 POP POP SWAP3 POP SWAP3 SWAP1 POP JUMP JUMPDEST PUSH0 PUSH1 0xFF DUP3 AND SWAP1 POP SWAP2 SWAP1 POP JUMP JUMPDEST PUSH3 0x2BA DUP2 PUSH3 0x2A3 JUMP JUMPDEST DUP2 EQ PUSH3 0x2C5 JUMPI PUSH0 DUP1 REVERT JUMPDEST POP JUMP JUMPDEST PUSH0 DUP2 MLOAD SWAP1 POP PUSH3 0x2D8 DUP2 PUSH3 0x2AF JUMP JUMPDEST SWAP3 SWAP2 POP POP JUMP JUMPDEST PUSH0 PUSH1 0x20 DUP3 DUP5 SUB SLT ISZERO PUSH3 0x2F6 JUMPI PUSH3 0x2F5 PUSH3 0x1F9 JUMP JUMPDEST JUMPDEST PUSH0 PUSH3 0x305 DUP5 DUP3 DUP6 ADD PUSH3 0x2C8 JUMP JUMPDEST SWAP2 POP POP SWAP3 SWAP2 POP POP JUMP JUMPDEST PUSH32 0x4E487B7100000000000000000000000000000000000000000000000000000000 PUSH0 MSTORE PUSH1 0x11 PUSH1 0x4 MSTORE PUSH1 0x24 PUSH0 REVERT JUMPDEST PUSH0 DUP2 PUSH1 0x1 SHR SWAP1 POP SWAP2 SWAP1 POP JUMP JUMPDEST PUSH0 DUP1 DUP3 SWAP2 POP DUP4 SWAP1 POP JUMPDEST PUSH1 0x1 DUP6 GT ISZERO PUSH3 0x398 JUMPI DUP1 DUP7 DIV DUP2 GT ISZERO PUSH3 0x370 JUMPI PUSH3 0x36F PUSH3 0x30E JUMP JUMPDEST JUMPDEST PUSH1 0x1 DUP6 AND ISZERO PUSH3 0x380 JUMPI DUP1 DUP3 MUL SWAP2 POP JUMPDEST DUP1 DUP2 MUL SWAP1 POP PUSH3 0x390 DUP6 PUSH3 0x33B JUMP JUMPDEST SWAP5 POP PUSH3 0x350 JUMP JUMPDEST SWAP5 POP SWAP5 SWAP3 POP POP POP JUMP JUMPDEST PUSH0 DUP3 PUSH3 0x3B2 JUMPI PUSH1 0x1 SWAP1 POP PUSH3 0x484 JUMP JUMPDEST DUP2 PUSH3 0x3C1 JUMPI PUSH0 SWAP1 POP PUSH3 0x484 JUMP JUMPDEST DUP2 PUSH1 0x1 DUP2 EQ PUSH3 0x3DA JUMPI PUSH1 0x2 DUP2 EQ PUSH3 0x3E5 JUMPI PUSH3 0x41B JUMP JUMPDEST PUSH1 0x1 SWAP2 POP POP PUSH3 0x484 JUMP JUMPDEST PUSH1 0xFF DUP5 GT ISZERO PUSH3 0x3FA JUMPI PUSH3 0x3F9 PUSH3 0x30E JUMP JUMPDEST JUMPDEST DUP4 PUSH1 0x2 EXP SWAP2 POP DUP5 DUP3 GT ISZERO PUSH3 0x414 JUMPI PUSH3 0x413 PUSH3 0x30E JUMP JUMPDEST JUMPDEST POP PUSH3 0x484 JUMP JUMPDEST POP PUSH1 0x20 DUP4 LT PUSH2 0x133 DUP4 LT AND PUSH1 0x4E DUP5 LT PUSH1 0xB DUP5 LT AND OR ISZERO PUSH3 0x455 JUMPI DUP3 DUP3 EXP SWAP1 POP DUP4 DUP2 GT ISZERO PUSH3 0x44F JUMPI PUSH3 0x44E PUSH3 0x30E JUMP JUMPDEST JUMPDEST PUSH3 0x484 JUMP JUMPDEST PUSH3 0x464 DUP5 DUP5 DUP5 PUSH1 0x1 PUSH3 0x347 JUMP JUMPDEST SWAP3 POP SWAP1 POP DUP2 DUP5 DIV DUP2 GT ISZERO PUSH3 0x47E JUMPI PUSH3 0x47D PUSH3 0x30E JUMP JUMPDEST JUMPDEST DUP2 DUP2 MUL SWAP1 POP JUMPDEST SWAP4 SWAP3 POP POP POP JUMP JUMPDEST PUSH0 DUP2 SWAP1 POP SWAP2 SWAP1 POP JUMP JUMPDEST PUSH0 PUSH3 0x4A0 DUP3 PUSH3 0x48B JUMP JUMPDEST SWAP2 POP PUSH3 0x4AD DUP4 PUSH3 0x2A3 JUMP JUMPDEST SWAP3 POP PUSH3 0x4DC PUSH32 0xFFFFFFFFFFFFFFFFFFFFFFFFFFFFFFFFFFFFFFFFFFFFFFFFFFFFFFFFFFFFFFFF DUP5 DUP5 PUSH3 0x3A1 JUMP JUMPDEST SWAP1 POP SWAP3 SWAP2 POP POP JUMP JUMPDEST PUSH0 PUSH3 0x4F0 DUP3 PUSH3 0x48B JUMP JUMPDEST SWAP2 POP PUSH3 0x4FD DUP4 PUSH3 0x48B JUMP JUMPDEST SWAP3 POP DUP3 DUP3 MUL PUSH3 0x50D DUP2 PUSH3 0x48B JUMP JUMPDEST SWAP2 POP DUP3 DUP3 DIV DUP5 EQ DUP4 ISZERO OR PUSH3 0x527 JUMPI PUSH3 0x526 PUSH3 0x30E JUMP JUMPDEST JUMPDEST POP SWAP3 SWAP2 POP POP JUMP JUMPDEST PUSH3 0x539 DUP2 PUSH3 0x48B JUMP JUMPDEST DUP3 MSTORE POP POP JUMP JUMPDEST PUSH0 PUSH1 0x20 DUP3 ADD SWAP1 POP PUSH3 0x554 PUSH0 DUP4 ADD DUP5 PUSH3 0x52E JUMP JUMPDEST SWAP3 SWAP2 POP POP JUMP JUMPDEST PUSH2 0xB45 DUP1 PUSH3 0x568 PUSH0 CODECOPY PUSH0 RETURN INVALID PUSH1 0x80 PUSH1 0x40 MSTORE CALLVALUE DUP1 ISZERO PUSH2 0xF JUMPI PUSH0 DUP1 REVERT JUMPDEST POP PUSH1 0x4 CALLDATASIZE LT PUSH2 0x4A JUMPI PUSH0 CALLDATALOAD PUSH1 0xE0 SHR DUP1 PUSH4 0xACD6325C EQ PUSH2 0x4E JUMPI DUP1 PUSH4 0xAF14052C EQ PUSH2 0x6C JUMPI DUP1 PUSH4 0xAF7665CE EQ PUSH2 0x76 JUMPI DUP1 PUSH4 0xB86A2FD7 EQ PUSH2 0x94 JUMPI JUMPDEST PUSH0 DUP1 REVERT JUMPDEST PUSH2 0x56 PUSH2 0xB2 JUMP JUMPDEST PUSH1 0x40 MLOAD PUSH2 0x63 SWAP2 SWAP1 PUSH2 0x61E JUMP JUMPDEST PUSH1 0x40 MLOAD DUP1 SWAP2 SUB SWAP1 RETURN JUMPDEST PUSH2 0x74 PUSH2 0xD5 JUMP JUMPDEST STOP JUMPDEST PUSH2 0x7E PUSH2 0x579 JUMP JUMPDEST PUSH1 0x40 MLOAD PUSH2 0x8B SWAP2 SWAP1 PUSH2 0x657 JUMP JUMPDEST PUSH1 0x40 MLOAD DUP1 SWAP2 SUB SWAP1 RETURN JUMPDEST PUSH2 0x9C PUSH2 0x59E JUMP JUMPDEST PUSH1 0x40 MLOAD PUSH2 0xA9 SWAP2 SWAP1 PUSH2 0x688 JUMP JUMPDEST PUSH1 0x40 MLOAD DUP1 SWAP2 SUB SWAP1 RETURN JUMPDEST PUSH0 DUP1 SLOAD SWAP1 PUSH2 0x100 EXP SWAP1 DIV PUSH20 0xFFFFFFFFFFFFFFFFFFFFFFFFFFFFFFFFFFFFFFFF AND DUP2 JUMP JUMPDEST PUSH0 DUP1 PUSH0 SWAP1 SLOAD SWAP1 PUSH2 0x100 EXP SWAP1 DIV PUSH20 0xFFFFFFFFFFFFFFFFFFFFFFFFFFFFFFFFFFFFFFFF AND PUSH20 0xFFFFFFFFFFFFFFFFFFFFFFFFFFFFFFFFFFFFFFFF AND PUSH4 0x18160DDD PUSH1 0x40 MLOAD DUP2 PUSH4 0xFFFFFFFF AND PUSH1 0xE0 SHL DUP2 MSTORE PUSH1 0x4 ADD PUSH1 0x20 PUSH1 0x40 MLOAD DUP1 DUP4 SUB DUP2 DUP7 GAS STATICCALL ISZERO DUP1 ISZERO PUSH2 0x13F JUMPI RETURNDATASIZE PUSH0 DUP1 RETURNDATACOPY RETURNDATASIZE PUSH0 REVERT JUMPDEST POP POP POP POP PUSH1 0x40 MLOAD RETURNDATASIZE PUSH1 0x1F NOT PUSH1 0x1F DUP3 ADD AND DUP3 ADD DUP1 PUSH1 0x40 MSTORE POP DUP2 ADD SWAP1 PUSH2 0x163 SWAP2 SWAP1 PUSH2 0x6CF JUMP JUMPDEST SWAP1 POP PUSH0 PUSH1 0x1 PUSH0 SWAP1 SLOAD SWAP1 PUSH2 0x100 EXP SWAP1 DIV PUSH20 0xFFFFFFFFFFFFFFFFFFFFFFFFFFFFFFFFFFFFFFFF AND PUSH20 0xFFFFFFFFFFFFFFFFFFFFFFFFFFFFFFFFFFFFFFFF AND PUSH4 0xFEAF968C PUSH1 0x40 MLOAD DUP2 PUSH4 0xFFFFFFFF AND PUSH1 0xE0 SHL DUP2 MSTORE PUSH1 0x4 ADD PUSH1 0xA0 PUSH1 0x40 MLOAD DUP1 DUP4 SUB DUP2 DUP7 GAS STATICCALL ISZERO DUP1 ISZERO PUSH2 0x1D0 JUMPI RETURNDATASIZE PUSH0 DUP1 RETURNDATACOPY RETURNDATASIZE PUSH0 REVERT JUMPDEST POP POP POP POP PUSH1 0x40 MLOAD RETURNDATASIZE PUSH1 0x1F NOT PUSH1 0x1F DUP3 ADD AND DUP3 ADD DUP1 PUSH1 0x40 MSTORE POP DUP2 ADD SWAP1 PUSH2 0x1F4 SWAP2 SWAP1 PUSH2 0x76C JUMP JUMPDEST POP POP POP SWAP2 POP POP PUSH0 DUP2 SWAP1 POP PUSH0 PUSH8 0xDE0B6B3A7640000 SWAP1 POP PUSH0 DUP3 PUSH0 DUP1 SLOAD SWAP1 PUSH2 0x100 EXP SWAP1 DIV PUSH20 0xFFFFFFFFFFFFFFFFFFFFFFFFFFFFFFFFFFFFFFFF AND PUSH20 0xFFFFFFFFFFFFFFFFFFFFFFFFFFFFFFFFFFFFFFFF AND PUSH4 0x313CE567 PUSH1 0x40 MLOAD DUP2 PUSH4 0xFFFFFFFF AND PUSH1 0xE0 SHL DUP2 MSTORE PUSH1 0x4 ADD PUSH1 0x20 PUSH1 0x40 MLOAD DUP1 DUP4 SUB DUP2 DUP7 GAS STATICCALL ISZERO DUP1 ISZERO PUSH2 0x274 JUMPI RETURNDATASIZE PUSH0 DUP1 RETURNDATACOPY RETURNDATASIZE PUSH0 REVERT JUMPDEST POP POP POP POP PUSH1 0x40 MLOAD RETURNDATASIZE PUSH1 0x1F NOT PUSH1 0x1F DUP3 ADD AND DUP3 ADD DUP1 PUSH1 0x40 MSTORE POP DUP2 ADD SWAP1 PUSH2 0x298 SWAP2 SWAP1 PUSH2 0x819 JUMP JUMPDEST PUSH1 0xA PUSH2 0x2A4 SWAP2 SWAP1 PUSH2 0x9A0 JUMP JUMPDEST DUP4 DUP8 PUSH2 0x2B0 SWAP2 SWAP1 PUSH2 0x9EA JUMP JUMPDEST PUSH2 0x2BA SWAP2 SWAP1 PUSH2 0x9EA JUMP JUMPDEST PUSH2 0x2C4 SWAP2 SWAP1 PUSH2 0xA58 JUMP JUMPDEST SWAP1 POP PUSH0 DUP1 SLOAD SWAP1 PUSH2 0x100 EXP SWAP1 DIV PUSH20 0xFFFFFFFFFFFFFFFFFFFFFFFFFFFFFFFFFFFFFFFF AND PUSH20 0xFFFFFFFFFFFFFFFFFFFFFFFFFFFFFFFFFFFFFFFF AND PUSH4 0xF7EA7A3D DUP3 PUSH1 0x40 MLOAD DUP3 PUSH4 0xFFFFFFFF AND PUSH1 0xE0 SHL DUP2 MSTORE PUSH1 0x4 ADD PUSH2 0x31E SWAP2 SWAP1 PUSH2 0x688 JUMP JUMPDEST PUSH0 PUSH1 0x40 MLOAD DUP1 DUP4 SUB DUP2 PUSH0 DUP8 DUP1 EXTCODESIZE ISZERO DUP1 ISZERO PUSH2 0x335 JUMPI PUSH0 DUP1 REVERT JUMPDEST POP GAS CALL ISZERO DUP1 ISZERO PUSH2 0x347 JUMPI RETURNDATASIZE PUSH0 DUP1 RETURNDATACOPY RETURNDATASIZE PUSH0 REVERT JUMPDEST POP POP POP POP TIMESTAMP PUSH1 0x2 DUP2 SWAP1 SSTORE POP PUSH0 DUP1 PUSH0 SWAP1 SLOAD SWAP1 PUSH2 0x100 EXP SWAP1 DIV PUSH20 0xFFFFFFFFFFFFFFFFFFFFFFFFFFFFFFFFFFFFFFFF AND PUSH20 0xFFFFFFFFFFFFFFFFFFFFFFFFFFFFFFFFFFFFFFFF AND PUSH4 0xC69199E1 PUSH1 0x40 MLOAD DUP2 PUSH4 0xFFFFFFFF AND PUSH1 0xE0 SHL DUP2 MSTORE PUSH1 0x4 ADD PUSH1 0x20 PUSH1 0x40 MLOAD DUP1 DUP4 SUB DUP2 DUP7 GAS STATICCALL ISZERO DUP1 ISZERO PUSH2 0x3BC JUMPI RETURNDATASIZE PUSH0 DUP1 RETURNDATACOPY RETURNDATASIZE PUSH0 REVERT JUMPDEST POP POP POP POP PUSH1 0x40 MLOAD RETURNDATASIZE PUSH1 0x1F NOT PUSH1 0x1F DUP3 ADD AND DUP3 ADD DUP1 PUSH1 0x40 MSTORE POP DUP2 ADD SWAP1 PUSH2 0x3E0 SWAP2 SWAP1 PUSH2 0x6CF JUMP JUMPDEST SWAP1 POP PUSH0 JUMPDEST DUP2 DUP2 LT ISZERO PUSH2 0x537 JUMPI PUSH0 DUP2 SWAP1 POP PUSH0 DUP1 PUSH0 SWAP1 SLOAD SWAP1 PUSH2 0x100 EXP SWAP1 DIV PUSH20 0xFFFFFFFFFFFFFFFFFFFFFFFFFFFFFFFFFFFFFFFF AND PUSH20 0xFFFFFFFFFFFFFFFFFFFFFFFFFFFFFFFFFFFFFFFF AND PUSH4 0x27E235E3 DUP4 PUSH1 0x40 MLOAD DUP3 PUSH4 0xFFFFFFFF AND PUSH1 0xE0 SHL DUP2 MSTORE PUSH1 0x4 ADD PUSH2 0x44A SWAP2 SWAP1 PUSH2 0xAA8 JUMP JUMPDEST PUSH1 0x20 PUSH1 0x40 MLOAD DUP1 DUP4 SUB DUP2 DUP7 GAS STATICCALL ISZERO DUP1 ISZERO PUSH2 0x465 JUMPI RETURNDATASIZE PUSH0 DUP1 RETURNDATACOPY RETURNDATASIZE PUSH0 REVERT JUMPDEST POP POP POP POP PUSH1 0x40 MLOAD RETURNDATASIZE PUSH1 0x1F NOT PUSH1 0x1F DUP3 ADD AND DUP3 ADD DUP1 PUSH1 0x40 MSTORE POP DUP2 ADD SWAP1 PUSH2 0x489 SWAP2 SWAP1 PUSH2 0x6CF JUMP JUMPDEST SWAP1 POP PUSH0 DUP1 SLOAD SWAP1 PUSH2 0x100 EXP SWAP1 DIV PUSH20 0xFFFFFFFFFFFFFFFFFFFFFFFFFFFFFFFFFFFFFFFF AND PUSH20 0xFFFFFFFFFFFFFFFFFFFFFFFFFFFFFFFFFFFFFFFF AND PUSH4 0xE30443BC DUP4 DUP12 DUP9 DUP6 PUSH2 0x4D4 SWAP2 SWAP1 PUSH2 0x9EA JUMP JUMPDEST PUSH2 0x4DE SWAP2 SWAP1 PUSH2 0xA58 JUMP JUMPDEST PUSH1 0x40 MLOAD DUP4 PUSH4 0xFFFFFFFF AND PUSH1 0xE0 SHL DUP2 MSTORE PUSH1 0x4 ADD PUSH2 0x4FB SWAP3 SWAP2 SWAP1 PUSH2 0xAC1 JUMP JUMPDEST PUSH0 PUSH1 0x40 MLOAD DUP1 DUP4 SUB DUP2 PUSH0 DUP8 DUP1 EXTCODESIZE ISZERO DUP1 ISZERO PUSH2 0x512 JUMPI PUSH0 DUP1 REVERT JUMPDEST POP GAS CALL ISZERO DUP1 ISZERO PUSH2 0x524 JUMPI RETURNDATASIZE PUSH0 DUP1 RETURNDATACOPY RETURNDATASIZE PUSH0 REVERT JUMPDEST POP POP POP POP POP POP DUP1 DUP1 PUSH1 0x1 ADD SWAP2 POP POP PUSH2 0x3E4 JUMP JUMPDEST POP PUSH32 0x11C6BF55864FF83827DF712625D7A80E5583EEF0264921025E7CD22003A21511 DUP7 DUP4 PUSH1 0x40 MLOAD PUSH2 0x569 SWAP3 SWAP2 SWAP1 PUSH2 0xAE8 JUMP JUMPDEST PUSH1 0x40 MLOAD DUP1 SWAP2 SUB SWAP1 LOG1 POP POP POP POP POP POP JUMP JUMPDEST PUSH1 0x1 PUSH0 SWAP1 SLOAD SWAP1 PUSH2 0x100 EXP SWAP1 DIV PUSH20 0xFFFFFFFFFFFFFFFFFFFFFFFFFFFFFFFFFFFFFFFF AND DUP2 JUMP JUMPDEST PUSH1 0x2 SLOAD DUP2 JUMP JUMPDEST PUSH0 PUSH20 0xFFFFFFFFFFFFFFFFFFFFFFFFFFFFFFFFFFFFFFFF DUP3 AND SWAP1 POP SWAP2 SWAP1 POP JUMP JUMPDEST PUSH0 DUP2 SWAP1 POP SWAP2 SWAP1 POP JUMP JUMPDEST PUSH0 PUSH2 0x5E6 PUSH2 0x5E1 PUSH2 0x5DC DUP5 PUSH2 0x5A4 JUMP JUMPDEST PUSH2 0x5C3 JUMP JUMPDEST PUSH2 0x5A4 JUMP JUMPDEST SWAP1 POP SWAP2 SWAP1 POP JUMP JUMPDEST PUSH0 PUSH2 0x5F7 DUP3 PUSH2 0x5CC JUMP JUMPDEST SWAP1 POP SWAP2 SWAP1 POP JUMP JUMPDEST PUSH0 PUSH2 0x608 DUP3 PUSH2 0x5ED JUMP JUMPDEST SWAP1 POP SWAP2 SWAP1 POP JUMP JUMPDEST PUSH2 0x618 DUP2 PUSH2 0x5FE JUMP JUMPDEST DUP3 MSTORE POP POP JUMP JUMPDEST PUSH0 PUSH1 0x20 DUP3 ADD SWAP1 POP PUSH2 0x631 PUSH0 DUP4 ADD DUP5 PUSH2 0x60F JUMP JUMPDEST SWAP3 SWAP2 POP POP JUMP JUMPDEST PUSH0 PUSH2 0x641 DUP3 PUSH2 0x5ED JUMP JUMPDEST SWAP1 POP SWAP2 SWAP1 POP JUMP JUMPDEST PUSH2 0x651 DUP2 PUSH2 0x637 JUMP JUMPDEST DUP3 MSTORE POP POP JUMP JUMPDEST PUSH0 PUSH1 0x20 DUP3 ADD SWAP1 POP PUSH2 0x66A PUSH0 DUP4 ADD DUP5 PUSH2 0x648 JUMP JUMPDEST SWAP3 SWAP2 POP POP JUMP JUMPDEST PUSH0 DUP2 SWAP1 POP SWAP2 SWAP1 POP JUMP JUMPDEST PUSH2 0x682 DUP2 PUSH2 0x670 JUMP JUMPDEST DUP3 MSTORE POP POP JUMP JUMPDEST PUSH0 PUSH1 0x20 DUP3 ADD SWAP1 POP PUSH2 0x69B PUSH0 DUP4 ADD DUP5 PUSH2 0x679 JUMP JUMPDEST SWAP3 SWAP2 POP POP JUMP JUMPDEST PUSH0 DUP1 REVERT JUMPDEST PUSH2 0x6AE DUP2 PUSH2 0x670 JUMP JUMPDEST DUP2 EQ PUSH2 0x6B8 JUMPI PUSH0 DUP1 REVERT JUMPDEST POP JUMP JUMPDEST PUSH0 DUP2 MLOAD SWAP1 POP PUSH2 0x6C9 DUP2 PUSH2 0x6A5 JUMP JUMPDEST SWAP3 SWAP2 POP POP JUMP JUMPDEST PUSH0 PUSH1 0x20 DUP3 DUP5 SUB SLT ISZERO PUSH2 0x6E4 JUMPI PUSH2 0x6E3 PUSH2 0x6A1 JUMP JUMPDEST JUMPDEST PUSH0 PUSH2 0x6F1 DUP5 DUP3 DUP6 ADD PUSH2 0x6BB JUMP JUMPDEST SWAP2 POP POP SWAP3 SWAP2 POP POP JUMP JUMPDEST PUSH0 PUSH10 0xFFFFFFFFFFFFFFFFFFFF DUP3 AND SWAP1 POP SWAP2 SWAP1 POP JUMP JUMPDEST PUSH2 0x718 DUP2 PUSH2 0x6FA JUMP JUMPDEST DUP2 EQ PUSH2 0x722 JUMPI PUSH0 DUP1 REVERT JUMPDEST POP JUMP JUMPDEST PUSH0 DUP2 MLOAD SWAP1 POP PUSH2 0x733 DUP2 PUSH2 0x70F JUMP JUMPDEST SWAP3 SWAP2 POP POP JUMP JUMPDEST PUSH0 DUP2 SWAP1 POP SWAP2 SWAP1 POP JUMP JUMPDEST PUSH2 0x74B DUP2 PUSH2 0x739 JUMP JUMPDEST DUP2 EQ PUSH2 0x755 JUMPI PUSH0 DUP1 REVERT JUMPDEST POP JUMP JUMPDEST PUSH0 DUP2 MLOAD SWAP1 POP PUSH2 0x766 DUP2 PUSH2 0x742 JUMP JUMPDEST SWAP3 SWAP2 POP POP JUMP JUMPDEST PUSH0 DUP1 PUSH0 DUP1 PUSH0 PUSH1 0xA0 DUP7 DUP9 SUB SLT ISZERO PUSH2 0x785 JUMPI PUSH2 0x784 PUSH2 0x6A1 JUMP JUMPDEST JUMPDEST PUSH0 PUSH2 0x792 DUP9 DUP3 DUP10 ADD PUSH2 0x725 JUMP JUMPDEST SWAP6 POP POP PUSH1 0x20 PUSH2 0x7A3 DUP9 DUP3 DUP10 ADD PUSH2 0x758 JUMP JUMPDEST SWAP5 POP POP PUSH1 0x40 PUSH2 0x7B4 DUP9 DUP3 DUP10 ADD PUSH2 0x6BB JUMP JUMPDEST SWAP4 POP POP PUSH1 0x60 PUSH2 0x7C5 DUP9 DUP3 DUP10 ADD PUSH2 0x6BB JUMP JUMPDEST SWAP3 POP POP PUSH1 0x80 PUSH2 0x7D6 DUP9 DUP3 DUP10 ADD PUSH2 0x725 JUMP JUMPDEST SWAP2 POP POP SWAP3 SWAP6 POP SWAP3 SWAP6 SWAP1 SWAP4 POP JUMP JUMPDEST PUSH0 PUSH1 0xFF DUP3 AND SWAP1 POP SWAP2 SWAP1 POP JUMP JUMPDEST PUSH2 0x7F8 DUP2 PUSH2 0x7E3 JUMP JUMPDEST DUP2 EQ PUSH2 0x802 JUMPI PUSH0 DUP1 REVERT JUMPDEST POP JUMP JUMPDEST PUSH0 DUP2 MLOAD SWAP1 POP PUSH2 0x813 DUP2 PUSH2 0x7EF JUMP JUMPDEST SWAP3 SWAP2 POP POP JUMP JUMPDEST PUSH0 PUSH1 0x20 DUP3 DUP5 SUB SLT ISZERO PUSH2 0x82E JUMPI PUSH2 0x82D PUSH2 0x6A1 JUMP JUMPDEST JUMPDEST PUSH0 PUSH2 0x83B DUP5 DUP3 DUP6 ADD PUSH2 0x805 JUMP JUMPDEST SWAP2 POP POP SWAP3 SWAP2 POP POP JUMP JUMPDEST PUSH32 0x4E487B7100000000000000000000000000000000000000000000000000000000 PUSH0 MSTORE PUSH1 0x11 PUSH1 0x4 MSTORE PUSH1 0x24 PUSH0 REVERT JUMPDEST PUSH0 DUP2 PUSH1 0x1 SHR SWAP1 POP SWAP2 SWAP1 POP JUMP JUMPDEST PUSH0 DUP1 DUP3 SWAP2 POP DUP4 SWAP1 POP JUMPDEST PUSH1 0x1 DUP6 GT ISZERO PUSH2 0x8C6 JUMPI DUP1 DUP7 DIV DUP2 GT ISZERO PUSH2 0x8A2 JUMPI PUSH2 0x8A1 PUSH2 0x844 JUMP JUMPDEST JUMPDEST PUSH1 0x1 DUP6 AND ISZERO PUSH2 0x8B1 JUMPI DUP1 DUP3 MUL SWAP2 POP JUMPDEST DUP1 DUP2 MUL SWAP1 POP PUSH2 0x8BF DUP6 PUSH2 0x871 JUMP JUMPDEST SWAP5 POP PUSH2 0x886 JUMP JUMPDEST SWAP5 POP SWAP5 SWAP3 POP POP POP JUMP JUMPDEST PUSH0 DUP3 PUSH2 0x8DE JUMPI PUSH1 0x1 SWAP1 POP PUSH2 0x999 JUMP JUMPDEST DUP2 PUSH2 0x8EB JUMPI PUSH0 SWAP1 POP PUSH2 0x999 JUMP JUMPDEST DUP2 PUSH1 0x1 DUP2 EQ PUSH2 0x901 JUMPI PUSH1 0x2 DUP2 EQ PUSH2 0x90B JUMPI PUSH2 0x93A JUMP JUMPDEST PUSH1 0x1 SWAP2 POP POP PUSH2 0x999 JUMP JUMPDEST PUSH1 0xFF DUP5 GT ISZERO PUSH2 0x91D JUMPI PUSH2 0x91C PUSH2 0x844 JUMP JUMPDEST JUMPDEST DUP4 PUSH1 0x2 EXP SWAP2 POP DUP5 DUP3 GT ISZERO PUSH2 0x934 JUMPI PUSH2 0x933 PUSH2 0x844 JUMP JUMPDEST JUMPDEST POP PUSH2 0x999 JUMP JUMPDEST POP PUSH1 0x20 DUP4 LT PUSH2 0x133 DUP4 LT AND PUSH1 0x4E DUP5 LT PUSH1 0xB DUP5 LT AND OR ISZERO PUSH2 0x96F JUMPI DUP3 DUP3 EXP SWAP1 POP DUP4 DUP2 GT ISZERO PUSH2 0x96A JUMPI PUSH2 0x969 PUSH2 0x844 JUMP JUMPDEST JUMPDEST PUSH2 0x999 JUMP JUMPDEST PUSH2 0x97C DUP5 DUP5 DUP5 PUSH1 0x1 PUSH2 0x87D JUMP JUMPDEST SWAP3 POP SWAP1 POP DUP2 DUP5 DIV DUP2 GT ISZERO PUSH2 0x993 JUMPI PUSH2 0x992 PUSH2 0x844 JUMP JUMPDEST JUMPDEST DUP2 DUP2 MUL SWAP1 POP JUMPDEST SWAP4 SWAP3 POP POP POP JUMP JUMPDEST PUSH0 PUSH2 0x9AA DUP3 PUSH2 0x670 JUMP JUMPDEST SWAP2 POP PUSH2 0x9B5 DUP4 PUSH2 0x7E3 JUMP JUMPDEST SWAP3 POP PUSH2 0x9E2 PUSH32 0xFFFFFFFFFFFFFFFFFFFFFFFFFFFFFFFFFFFFFFFFFFFFFFFFFFFFFFFFFFFFFFFF DUP5 DUP5 PUSH2 0x8CF JUMP JUMPDEST SWAP1 POP SWAP3 SWAP2 POP POP JUMP JUMPDEST PUSH0 PUSH2 0x9F4 DUP3 PUSH2 0x670 JUMP JUMPDEST SWAP2 POP PUSH2 0x9FF DUP4 PUSH2 0x670 JUMP JUMPDEST SWAP3 POP DUP3 DUP3 MUL PUSH2 0xA0D DUP2 PUSH2 0x670 JUMP JUMPDEST SWAP2 POP DUP3 DUP3 DIV DUP5 EQ DUP4 ISZERO OR PUSH2 0xA24 JUMPI PUSH2 0xA23 PUSH2 0x844 JUMP JUMPDEST JUMPDEST POP SWAP3 SWAP2 POP POP JUMP JUMPDEST PUSH32 0x4E487B7100000000000000000000000000000000000000000000000000000000 PUSH0 MSTORE PUSH1 0x12 PUSH1 0x4 MSTORE PUSH1 0x24 PUSH0 REVERT JUMPDEST PUSH0 PUSH2 0xA62 DUP3 PUSH2 0x670 JUMP JUMPDEST SWAP2 POP PUSH2 0xA6D DUP4 PUSH2 0x670 JUMP JUMPDEST SWAP3 POP DUP3 PUSH2 0xA7D JUMPI PUSH2 0xA7C PUSH2 0xA2B JUMP JUMPDEST JUMPDEST DUP3 DUP3 DIV SWAP1 POP SWAP3 SWAP2 POP POP JUMP JUMPDEST PUSH0 PUSH2 0xA92 DUP3 PUSH2 0x5A4 JUMP JUMPDEST SWAP1 POP SWAP2 SWAP1 POP JUMP JUMPDEST PUSH2 0xAA2 DUP2 PUSH2 0xA88 JUMP JUMPDEST DUP3 MSTORE POP POP JUMP JUMPDEST PUSH0 PUSH1 0x20 DUP3 ADD SWAP1 POP PUSH2 0xABB PUSH0 DUP4 ADD DUP5 PUSH2 0xA99 JUMP JUMPDEST SWAP3 SWAP2 POP POP JUMP JUMPDEST PUSH0 PUSH1 0x40 DUP3 ADD SWAP1 POP PUSH2 0xAD4 PUSH0 DUP4 ADD DUP6 PUSH2 0xA99 JUMP JUMPDEST PUSH2 0xAE1 PUSH1 0x20 DUP4 ADD DUP5 PUSH2 0x679 JUMP JUMPDEST SWAP4 SWAP3 POP POP POP JUMP JUMPDEST PUSH0 PUSH1 0x40 DUP3 ADD SWAP1 POP PUSH2 0xAFB PUSH0 DUP4 ADD DUP6 PUSH2 0x679 JUMP JUMPDEST PUSH2 0xB08 PUSH1 0x20 DUP4 ADD DUP5 PUSH2 0x679 JUMP JUMPDEST SWAP4 SWAP3 POP POP POP JUMP INVALID LOG2 PUSH5 0x6970667358 0x22 SLT KECCAK256 0xE7 0xE8 0xC5 JUMP PUSH24 0x12BFA50B76D5D9757055F4D57E9C18272271AA4727272AC4 MSTORE SAR 0xE PUSH5 0x736F6C6343 STOP ADDMOD XOR STOP CALLER "
		},
		"gasEstimates": {
			"creation": {
				"codeDepositCost": "577000",
				"executionCost": "infinite",
				"totalCost": "infinite"
			},
			"external": {
				"ecoCoin()": "infinite",
				"ethPriceFeed()": "infinite",
				"lastRebaseTimestamp()": "2469",
				"rebase()": "infinite"
			}
		},
		"methodIdentifiers": {
			"ecoCoin()": "acd6325c",
			"ethPriceFeed()": "af7665ce",
			"lastRebaseTimestamp()": "b86a2fd7",
			"rebase()": "af14052c"
		}
	},
	"abi": [
		{
			"inputs": [
				{
					"internalType": "address",
					"name": "_ecoCoin",
					"type": "address"
				},
				{
					"internalType": "address",
					"name": "_ethPriceFeed",
					"type": "address"
				}
			],
			"stateMutability": "nonpayable",
			"type": "constructor"
		},
		{
			"anonymous": false,
			"inputs": [
				{
					"indexed": false,
					"internalType": "uint256",
					"name": "prevSupply",
					"type": "uint256"
				},
				{
					"indexed": false,
					"internalType": "uint256",
					"name": "newSupply",
					"type": "uint256"
				}
			],
			"name": "Rebase",
			"type": "event"
		},
		{
			"inputs": [],
			"name": "ecoCoin",
			"outputs": [
				{
					"internalType": "contract EcoCoin",
					"name": "",
					"type": "address"
				}
			],
			"stateMutability": "view",
			"type": "function"
		},
		{
			"inputs": [],
			"name": "ethPriceFeed",
			"outputs": [
				{
					"internalType": "contract AggregatorV3Interface",
					"name": "",
					"type": "address"
				}
			],
			"stateMutability": "view",
			"type": "function"
		},
		{
			"inputs": [],
			"name": "lastRebaseTimestamp",
			"outputs": [
				{
					"internalType": "uint256",
					"name": "",
					"type": "uint256"
				}
			],
			"stateMutability": "view",
			"type": "function"
		},
		{
			"inputs": [],
			"name": "rebase",
			"outputs": [],
			"stateMutability": "nonpayable",
			"type": "function"
		}
	]
}